{
	"oracle.sol": {
		"UnilendV2oracle": {
			"abi": [
				{
					"inputs": [
						{
							"internalType": "address",
							"name": "weth",
							"type": "address"
						}
					],
					"stateMutability": "nonpayable",
					"type": "constructor"
				},
				{
					"anonymous": false,
					"inputs": [
						{
							"indexed": true,
							"internalType": "address",
							"name": "asset",
							"type": "address"
						},
						{
							"indexed": true,
							"internalType": "address",
							"name": "source",
							"type": "address"
						}
					],
					"name": "AssetOracleUpdated",
					"type": "event"
				},
				{
					"anonymous": false,
					"inputs": [
						{
							"indexed": true,
							"internalType": "address",
							"name": "previousOwner",
							"type": "address"
						},
						{
							"indexed": true,
							"internalType": "address",
							"name": "newOwner",
							"type": "address"
						}
					],
					"name": "OwnershipTransferred",
					"type": "event"
				},
				{
					"inputs": [],
					"name": "WETH",
					"outputs": [
						{
							"internalType": "address",
							"name": "",
							"type": "address"
						}
					],
					"stateMutability": "view",
					"type": "function"
				},
				{
					"inputs": [
						{
							"internalType": "address",
							"name": "",
							"type": "address"
						},
						{
							"internalType": "address",
							"name": "",
							"type": "address"
						}
					],
					"name": "aPrice",
					"outputs": [
						{
							"internalType": "uint256",
							"name": "",
							"type": "uint256"
						}
					],
					"stateMutability": "view",
					"type": "function"
				},
				{
					"inputs": [
						{
							"internalType": "address",
							"name": "token0",
							"type": "address"
						},
						{
							"internalType": "address",
							"name": "token1",
							"type": "address"
						},
						{
							"internalType": "uint256",
							"name": "amount",
							"type": "uint256"
						}
					],
					"name": "getAssetPrice",
					"outputs": [
						{
							"internalType": "uint256",
							"name": "_price",
							"type": "uint256"
						}
					],
					"stateMutability": "view",
					"type": "function"
				},
				{
					"inputs": [
						{
							"internalType": "address",
							"name": "asset",
							"type": "address"
						}
					],
					"name": "getChainLinkAssetPrice",
					"outputs": [
						{
							"internalType": "int256",
							"name": "price",
							"type": "int256"
						}
					],
					"stateMutability": "view",
					"type": "function"
				},
				{
					"inputs": [
						{
							"internalType": "contract AggregatorV3Interface",
							"name": "priceFeed",
							"type": "address"
						}
					],
					"name": "getLatestPrice",
					"outputs": [
						{
							"internalType": "int256",
							"name": "",
							"type": "int256"
						}
					],
					"stateMutability": "view",
					"type": "function"
				},
				{
					"inputs": [
						{
							"internalType": "address",
							"name": "token0",
							"type": "address"
						},
						{
							"internalType": "address",
							"name": "token1",
							"type": "address"
						}
					],
					"name": "getUniswapV3Price",
					"outputs": [
						{
							"internalType": "int256",
							"name": "",
							"type": "int256"
						}
					],
					"stateMutability": "view",
					"type": "function"
				},
				{
					"inputs": [],
					"name": "owner",
					"outputs": [
						{
							"internalType": "address",
							"name": "",
							"type": "address"
						}
					],
					"stateMutability": "view",
					"type": "function"
				},
				{
					"inputs": [],
					"name": "renounceOwnership",
					"outputs": [],
					"stateMutability": "nonpayable",
					"type": "function"
				},
				{
					"inputs": [
						{
							"internalType": "address[]",
							"name": "assets",
							"type": "address[]"
						},
						{
							"internalType": "address[]",
							"name": "sources",
							"type": "address[]"
						}
					],
					"name": "setAssetOracles",
					"outputs": [],
					"stateMutability": "nonpayable",
					"type": "function"
				},
				{
					"inputs": [
						{
							"internalType": "address",
							"name": "token0",
							"type": "address"
						},
						{
							"internalType": "address",
							"name": "token1",
							"type": "address"
						},
						{
							"internalType": "uint256",
							"name": "price",
							"type": "uint256"
						}
					],
					"name": "setTokenPrice",
					"outputs": [],
					"stateMutability": "nonpayable",
					"type": "function"
				},
				{
					"inputs": [
						{
							"internalType": "address",
							"name": "token0",
							"type": "address"
						},
						{
							"internalType": "address",
							"name": "token1",
							"type": "address"
						},
						{
							"internalType": "uint256",
							"name": "price",
							"type": "uint256"
						}
					],
					"name": "setTokenPriceB",
					"outputs": [],
					"stateMutability": "nonpayable",
					"type": "function"
				},
				{
					"inputs": [
						{
							"internalType": "address",
							"name": "newOwner",
							"type": "address"
						}
					],
					"name": "transferOwnership",
					"outputs": [],
					"stateMutability": "nonpayable",
					"type": "function"
				}
			],
			"devdoc": {
				"kind": "dev",
				"methods": {
					"owner()": {
						"details": "Returns the address of the current owner."
					},
					"renounceOwnership()": {
						"details": "Leaves the contract without owner. It will not be possible to call `onlyOwner` functions anymore. Can only be called by the current owner. NOTE: Renouncing ownership will leave the contract without an owner, thereby removing any functionality that is only available to the owner."
					},
					"transferOwnership(address)": {
						"details": "Transfers ownership of the contract to a new account (`newOwner`). Can only be called by the current owner."
					}
				},
				"version": 1
			},
			"evm": {
				"assembly": "    /* \"oracle.sol\":1009:4332  contract UnilendV2oracle is Ownable {... */\n  mstore(0x40, 0x80)\n    /* \"oracle.sol\":1258:1376  constructor(address weth) {... */\n  callvalue\n  dup1\n  iszero\n  tag_1\n  jumpi\n  0x00\n  dup1\n  revert\ntag_1:\n  pop\n  mload(0x40)\n  sub(codesize, bytecodeSize)\n  dup1\n  bytecodeSize\n  dup4\n  codecopy\n  dup2\n  dup2\n  add\n  0x40\n  mstore\n  dup2\n  add\n  swap1\n  tag_2\n  swap2\n  swap1\n  tag_3\n  jump\t// in\ntag_2:\n    /* \"lib/access/Ownable.sol\":867:899  _transferOwnership(_msgSender()) */\n  tag_7\n    /* \"lib/access/Ownable.sol\":886:898  _msgSender() */\n  tag_8\n    /* \"lib/access/Ownable.sol\":886:896  _msgSender */\n  shl(0x20, tag_9)\n    /* \"lib/access/Ownable.sol\":886:898  _msgSender() */\n  0x20\n  shr\n  jump\t// in\ntag_8:\n    /* \"lib/access/Ownable.sol\":867:885  _transferOwnership */\n  shl(0x20, tag_10)\n    /* \"lib/access/Ownable.sol\":867:899  _transferOwnership(_msgSender()) */\n  0x20\n  shr\n  jump\t// in\ntag_7:\n    /* \"oracle.sol\":1318:1319  0 */\n  0x00\n    /* \"oracle.sol\":1302:1320  weth != address(0) */\n  0xffffffffffffffffffffffffffffffffffffffff\n  and\n    /* \"oracle.sol\":1302:1306  weth */\n  dup2\n    /* \"oracle.sol\":1302:1320  weth != address(0) */\n  0xffffffffffffffffffffffffffffffffffffffff\n  and\n  sub\n    /* \"oracle.sol\":1294:1348  require(weth != address(0), \"UnilendV2: ZERO ADDRESS\") */\n  tag_12\n  jumpi\n  mload(0x40)\n  0x08c379a000000000000000000000000000000000000000000000000000000000\n  dup2\n  mstore\n  0x04\n  add\n  tag_13\n  swap1\n  tag_14\n  jump\t// in\ntag_13:\n  mload(0x40)\n  dup1\n  swap2\n  sub\n  swap1\n  revert\ntag_12:\n    /* \"oracle.sol\":1365:1369  weth */\n  dup1\n    /* \"oracle.sol\":1358:1362  WETH */\n  0x01\n  0x00\n    /* \"oracle.sol\":1358:1369  WETH = weth */\n  0x0100\n  exp\n  dup2\n  sload\n  dup2\n  0xffffffffffffffffffffffffffffffffffffffff\n  mul\n  not\n  and\n  swap1\n  dup4\n  0xffffffffffffffffffffffffffffffffffffffff\n  and\n  mul\n  or\n  swap1\n  sstore\n  pop\n    /* \"oracle.sol\":1258:1376  constructor(address weth) {... */\n  pop\n    /* \"oracle.sol\":1009:4332  contract UnilendV2oracle is Ownable {... */\n  jump(tag_15)\n    /* \"lib/utils/Context.sol\":587:683  function _msgSender() internal view virtual returns (address) {... */\ntag_9:\n    /* \"lib/utils/Context.sol\":640:647  address */\n  0x00\n    /* \"lib/utils/Context.sol\":666:676  msg.sender */\n  caller\n    /* \"lib/utils/Context.sol\":659:676  return msg.sender */\n  swap1\n  pop\n    /* \"lib/utils/Context.sol\":587:683  function _msgSender() internal view virtual returns (address) {... */\n  swap1\n  jump\t// out\n    /* \"lib/access/Ownable.sol\":2216:2403  function _transferOwnership(address newOwner) internal virtual {... */\ntag_10:\n    /* \"lib/access/Ownable.sol\":2289:2305  address oldOwner */\n  0x00\n    /* \"lib/access/Ownable.sol\":2308:2314  _owner */\n  dup1\n  0x00\n  swap1\n  sload\n  swap1\n  0x0100\n  exp\n  swap1\n  div\n  0xffffffffffffffffffffffffffffffffffffffff\n  and\n    /* \"lib/access/Ownable.sol\":2289:2314  address oldOwner = _owner */\n  swap1\n  pop\n    /* \"lib/access/Ownable.sol\":2333:2341  newOwner */\n  dup2\n    /* \"lib/access/Ownable.sol\":2324:2330  _owner */\n  0x00\n  dup1\n    /* \"lib/access/Ownable.sol\":2324:2341  _owner = newOwner */\n  0x0100\n  exp\n  dup2\n  sload\n  dup2\n  0xffffffffffffffffffffffffffffffffffffffff\n  mul\n  not\n  and\n  swap1\n  dup4\n  0xffffffffffffffffffffffffffffffffffffffff\n  and\n  mul\n  or\n  swap1\n  sstore\n  pop\n    /* \"lib/access/Ownable.sol\":2387:2395  newOwner */\n  dup2\n    /* \"lib/access/Ownable.sol\":2356:2396  OwnershipTransferred(oldOwner, newOwner) */\n  0xffffffffffffffffffffffffffffffffffffffff\n  and\n    /* \"lib/access/Ownable.sol\":2377:2385  oldOwner */\n  dup2\n    /* \"lib/access/Ownable.sol\":2356:2396  OwnershipTransferred(oldOwner, newOwner) */\n  0xffffffffffffffffffffffffffffffffffffffff\n  and\n  0x8be0079c531659141344cd1fd0a4f28419497f9722a3daafe3b4186f6b6457e0\n  mload(0x40)\n  mload(0x40)\n  dup1\n  swap2\n  sub\n  swap1\n  log3\n    /* \"lib/access/Ownable.sol\":2279:2403  {... */\n  pop\n    /* \"lib/access/Ownable.sol\":2216:2403  function _transferOwnership(address newOwner) internal virtual {... */\n  pop\n  jump\t// out\n    /* \"#utility.yul\":88:205   */\ntag_19:\n    /* \"#utility.yul\":197:198   */\n  0x00\n    /* \"#utility.yul\":194:195   */\n  dup1\n    /* \"#utility.yul\":187:199   */\n  revert\n    /* \"#utility.yul\":334:460   */\ntag_21:\n    /* \"#utility.yul\":371:378   */\n  0x00\n    /* \"#utility.yul\":411:453   */\n  0xffffffffffffffffffffffffffffffffffffffff\n    /* \"#utility.yul\":404:409   */\n  dup3\n    /* \"#utility.yul\":400:454   */\n  and\n    /* \"#utility.yul\":389:454   */\n  swap1\n  pop\n    /* \"#utility.yul\":334:460   */\n  swap2\n  swap1\n  pop\n  jump\t// out\n    /* \"#utility.yul\":466:562   */\ntag_22:\n    /* \"#utility.yul\":503:510   */\n  0x00\n    /* \"#utility.yul\":532:556   */\n  tag_34\n    /* \"#utility.yul\":550:555   */\n  dup3\n    /* \"#utility.yul\":532:556   */\n  tag_21\n  jump\t// in\ntag_34:\n    /* \"#utility.yul\":521:556   */\n  swap1\n  pop\n    /* \"#utility.yul\":466:562   */\n  swap2\n  swap1\n  pop\n  jump\t// out\n    /* \"#utility.yul\":568:690   */\ntag_23:\n    /* \"#utility.yul\":641:665   */\n  tag_36\n    /* \"#utility.yul\":659:664   */\n  dup2\n    /* \"#utility.yul\":641:665   */\n  tag_22\n  jump\t// in\ntag_36:\n    /* \"#utility.yul\":634:639   */\n  dup2\n    /* \"#utility.yul\":631:666   */\n  eq\n    /* \"#utility.yul\":621:684   */\n  tag_37\n  jumpi\n    /* \"#utility.yul\":680:681   */\n  0x00\n    /* \"#utility.yul\":677:678   */\n  dup1\n    /* \"#utility.yul\":670:682   */\n  revert\n    /* \"#utility.yul\":621:684   */\ntag_37:\n    /* \"#utility.yul\":568:690   */\n  pop\n  jump\t// out\n    /* \"#utility.yul\":696:839   */\ntag_24:\n    /* \"#utility.yul\":753:758   */\n  0x00\n    /* \"#utility.yul\":784:790   */\n  dup2\n    /* \"#utility.yul\":778:791   */\n  mload\n    /* \"#utility.yul\":769:791   */\n  swap1\n  pop\n    /* \"#utility.yul\":800:833   */\n  tag_39\n    /* \"#utility.yul\":827:832   */\n  dup2\n    /* \"#utility.yul\":800:833   */\n  tag_23\n  jump\t// in\ntag_39:\n    /* \"#utility.yul\":696:839   */\n  swap3\n  swap2\n  pop\n  pop\n  jump\t// out\n    /* \"#utility.yul\":845:1196   */\ntag_3:\n    /* \"#utility.yul\":915:921   */\n  0x00\n    /* \"#utility.yul\":964:966   */\n  0x20\n    /* \"#utility.yul\":952:961   */\n  dup3\n    /* \"#utility.yul\":943:950   */\n  dup5\n    /* \"#utility.yul\":939:962   */\n  sub\n    /* \"#utility.yul\":935:967   */\n  slt\n    /* \"#utility.yul\":932:1051   */\n  iszero\n  tag_41\n  jumpi\n    /* \"#utility.yul\":970:1049   */\n  tag_42\n  tag_19\n  jump\t// in\ntag_42:\n    /* \"#utility.yul\":932:1051   */\ntag_41:\n    /* \"#utility.yul\":1090:1091   */\n  0x00\n    /* \"#utility.yul\":1115:1179   */\n  tag_43\n    /* \"#utility.yul\":1171:1178   */\n  dup5\n    /* \"#utility.yul\":1162:1168   */\n  dup3\n    /* \"#utility.yul\":1151:1160   */\n  dup6\n    /* \"#utility.yul\":1147:1169   */\n  add\n    /* \"#utility.yul\":1115:1179   */\n  tag_24\n  jump\t// in\ntag_43:\n    /* \"#utility.yul\":1105:1179   */\n  swap2\n  pop\n    /* \"#utility.yul\":1061:1189   */\n  pop\n    /* \"#utility.yul\":845:1196   */\n  swap3\n  swap2\n  pop\n  pop\n  jump\t// out\n    /* \"#utility.yul\":1202:1371   */\ntag_25:\n    /* \"#utility.yul\":1286:1297   */\n  0x00\n    /* \"#utility.yul\":1320:1326   */\n  dup3\n    /* \"#utility.yul\":1315:1318   */\n  dup3\n    /* \"#utility.yul\":1308:1327   */\n  mstore\n    /* \"#utility.yul\":1360:1364   */\n  0x20\n    /* \"#utility.yul\":1355:1358   */\n  dup3\n    /* \"#utility.yul\":1351:1365   */\n  add\n    /* \"#utility.yul\":1336:1365   */\n  swap1\n  pop\n    /* \"#utility.yul\":1202:1371   */\n  swap3\n  swap2\n  pop\n  pop\n  jump\t// out\n    /* \"#utility.yul\":1377:1550   */\ntag_26:\n    /* \"#utility.yul\":1517:1542   */\n  0x556e696c656e6456323a205a45524f2041444452455353000000000000000000\n    /* \"#utility.yul\":1513:1514   */\n  0x00\n    /* \"#utility.yul\":1505:1511   */\n  dup3\n    /* \"#utility.yul\":1501:1515   */\n  add\n    /* \"#utility.yul\":1494:1543   */\n  mstore\n    /* \"#utility.yul\":1377:1550   */\n  pop\n  jump\t// out\n    /* \"#utility.yul\":1556:1922   */\ntag_27:\n    /* \"#utility.yul\":1698:1701   */\n  0x00\n    /* \"#utility.yul\":1719:1786   */\n  tag_47\n    /* \"#utility.yul\":1783:1785   */\n  0x17\n    /* \"#utility.yul\":1778:1781   */\n  dup4\n    /* \"#utility.yul\":1719:1786   */\n  tag_25\n  jump\t// in\ntag_47:\n    /* \"#utility.yul\":1712:1786   */\n  swap2\n  pop\n    /* \"#utility.yul\":1795:1888   */\n  tag_48\n    /* \"#utility.yul\":1884:1887   */\n  dup3\n    /* \"#utility.yul\":1795:1888   */\n  tag_26\n  jump\t// in\ntag_48:\n    /* \"#utility.yul\":1913:1915   */\n  0x20\n    /* \"#utility.yul\":1908:1911   */\n  dup3\n    /* \"#utility.yul\":1904:1916   */\n  add\n    /* \"#utility.yul\":1897:1916   */\n  swap1\n  pop\n    /* \"#utility.yul\":1556:1922   */\n  swap2\n  swap1\n  pop\n  jump\t// out\n    /* \"#utility.yul\":1928:2347   */\ntag_14:\n    /* \"#utility.yul\":2094:2098   */\n  0x00\n    /* \"#utility.yul\":2132:2134   */\n  0x20\n    /* \"#utility.yul\":2121:2130   */\n  dup3\n    /* \"#utility.yul\":2117:2135   */\n  add\n    /* \"#utility.yul\":2109:2135   */\n  swap1\n  pop\n    /* \"#utility.yul\":2181:2190   */\n  dup2\n    /* \"#utility.yul\":2175:2179   */\n  dup2\n    /* \"#utility.yul\":2171:2191   */\n  sub\n    /* \"#utility.yul\":2167:2168   */\n  0x00\n    /* \"#utility.yul\":2156:2165   */\n  dup4\n    /* \"#utility.yul\":2152:2169   */\n  add\n    /* \"#utility.yul\":2145:2192   */\n  mstore\n    /* \"#utility.yul\":2209:2340   */\n  tag_50\n    /* \"#utility.yul\":2335:2339   */\n  dup2\n    /* \"#utility.yul\":2209:2340   */\n  tag_27\n  jump\t// in\ntag_50:\n    /* \"#utility.yul\":2201:2340   */\n  swap1\n  pop\n    /* \"#utility.yul\":1928:2347   */\n  swap2\n  swap1\n  pop\n  jump\t// out\n    /* \"oracle.sol\":1009:4332  contract UnilendV2oracle is Ownable {... */\ntag_15:\n  dataSize(sub_0)\n  dup1\n  dataOffset(sub_0)\n  0x00\n  codecopy\n  0x00\n  return\nstop\n\nsub_0: assembly {\n        /* \"oracle.sol\":1009:4332  contract UnilendV2oracle is Ownable {... */\n      mstore(0x40, 0x80)\n      callvalue\n      dup1\n      iszero\n      tag_1\n      jumpi\n      0x00\n      dup1\n      revert\n    tag_1:\n      pop\n      jumpi(tag_2, lt(calldatasize, 0x04))\n      shr(0xe0, calldataload(0x00))\n      dup1\n      0x715018a6\n      gt\n      tag_15\n      jumpi\n      dup1\n      0x715018a6\n      eq\n      tag_9\n      jumpi\n      dup1\n      0x7bc6c34e\n      eq\n      tag_10\n      jumpi\n      dup1\n      0x8da5cb5b\n      eq\n      tag_11\n      jumpi\n      dup1\n      0xad5c4648\n      eq\n      tag_12\n      jumpi\n      dup1\n      0xf2fde38b\n      eq\n      tag_13\n      jumpi\n      dup1\n      0xf56730ac\n      eq\n      tag_14\n      jumpi\n      jump(tag_2)\n    tag_15:\n      dup1\n      0x16345f18\n      eq\n      tag_3\n      jumpi\n      dup1\n      0x3176fce1\n      eq\n      tag_4\n      jumpi\n      dup1\n      0x39c0f0c4\n      eq\n      tag_5\n      jumpi\n      dup1\n      0x3fbff512\n      eq\n      tag_6\n      jumpi\n      dup1\n      0x4cb3dc2e\n      eq\n      tag_7\n      jumpi\n      dup1\n      0x5b2e4dc5\n      eq\n      tag_8\n      jumpi\n    tag_2:\n      0x00\n      dup1\n      revert\n        /* \"oracle.sol\":1795:2190  function getLatestPrice(AggregatorV3Interface priceFeed)... */\n    tag_3:\n      tag_16\n      0x04\n      dup1\n      calldatasize\n      sub\n      dup2\n      add\n      swap1\n      tag_17\n      swap2\n      swap1\n      tag_18\n      jump\t// in\n    tag_17:\n      tag_19\n      jump\t// in\n    tag_16:\n      mload(0x40)\n      tag_20\n      swap2\n      swap1\n      tag_21\n      jump\t// in\n    tag_20:\n      mload(0x40)\n      dup1\n      swap2\n      sub\n      swap1\n      return\n        /* \"oracle.sol\":4175:4330  function setTokenPriceB(... */\n    tag_4:\n      tag_22\n      0x04\n      dup1\n      calldatasize\n      sub\n      dup2\n      add\n      swap1\n      tag_23\n      swap2\n      swap1\n      tag_24\n      jump\t// in\n    tag_23:\n      tag_25\n      jump\t// in\n    tag_22:\n      stop\n        /* \"oracle.sol\":3614:3885  function getUniswapV3Price(address token0, address token1)... */\n    tag_5:\n      tag_26\n      0x04\n      dup1\n      calldatasize\n      sub\n      dup2\n      add\n      swap1\n      tag_27\n      swap2\n      swap1\n      tag_28\n      jump\t// in\n    tag_27:\n      tag_29\n      jump\t// in\n    tag_26:\n      mload(0x40)\n      tag_30\n      swap2\n      swap1\n      tag_21\n      jump\t// in\n    tag_30:\n      mload(0x40)\n      dup1\n      swap2\n      sub\n      swap1\n      return\n        /* \"oracle.sol\":1382:1789  function setAssetOracles(... */\n    tag_6:\n      tag_31\n      0x04\n      dup1\n      calldatasize\n      sub\n      dup2\n      add\n      swap1\n      tag_32\n      swap2\n      swap1\n      tag_33\n      jump\t// in\n    tag_32:\n      tag_34\n      jump\t// in\n    tag_31:\n      stop\n        /* \"oracle.sol\":3959:4169  function setTokenPrice(... */\n    tag_7:\n      tag_35\n      0x04\n      dup1\n      calldatasize\n      sub\n      dup2\n      add\n      swap1\n      tag_36\n      swap2\n      swap1\n      tag_24\n      jump\t// in\n    tag_36:\n      tag_37\n      jump\t// in\n    tag_35:\n      stop\n        /* \"oracle.sol\":2502:3590  function getAssetPrice(... */\n    tag_8:\n      tag_38\n      0x04\n      dup1\n      calldatasize\n      sub\n      dup2\n      add\n      swap1\n      tag_39\n      swap2\n      swap1\n      tag_24\n      jump\t// in\n    tag_39:\n      tag_40\n      jump\t// in\n    tag_38:\n      mload(0x40)\n      tag_41\n      swap2\n      swap1\n      tag_42\n      jump\t// in\n    tag_41:\n      mload(0x40)\n      dup1\n      swap2\n      sub\n      swap1\n      return\n        /* \"lib/access/Ownable.sol\":1614:1715  function renounceOwnership() public virtual onlyOwner {... */\n    tag_9:\n      tag_43\n      tag_44\n      jump\t// in\n    tag_43:\n      stop\n        /* \"oracle.sol\":2196:2496  function getChainLinkAssetPrice(address asset)... */\n    tag_10:\n      tag_45\n      0x04\n      dup1\n      calldatasize\n      sub\n      dup2\n      add\n      swap1\n      tag_46\n      swap2\n      swap1\n      tag_47\n      jump\t// in\n    tag_46:\n      tag_48\n      jump\t// in\n    tag_45:\n      mload(0x40)\n      tag_49\n      swap2\n      swap1\n      tag_21\n      jump\t// in\n    tag_49:\n      mload(0x40)\n      dup1\n      swap2\n      sub\n      swap1\n      return\n        /* \"lib/access/Ownable.sol\":982:1067  function owner() public view virtual returns (address) {... */\n    tag_11:\n      tag_50\n      tag_51\n      jump\t// in\n    tag_50:\n      mload(0x40)\n      tag_52\n      swap2\n      swap1\n      tag_53\n      jump\t// in\n    tag_52:\n      mload(0x40)\n      dup1\n      swap2\n      sub\n      swap1\n      return\n        /* \"oracle.sol\":1084:1103  address public WETH */\n    tag_12:\n      tag_54\n      tag_55\n      jump\t// in\n    tag_54:\n      mload(0x40)\n      tag_56\n      swap2\n      swap1\n      tag_53\n      jump\t// in\n    tag_56:\n      mload(0x40)\n      dup1\n      swap2\n      sub\n      swap1\n      return\n        /* \"lib/access/Ownable.sol\":1864:2062  function transferOwnership(address newOwner) public virtual onlyOwner {... */\n    tag_13:\n      tag_57\n      0x04\n      dup1\n      calldatasize\n      sub\n      dup2\n      add\n      swap1\n      tag_58\n      swap2\n      swap1\n      tag_47\n      jump\t// in\n    tag_58:\n      tag_59\n      jump\t// in\n    tag_57:\n      stop\n        /* \"oracle.sol\":3891:3952  mapping(address => mapping(address => uint256)) public aPrice */\n    tag_14:\n      tag_60\n      0x04\n      dup1\n      calldatasize\n      sub\n      dup2\n      add\n      swap1\n      tag_61\n      swap2\n      swap1\n      tag_28\n      jump\t// in\n    tag_61:\n      tag_62\n      jump\t// in\n    tag_60:\n      mload(0x40)\n      tag_63\n      swap2\n      swap1\n      tag_42\n      jump\t// in\n    tag_63:\n      mload(0x40)\n      dup1\n      swap2\n      sub\n      swap1\n      return\n        /* \"oracle.sol\":1795:2190  function getLatestPrice(AggregatorV3Interface priceFeed)... */\n    tag_19:\n        /* \"oracle.sol\":1897:1903  int256 */\n      0x00\n        /* \"oracle.sol\":1978:1990  int256 price */\n      dup1\n        /* \"oracle.sol\":2134:2143  priceFeed */\n      dup3\n        /* \"oracle.sol\":2134:2159  priceFeed.latestRoundData */\n      0xffffffffffffffffffffffffffffffffffffffff\n      and\n      0xfeaf968c\n        /* \"oracle.sol\":2134:2161  priceFeed.latestRoundData() */\n      mload(0x40)\n      dup2\n      0xffffffff\n      and\n      0xe0\n      shl\n      dup2\n      mstore\n      0x04\n      add\n      0xa0\n      mload(0x40)\n      dup1\n      dup4\n      sub\n      dup2\n      dup7\n      gas\n      staticcall\n      iszero\n      dup1\n      iszero\n      tag_66\n      jumpi\n      returndatasize\n      0x00\n      dup1\n      returndatacopy\n      revert(0x00, returndatasize)\n    tag_66:\n      pop\n      pop\n      pop\n      pop\n      mload(0x40)\n      returndatasize\n      not(0x1f)\n      0x1f\n      dup3\n      add\n      and\n      dup3\n      add\n      dup1\n      0x40\n      mstore\n      pop\n      dup2\n      add\n      swap1\n      tag_67\n      swap2\n      swap1\n      tag_68\n      jump\t// in\n    tag_67:\n        /* \"oracle.sol\":1919:2161  (... */\n      pop\n      pop\n      pop\n      swap2\n      pop\n      pop\n        /* \"oracle.sol\":2178:2183  price */\n      dup1\n        /* \"oracle.sol\":2171:2183  return price */\n      swap2\n      pop\n      pop\n        /* \"oracle.sol\":1795:2190  function getLatestPrice(AggregatorV3Interface priceFeed)... */\n      swap2\n      swap1\n      pop\n      jump\t// out\n        /* \"oracle.sol\":4175:4330  function setTokenPriceB(... */\n    tag_25:\n        /* \"oracle.sol\":4318:4323  price */\n      dup1\n        /* \"oracle.sol\":4293:4299  aPrice */\n      0x03\n        /* \"oracle.sol\":4293:4307  aPrice[token0] */\n      0x00\n        /* \"oracle.sol\":4300:4306  token0 */\n      dup6\n        /* \"oracle.sol\":4293:4307  aPrice[token0] */\n      0xffffffffffffffffffffffffffffffffffffffff\n      and\n      0xffffffffffffffffffffffffffffffffffffffff\n      and\n      dup2\n      mstore\n      0x20\n      add\n      swap1\n      dup2\n      mstore\n      0x20\n      add\n      0x00\n      keccak256\n        /* \"oracle.sol\":4293:4315  aPrice[token0][token1] */\n      0x00\n        /* \"oracle.sol\":4308:4314  token1 */\n      dup5\n        /* \"oracle.sol\":4293:4315  aPrice[token0][token1] */\n      0xffffffffffffffffffffffffffffffffffffffff\n      and\n      0xffffffffffffffffffffffffffffffffffffffff\n      and\n      dup2\n      mstore\n      0x20\n      add\n      swap1\n      dup2\n      mstore\n      0x20\n      add\n      0x00\n      keccak256\n        /* \"oracle.sol\":4293:4323  aPrice[token0][token1] = price */\n      dup2\n      swap1\n      sstore\n      pop\n        /* \"oracle.sol\":4175:4330  function setTokenPriceB(... */\n      pop\n      pop\n      pop\n      jump\t// out\n        /* \"oracle.sol\":3614:3885  function getUniswapV3Price(address token0, address token1)... */\n    tag_29:\n        /* \"oracle.sol\":3718:3724  int256 */\n      0x00\n        /* \"oracle.sol\":3769:3770  0 */\n      dup1\n        /* \"oracle.sol\":3744:3750  aPrice */\n      0x03\n        /* \"oracle.sol\":3744:3758  aPrice[token0] */\n      0x00\n        /* \"oracle.sol\":3751:3757  token0 */\n      dup6\n        /* \"oracle.sol\":3744:3758  aPrice[token0] */\n      0xffffffffffffffffffffffffffffffffffffffff\n      and\n      0xffffffffffffffffffffffffffffffffffffffff\n      and\n      dup2\n      mstore\n      0x20\n      add\n      swap1\n      dup2\n      mstore\n      0x20\n      add\n      0x00\n      keccak256\n        /* \"oracle.sol\":3744:3766  aPrice[token0][token1] */\n      0x00\n        /* \"oracle.sol\":3759:3765  token1 */\n      dup5\n        /* \"oracle.sol\":3744:3766  aPrice[token0][token1] */\n      0xffffffffffffffffffffffffffffffffffffffff\n      and\n      0xffffffffffffffffffffffffffffffffffffffff\n      and\n      dup2\n      mstore\n      0x20\n      add\n      swap1\n      dup2\n      mstore\n      0x20\n      add\n      0x00\n      keccak256\n      sload\n        /* \"oracle.sol\":3744:3770  aPrice[token0][token1] > 0 */\n      gt\n        /* \"oracle.sol\":3740:3879  if (aPrice[token0][token1] > 0) {... */\n      iszero\n      tag_71\n      jumpi\n        /* \"oracle.sol\":3800:3806  aPrice */\n      0x03\n        /* \"oracle.sol\":3800:3814  aPrice[token0] */\n      0x00\n        /* \"oracle.sol\":3807:3813  token0 */\n      dup5\n        /* \"oracle.sol\":3800:3814  aPrice[token0] */\n      0xffffffffffffffffffffffffffffffffffffffff\n      and\n      0xffffffffffffffffffffffffffffffffffffffff\n      and\n      dup2\n      mstore\n      0x20\n      add\n      swap1\n      dup2\n      mstore\n      0x20\n      add\n      0x00\n      keccak256\n        /* \"oracle.sol\":3800:3822  aPrice[token0][token1] */\n      0x00\n        /* \"oracle.sol\":3815:3821  token1 */\n      dup4\n        /* \"oracle.sol\":3800:3822  aPrice[token0][token1] */\n      0xffffffffffffffffffffffffffffffffffffffff\n      and\n      0xffffffffffffffffffffffffffffffffffffffff\n      and\n      dup2\n      mstore\n      0x20\n      add\n      swap1\n      dup2\n      mstore\n      0x20\n      add\n      0x00\n      keccak256\n      sload\n        /* \"oracle.sol\":3786:3823  return int256(aPrice[token0][token1]) */\n      swap1\n      pop\n      jump(tag_70)\n        /* \"oracle.sol\":3740:3879  if (aPrice[token0][token1] > 0) {... */\n    tag_71:\n        /* \"oracle.sol\":3861:3868  1 ether */\n      0x0de0b6b3a7640000\n        /* \"oracle.sol\":3854:3868  return 1 ether */\n      swap1\n      pop\n        /* \"oracle.sol\":3614:3885  function getUniswapV3Price(address token0, address token1)... */\n    tag_70:\n      swap3\n      swap2\n      pop\n      pop\n      jump\t// out\n        /* \"oracle.sol\":1382:1789  function setAssetOracles(... */\n    tag_34:\n        /* \"lib/access/Ownable.sol\":1205:1217  _msgSender() */\n      tag_74\n        /* \"lib/access/Ownable.sol\":1205:1215  _msgSender */\n      tag_75\n        /* \"lib/access/Ownable.sol\":1205:1217  _msgSender() */\n      jump\t// in\n    tag_74:\n        /* \"lib/access/Ownable.sol\":1194:1217  owner() == _msgSender() */\n      0xffffffffffffffffffffffffffffffffffffffff\n      and\n        /* \"lib/access/Ownable.sol\":1194:1201  owner() */\n      tag_76\n        /* \"lib/access/Ownable.sol\":1194:1199  owner */\n      tag_51\n        /* \"lib/access/Ownable.sol\":1194:1201  owner() */\n      jump\t// in\n    tag_76:\n        /* \"lib/access/Ownable.sol\":1194:1217  owner() == _msgSender() */\n      0xffffffffffffffffffffffffffffffffffffffff\n      and\n      eq\n        /* \"lib/access/Ownable.sol\":1186:1254  require(owner() == _msgSender(), \"Ownable: caller is not the owner\") */\n      tag_77\n      jumpi\n      mload(0x40)\n      0x08c379a000000000000000000000000000000000000000000000000000000000\n      dup2\n      mstore\n      0x04\n      add\n      tag_78\n      swap1\n      tag_79\n      jump\t// in\n    tag_78:\n      mload(0x40)\n      dup1\n      swap2\n      sub\n      swap1\n      revert\n    tag_77:\n        /* \"oracle.sol\":1538:1545  sources */\n      dup2\n      dup2\n        /* \"oracle.sol\":1538:1552  sources.length */\n      swap1\n      pop\n        /* \"oracle.sol\":1521:1527  assets */\n      dup5\n      dup5\n        /* \"oracle.sol\":1521:1534  assets.length */\n      swap1\n      pop\n        /* \"oracle.sol\":1521:1552  assets.length == sources.length */\n      eq\n        /* \"oracle.sol\":1513:1583  require(assets.length == sources.length, \"INCONSISTENT_PARAMS_LENGTH\") */\n      tag_81\n      jumpi\n      mload(0x40)\n      0x08c379a000000000000000000000000000000000000000000000000000000000\n      dup2\n      mstore\n      0x04\n      add\n      tag_82\n      swap1\n      tag_83\n      jump\t// in\n    tag_82:\n      mload(0x40)\n      dup1\n      swap2\n      sub\n      swap1\n      revert\n    tag_81:\n        /* \"oracle.sol\":1599:1608  uint256 i */\n      0x00\n        /* \"oracle.sol\":1594:1783  for (uint256 i = 0; i < assets.length; i++) {... */\n    tag_84:\n        /* \"oracle.sol\":1618:1624  assets */\n      dup5\n      dup5\n        /* \"oracle.sol\":1618:1631  assets.length */\n      swap1\n      pop\n        /* \"oracle.sol\":1614:1615  i */\n      dup2\n        /* \"oracle.sol\":1614:1631  i < assets.length */\n      lt\n        /* \"oracle.sol\":1594:1783  for (uint256 i = 0; i < assets.length; i++) {... */\n      iszero\n      tag_85\n      jumpi\n        /* \"oracle.sol\":1701:1708  sources */\n      dup3\n      dup3\n        /* \"oracle.sol\":1709:1710  i */\n      dup3\n        /* \"oracle.sol\":1701:1711  sources[i] */\n      dup2\n      dup2\n      lt\n      tag_87\n      jumpi\n      tag_88\n      tag_89\n      jump\t// in\n    tag_88:\n    tag_87:\n      swap1\n      pop\n      0x20\n      mul\n      add\n      0x20\n      dup2\n      add\n      swap1\n      tag_90\n      swap2\n      swap1\n      tag_47\n      jump\t// in\n    tag_90:\n        /* \"oracle.sol\":1652:1665  assetsOracles */\n      0x02\n        /* \"oracle.sol\":1652:1676  assetsOracles[assets[i]] */\n      0x00\n        /* \"oracle.sol\":1666:1672  assets */\n      dup8\n      dup8\n        /* \"oracle.sol\":1673:1674  i */\n      dup6\n        /* \"oracle.sol\":1666:1675  assets[i] */\n      dup2\n      dup2\n      lt\n      tag_91\n      jumpi\n      tag_92\n      tag_89\n      jump\t// in\n    tag_92:\n    tag_91:\n      swap1\n      pop\n      0x20\n      mul\n      add\n      0x20\n      dup2\n      add\n      swap1\n      tag_93\n      swap2\n      swap1\n      tag_47\n      jump\t// in\n    tag_93:\n        /* \"oracle.sol\":1652:1676  assetsOracles[assets[i]] */\n      0xffffffffffffffffffffffffffffffffffffffff\n      and\n      0xffffffffffffffffffffffffffffffffffffffff\n      and\n      dup2\n      mstore\n      0x20\n      add\n      swap1\n      dup2\n      mstore\n      0x20\n      add\n      0x00\n      keccak256\n      0x00\n        /* \"oracle.sol\":1652:1712  assetsOracles[assets[i]] = AggregatorV3Interface(sources[i]) */\n      0x0100\n      exp\n      dup2\n      sload\n      dup2\n      0xffffffffffffffffffffffffffffffffffffffff\n      mul\n      not\n      and\n      swap1\n      dup4\n      0xffffffffffffffffffffffffffffffffffffffff\n      and\n      mul\n      or\n      swap1\n      sstore\n      pop\n        /* \"oracle.sol\":1761:1768  sources */\n      dup3\n      dup3\n        /* \"oracle.sol\":1769:1770  i */\n      dup3\n        /* \"oracle.sol\":1761:1771  sources[i] */\n      dup2\n      dup2\n      lt\n      tag_94\n      jumpi\n      tag_95\n      tag_89\n      jump\t// in\n    tag_95:\n    tag_94:\n      swap1\n      pop\n      0x20\n      mul\n      add\n      0x20\n      dup2\n      add\n      swap1\n      tag_96\n      swap2\n      swap1\n      tag_47\n      jump\t// in\n    tag_96:\n        /* \"oracle.sol\":1731:1772  AssetOracleUpdated(assets[i], sources[i]) */\n      0xffffffffffffffffffffffffffffffffffffffff\n      and\n        /* \"oracle.sol\":1750:1756  assets */\n      dup6\n      dup6\n        /* \"oracle.sol\":1757:1758  i */\n      dup4\n        /* \"oracle.sol\":1750:1759  assets[i] */\n      dup2\n      dup2\n      lt\n      tag_97\n      jumpi\n      tag_98\n      tag_89\n      jump\t// in\n    tag_98:\n    tag_97:\n      swap1\n      pop\n      0x20\n      mul\n      add\n      0x20\n      dup2\n      add\n      swap1\n      tag_99\n      swap2\n      swap1\n      tag_47\n      jump\t// in\n    tag_99:\n        /* \"oracle.sol\":1731:1772  AssetOracleUpdated(assets[i], sources[i]) */\n      0xffffffffffffffffffffffffffffffffffffffff\n      and\n      0x126a75207b8b11156ec1f4a0ad246f458582451fc5bee4b8a729a1a68886e132\n      mload(0x40)\n      mload(0x40)\n      dup1\n      swap2\n      sub\n      swap1\n      log3\n        /* \"oracle.sol\":1633:1636  i++ */\n      dup1\n      dup1\n      tag_100\n      swap1\n      tag_101\n      jump\t// in\n    tag_100:\n      swap2\n      pop\n      pop\n        /* \"oracle.sol\":1594:1783  for (uint256 i = 0; i < assets.length; i++) {... */\n      jump(tag_84)\n    tag_85:\n      pop\n        /* \"oracle.sol\":1382:1789  function setAssetOracles(... */\n      pop\n      pop\n      pop\n      pop\n      jump\t// out\n        /* \"oracle.sol\":3959:4169  function setTokenPrice(... */\n    tag_37:\n        /* \"oracle.sol\":4101:4106  price */\n      dup1\n        /* \"oracle.sol\":4076:4082  aPrice */\n      0x03\n        /* \"oracle.sol\":4076:4090  aPrice[token0] */\n      0x00\n        /* \"oracle.sol\":4083:4089  token0 */\n      dup6\n        /* \"oracle.sol\":4076:4090  aPrice[token0] */\n      0xffffffffffffffffffffffffffffffffffffffff\n      and\n      0xffffffffffffffffffffffffffffffffffffffff\n      and\n      dup2\n      mstore\n      0x20\n      add\n      swap1\n      dup2\n      mstore\n      0x20\n      add\n      0x00\n      keccak256\n        /* \"oracle.sol\":4076:4098  aPrice[token0][token1] */\n      0x00\n        /* \"oracle.sol\":4091:4097  token1 */\n      dup5\n        /* \"oracle.sol\":4076:4098  aPrice[token0][token1] */\n      0xffffffffffffffffffffffffffffffffffffffff\n      and\n      0xffffffffffffffffffffffffffffffffffffffff\n      and\n      dup2\n      mstore\n      0x20\n      add\n      swap1\n      dup2\n      mstore\n      0x20\n      add\n      0x00\n      keccak256\n        /* \"oracle.sol\":4076:4106  aPrice[token0][token1] = price */\n      dup2\n      swap1\n      sstore\n      pop\n        /* \"oracle.sol\":4141:4162  uint256(1).div(price) */\n      tag_103\n        /* \"oracle.sol\":4156:4161  price */\n      dup2\n        /* \"oracle.sol\":4149:4150  1 */\n      0x01\n        /* \"oracle.sol\":4141:4155  uint256(1).div */\n      tag_104\n      swap1\n        /* \"oracle.sol\":4141:4162  uint256(1).div(price) */\n      swap2\n      swap1\n      0xffffffff\n      and\n      jump\t// in\n    tag_103:\n        /* \"oracle.sol\":4116:4122  aPrice */\n      0x03\n        /* \"oracle.sol\":4116:4130  aPrice[token1] */\n      0x00\n        /* \"oracle.sol\":4123:4129  token1 */\n      dup5\n        /* \"oracle.sol\":4116:4130  aPrice[token1] */\n      0xffffffffffffffffffffffffffffffffffffffff\n      and\n      0xffffffffffffffffffffffffffffffffffffffff\n      and\n      dup2\n      mstore\n      0x20\n      add\n      swap1\n      dup2\n      mstore\n      0x20\n      add\n      0x00\n      keccak256\n        /* \"oracle.sol\":4116:4138  aPrice[token1][token0] */\n      0x00\n        /* \"oracle.sol\":4131:4137  token0 */\n      dup6\n        /* \"oracle.sol\":4116:4138  aPrice[token1][token0] */\n      0xffffffffffffffffffffffffffffffffffffffff\n      and\n      0xffffffffffffffffffffffffffffffffffffffff\n      and\n      dup2\n      mstore\n      0x20\n      add\n      swap1\n      dup2\n      mstore\n      0x20\n      add\n      0x00\n      keccak256\n        /* \"oracle.sol\":4116:4162  aPrice[token1][token0] = uint256(1).div(price) */\n      dup2\n      swap1\n      sstore\n      pop\n        /* \"oracle.sol\":3959:4169  function setTokenPrice(... */\n      pop\n      pop\n      pop\n      jump\t// out\n        /* \"oracle.sol\":2502:3590  function getAssetPrice(... */\n    tag_40:\n        /* \"oracle.sol\":2624:2638  uint256 _price */\n      0x00\n        /* \"oracle.sol\":2650:2663  int256 price0 */\n      dup1\n        /* \"oracle.sol\":2673:2686  int256 price1 */\n      0x00\n        /* \"oracle.sol\":2711:2715  WETH */\n      0x01\n      0x00\n      swap1\n      sload\n      swap1\n      0x0100\n      exp\n      swap1\n      div\n      0xffffffffffffffffffffffffffffffffffffffff\n      and\n        /* \"oracle.sol\":2701:2715  token0 == WETH */\n      0xffffffffffffffffffffffffffffffffffffffff\n      and\n        /* \"oracle.sol\":2701:2707  token0 */\n      dup7\n        /* \"oracle.sol\":2701:2715  token0 == WETH */\n      0xffffffffffffffffffffffffffffffffffffffff\n      and\n      eq\n        /* \"oracle.sol\":2701:2733  token0 == WETH && token1 != WETH */\n      dup1\n      iszero\n      tag_106\n      jumpi\n      pop\n        /* \"oracle.sol\":2729:2733  WETH */\n      0x01\n      0x00\n      swap1\n      sload\n      swap1\n      0x0100\n      exp\n      swap1\n      div\n      0xffffffffffffffffffffffffffffffffffffffff\n      and\n        /* \"oracle.sol\":2719:2733  token1 != WETH */\n      0xffffffffffffffffffffffffffffffffffffffff\n      and\n        /* \"oracle.sol\":2719:2725  token1 */\n      dup6\n        /* \"oracle.sol\":2719:2733  token1 != WETH */\n      0xffffffffffffffffffffffffffffffffffffffff\n      and\n      eq\n      iszero\n        /* \"oracle.sol\":2701:2733  token0 == WETH && token1 != WETH */\n    tag_106:\n        /* \"oracle.sol\":2697:3514  if (token0 == WETH && token1 != WETH) {... */\n      iszero\n      tag_107\n      jumpi\n        /* \"oracle.sol\":2758:2765  1 ether */\n      0x0de0b6b3a7640000\n        /* \"oracle.sol\":2749:2765  price0 = 1 ether */\n      swap2\n      pop\n        /* \"oracle.sol\":2788:2818  getChainLinkAssetPrice(token1) */\n      tag_108\n        /* \"oracle.sol\":2811:2817  token1 */\n      dup6\n        /* \"oracle.sol\":2788:2810  getChainLinkAssetPrice */\n      tag_48\n        /* \"oracle.sol\":2788:2818  getChainLinkAssetPrice(token1) */\n      jump\t// in\n    tag_108:\n        /* \"oracle.sol\":2779:2818  price1 = getChainLinkAssetPrice(token1) */\n      swap1\n      pop\n        /* \"oracle.sol\":2847:2848  0 */\n      0x00\n        /* \"oracle.sol\":2837:2843  price1 */\n      dup2\n        /* \"oracle.sol\":2837:2848  price1 <= 0 */\n      sgt\n        /* \"oracle.sol\":2833:2925  if (price1 <= 0) {... */\n      tag_109\n      jumpi\n        /* \"oracle.sol\":2877:2910  getUniswapV3Price(token0, token1) */\n      tag_110\n        /* \"oracle.sol\":2895:2901  token0 */\n      dup7\n        /* \"oracle.sol\":2903:2909  token1 */\n      dup7\n        /* \"oracle.sol\":2877:2894  getUniswapV3Price */\n      tag_29\n        /* \"oracle.sol\":2877:2910  getUniswapV3Price(token0, token1) */\n      jump\t// in\n    tag_110:\n        /* \"oracle.sol\":2868:2910  price1 = getUniswapV3Price(token0, token1) */\n      swap1\n      pop\n        /* \"oracle.sol\":2833:2925  if (price1 <= 0) {... */\n    tag_109:\n        /* \"oracle.sol\":2697:3514  if (token0 == WETH && token1 != WETH) {... */\n      jump(tag_111)\n    tag_107:\n        /* \"oracle.sol\":2955:2959  WETH */\n      0x01\n      0x00\n      swap1\n      sload\n      swap1\n      0x0100\n      exp\n      swap1\n      div\n      0xffffffffffffffffffffffffffffffffffffffff\n      and\n        /* \"oracle.sol\":2945:2959  token0 != WETH */\n      0xffffffffffffffffffffffffffffffffffffffff\n      and\n        /* \"oracle.sol\":2945:2951  token0 */\n      dup7\n        /* \"oracle.sol\":2945:2959  token0 != WETH */\n      0xffffffffffffffffffffffffffffffffffffffff\n      and\n      eq\n      iszero\n        /* \"oracle.sol\":2945:2977  token0 != WETH && token1 == WETH */\n      dup1\n      iszero\n      tag_112\n      jumpi\n      pop\n        /* \"oracle.sol\":2973:2977  WETH */\n      0x01\n      0x00\n      swap1\n      sload\n      swap1\n      0x0100\n      exp\n      swap1\n      div\n      0xffffffffffffffffffffffffffffffffffffffff\n      and\n        /* \"oracle.sol\":2963:2977  token1 == WETH */\n      0xffffffffffffffffffffffffffffffffffffffff\n      and\n        /* \"oracle.sol\":2963:2969  token1 */\n      dup6\n        /* \"oracle.sol\":2963:2977  token1 == WETH */\n      0xffffffffffffffffffffffffffffffffffffffff\n      and\n      eq\n        /* \"oracle.sol\":2945:2977  token0 != WETH && token1 == WETH */\n    tag_112:\n        /* \"oracle.sol\":2941:3514  if (token0 != WETH && token1 == WETH) {... */\n      iszero\n      tag_113\n      jumpi\n        /* \"oracle.sol\":3002:3032  getChainLinkAssetPrice(token0) */\n      tag_114\n        /* \"oracle.sol\":3025:3031  token0 */\n      dup7\n        /* \"oracle.sol\":3002:3024  getChainLinkAssetPrice */\n      tag_48\n        /* \"oracle.sol\":3002:3032  getChainLinkAssetPrice(token0) */\n      jump\t// in\n    tag_114:\n        /* \"oracle.sol\":2993:3032  price0 = getChainLinkAssetPrice(token0) */\n      swap2\n      pop\n        /* \"oracle.sol\":3055:3062  1 ether */\n      0x0de0b6b3a7640000\n        /* \"oracle.sol\":3046:3062  price1 = 1 ether */\n      swap1\n      pop\n        /* \"oracle.sol\":3091:3092  0 */\n      0x00\n        /* \"oracle.sol\":3081:3087  price0 */\n      dup3\n        /* \"oracle.sol\":3081:3092  price0 <= 0 */\n      sgt\n        /* \"oracle.sol\":3077:3169  if (price0 <= 0) {... */\n      tag_115\n      jumpi\n        /* \"oracle.sol\":3121:3154  getUniswapV3Price(token1, token0) */\n      tag_116\n        /* \"oracle.sol\":3139:3145  token1 */\n      dup6\n        /* \"oracle.sol\":3147:3153  token0 */\n      dup8\n        /* \"oracle.sol\":3121:3138  getUniswapV3Price */\n      tag_29\n        /* \"oracle.sol\":3121:3154  getUniswapV3Price(token1, token0) */\n      jump\t// in\n    tag_116:\n        /* \"oracle.sol\":3112:3154  price0 = getUniswapV3Price(token1, token0) */\n      swap2\n      pop\n        /* \"oracle.sol\":3077:3169  if (price0 <= 0) {... */\n    tag_115:\n        /* \"oracle.sol\":2941:3514  if (token0 != WETH && token1 == WETH) {... */\n      jump(tag_117)\n    tag_113:\n        /* \"oracle.sol\":3208:3238  getChainLinkAssetPrice(token0) */\n      tag_118\n        /* \"oracle.sol\":3231:3237  token0 */\n      dup7\n        /* \"oracle.sol\":3208:3230  getChainLinkAssetPrice */\n      tag_48\n        /* \"oracle.sol\":3208:3238  getChainLinkAssetPrice(token0) */\n      jump\t// in\n    tag_118:\n        /* \"oracle.sol\":3199:3238  price0 = getChainLinkAssetPrice(token0) */\n      swap2\n      pop\n        /* \"oracle.sol\":3261:3291  getChainLinkAssetPrice(token1) */\n      tag_119\n        /* \"oracle.sol\":3284:3290  token1 */\n      dup6\n        /* \"oracle.sol\":3261:3283  getChainLinkAssetPrice */\n      tag_48\n        /* \"oracle.sol\":3261:3291  getChainLinkAssetPrice(token1) */\n      jump\t// in\n    tag_119:\n        /* \"oracle.sol\":3252:3291  price1 = getChainLinkAssetPrice(token1) */\n      swap1\n      pop\n        /* \"oracle.sol\":3320:3321  0 */\n      0x00\n        /* \"oracle.sol\":3310:3316  price0 */\n      dup3\n        /* \"oracle.sol\":3310:3321  price0 <= 0 */\n      sgt\n        /* \"oracle.sol\":3306:3398  if (price0 <= 0) {... */\n      tag_120\n      jumpi\n        /* \"oracle.sol\":3350:3383  getUniswapV3Price(token1, token0) */\n      tag_121\n        /* \"oracle.sol\":3368:3374  token1 */\n      dup6\n        /* \"oracle.sol\":3376:3382  token0 */\n      dup8\n        /* \"oracle.sol\":3350:3367  getUniswapV3Price */\n      tag_29\n        /* \"oracle.sol\":3350:3383  getUniswapV3Price(token1, token0) */\n      jump\t// in\n    tag_121:\n        /* \"oracle.sol\":3341:3383  price0 = getUniswapV3Price(token1, token0) */\n      swap2\n      pop\n        /* \"oracle.sol\":3306:3398  if (price0 <= 0) {... */\n    tag_120:\n        /* \"oracle.sol\":3426:3427  0 */\n      0x00\n        /* \"oracle.sol\":3416:3422  price1 */\n      dup2\n        /* \"oracle.sol\":3416:3427  price1 <= 0 */\n      sgt\n        /* \"oracle.sol\":3412:3504  if (price1 <= 0) {... */\n      tag_122\n      jumpi\n        /* \"oracle.sol\":3456:3489  getUniswapV3Price(token0, token1) */\n      tag_123\n        /* \"oracle.sol\":3474:3480  token0 */\n      dup7\n        /* \"oracle.sol\":3482:3488  token1 */\n      dup7\n        /* \"oracle.sol\":3456:3473  getUniswapV3Price */\n      tag_29\n        /* \"oracle.sol\":3456:3489  getUniswapV3Price(token0, token1) */\n      jump\t// in\n    tag_123:\n        /* \"oracle.sol\":3447:3489  price1 = getUniswapV3Price(token0, token1) */\n      swap1\n      pop\n        /* \"oracle.sol\":3412:3504  if (price1 <= 0) {... */\n    tag_122:\n        /* \"oracle.sol\":2941:3514  if (token0 != WETH && token1 == WETH) {... */\n    tag_117:\n        /* \"oracle.sol\":2697:3514  if (token0 == WETH && token1 != WETH) {... */\n    tag_111:\n        /* \"oracle.sol\":3533:3583  (amount.mul(uint256(price1))).div(uint256(price0)) */\n      tag_124\n        /* \"oracle.sol\":3575:3581  price0 */\n      dup3\n        /* \"oracle.sol\":3534:3561  amount.mul(uint256(price1)) */\n      tag_125\n        /* \"oracle.sol\":3553:3559  price1 */\n      dup4\n        /* \"oracle.sol\":3534:3540  amount */\n      dup8\n        /* \"oracle.sol\":3534:3544  amount.mul */\n      tag_126\n      swap1\n        /* \"oracle.sol\":3534:3561  amount.mul(uint256(price1)) */\n      swap2\n      swap1\n      0xffffffff\n      and\n      jump\t// in\n    tag_125:\n        /* \"oracle.sol\":3533:3566  (amount.mul(uint256(price1))).div */\n      tag_104\n      swap1\n        /* \"oracle.sol\":3533:3583  (amount.mul(uint256(price1))).div(uint256(price0)) */\n      swap2\n      swap1\n      0xffffffff\n      and\n      jump\t// in\n    tag_124:\n        /* \"oracle.sol\":3524:3583  _price = (amount.mul(uint256(price1))).div(uint256(price0)) */\n      swap3\n      pop\n        /* \"oracle.sol\":2640:3590  {... */\n      pop\n      pop\n        /* \"oracle.sol\":2502:3590  function getAssetPrice(... */\n      swap4\n      swap3\n      pop\n      pop\n      pop\n      jump\t// out\n        /* \"lib/access/Ownable.sol\":1614:1715  function renounceOwnership() public virtual onlyOwner {... */\n    tag_44:\n        /* \"lib/access/Ownable.sol\":1205:1217  _msgSender() */\n      tag_128\n        /* \"lib/access/Ownable.sol\":1205:1215  _msgSender */\n      tag_75\n        /* \"lib/access/Ownable.sol\":1205:1217  _msgSender() */\n      jump\t// in\n    tag_128:\n        /* \"lib/access/Ownable.sol\":1194:1217  owner() == _msgSender() */\n      0xffffffffffffffffffffffffffffffffffffffff\n      and\n        /* \"lib/access/Ownable.sol\":1194:1201  owner() */\n      tag_129\n        /* \"lib/access/Ownable.sol\":1194:1199  owner */\n      tag_51\n        /* \"lib/access/Ownable.sol\":1194:1201  owner() */\n      jump\t// in\n    tag_129:\n        /* \"lib/access/Ownable.sol\":1194:1217  owner() == _msgSender() */\n      0xffffffffffffffffffffffffffffffffffffffff\n      and\n      eq\n        /* \"lib/access/Ownable.sol\":1186:1254  require(owner() == _msgSender(), \"Ownable: caller is not the owner\") */\n      tag_130\n      jumpi\n      mload(0x40)\n      0x08c379a000000000000000000000000000000000000000000000000000000000\n      dup2\n      mstore\n      0x04\n      add\n      tag_131\n      swap1\n      tag_79\n      jump\t// in\n    tag_131:\n      mload(0x40)\n      dup1\n      swap2\n      sub\n      swap1\n      revert\n    tag_130:\n        /* \"lib/access/Ownable.sol\":1678:1708  _transferOwnership(address(0)) */\n      tag_133\n        /* \"lib/access/Ownable.sol\":1705:1706  0 */\n      0x00\n        /* \"lib/access/Ownable.sol\":1678:1696  _transferOwnership */\n      tag_134\n        /* \"lib/access/Ownable.sol\":1678:1708  _transferOwnership(address(0)) */\n      jump\t// in\n    tag_133:\n        /* \"lib/access/Ownable.sol\":1614:1715  function renounceOwnership() public virtual onlyOwner {... */\n      jump\t// out\n        /* \"oracle.sol\":2196:2496  function getChainLinkAssetPrice(address asset)... */\n    tag_48:\n        /* \"oracle.sol\":2288:2300  int256 price */\n      0x00\n        /* \"oracle.sol\":2316:2344  AggregatorV3Interface source */\n      dup1\n        /* \"oracle.sol\":2347:2360  assetsOracles */\n      0x02\n        /* \"oracle.sol\":2347:2367  assetsOracles[asset] */\n      0x00\n        /* \"oracle.sol\":2361:2366  asset */\n      dup5\n        /* \"oracle.sol\":2347:2367  assetsOracles[asset] */\n      0xffffffffffffffffffffffffffffffffffffffff\n      and\n      0xffffffffffffffffffffffffffffffffffffffff\n      and\n      dup2\n      mstore\n      0x20\n      add\n      swap1\n      dup2\n      mstore\n      0x20\n      add\n      0x00\n      keccak256\n      0x00\n      swap1\n      sload\n      swap1\n      0x0100\n      exp\n      swap1\n      div\n      0xffffffffffffffffffffffffffffffffffffffff\n      and\n        /* \"oracle.sol\":2316:2367  AggregatorV3Interface source = assetsOracles[asset] */\n      swap1\n      pop\n        /* \"oracle.sol\":2408:2409  0 */\n      0x00\n        /* \"oracle.sol\":2381:2410  address(source) != address(0) */\n      0xffffffffffffffffffffffffffffffffffffffff\n      and\n        /* \"oracle.sol\":2389:2395  source */\n      dup2\n        /* \"oracle.sol\":2381:2410  address(source) != address(0) */\n      0xffffffffffffffffffffffffffffffffffffffff\n      and\n      eq\n        /* \"oracle.sol\":2377:2490  if (address(source) != address(0)) {... */\n      tag_136\n      jumpi\n        /* \"oracle.sol\":2434:2479  getLatestPrice(AggregatorV3Interface(source)) */\n      tag_137\n        /* \"oracle.sol\":2471:2477  source */\n      dup2\n        /* \"oracle.sol\":2434:2448  getLatestPrice */\n      tag_19\n        /* \"oracle.sol\":2434:2479  getLatestPrice(AggregatorV3Interface(source)) */\n      jump\t// in\n    tag_137:\n        /* \"oracle.sol\":2426:2479  price = getLatestPrice(AggregatorV3Interface(source)) */\n      swap2\n      pop\n        /* \"oracle.sol\":2377:2490  if (address(source) != address(0)) {... */\n    tag_136:\n        /* \"oracle.sol\":2306:2496  {... */\n      pop\n        /* \"oracle.sol\":2196:2496  function getChainLinkAssetPrice(address asset)... */\n      swap2\n      swap1\n      pop\n      jump\t// out\n        /* \"lib/access/Ownable.sol\":982:1067  function owner() public view virtual returns (address) {... */\n    tag_51:\n        /* \"lib/access/Ownable.sol\":1028:1035  address */\n      0x00\n        /* \"lib/access/Ownable.sol\":1054:1060  _owner */\n      dup1\n      0x00\n      swap1\n      sload\n      swap1\n      0x0100\n      exp\n      swap1\n      div\n      0xffffffffffffffffffffffffffffffffffffffff\n      and\n        /* \"lib/access/Ownable.sol\":1047:1060  return _owner */\n      swap1\n      pop\n        /* \"lib/access/Ownable.sol\":982:1067  function owner() public view virtual returns (address) {... */\n      swap1\n      jump\t// out\n        /* \"oracle.sol\":1084:1103  address public WETH */\n    tag_55:\n      0x01\n      0x00\n      swap1\n      sload\n      swap1\n      0x0100\n      exp\n      swap1\n      div\n      0xffffffffffffffffffffffffffffffffffffffff\n      and\n      dup2\n      jump\t// out\n        /* \"lib/access/Ownable.sol\":1864:2062  function transferOwnership(address newOwner) public virtual onlyOwner {... */\n    tag_59:\n        /* \"lib/access/Ownable.sol\":1205:1217  _msgSender() */\n      tag_140\n        /* \"lib/access/Ownable.sol\":1205:1215  _msgSender */\n      tag_75\n        /* \"lib/access/Ownable.sol\":1205:1217  _msgSender() */\n      jump\t// in\n    tag_140:\n        /* \"lib/access/Ownable.sol\":1194:1217  owner() == _msgSender() */\n      0xffffffffffffffffffffffffffffffffffffffff\n      and\n        /* \"lib/access/Ownable.sol\":1194:1201  owner() */\n      tag_141\n        /* \"lib/access/Ownable.sol\":1194:1199  owner */\n      tag_51\n        /* \"lib/access/Ownable.sol\":1194:1201  owner() */\n      jump\t// in\n    tag_141:\n        /* \"lib/access/Ownable.sol\":1194:1217  owner() == _msgSender() */\n      0xffffffffffffffffffffffffffffffffffffffff\n      and\n      eq\n        /* \"lib/access/Ownable.sol\":1186:1254  require(owner() == _msgSender(), \"Ownable: caller is not the owner\") */\n      tag_142\n      jumpi\n      mload(0x40)\n      0x08c379a000000000000000000000000000000000000000000000000000000000\n      dup2\n      mstore\n      0x04\n      add\n      tag_143\n      swap1\n      tag_79\n      jump\t// in\n    tag_143:\n      mload(0x40)\n      dup1\n      swap2\n      sub\n      swap1\n      revert\n    tag_142:\n        /* \"lib/access/Ownable.sol\":1972:1973  0 */\n      0x00\n        /* \"lib/access/Ownable.sol\":1952:1974  newOwner != address(0) */\n      0xffffffffffffffffffffffffffffffffffffffff\n      and\n        /* \"lib/access/Ownable.sol\":1952:1960  newOwner */\n      dup2\n        /* \"lib/access/Ownable.sol\":1952:1974  newOwner != address(0) */\n      0xffffffffffffffffffffffffffffffffffffffff\n      and\n      sub\n        /* \"lib/access/Ownable.sol\":1944:2017  require(newOwner != address(0), \"Ownable: new owner is the zero address\") */\n      tag_145\n      jumpi\n      mload(0x40)\n      0x08c379a000000000000000000000000000000000000000000000000000000000\n      dup2\n      mstore\n      0x04\n      add\n      tag_146\n      swap1\n      tag_147\n      jump\t// in\n    tag_146:\n      mload(0x40)\n      dup1\n      swap2\n      sub\n      swap1\n      revert\n    tag_145:\n        /* \"lib/access/Ownable.sol\":2027:2055  _transferOwnership(newOwner) */\n      tag_148\n        /* \"lib/access/Ownable.sol\":2046:2054  newOwner */\n      dup2\n        /* \"lib/access/Ownable.sol\":2027:2045  _transferOwnership */\n      tag_134\n        /* \"lib/access/Ownable.sol\":2027:2055  _transferOwnership(newOwner) */\n      jump\t// in\n    tag_148:\n        /* \"lib/access/Ownable.sol\":1864:2062  function transferOwnership(address newOwner) public virtual onlyOwner {... */\n      pop\n      jump\t// out\n        /* \"oracle.sol\":3891:3952  mapping(address => mapping(address => uint256)) public aPrice */\n    tag_62:\n      mstore(0x20, 0x03)\n      dup2\n      0x00\n      mstore\n      mstore(0x20, keccak256(0x00, 0x40))\n      dup1\n      0x00\n      mstore\n      keccak256(0x00, 0x40)\n      0x00\n      swap2\n      pop\n      swap2\n      pop\n      pop\n      sload\n      dup2\n      jump\t// out\n        /* \"lib/utils/Context.sol\":587:683  function _msgSender() internal view virtual returns (address) {... */\n    tag_75:\n        /* \"lib/utils/Context.sol\":640:647  address */\n      0x00\n        /* \"lib/utils/Context.sol\":666:676  msg.sender */\n      caller\n        /* \"lib/utils/Context.sol\":659:676  return msg.sender */\n      swap1\n      pop\n        /* \"lib/utils/Context.sol\":587:683  function _msgSender() internal view virtual returns (address) {... */\n      swap1\n      jump\t// out\n        /* \"lib/utils/math/SafeMath.sol\":3767:3863  function div(uint256 a, uint256 b) internal pure returns (uint256) {... */\n    tag_104:\n        /* \"lib/utils/math/SafeMath.sol\":3825:3832  uint256 */\n      0x00\n        /* \"lib/utils/math/SafeMath.sol\":3855:3856  b */\n      dup2\n        /* \"lib/utils/math/SafeMath.sol\":3851:3852  a */\n      dup4\n        /* \"lib/utils/math/SafeMath.sol\":3851:3856  a / b */\n      tag_151\n      swap2\n      swap1\n      tag_152\n      jump\t// in\n    tag_151:\n        /* \"lib/utils/math/SafeMath.sol\":3844:3856  return a / b */\n      swap1\n      pop\n        /* \"lib/utils/math/SafeMath.sol\":3767:3863  function div(uint256 a, uint256 b) internal pure returns (uint256) {... */\n      swap3\n      swap2\n      pop\n      pop\n      jump\t// out\n        /* \"lib/utils/math/SafeMath.sol\":3382:3478  function mul(uint256 a, uint256 b) internal pure returns (uint256) {... */\n    tag_126:\n        /* \"lib/utils/math/SafeMath.sol\":3440:3447  uint256 */\n      0x00\n        /* \"lib/utils/math/SafeMath.sol\":3470:3471  b */\n      dup2\n        /* \"lib/utils/math/SafeMath.sol\":3466:3467  a */\n      dup4\n        /* \"lib/utils/math/SafeMath.sol\":3466:3471  a * b */\n      tag_154\n      swap2\n      swap1\n      tag_155\n      jump\t// in\n    tag_154:\n        /* \"lib/utils/math/SafeMath.sol\":3459:3471  return a * b */\n      swap1\n      pop\n        /* \"lib/utils/math/SafeMath.sol\":3382:3478  function mul(uint256 a, uint256 b) internal pure returns (uint256) {... */\n      swap3\n      swap2\n      pop\n      pop\n      jump\t// out\n        /* \"lib/access/Ownable.sol\":2216:2403  function _transferOwnership(address newOwner) internal virtual {... */\n    tag_134:\n        /* \"lib/access/Ownable.sol\":2289:2305  address oldOwner */\n      0x00\n        /* \"lib/access/Ownable.sol\":2308:2314  _owner */\n      dup1\n      0x00\n      swap1\n      sload\n      swap1\n      0x0100\n      exp\n      swap1\n      div\n      0xffffffffffffffffffffffffffffffffffffffff\n      and\n        /* \"lib/access/Ownable.sol\":2289:2314  address oldOwner = _owner */\n      swap1\n      pop\n        /* \"lib/access/Ownable.sol\":2333:2341  newOwner */\n      dup2\n        /* \"lib/access/Ownable.sol\":2324:2330  _owner */\n      0x00\n      dup1\n        /* \"lib/access/Ownable.sol\":2324:2341  _owner = newOwner */\n      0x0100\n      exp\n      dup2\n      sload\n      dup2\n      0xffffffffffffffffffffffffffffffffffffffff\n      mul\n      not\n      and\n      swap1\n      dup4\n      0xffffffffffffffffffffffffffffffffffffffff\n      and\n      mul\n      or\n      swap1\n      sstore\n      pop\n        /* \"lib/access/Ownable.sol\":2387:2395  newOwner */\n      dup2\n        /* \"lib/access/Ownable.sol\":2356:2396  OwnershipTransferred(oldOwner, newOwner) */\n      0xffffffffffffffffffffffffffffffffffffffff\n      and\n        /* \"lib/access/Ownable.sol\":2377:2385  oldOwner */\n      dup2\n        /* \"lib/access/Ownable.sol\":2356:2396  OwnershipTransferred(oldOwner, newOwner) */\n      0xffffffffffffffffffffffffffffffffffffffff\n      and\n      0x8be0079c531659141344cd1fd0a4f28419497f9722a3daafe3b4186f6b6457e0\n      mload(0x40)\n      mload(0x40)\n      dup1\n      swap2\n      sub\n      swap1\n      log3\n        /* \"lib/access/Ownable.sol\":2279:2403  {... */\n      pop\n        /* \"lib/access/Ownable.sol\":2216:2403  function _transferOwnership(address newOwner) internal virtual {... */\n      pop\n      jump\t// out\n        /* \"#utility.yul\":88:205   */\n    tag_158:\n        /* \"#utility.yul\":197:198   */\n      0x00\n        /* \"#utility.yul\":194:195   */\n      dup1\n        /* \"#utility.yul\":187:199   */\n      revert\n        /* \"#utility.yul\":211:328   */\n    tag_159:\n        /* \"#utility.yul\":320:321   */\n      0x00\n        /* \"#utility.yul\":317:318   */\n      dup1\n        /* \"#utility.yul\":310:322   */\n      revert\n        /* \"#utility.yul\":334:460   */\n    tag_160:\n        /* \"#utility.yul\":371:378   */\n      0x00\n        /* \"#utility.yul\":411:453   */\n      0xffffffffffffffffffffffffffffffffffffffff\n        /* \"#utility.yul\":404:409   */\n      dup3\n        /* \"#utility.yul\":400:454   */\n      and\n        /* \"#utility.yul\":389:454   */\n      swap1\n      pop\n        /* \"#utility.yul\":334:460   */\n      swap2\n      swap1\n      pop\n      jump\t// out\n        /* \"#utility.yul\":466:562   */\n    tag_161:\n        /* \"#utility.yul\":503:510   */\n      0x00\n        /* \"#utility.yul\":532:556   */\n      tag_199\n        /* \"#utility.yul\":550:555   */\n      dup3\n        /* \"#utility.yul\":532:556   */\n      tag_160\n      jump\t// in\n    tag_199:\n        /* \"#utility.yul\":521:556   */\n      swap1\n      pop\n        /* \"#utility.yul\":466:562   */\n      swap2\n      swap1\n      pop\n      jump\t// out\n        /* \"#utility.yul\":568:693   */\n    tag_162:\n        /* \"#utility.yul\":634:641   */\n      0x00\n        /* \"#utility.yul\":663:687   */\n      tag_201\n        /* \"#utility.yul\":681:686   */\n      dup3\n        /* \"#utility.yul\":663:687   */\n      tag_161\n      jump\t// in\n    tag_201:\n        /* \"#utility.yul\":652:687   */\n      swap1\n      pop\n        /* \"#utility.yul\":568:693   */\n      swap2\n      swap1\n      pop\n      jump\t// out\n        /* \"#utility.yul\":699:879   */\n    tag_163:\n        /* \"#utility.yul\":801:854   */\n      tag_203\n        /* \"#utility.yul\":848:853   */\n      dup2\n        /* \"#utility.yul\":801:854   */\n      tag_162\n      jump\t// in\n    tag_203:\n        /* \"#utility.yul\":794:799   */\n      dup2\n        /* \"#utility.yul\":791:855   */\n      eq\n        /* \"#utility.yul\":781:873   */\n      tag_204\n      jumpi\n        /* \"#utility.yul\":869:870   */\n      0x00\n        /* \"#utility.yul\":866:867   */\n      dup1\n        /* \"#utility.yul\":859:871   */\n      revert\n        /* \"#utility.yul\":781:873   */\n    tag_204:\n        /* \"#utility.yul\":699:879   */\n      pop\n      jump\t// out\n        /* \"#utility.yul\":885:1082   */\n    tag_164:\n        /* \"#utility.yul\":960:965   */\n      0x00\n        /* \"#utility.yul\":998:1004   */\n      dup2\n        /* \"#utility.yul\":985:1005   */\n      calldataload\n        /* \"#utility.yul\":976:1005   */\n      swap1\n      pop\n        /* \"#utility.yul\":1014:1076   */\n      tag_206\n        /* \"#utility.yul\":1070:1075   */\n      dup2\n        /* \"#utility.yul\":1014:1076   */\n      tag_163\n      jump\t// in\n    tag_206:\n        /* \"#utility.yul\":885:1082   */\n      swap3\n      swap2\n      pop\n      pop\n      jump\t// out\n        /* \"#utility.yul\":1088:1475   */\n    tag_18:\n        /* \"#utility.yul\":1176:1182   */\n      0x00\n        /* \"#utility.yul\":1225:1227   */\n      0x20\n        /* \"#utility.yul\":1213:1222   */\n      dup3\n        /* \"#utility.yul\":1204:1211   */\n      dup5\n        /* \"#utility.yul\":1200:1223   */\n      sub\n        /* \"#utility.yul\":1196:1228   */\n      slt\n        /* \"#utility.yul\":1193:1312   */\n      iszero\n      tag_208\n      jumpi\n        /* \"#utility.yul\":1231:1310   */\n      tag_209\n      tag_158\n      jump\t// in\n    tag_209:\n        /* \"#utility.yul\":1193:1312   */\n    tag_208:\n        /* \"#utility.yul\":1351:1352   */\n      0x00\n        /* \"#utility.yul\":1376:1458   */\n      tag_210\n        /* \"#utility.yul\":1450:1457   */\n      dup5\n        /* \"#utility.yul\":1441:1447   */\n      dup3\n        /* \"#utility.yul\":1430:1439   */\n      dup6\n        /* \"#utility.yul\":1426:1448   */\n      add\n        /* \"#utility.yul\":1376:1458   */\n      tag_164\n      jump\t// in\n    tag_210:\n        /* \"#utility.yul\":1366:1458   */\n      swap2\n      pop\n        /* \"#utility.yul\":1322:1468   */\n      pop\n        /* \"#utility.yul\":1088:1475   */\n      swap3\n      swap2\n      pop\n      pop\n      jump\t// out\n        /* \"#utility.yul\":1481:1557   */\n    tag_165:\n        /* \"#utility.yul\":1517:1524   */\n      0x00\n        /* \"#utility.yul\":1546:1551   */\n      dup2\n        /* \"#utility.yul\":1535:1551   */\n      swap1\n      pop\n        /* \"#utility.yul\":1481:1557   */\n      swap2\n      swap1\n      pop\n      jump\t// out\n        /* \"#utility.yul\":1563:1678   */\n    tag_166:\n        /* \"#utility.yul\":1648:1671   */\n      tag_213\n        /* \"#utility.yul\":1665:1670   */\n      dup2\n        /* \"#utility.yul\":1648:1671   */\n      tag_165\n      jump\t// in\n    tag_213:\n        /* \"#utility.yul\":1643:1646   */\n      dup3\n        /* \"#utility.yul\":1636:1672   */\n      mstore\n        /* \"#utility.yul\":1563:1678   */\n      pop\n      pop\n      jump\t// out\n        /* \"#utility.yul\":1684:1902   */\n    tag_21:\n        /* \"#utility.yul\":1775:1779   */\n      0x00\n        /* \"#utility.yul\":1813:1815   */\n      0x20\n        /* \"#utility.yul\":1802:1811   */\n      dup3\n        /* \"#utility.yul\":1798:1816   */\n      add\n        /* \"#utility.yul\":1790:1816   */\n      swap1\n      pop\n        /* \"#utility.yul\":1826:1895   */\n      tag_215\n        /* \"#utility.yul\":1892:1893   */\n      0x00\n        /* \"#utility.yul\":1881:1890   */\n      dup4\n        /* \"#utility.yul\":1877:1894   */\n      add\n        /* \"#utility.yul\":1868:1874   */\n      dup5\n        /* \"#utility.yul\":1826:1895   */\n      tag_166\n      jump\t// in\n    tag_215:\n        /* \"#utility.yul\":1684:1902   */\n      swap3\n      swap2\n      pop\n      pop\n      jump\t// out\n        /* \"#utility.yul\":1908:2030   */\n    tag_167:\n        /* \"#utility.yul\":1981:2005   */\n      tag_217\n        /* \"#utility.yul\":1999:2004   */\n      dup2\n        /* \"#utility.yul\":1981:2005   */\n      tag_161\n      jump\t// in\n    tag_217:\n        /* \"#utility.yul\":1974:1979   */\n      dup2\n        /* \"#utility.yul\":1971:2006   */\n      eq\n        /* \"#utility.yul\":1961:2024   */\n      tag_218\n      jumpi\n        /* \"#utility.yul\":2020:2021   */\n      0x00\n        /* \"#utility.yul\":2017:2018   */\n      dup1\n        /* \"#utility.yul\":2010:2022   */\n      revert\n        /* \"#utility.yul\":1961:2024   */\n    tag_218:\n        /* \"#utility.yul\":1908:2030   */\n      pop\n      jump\t// out\n        /* \"#utility.yul\":2036:2175   */\n    tag_168:\n        /* \"#utility.yul\":2082:2087   */\n      0x00\n        /* \"#utility.yul\":2120:2126   */\n      dup2\n        /* \"#utility.yul\":2107:2127   */\n      calldataload\n        /* \"#utility.yul\":2098:2127   */\n      swap1\n      pop\n        /* \"#utility.yul\":2136:2169   */\n      tag_220\n        /* \"#utility.yul\":2163:2168   */\n      dup2\n        /* \"#utility.yul\":2136:2169   */\n      tag_167\n      jump\t// in\n    tag_220:\n        /* \"#utility.yul\":2036:2175   */\n      swap3\n      swap2\n      pop\n      pop\n      jump\t// out\n        /* \"#utility.yul\":2181:2258   */\n    tag_169:\n        /* \"#utility.yul\":2218:2225   */\n      0x00\n        /* \"#utility.yul\":2247:2252   */\n      dup2\n        /* \"#utility.yul\":2236:2252   */\n      swap1\n      pop\n        /* \"#utility.yul\":2181:2258   */\n      swap2\n      swap1\n      pop\n      jump\t// out\n        /* \"#utility.yul\":2264:2386   */\n    tag_170:\n        /* \"#utility.yul\":2337:2361   */\n      tag_223\n        /* \"#utility.yul\":2355:2360   */\n      dup2\n        /* \"#utility.yul\":2337:2361   */\n      tag_169\n      jump\t// in\n    tag_223:\n        /* \"#utility.yul\":2330:2335   */\n      dup2\n        /* \"#utility.yul\":2327:2362   */\n      eq\n        /* \"#utility.yul\":2317:2380   */\n      tag_224\n      jumpi\n        /* \"#utility.yul\":2376:2377   */\n      0x00\n        /* \"#utility.yul\":2373:2374   */\n      dup1\n        /* \"#utility.yul\":2366:2378   */\n      revert\n        /* \"#utility.yul\":2317:2380   */\n    tag_224:\n        /* \"#utility.yul\":2264:2386   */\n      pop\n      jump\t// out\n        /* \"#utility.yul\":2392:2531   */\n    tag_171:\n        /* \"#utility.yul\":2438:2443   */\n      0x00\n        /* \"#utility.yul\":2476:2482   */\n      dup2\n        /* \"#utility.yul\":2463:2483   */\n      calldataload\n        /* \"#utility.yul\":2454:2483   */\n      swap1\n      pop\n        /* \"#utility.yul\":2492:2525   */\n      tag_226\n        /* \"#utility.yul\":2519:2524   */\n      dup2\n        /* \"#utility.yul\":2492:2525   */\n      tag_170\n      jump\t// in\n    tag_226:\n        /* \"#utility.yul\":2392:2531   */\n      swap3\n      swap2\n      pop\n      pop\n      jump\t// out\n        /* \"#utility.yul\":2537:3156   */\n    tag_24:\n        /* \"#utility.yul\":2614:2620   */\n      0x00\n        /* \"#utility.yul\":2622:2628   */\n      dup1\n        /* \"#utility.yul\":2630:2636   */\n      0x00\n        /* \"#utility.yul\":2679:2681   */\n      0x60\n        /* \"#utility.yul\":2667:2676   */\n      dup5\n        /* \"#utility.yul\":2658:2665   */\n      dup7\n        /* \"#utility.yul\":2654:2677   */\n      sub\n        /* \"#utility.yul\":2650:2682   */\n      slt\n        /* \"#utility.yul\":2647:2766   */\n      iszero\n      tag_228\n      jumpi\n        /* \"#utility.yul\":2685:2764   */\n      tag_229\n      tag_158\n      jump\t// in\n    tag_229:\n        /* \"#utility.yul\":2647:2766   */\n    tag_228:\n        /* \"#utility.yul\":2805:2806   */\n      0x00\n        /* \"#utility.yul\":2830:2883   */\n      tag_230\n        /* \"#utility.yul\":2875:2882   */\n      dup7\n        /* \"#utility.yul\":2866:2872   */\n      dup3\n        /* \"#utility.yul\":2855:2864   */\n      dup8\n        /* \"#utility.yul\":2851:2873   */\n      add\n        /* \"#utility.yul\":2830:2883   */\n      tag_168\n      jump\t// in\n    tag_230:\n        /* \"#utility.yul\":2820:2883   */\n      swap4\n      pop\n        /* \"#utility.yul\":2776:2893   */\n      pop\n        /* \"#utility.yul\":2932:2934   */\n      0x20\n        /* \"#utility.yul\":2958:3011   */\n      tag_231\n        /* \"#utility.yul\":3003:3010   */\n      dup7\n        /* \"#utility.yul\":2994:3000   */\n      dup3\n        /* \"#utility.yul\":2983:2992   */\n      dup8\n        /* \"#utility.yul\":2979:3001   */\n      add\n        /* \"#utility.yul\":2958:3011   */\n      tag_168\n      jump\t// in\n    tag_231:\n        /* \"#utility.yul\":2948:3011   */\n      swap3\n      pop\n        /* \"#utility.yul\":2903:3021   */\n      pop\n        /* \"#utility.yul\":3060:3062   */\n      0x40\n        /* \"#utility.yul\":3086:3139   */\n      tag_232\n        /* \"#utility.yul\":3131:3138   */\n      dup7\n        /* \"#utility.yul\":3122:3128   */\n      dup3\n        /* \"#utility.yul\":3111:3120   */\n      dup8\n        /* \"#utility.yul\":3107:3129   */\n      add\n        /* \"#utility.yul\":3086:3139   */\n      tag_171\n      jump\t// in\n    tag_232:\n        /* \"#utility.yul\":3076:3139   */\n      swap2\n      pop\n        /* \"#utility.yul\":3031:3149   */\n      pop\n        /* \"#utility.yul\":2537:3156   */\n      swap3\n      pop\n      swap3\n      pop\n      swap3\n      jump\t// out\n        /* \"#utility.yul\":3162:3636   */\n    tag_28:\n        /* \"#utility.yul\":3230:3236   */\n      0x00\n        /* \"#utility.yul\":3238:3244   */\n      dup1\n        /* \"#utility.yul\":3287:3289   */\n      0x40\n        /* \"#utility.yul\":3275:3284   */\n      dup4\n        /* \"#utility.yul\":3266:3273   */\n      dup6\n        /* \"#utility.yul\":3262:3285   */\n      sub\n        /* \"#utility.yul\":3258:3290   */\n      slt\n        /* \"#utility.yul\":3255:3374   */\n      iszero\n      tag_234\n      jumpi\n        /* \"#utility.yul\":3293:3372   */\n      tag_235\n      tag_158\n      jump\t// in\n    tag_235:\n        /* \"#utility.yul\":3255:3374   */\n    tag_234:\n        /* \"#utility.yul\":3413:3414   */\n      0x00\n        /* \"#utility.yul\":3438:3491   */\n      tag_236\n        /* \"#utility.yul\":3483:3490   */\n      dup6\n        /* \"#utility.yul\":3474:3480   */\n      dup3\n        /* \"#utility.yul\":3463:3472   */\n      dup7\n        /* \"#utility.yul\":3459:3481   */\n      add\n        /* \"#utility.yul\":3438:3491   */\n      tag_168\n      jump\t// in\n    tag_236:\n        /* \"#utility.yul\":3428:3491   */\n      swap3\n      pop\n        /* \"#utility.yul\":3384:3501   */\n      pop\n        /* \"#utility.yul\":3540:3542   */\n      0x20\n        /* \"#utility.yul\":3566:3619   */\n      tag_237\n        /* \"#utility.yul\":3611:3618   */\n      dup6\n        /* \"#utility.yul\":3602:3608   */\n      dup3\n        /* \"#utility.yul\":3591:3600   */\n      dup7\n        /* \"#utility.yul\":3587:3609   */\n      add\n        /* \"#utility.yul\":3566:3619   */\n      tag_168\n      jump\t// in\n    tag_237:\n        /* \"#utility.yul\":3556:3619   */\n      swap2\n      pop\n        /* \"#utility.yul\":3511:3629   */\n      pop\n        /* \"#utility.yul\":3162:3636   */\n      swap3\n      pop\n      swap3\n      swap1\n      pop\n      jump\t// out\n        /* \"#utility.yul\":3642:3759   */\n    tag_172:\n        /* \"#utility.yul\":3751:3752   */\n      0x00\n        /* \"#utility.yul\":3748:3749   */\n      dup1\n        /* \"#utility.yul\":3741:3753   */\n      revert\n        /* \"#utility.yul\":3765:3882   */\n    tag_173:\n        /* \"#utility.yul\":3874:3875   */\n      0x00\n        /* \"#utility.yul\":3871:3872   */\n      dup1\n        /* \"#utility.yul\":3864:3876   */\n      revert\n        /* \"#utility.yul\":3888:4005   */\n    tag_174:\n        /* \"#utility.yul\":3997:3998   */\n      0x00\n        /* \"#utility.yul\":3994:3995   */\n      dup1\n        /* \"#utility.yul\":3987:3999   */\n      revert\n        /* \"#utility.yul\":4028:4596   */\n    tag_175:\n        /* \"#utility.yul\":4101:4109   */\n      0x00\n        /* \"#utility.yul\":4111:4117   */\n      dup1\n        /* \"#utility.yul\":4161:4164   */\n      dup4\n        /* \"#utility.yul\":4154:4158   */\n      0x1f\n        /* \"#utility.yul\":4146:4152   */\n      dup5\n        /* \"#utility.yul\":4142:4159   */\n      add\n        /* \"#utility.yul\":4138:4165   */\n      slt\n        /* \"#utility.yul\":4128:4250   */\n      tag_242\n      jumpi\n        /* \"#utility.yul\":4169:4248   */\n      tag_243\n      tag_172\n      jump\t// in\n    tag_243:\n        /* \"#utility.yul\":4128:4250   */\n    tag_242:\n        /* \"#utility.yul\":4282:4288   */\n      dup3\n        /* \"#utility.yul\":4269:4289   */\n      calldataload\n        /* \"#utility.yul\":4259:4289   */\n      swap1\n      pop\n        /* \"#utility.yul\":4312:4330   */\n      0xffffffffffffffff\n        /* \"#utility.yul\":4304:4310   */\n      dup2\n        /* \"#utility.yul\":4301:4331   */\n      gt\n        /* \"#utility.yul\":4298:4415   */\n      iszero\n      tag_244\n      jumpi\n        /* \"#utility.yul\":4334:4413   */\n      tag_245\n      tag_173\n      jump\t// in\n    tag_245:\n        /* \"#utility.yul\":4298:4415   */\n    tag_244:\n        /* \"#utility.yul\":4448:4452   */\n      0x20\n        /* \"#utility.yul\":4440:4446   */\n      dup4\n        /* \"#utility.yul\":4436:4453   */\n      add\n        /* \"#utility.yul\":4424:4453   */\n      swap2\n      pop\n        /* \"#utility.yul\":4502:4505   */\n      dup4\n        /* \"#utility.yul\":4494:4498   */\n      0x20\n        /* \"#utility.yul\":4486:4492   */\n      dup3\n        /* \"#utility.yul\":4482:4499   */\n      mul\n        /* \"#utility.yul\":4472:4480   */\n      dup4\n        /* \"#utility.yul\":4468:4500   */\n      add\n        /* \"#utility.yul\":4465:4506   */\n      gt\n        /* \"#utility.yul\":4462:4590   */\n      iszero\n      tag_246\n      jumpi\n        /* \"#utility.yul\":4509:4588   */\n      tag_247\n      tag_174\n      jump\t// in\n    tag_247:\n        /* \"#utility.yul\":4462:4590   */\n    tag_246:\n        /* \"#utility.yul\":4028:4596   */\n      swap3\n      pop\n      swap3\n      swap1\n      pop\n      jump\t// out\n        /* \"#utility.yul\":4602:5536   */\n    tag_33:\n        /* \"#utility.yul\":4724:4730   */\n      0x00\n        /* \"#utility.yul\":4732:4738   */\n      dup1\n        /* \"#utility.yul\":4740:4746   */\n      0x00\n        /* \"#utility.yul\":4748:4754   */\n      dup1\n        /* \"#utility.yul\":4797:4799   */\n      0x40\n        /* \"#utility.yul\":4785:4794   */\n      dup6\n        /* \"#utility.yul\":4776:4783   */\n      dup8\n        /* \"#utility.yul\":4772:4795   */\n      sub\n        /* \"#utility.yul\":4768:4800   */\n      slt\n        /* \"#utility.yul\":4765:4884   */\n      iszero\n      tag_249\n      jumpi\n        /* \"#utility.yul\":4803:4882   */\n      tag_250\n      tag_158\n      jump\t// in\n    tag_250:\n        /* \"#utility.yul\":4765:4884   */\n    tag_249:\n        /* \"#utility.yul\":4951:4952   */\n      0x00\n        /* \"#utility.yul\":4940:4949   */\n      dup6\n        /* \"#utility.yul\":4936:4953   */\n      add\n        /* \"#utility.yul\":4923:4954   */\n      calldataload\n        /* \"#utility.yul\":4981:4999   */\n      0xffffffffffffffff\n        /* \"#utility.yul\":4973:4979   */\n      dup2\n        /* \"#utility.yul\":4970:5000   */\n      gt\n        /* \"#utility.yul\":4967:5084   */\n      iszero\n      tag_251\n      jumpi\n        /* \"#utility.yul\":5003:5082   */\n      tag_252\n      tag_159\n      jump\t// in\n    tag_252:\n        /* \"#utility.yul\":4967:5084   */\n    tag_251:\n        /* \"#utility.yul\":5116:5196   */\n      tag_253\n        /* \"#utility.yul\":5188:5195   */\n      dup8\n        /* \"#utility.yul\":5179:5185   */\n      dup3\n        /* \"#utility.yul\":5168:5177   */\n      dup9\n        /* \"#utility.yul\":5164:5186   */\n      add\n        /* \"#utility.yul\":5116:5196   */\n      tag_175\n      jump\t// in\n    tag_253:\n        /* \"#utility.yul\":5098:5196   */\n      swap5\n      pop\n      swap5\n      pop\n        /* \"#utility.yul\":4894:5206   */\n      pop\n        /* \"#utility.yul\":5273:5275   */\n      0x20\n        /* \"#utility.yul\":5262:5271   */\n      dup6\n        /* \"#utility.yul\":5258:5276   */\n      add\n        /* \"#utility.yul\":5245:5277   */\n      calldataload\n        /* \"#utility.yul\":5304:5322   */\n      0xffffffffffffffff\n        /* \"#utility.yul\":5296:5302   */\n      dup2\n        /* \"#utility.yul\":5293:5323   */\n      gt\n        /* \"#utility.yul\":5290:5407   */\n      iszero\n      tag_254\n      jumpi\n        /* \"#utility.yul\":5326:5405   */\n      tag_255\n      tag_159\n      jump\t// in\n    tag_255:\n        /* \"#utility.yul\":5290:5407   */\n    tag_254:\n        /* \"#utility.yul\":5439:5519   */\n      tag_256\n        /* \"#utility.yul\":5511:5518   */\n      dup8\n        /* \"#utility.yul\":5502:5508   */\n      dup3\n        /* \"#utility.yul\":5491:5500   */\n      dup9\n        /* \"#utility.yul\":5487:5509   */\n      add\n        /* \"#utility.yul\":5439:5519   */\n      tag_175\n      jump\t// in\n    tag_256:\n        /* \"#utility.yul\":5421:5519   */\n      swap3\n      pop\n      swap3\n      pop\n        /* \"#utility.yul\":5216:5529   */\n      pop\n        /* \"#utility.yul\":4602:5536   */\n      swap3\n      swap6\n      swap2\n      swap5\n      pop\n      swap3\n      pop\n      jump\t// out\n        /* \"#utility.yul\":5542:5660   */\n    tag_176:\n        /* \"#utility.yul\":5629:5653   */\n      tag_258\n        /* \"#utility.yul\":5647:5652   */\n      dup2\n        /* \"#utility.yul\":5629:5653   */\n      tag_169\n      jump\t// in\n    tag_258:\n        /* \"#utility.yul\":5624:5627   */\n      dup3\n        /* \"#utility.yul\":5617:5654   */\n      mstore\n        /* \"#utility.yul\":5542:5660   */\n      pop\n      pop\n      jump\t// out\n        /* \"#utility.yul\":5666:5888   */\n    tag_42:\n        /* \"#utility.yul\":5759:5763   */\n      0x00\n        /* \"#utility.yul\":5797:5799   */\n      0x20\n        /* \"#utility.yul\":5786:5795   */\n      dup3\n        /* \"#utility.yul\":5782:5800   */\n      add\n        /* \"#utility.yul\":5774:5800   */\n      swap1\n      pop\n        /* \"#utility.yul\":5810:5881   */\n      tag_260\n        /* \"#utility.yul\":5878:5879   */\n      0x00\n        /* \"#utility.yul\":5867:5876   */\n      dup4\n        /* \"#utility.yul\":5863:5880   */\n      add\n        /* \"#utility.yul\":5854:5860   */\n      dup5\n        /* \"#utility.yul\":5810:5881   */\n      tag_176\n      jump\t// in\n    tag_260:\n        /* \"#utility.yul\":5666:5888   */\n      swap3\n      swap2\n      pop\n      pop\n      jump\t// out\n        /* \"#utility.yul\":5894:6223   */\n    tag_47:\n        /* \"#utility.yul\":5953:5959   */\n      0x00\n        /* \"#utility.yul\":6002:6004   */\n      0x20\n        /* \"#utility.yul\":5990:5999   */\n      dup3\n        /* \"#utility.yul\":5981:5988   */\n      dup5\n        /* \"#utility.yul\":5977:6000   */\n      sub\n        /* \"#utility.yul\":5973:6005   */\n      slt\n        /* \"#utility.yul\":5970:6089   */\n      iszero\n      tag_262\n      jumpi\n        /* \"#utility.yul\":6008:6087   */\n      tag_263\n      tag_158\n      jump\t// in\n    tag_263:\n        /* \"#utility.yul\":5970:6089   */\n    tag_262:\n        /* \"#utility.yul\":6128:6129   */\n      0x00\n        /* \"#utility.yul\":6153:6206   */\n      tag_264\n        /* \"#utility.yul\":6198:6205   */\n      dup5\n        /* \"#utility.yul\":6189:6195   */\n      dup3\n        /* \"#utility.yul\":6178:6187   */\n      dup6\n        /* \"#utility.yul\":6174:6196   */\n      add\n        /* \"#utility.yul\":6153:6206   */\n      tag_168\n      jump\t// in\n    tag_264:\n        /* \"#utility.yul\":6143:6206   */\n      swap2\n      pop\n        /* \"#utility.yul\":6099:6216   */\n      pop\n        /* \"#utility.yul\":5894:6223   */\n      swap3\n      swap2\n      pop\n      pop\n      jump\t// out\n        /* \"#utility.yul\":6229:6347   */\n    tag_177:\n        /* \"#utility.yul\":6316:6340   */\n      tag_266\n        /* \"#utility.yul\":6334:6339   */\n      dup2\n        /* \"#utility.yul\":6316:6340   */\n      tag_161\n      jump\t// in\n    tag_266:\n        /* \"#utility.yul\":6311:6314   */\n      dup3\n        /* \"#utility.yul\":6304:6341   */\n      mstore\n        /* \"#utility.yul\":6229:6347   */\n      pop\n      pop\n      jump\t// out\n        /* \"#utility.yul\":6353:6575   */\n    tag_53:\n        /* \"#utility.yul\":6446:6450   */\n      0x00\n        /* \"#utility.yul\":6484:6486   */\n      0x20\n        /* \"#utility.yul\":6473:6482   */\n      dup3\n        /* \"#utility.yul\":6469:6487   */\n      add\n        /* \"#utility.yul\":6461:6487   */\n      swap1\n      pop\n        /* \"#utility.yul\":6497:6568   */\n      tag_268\n        /* \"#utility.yul\":6565:6566   */\n      0x00\n        /* \"#utility.yul\":6554:6563   */\n      dup4\n        /* \"#utility.yul\":6550:6567   */\n      add\n        /* \"#utility.yul\":6541:6547   */\n      dup5\n        /* \"#utility.yul\":6497:6568   */\n      tag_177\n      jump\t// in\n    tag_268:\n        /* \"#utility.yul\":6353:6575   */\n      swap3\n      swap2\n      pop\n      pop\n      jump\t// out\n        /* \"#utility.yul\":6581:6686   */\n    tag_178:\n        /* \"#utility.yul\":6617:6624   */\n      0x00\n        /* \"#utility.yul\":6657:6679   */\n      0xffffffffffffffffffff\n        /* \"#utility.yul\":6650:6655   */\n      dup3\n        /* \"#utility.yul\":6646:6680   */\n      and\n        /* \"#utility.yul\":6635:6680   */\n      swap1\n      pop\n        /* \"#utility.yul\":6581:6686   */\n      swap2\n      swap1\n      pop\n      jump\t// out\n        /* \"#utility.yul\":6692:6812   */\n    tag_179:\n        /* \"#utility.yul\":6764:6787   */\n      tag_271\n        /* \"#utility.yul\":6781:6786   */\n      dup2\n        /* \"#utility.yul\":6764:6787   */\n      tag_178\n      jump\t// in\n    tag_271:\n        /* \"#utility.yul\":6757:6762   */\n      dup2\n        /* \"#utility.yul\":6754:6788   */\n      eq\n        /* \"#utility.yul\":6744:6806   */\n      tag_272\n      jumpi\n        /* \"#utility.yul\":6802:6803   */\n      0x00\n        /* \"#utility.yul\":6799:6800   */\n      dup1\n        /* \"#utility.yul\":6792:6804   */\n      revert\n        /* \"#utility.yul\":6744:6806   */\n    tag_272:\n        /* \"#utility.yul\":6692:6812   */\n      pop\n      jump\t// out\n        /* \"#utility.yul\":6818:6959   */\n    tag_180:\n        /* \"#utility.yul\":6874:6879   */\n      0x00\n        /* \"#utility.yul\":6905:6911   */\n      dup2\n        /* \"#utility.yul\":6899:6912   */\n      mload\n        /* \"#utility.yul\":6890:6912   */\n      swap1\n      pop\n        /* \"#utility.yul\":6921:6953   */\n      tag_274\n        /* \"#utility.yul\":6947:6952   */\n      dup2\n        /* \"#utility.yul\":6921:6953   */\n      tag_179\n      jump\t// in\n    tag_274:\n        /* \"#utility.yul\":6818:6959   */\n      swap3\n      swap2\n      pop\n      pop\n      jump\t// out\n        /* \"#utility.yul\":6965:7085   */\n    tag_181:\n        /* \"#utility.yul\":7037:7060   */\n      tag_276\n        /* \"#utility.yul\":7054:7059   */\n      dup2\n        /* \"#utility.yul\":7037:7060   */\n      tag_165\n      jump\t// in\n    tag_276:\n        /* \"#utility.yul\":7030:7035   */\n      dup2\n        /* \"#utility.yul\":7027:7061   */\n      eq\n        /* \"#utility.yul\":7017:7079   */\n      tag_277\n      jumpi\n        /* \"#utility.yul\":7075:7076   */\n      0x00\n        /* \"#utility.yul\":7072:7073   */\n      dup1\n        /* \"#utility.yul\":7065:7077   */\n      revert\n        /* \"#utility.yul\":7017:7079   */\n    tag_277:\n        /* \"#utility.yul\":6965:7085   */\n      pop\n      jump\t// out\n        /* \"#utility.yul\":7091:7232   */\n    tag_182:\n        /* \"#utility.yul\":7147:7152   */\n      0x00\n        /* \"#utility.yul\":7178:7184   */\n      dup2\n        /* \"#utility.yul\":7172:7185   */\n      mload\n        /* \"#utility.yul\":7163:7185   */\n      swap1\n      pop\n        /* \"#utility.yul\":7194:7226   */\n      tag_279\n        /* \"#utility.yul\":7220:7225   */\n      dup2\n        /* \"#utility.yul\":7194:7226   */\n      tag_181\n      jump\t// in\n    tag_279:\n        /* \"#utility.yul\":7091:7232   */\n      swap3\n      swap2\n      pop\n      pop\n      jump\t// out\n        /* \"#utility.yul\":7238:7381   */\n    tag_183:\n        /* \"#utility.yul\":7295:7300   */\n      0x00\n        /* \"#utility.yul\":7326:7332   */\n      dup2\n        /* \"#utility.yul\":7320:7333   */\n      mload\n        /* \"#utility.yul\":7311:7333   */\n      swap1\n      pop\n        /* \"#utility.yul\":7342:7375   */\n      tag_281\n        /* \"#utility.yul\":7369:7374   */\n      dup2\n        /* \"#utility.yul\":7342:7375   */\n      tag_170\n      jump\t// in\n    tag_281:\n        /* \"#utility.yul\":7238:7381   */\n      swap3\n      swap2\n      pop\n      pop\n      jump\t// out\n        /* \"#utility.yul\":7387:8358   */\n    tag_68:\n        /* \"#utility.yul\":7490:7496   */\n      0x00\n        /* \"#utility.yul\":7498:7504   */\n      dup1\n        /* \"#utility.yul\":7506:7512   */\n      0x00\n        /* \"#utility.yul\":7514:7520   */\n      dup1\n        /* \"#utility.yul\":7522:7528   */\n      0x00\n        /* \"#utility.yul\":7571:7574   */\n      0xa0\n        /* \"#utility.yul\":7559:7568   */\n      dup7\n        /* \"#utility.yul\":7550:7557   */\n      dup9\n        /* \"#utility.yul\":7546:7569   */\n      sub\n        /* \"#utility.yul\":7542:7575   */\n      slt\n        /* \"#utility.yul\":7539:7659   */\n      iszero\n      tag_283\n      jumpi\n        /* \"#utility.yul\":7578:7657   */\n      tag_284\n      tag_158\n      jump\t// in\n    tag_284:\n        /* \"#utility.yul\":7539:7659   */\n    tag_283:\n        /* \"#utility.yul\":7698:7699   */\n      0x00\n        /* \"#utility.yul\":7723:7786   */\n      tag_285\n        /* \"#utility.yul\":7778:7785   */\n      dup9\n        /* \"#utility.yul\":7769:7775   */\n      dup3\n        /* \"#utility.yul\":7758:7767   */\n      dup10\n        /* \"#utility.yul\":7754:7776   */\n      add\n        /* \"#utility.yul\":7723:7786   */\n      tag_180\n      jump\t// in\n    tag_285:\n        /* \"#utility.yul\":7713:7786   */\n      swap6\n      pop\n        /* \"#utility.yul\":7669:7796   */\n      pop\n        /* \"#utility.yul\":7835:7837   */\n      0x20\n        /* \"#utility.yul\":7861:7924   */\n      tag_286\n        /* \"#utility.yul\":7916:7923   */\n      dup9\n        /* \"#utility.yul\":7907:7913   */\n      dup3\n        /* \"#utility.yul\":7896:7905   */\n      dup10\n        /* \"#utility.yul\":7892:7914   */\n      add\n        /* \"#utility.yul\":7861:7924   */\n      tag_182\n      jump\t// in\n    tag_286:\n        /* \"#utility.yul\":7851:7924   */\n      swap5\n      pop\n        /* \"#utility.yul\":7806:7934   */\n      pop\n        /* \"#utility.yul\":7973:7975   */\n      0x40\n        /* \"#utility.yul\":7999:8063   */\n      tag_287\n        /* \"#utility.yul\":8055:8062   */\n      dup9\n        /* \"#utility.yul\":8046:8052   */\n      dup3\n        /* \"#utility.yul\":8035:8044   */\n      dup10\n        /* \"#utility.yul\":8031:8053   */\n      add\n        /* \"#utility.yul\":7999:8063   */\n      tag_183\n      jump\t// in\n    tag_287:\n        /* \"#utility.yul\":7989:8063   */\n      swap4\n      pop\n        /* \"#utility.yul\":7944:8073   */\n      pop\n        /* \"#utility.yul\":8112:8114   */\n      0x60\n        /* \"#utility.yul\":8138:8202   */\n      tag_288\n        /* \"#utility.yul\":8194:8201   */\n      dup9\n        /* \"#utility.yul\":8185:8191   */\n      dup3\n        /* \"#utility.yul\":8174:8183   */\n      dup10\n        /* \"#utility.yul\":8170:8192   */\n      add\n        /* \"#utility.yul\":8138:8202   */\n      tag_183\n      jump\t// in\n    tag_288:\n        /* \"#utility.yul\":8128:8202   */\n      swap3\n      pop\n        /* \"#utility.yul\":8083:8212   */\n      pop\n        /* \"#utility.yul\":8251:8254   */\n      0x80\n        /* \"#utility.yul\":8278:8341   */\n      tag_289\n        /* \"#utility.yul\":8333:8340   */\n      dup9\n        /* \"#utility.yul\":8324:8330   */\n      dup3\n        /* \"#utility.yul\":8313:8322   */\n      dup10\n        /* \"#utility.yul\":8309:8331   */\n      add\n        /* \"#utility.yul\":8278:8341   */\n      tag_180\n      jump\t// in\n    tag_289:\n        /* \"#utility.yul\":8268:8341   */\n      swap2\n      pop\n        /* \"#utility.yul\":8222:8351   */\n      pop\n        /* \"#utility.yul\":7387:8358   */\n      swap3\n      swap6\n      pop\n      swap3\n      swap6\n      swap1\n      swap4\n      pop\n      jump\t// out\n        /* \"#utility.yul\":8364:8533   */\n    tag_184:\n        /* \"#utility.yul\":8448:8459   */\n      0x00\n        /* \"#utility.yul\":8482:8488   */\n      dup3\n        /* \"#utility.yul\":8477:8480   */\n      dup3\n        /* \"#utility.yul\":8470:8489   */\n      mstore\n        /* \"#utility.yul\":8522:8526   */\n      0x20\n        /* \"#utility.yul\":8517:8520   */\n      dup3\n        /* \"#utility.yul\":8513:8527   */\n      add\n        /* \"#utility.yul\":8498:8527   */\n      swap1\n      pop\n        /* \"#utility.yul\":8364:8533   */\n      swap3\n      swap2\n      pop\n      pop\n      jump\t// out\n        /* \"#utility.yul\":8539:8721   */\n    tag_185:\n        /* \"#utility.yul\":8679:8713   */\n      0x4f776e61626c653a2063616c6c6572206973206e6f7420746865206f776e6572\n        /* \"#utility.yul\":8675:8676   */\n      0x00\n        /* \"#utility.yul\":8667:8673   */\n      dup3\n        /* \"#utility.yul\":8663:8677   */\n      add\n        /* \"#utility.yul\":8656:8714   */\n      mstore\n        /* \"#utility.yul\":8539:8721   */\n      pop\n      jump\t// out\n        /* \"#utility.yul\":8727:9093   */\n    tag_186:\n        /* \"#utility.yul\":8869:8872   */\n      0x00\n        /* \"#utility.yul\":8890:8957   */\n      tag_293\n        /* \"#utility.yul\":8954:8956   */\n      0x20\n        /* \"#utility.yul\":8949:8952   */\n      dup4\n        /* \"#utility.yul\":8890:8957   */\n      tag_184\n      jump\t// in\n    tag_293:\n        /* \"#utility.yul\":8883:8957   */\n      swap2\n      pop\n        /* \"#utility.yul\":8966:9059   */\n      tag_294\n        /* \"#utility.yul\":9055:9058   */\n      dup3\n        /* \"#utility.yul\":8966:9059   */\n      tag_185\n      jump\t// in\n    tag_294:\n        /* \"#utility.yul\":9084:9086   */\n      0x20\n        /* \"#utility.yul\":9079:9082   */\n      dup3\n        /* \"#utility.yul\":9075:9087   */\n      add\n        /* \"#utility.yul\":9068:9087   */\n      swap1\n      pop\n        /* \"#utility.yul\":8727:9093   */\n      swap2\n      swap1\n      pop\n      jump\t// out\n        /* \"#utility.yul\":9099:9518   */\n    tag_79:\n        /* \"#utility.yul\":9265:9269   */\n      0x00\n        /* \"#utility.yul\":9303:9305   */\n      0x20\n        /* \"#utility.yul\":9292:9301   */\n      dup3\n        /* \"#utility.yul\":9288:9306   */\n      add\n        /* \"#utility.yul\":9280:9306   */\n      swap1\n      pop\n        /* \"#utility.yul\":9352:9361   */\n      dup2\n        /* \"#utility.yul\":9346:9350   */\n      dup2\n        /* \"#utility.yul\":9342:9362   */\n      sub\n        /* \"#utility.yul\":9338:9339   */\n      0x00\n        /* \"#utility.yul\":9327:9336   */\n      dup4\n        /* \"#utility.yul\":9323:9340   */\n      add\n        /* \"#utility.yul\":9316:9363   */\n      mstore\n        /* \"#utility.yul\":9380:9511   */\n      tag_296\n        /* \"#utility.yul\":9506:9510   */\n      dup2\n        /* \"#utility.yul\":9380:9511   */\n      tag_186\n      jump\t// in\n    tag_296:\n        /* \"#utility.yul\":9372:9511   */\n      swap1\n      pop\n        /* \"#utility.yul\":9099:9518   */\n      swap2\n      swap1\n      pop\n      jump\t// out\n        /* \"#utility.yul\":9524:9700   */\n    tag_187:\n        /* \"#utility.yul\":9664:9692   */\n      0x494e434f4e53495354454e545f504152414d535f4c454e475448000000000000\n        /* \"#utility.yul\":9660:9661   */\n      0x00\n        /* \"#utility.yul\":9652:9658   */\n      dup3\n        /* \"#utility.yul\":9648:9662   */\n      add\n        /* \"#utility.yul\":9641:9693   */\n      mstore\n        /* \"#utility.yul\":9524:9700   */\n      pop\n      jump\t// out\n        /* \"#utility.yul\":9706:10072   */\n    tag_188:\n        /* \"#utility.yul\":9848:9851   */\n      0x00\n        /* \"#utility.yul\":9869:9936   */\n      tag_299\n        /* \"#utility.yul\":9933:9935   */\n      0x1a\n        /* \"#utility.yul\":9928:9931   */\n      dup4\n        /* \"#utility.yul\":9869:9936   */\n      tag_184\n      jump\t// in\n    tag_299:\n        /* \"#utility.yul\":9862:9936   */\n      swap2\n      pop\n        /* \"#utility.yul\":9945:10038   */\n      tag_300\n        /* \"#utility.yul\":10034:10037   */\n      dup3\n        /* \"#utility.yul\":9945:10038   */\n      tag_187\n      jump\t// in\n    tag_300:\n        /* \"#utility.yul\":10063:10065   */\n      0x20\n        /* \"#utility.yul\":10058:10061   */\n      dup3\n        /* \"#utility.yul\":10054:10066   */\n      add\n        /* \"#utility.yul\":10047:10066   */\n      swap1\n      pop\n        /* \"#utility.yul\":9706:10072   */\n      swap2\n      swap1\n      pop\n      jump\t// out\n        /* \"#utility.yul\":10078:10497   */\n    tag_83:\n        /* \"#utility.yul\":10244:10248   */\n      0x00\n        /* \"#utility.yul\":10282:10284   */\n      0x20\n        /* \"#utility.yul\":10271:10280   */\n      dup3\n        /* \"#utility.yul\":10267:10285   */\n      add\n        /* \"#utility.yul\":10259:10285   */\n      swap1\n      pop\n        /* \"#utility.yul\":10331:10340   */\n      dup2\n        /* \"#utility.yul\":10325:10329   */\n      dup2\n        /* \"#utility.yul\":10321:10341   */\n      sub\n        /* \"#utility.yul\":10317:10318   */\n      0x00\n        /* \"#utility.yul\":10306:10315   */\n      dup4\n        /* \"#utility.yul\":10302:10319   */\n      add\n        /* \"#utility.yul\":10295:10342   */\n      mstore\n        /* \"#utility.yul\":10359:10490   */\n      tag_302\n        /* \"#utility.yul\":10485:10489   */\n      dup2\n        /* \"#utility.yul\":10359:10490   */\n      tag_188\n      jump\t// in\n    tag_302:\n        /* \"#utility.yul\":10351:10490   */\n      swap1\n      pop\n        /* \"#utility.yul\":10078:10497   */\n      swap2\n      swap1\n      pop\n      jump\t// out\n        /* \"#utility.yul\":10503:10683   */\n    tag_89:\n        /* \"#utility.yul\":10551:10628   */\n      0x4e487b7100000000000000000000000000000000000000000000000000000000\n        /* \"#utility.yul\":10548:10549   */\n      0x00\n        /* \"#utility.yul\":10541:10629   */\n      mstore\n        /* \"#utility.yul\":10648:10652   */\n      0x32\n        /* \"#utility.yul\":10645:10646   */\n      0x04\n        /* \"#utility.yul\":10638:10653   */\n      mstore\n        /* \"#utility.yul\":10672:10676   */\n      0x24\n        /* \"#utility.yul\":10669:10670   */\n      0x00\n        /* \"#utility.yul\":10662:10677   */\n      revert\n        /* \"#utility.yul\":10689:10869   */\n    tag_189:\n        /* \"#utility.yul\":10737:10814   */\n      0x4e487b7100000000000000000000000000000000000000000000000000000000\n        /* \"#utility.yul\":10734:10735   */\n      0x00\n        /* \"#utility.yul\":10727:10815   */\n      mstore\n        /* \"#utility.yul\":10834:10838   */\n      0x11\n        /* \"#utility.yul\":10831:10832   */\n      0x04\n        /* \"#utility.yul\":10824:10839   */\n      mstore\n        /* \"#utility.yul\":10858:10862   */\n      0x24\n        /* \"#utility.yul\":10855:10856   */\n      0x00\n        /* \"#utility.yul\":10848:10863   */\n      revert\n        /* \"#utility.yul\":10875:11108   */\n    tag_101:\n        /* \"#utility.yul\":10914:10917   */\n      0x00\n        /* \"#utility.yul\":10937:10961   */\n      tag_306\n        /* \"#utility.yul\":10955:10960   */\n      dup3\n        /* \"#utility.yul\":10937:10961   */\n      tag_169\n      jump\t// in\n    tag_306:\n        /* \"#utility.yul\":10928:10961   */\n      swap2\n      pop\n        /* \"#utility.yul\":10983:11049   */\n      0xffffffffffffffffffffffffffffffffffffffffffffffffffffffffffffffff\n        /* \"#utility.yul\":10976:10981   */\n      dup3\n        /* \"#utility.yul\":10973:11050   */\n      sub\n        /* \"#utility.yul\":10970:11073   */\n      tag_307\n      jumpi\n        /* \"#utility.yul\":11053:11071   */\n      tag_308\n      tag_189\n      jump\t// in\n    tag_308:\n        /* \"#utility.yul\":10970:11073   */\n    tag_307:\n        /* \"#utility.yul\":11100:11101   */\n      0x01\n        /* \"#utility.yul\":11093:11098   */\n      dup3\n        /* \"#utility.yul\":11089:11102   */\n      add\n        /* \"#utility.yul\":11082:11102   */\n      swap1\n      pop\n        /* \"#utility.yul\":10875:11108   */\n      swap2\n      swap1\n      pop\n      jump\t// out\n        /* \"#utility.yul\":11114:11339   */\n    tag_190:\n        /* \"#utility.yul\":11254:11288   */\n      0x4f776e61626c653a206e6577206f776e657220697320746865207a65726f2061\n        /* \"#utility.yul\":11250:11251   */\n      0x00\n        /* \"#utility.yul\":11242:11248   */\n      dup3\n        /* \"#utility.yul\":11238:11252   */\n      add\n        /* \"#utility.yul\":11231:11289   */\n      mstore\n        /* \"#utility.yul\":11323:11331   */\n      0x6464726573730000000000000000000000000000000000000000000000000000\n        /* \"#utility.yul\":11318:11320   */\n      0x20\n        /* \"#utility.yul\":11310:11316   */\n      dup3\n        /* \"#utility.yul\":11306:11321   */\n      add\n        /* \"#utility.yul\":11299:11332   */\n      mstore\n        /* \"#utility.yul\":11114:11339   */\n      pop\n      jump\t// out\n        /* \"#utility.yul\":11345:11711   */\n    tag_191:\n        /* \"#utility.yul\":11487:11490   */\n      0x00\n        /* \"#utility.yul\":11508:11575   */\n      tag_311\n        /* \"#utility.yul\":11572:11574   */\n      0x26\n        /* \"#utility.yul\":11567:11570   */\n      dup4\n        /* \"#utility.yul\":11508:11575   */\n      tag_184\n      jump\t// in\n    tag_311:\n        /* \"#utility.yul\":11501:11575   */\n      swap2\n      pop\n        /* \"#utility.yul\":11584:11677   */\n      tag_312\n        /* \"#utility.yul\":11673:11676   */\n      dup3\n        /* \"#utility.yul\":11584:11677   */\n      tag_190\n      jump\t// in\n    tag_312:\n        /* \"#utility.yul\":11702:11704   */\n      0x40\n        /* \"#utility.yul\":11697:11700   */\n      dup3\n        /* \"#utility.yul\":11693:11705   */\n      add\n        /* \"#utility.yul\":11686:11705   */\n      swap1\n      pop\n        /* \"#utility.yul\":11345:11711   */\n      swap2\n      swap1\n      pop\n      jump\t// out\n        /* \"#utility.yul\":11717:12136   */\n    tag_147:\n        /* \"#utility.yul\":11883:11887   */\n      0x00\n        /* \"#utility.yul\":11921:11923   */\n      0x20\n        /* \"#utility.yul\":11910:11919   */\n      dup3\n        /* \"#utility.yul\":11906:11924   */\n      add\n        /* \"#utility.yul\":11898:11924   */\n      swap1\n      pop\n        /* \"#utility.yul\":11970:11979   */\n      dup2\n        /* \"#utility.yul\":11964:11968   */\n      dup2\n        /* \"#utility.yul\":11960:11980   */\n      sub\n        /* \"#utility.yul\":11956:11957   */\n      0x00\n        /* \"#utility.yul\":11945:11954   */\n      dup4\n        /* \"#utility.yul\":11941:11958   */\n      add\n        /* \"#utility.yul\":11934:11981   */\n      mstore\n        /* \"#utility.yul\":11998:12129   */\n      tag_314\n        /* \"#utility.yul\":12124:12128   */\n      dup2\n        /* \"#utility.yul\":11998:12129   */\n      tag_191\n      jump\t// in\n    tag_314:\n        /* \"#utility.yul\":11990:12129   */\n      swap1\n      pop\n        /* \"#utility.yul\":11717:12136   */\n      swap2\n      swap1\n      pop\n      jump\t// out\n        /* \"#utility.yul\":12142:12322   */\n    tag_192:\n        /* \"#utility.yul\":12190:12267   */\n      0x4e487b7100000000000000000000000000000000000000000000000000000000\n        /* \"#utility.yul\":12187:12188   */\n      0x00\n        /* \"#utility.yul\":12180:12268   */\n      mstore\n        /* \"#utility.yul\":12287:12291   */\n      0x12\n        /* \"#utility.yul\":12284:12285   */\n      0x04\n        /* \"#utility.yul\":12277:12292   */\n      mstore\n        /* \"#utility.yul\":12311:12315   */\n      0x24\n        /* \"#utility.yul\":12308:12309   */\n      0x00\n        /* \"#utility.yul\":12301:12316   */\n      revert\n        /* \"#utility.yul\":12328:12513   */\n    tag_152:\n        /* \"#utility.yul\":12368:12369   */\n      0x00\n        /* \"#utility.yul\":12385:12405   */\n      tag_317\n        /* \"#utility.yul\":12403:12404   */\n      dup3\n        /* \"#utility.yul\":12385:12405   */\n      tag_169\n      jump\t// in\n    tag_317:\n        /* \"#utility.yul\":12380:12405   */\n      swap2\n      pop\n        /* \"#utility.yul\":12419:12439   */\n      tag_318\n        /* \"#utility.yul\":12437:12438   */\n      dup4\n        /* \"#utility.yul\":12419:12439   */\n      tag_169\n      jump\t// in\n    tag_318:\n        /* \"#utility.yul\":12414:12439   */\n      swap3\n      pop\n        /* \"#utility.yul\":12458:12459   */\n      dup3\n        /* \"#utility.yul\":12448:12483   */\n      tag_319\n      jumpi\n        /* \"#utility.yul\":12463:12481   */\n      tag_320\n      tag_192\n      jump\t// in\n    tag_320:\n        /* \"#utility.yul\":12448:12483   */\n    tag_319:\n        /* \"#utility.yul\":12505:12506   */\n      dup3\n        /* \"#utility.yul\":12502:12503   */\n      dup3\n        /* \"#utility.yul\":12498:12507   */\n      div\n        /* \"#utility.yul\":12493:12507   */\n      swap1\n      pop\n        /* \"#utility.yul\":12328:12513   */\n      swap3\n      swap2\n      pop\n      pop\n      jump\t// out\n        /* \"#utility.yul\":12519:12929   */\n    tag_155:\n        /* \"#utility.yul\":12559:12566   */\n      0x00\n        /* \"#utility.yul\":12582:12602   */\n      tag_322\n        /* \"#utility.yul\":12600:12601   */\n      dup3\n        /* \"#utility.yul\":12582:12602   */\n      tag_169\n      jump\t// in\n    tag_322:\n        /* \"#utility.yul\":12577:12602   */\n      swap2\n      pop\n        /* \"#utility.yul\":12616:12636   */\n      tag_323\n        /* \"#utility.yul\":12634:12635   */\n      dup4\n        /* \"#utility.yul\":12616:12636   */\n      tag_169\n      jump\t// in\n    tag_323:\n        /* \"#utility.yul\":12611:12636   */\n      swap3\n      pop\n        /* \"#utility.yul\":12671:12672   */\n      dup3\n        /* \"#utility.yul\":12668:12669   */\n      dup3\n        /* \"#utility.yul\":12664:12673   */\n      mul\n        /* \"#utility.yul\":12693:12723   */\n      tag_324\n        /* \"#utility.yul\":12711:12722   */\n      dup2\n        /* \"#utility.yul\":12693:12723   */\n      tag_169\n      jump\t// in\n    tag_324:\n        /* \"#utility.yul\":12682:12723   */\n      swap2\n      pop\n        /* \"#utility.yul\":12872:12873   */\n      dup3\n        /* \"#utility.yul\":12863:12870   */\n      dup3\n        /* \"#utility.yul\":12859:12874   */\n      div\n        /* \"#utility.yul\":12856:12857   */\n      dup5\n        /* \"#utility.yul\":12853:12875   */\n      eq\n        /* \"#utility.yul\":12833:12834   */\n      dup4\n        /* \"#utility.yul\":12826:12835   */\n      iszero\n        /* \"#utility.yul\":12806:12889   */\n      or\n        /* \"#utility.yul\":12783:12922   */\n      tag_325\n      jumpi\n        /* \"#utility.yul\":12902:12920   */\n      tag_326\n      tag_189\n      jump\t// in\n    tag_326:\n        /* \"#utility.yul\":12783:12922   */\n    tag_325:\n        /* \"#utility.yul\":12567:12929   */\n      pop\n        /* \"#utility.yul\":12519:12929   */\n      swap3\n      swap2\n      pop\n      pop\n      jump\t// out\n\n    auxdata: 0xa2646970667358221220c8e1b83740addfbd5738d716778813e79cae25f52b3a338dfa8d5516369b8c8e64736f6c63430008130033\n}\n",
				"bytecode": {
					"linkReferences": {},
					"object": "60806040523480156200001157600080fd5b506040516200180338038062001803833981810160405281019062000037919062000247565b620000576200004b6200011160201b60201c565b6200011960201b60201c565b600073ffffffffffffffffffffffffffffffffffffffff168173ffffffffffffffffffffffffffffffffffffffff1603620000c9576040517f08c379a0000000000000000000000000000000000000000000000000000000008152600401620000c090620002da565b60405180910390fd5b80600160006101000a81548173ffffffffffffffffffffffffffffffffffffffff021916908373ffffffffffffffffffffffffffffffffffffffff16021790555050620002fc565b600033905090565b60008060009054906101000a900473ffffffffffffffffffffffffffffffffffffffff169050816000806101000a81548173ffffffffffffffffffffffffffffffffffffffff021916908373ffffffffffffffffffffffffffffffffffffffff1602179055508173ffffffffffffffffffffffffffffffffffffffff168173ffffffffffffffffffffffffffffffffffffffff167f8be0079c531659141344cd1fd0a4f28419497f9722a3daafe3b4186f6b6457e060405160405180910390a35050565b600080fd5b600073ffffffffffffffffffffffffffffffffffffffff82169050919050565b60006200020f82620001e2565b9050919050565b620002218162000202565b81146200022d57600080fd5b50565b600081519050620002418162000216565b92915050565b60006020828403121562000260576200025f620001dd565b5b6000620002708482850162000230565b91505092915050565b600082825260208201905092915050565b7f556e696c656e6456323a205a45524f2041444452455353000000000000000000600082015250565b6000620002c260178362000279565b9150620002cf826200028a565b602082019050919050565b60006020820190508181036000830152620002f581620002b3565b9050919050565b6114f7806200030c6000396000f3fe608060405234801561001057600080fd5b50600436106100b45760003560e01c8063715018a611610071578063715018a61461019d5780637bc6c34e146101a75780638da5cb5b146101d7578063ad5c4648146101f5578063f2fde38b14610213578063f56730ac1461022f576100b4565b806316345f18146100b95780633176fce1146100e957806339c0f0c4146101055780633fbff512146101355780634cb3dc2e146101515780635b2e4dc51461016d575b600080fd5b6100d360048036038101906100ce9190610e43565b61025f565b6040516100e09190610e89565b60405180910390f35b61010360048036038101906100fe9190610f06565b6102e0565b005b61011f600480360381019061011a9190610f59565b610366565b60405161012c9190610e89565b60405180910390f35b61014f600480360381019061014a9190610ffe565b610482565b005b61016b60048036038101906101669190610f06565b6106e2565b005b61018760048036038101906101829190610f06565b6107fc565b604051610194919061108e565b60405180910390f35b6101a5610a33565b005b6101c160048036038101906101bc91906110a9565b610abb565b6040516101ce9190610e89565b60405180910390f35b6101df610b66565b6040516101ec91906110e5565b60405180910390f35b6101fd610b8f565b60405161020a91906110e5565b60405180910390f35b61022d600480360381019061022891906110a9565b610bb5565b005b61024960048036038101906102449190610f59565b610cac565b604051610256919061108e565b60405180910390f35b6000808273ffffffffffffffffffffffffffffffffffffffff1663feaf968c6040518163ffffffff1660e01b815260040160a060405180830381865afa1580156102ad573d6000803e3d6000fd5b505050506040513d601f19601f820116820180604052508101906102d19190611183565b50505091505080915050919050565b80600360008573ffffffffffffffffffffffffffffffffffffffff1673ffffffffffffffffffffffffffffffffffffffff16815260200190815260200160002060008473ffffffffffffffffffffffffffffffffffffffff1673ffffffffffffffffffffffffffffffffffffffff16815260200190815260200160002081905550505050565b600080600360008573ffffffffffffffffffffffffffffffffffffffff1673ffffffffffffffffffffffffffffffffffffffff16815260200190815260200160002060008473ffffffffffffffffffffffffffffffffffffffff1673ffffffffffffffffffffffffffffffffffffffff16815260200190815260200160002054111561047057600360008473ffffffffffffffffffffffffffffffffffffffff1673ffffffffffffffffffffffffffffffffffffffff16815260200190815260200160002060008373ffffffffffffffffffffffffffffffffffffffff1673ffffffffffffffffffffffffffffffffffffffff16815260200190815260200160002054905061047c565b670de0b6b3a764000090505b92915050565b61048a610cd1565b73ffffffffffffffffffffffffffffffffffffffff166104a8610b66565b73ffffffffffffffffffffffffffffffffffffffff16146104fe576040517f08c379a00000000000000000000000000000000000000000000000000000000081526004016104f59061125b565b60405180910390fd5b818190508484905014610546576040517f08c379a000000000000000000000000000000000000000000000000000000000815260040161053d906112c7565b60405180910390fd5b60005b848490508110156106db57828282818110610567576105666112e7565b5b905060200201602081019061057c91906110a9565b60026000878785818110610593576105926112e7565b5b90506020020160208101906105a891906110a9565b73ffffffffffffffffffffffffffffffffffffffff1673ffffffffffffffffffffffffffffffffffffffff16815260200190815260200160002060006101000a81548173ffffffffffffffffffffffffffffffffffffffff021916908373ffffffffffffffffffffffffffffffffffffffff160217905550828282818110610633576106326112e7565b5b905060200201602081019061064891906110a9565b73ffffffffffffffffffffffffffffffffffffffff16858583818110610671576106706112e7565b5b905060200201602081019061068691906110a9565b73ffffffffffffffffffffffffffffffffffffffff167f126a75207b8b11156ec1f4a0ad246f458582451fc5bee4b8a729a1a68886e13260405160405180910390a380806106d390611345565b915050610549565b5050505050565b80600360008573ffffffffffffffffffffffffffffffffffffffff1673ffffffffffffffffffffffffffffffffffffffff16815260200190815260200160002060008473ffffffffffffffffffffffffffffffffffffffff1673ffffffffffffffffffffffffffffffffffffffff16815260200190815260200160002081905550610777816001610cd990919063ffffffff16565b600360008473ffffffffffffffffffffffffffffffffffffffff1673ffffffffffffffffffffffffffffffffffffffff16815260200190815260200160002060008573ffffffffffffffffffffffffffffffffffffffff1673ffffffffffffffffffffffffffffffffffffffff16815260200190815260200160002081905550505050565b6000806000600160009054906101000a900473ffffffffffffffffffffffffffffffffffffffff1673ffffffffffffffffffffffffffffffffffffffff168673ffffffffffffffffffffffffffffffffffffffff161480156108ac5750600160009054906101000a900473ffffffffffffffffffffffffffffffffffffffff1673ffffffffffffffffffffffffffffffffffffffff168573ffffffffffffffffffffffffffffffffffffffff1614155b156108e157670de0b6b3a764000091506108c585610abb565b9050600081136108dc576108d98686610366565b90505b610a03565b600160009054906101000a900473ffffffffffffffffffffffffffffffffffffffff1673ffffffffffffffffffffffffffffffffffffffff168673ffffffffffffffffffffffffffffffffffffffff161415801561098c5750600160009054906101000a900473ffffffffffffffffffffffffffffffffffffffff1673ffffffffffffffffffffffffffffffffffffffff168573ffffffffffffffffffffffffffffffffffffffff16145b156109c15761099a86610abb565b9150670de0b6b3a76400009050600082136109bc576109b98587610366565b91505b610a02565b6109ca86610abb565b91506109d585610abb565b9050600082136109ec576109e98587610366565b91505b60008113610a01576109fe8686610366565b90505b5b5b610a2882610a1a8387610cef90919063ffffffff16565b610cd990919063ffffffff16565b925050509392505050565b610a3b610cd1565b73ffffffffffffffffffffffffffffffffffffffff16610a59610b66565b73ffffffffffffffffffffffffffffffffffffffff1614610aaf576040517f08c379a0000000000000000000000000000000000000000000000000000000008152600401610aa69061125b565b60405180910390fd5b610ab96000610d05565b565b600080600260008473ffffffffffffffffffffffffffffffffffffffff1673ffffffffffffffffffffffffffffffffffffffff16815260200190815260200160002060009054906101000a900473ffffffffffffffffffffffffffffffffffffffff169050600073ffffffffffffffffffffffffffffffffffffffff168173ffffffffffffffffffffffffffffffffffffffff1614610b6057610b5d8161025f565b91505b50919050565b60008060009054906101000a900473ffffffffffffffffffffffffffffffffffffffff16905090565b600160009054906101000a900473ffffffffffffffffffffffffffffffffffffffff1681565b610bbd610cd1565b73ffffffffffffffffffffffffffffffffffffffff16610bdb610b66565b73ffffffffffffffffffffffffffffffffffffffff1614610c31576040517f08c379a0000000000000000000000000000000000000000000000000000000008152600401610c289061125b565b60405180910390fd5b600073ffffffffffffffffffffffffffffffffffffffff168173ffffffffffffffffffffffffffffffffffffffff1603610ca0576040517f08c379a0000000000000000000000000000000000000000000000000000000008152600401610c97906113ff565b60405180910390fd5b610ca981610d05565b50565b6003602052816000526040600020602052806000526040600020600091509150505481565b600033905090565b60008183610ce7919061144e565b905092915050565b60008183610cfd919061147f565b905092915050565b60008060009054906101000a900473ffffffffffffffffffffffffffffffffffffffff169050816000806101000a81548173ffffffffffffffffffffffffffffffffffffffff021916908373ffffffffffffffffffffffffffffffffffffffff1602179055508173ffffffffffffffffffffffffffffffffffffffff168173ffffffffffffffffffffffffffffffffffffffff167f8be0079c531659141344cd1fd0a4f28419497f9722a3daafe3b4186f6b6457e060405160405180910390a35050565b600080fd5b600080fd5b600073ffffffffffffffffffffffffffffffffffffffff82169050919050565b6000610dfe82610dd3565b9050919050565b6000610e1082610df3565b9050919050565b610e2081610e05565b8114610e2b57600080fd5b50565b600081359050610e3d81610e17565b92915050565b600060208284031215610e5957610e58610dc9565b5b6000610e6784828501610e2e565b91505092915050565b6000819050919050565b610e8381610e70565b82525050565b6000602082019050610e9e6000830184610e7a565b92915050565b610ead81610df3565b8114610eb857600080fd5b50565b600081359050610eca81610ea4565b92915050565b6000819050919050565b610ee381610ed0565b8114610eee57600080fd5b50565b600081359050610f0081610eda565b92915050565b600080600060608486031215610f1f57610f1e610dc9565b5b6000610f2d86828701610ebb565b9350506020610f3e86828701610ebb565b9250506040610f4f86828701610ef1565b9150509250925092565b60008060408385031215610f7057610f6f610dc9565b5b6000610f7e85828601610ebb565b9250506020610f8f85828601610ebb565b9150509250929050565b600080fd5b600080fd5b600080fd5b60008083601f840112610fbe57610fbd610f99565b5b8235905067ffffffffffffffff811115610fdb57610fda610f9e565b5b602083019150836020820283011115610ff757610ff6610fa3565b5b9250929050565b6000806000806040858703121561101857611017610dc9565b5b600085013567ffffffffffffffff81111561103657611035610dce565b5b61104287828801610fa8565b9450945050602085013567ffffffffffffffff81111561106557611064610dce565b5b61107187828801610fa8565b925092505092959194509250565b61108881610ed0565b82525050565b60006020820190506110a3600083018461107f565b92915050565b6000602082840312156110bf576110be610dc9565b5b60006110cd84828501610ebb565b91505092915050565b6110df81610df3565b82525050565b60006020820190506110fa60008301846110d6565b92915050565b600069ffffffffffffffffffff82169050919050565b61111f81611100565b811461112a57600080fd5b50565b60008151905061113c81611116565b92915050565b61114b81610e70565b811461115657600080fd5b50565b60008151905061116881611142565b92915050565b60008151905061117d81610eda565b92915050565b600080600080600060a0868803121561119f5761119e610dc9565b5b60006111ad8882890161112d565b95505060206111be88828901611159565b94505060406111cf8882890161116e565b93505060606111e08882890161116e565b92505060806111f18882890161112d565b9150509295509295909350565b600082825260208201905092915050565b7f4f776e61626c653a2063616c6c6572206973206e6f7420746865206f776e6572600082015250565b60006112456020836111fe565b91506112508261120f565b602082019050919050565b6000602082019050818103600083015261127481611238565b9050919050565b7f494e434f4e53495354454e545f504152414d535f4c454e475448000000000000600082015250565b60006112b1601a836111fe565b91506112bc8261127b565b602082019050919050565b600060208201905081810360008301526112e0816112a4565b9050919050565b7f4e487b7100000000000000000000000000000000000000000000000000000000600052603260045260246000fd5b7f4e487b7100000000000000000000000000000000000000000000000000000000600052601160045260246000fd5b600061135082610ed0565b91507fffffffffffffffffffffffffffffffffffffffffffffffffffffffffffffffff820361138257611381611316565b5b600182019050919050565b7f4f776e61626c653a206e6577206f776e657220697320746865207a65726f206160008201527f6464726573730000000000000000000000000000000000000000000000000000602082015250565b60006113e96026836111fe565b91506113f48261138d565b604082019050919050565b60006020820190508181036000830152611418816113dc565b9050919050565b7f4e487b7100000000000000000000000000000000000000000000000000000000600052601260045260246000fd5b600061145982610ed0565b915061146483610ed0565b9250826114745761147361141f565b5b828204905092915050565b600061148a82610ed0565b915061149583610ed0565b92508282026114a381610ed0565b915082820484148315176114ba576114b9611316565b5b509291505056fea2646970667358221220c8e1b83740addfbd5738d716778813e79cae25f52b3a338dfa8d5516369b8c8e64736f6c63430008130033",
					"opcodes": "PUSH1 0x80 PUSH1 0x40 MSTORE CALLVALUE DUP1 ISZERO PUSH3 0x11 JUMPI PUSH1 0x0 DUP1 REVERT JUMPDEST POP PUSH1 0x40 MLOAD PUSH3 0x1803 CODESIZE SUB DUP1 PUSH3 0x1803 DUP4 CODECOPY DUP2 DUP2 ADD PUSH1 0x40 MSTORE DUP2 ADD SWAP1 PUSH3 0x37 SWAP2 SWAP1 PUSH3 0x247 JUMP JUMPDEST PUSH3 0x57 PUSH3 0x4B PUSH3 0x111 PUSH1 0x20 SHL PUSH1 0x20 SHR JUMP JUMPDEST PUSH3 0x119 PUSH1 0x20 SHL PUSH1 0x20 SHR JUMP JUMPDEST PUSH1 0x0 PUSH20 0xFFFFFFFFFFFFFFFFFFFFFFFFFFFFFFFFFFFFFFFF AND DUP2 PUSH20 0xFFFFFFFFFFFFFFFFFFFFFFFFFFFFFFFFFFFFFFFF AND SUB PUSH3 0xC9 JUMPI PUSH1 0x40 MLOAD PUSH32 0x8C379A000000000000000000000000000000000000000000000000000000000 DUP2 MSTORE PUSH1 0x4 ADD PUSH3 0xC0 SWAP1 PUSH3 0x2DA JUMP JUMPDEST PUSH1 0x40 MLOAD DUP1 SWAP2 SUB SWAP1 REVERT JUMPDEST DUP1 PUSH1 0x1 PUSH1 0x0 PUSH2 0x100 EXP DUP2 SLOAD DUP2 PUSH20 0xFFFFFFFFFFFFFFFFFFFFFFFFFFFFFFFFFFFFFFFF MUL NOT AND SWAP1 DUP4 PUSH20 0xFFFFFFFFFFFFFFFFFFFFFFFFFFFFFFFFFFFFFFFF AND MUL OR SWAP1 SSTORE POP POP PUSH3 0x2FC JUMP JUMPDEST PUSH1 0x0 CALLER SWAP1 POP SWAP1 JUMP JUMPDEST PUSH1 0x0 DUP1 PUSH1 0x0 SWAP1 SLOAD SWAP1 PUSH2 0x100 EXP SWAP1 DIV PUSH20 0xFFFFFFFFFFFFFFFFFFFFFFFFFFFFFFFFFFFFFFFF AND SWAP1 POP DUP2 PUSH1 0x0 DUP1 PUSH2 0x100 EXP DUP2 SLOAD DUP2 PUSH20 0xFFFFFFFFFFFFFFFFFFFFFFFFFFFFFFFFFFFFFFFF MUL NOT AND SWAP1 DUP4 PUSH20 0xFFFFFFFFFFFFFFFFFFFFFFFFFFFFFFFFFFFFFFFF AND MUL OR SWAP1 SSTORE POP DUP2 PUSH20 0xFFFFFFFFFFFFFFFFFFFFFFFFFFFFFFFFFFFFFFFF AND DUP2 PUSH20 0xFFFFFFFFFFFFFFFFFFFFFFFFFFFFFFFFFFFFFFFF AND PUSH32 0x8BE0079C531659141344CD1FD0A4F28419497F9722A3DAAFE3B4186F6B6457E0 PUSH1 0x40 MLOAD PUSH1 0x40 MLOAD DUP1 SWAP2 SUB SWAP1 LOG3 POP POP JUMP JUMPDEST PUSH1 0x0 DUP1 REVERT JUMPDEST PUSH1 0x0 PUSH20 0xFFFFFFFFFFFFFFFFFFFFFFFFFFFFFFFFFFFFFFFF DUP3 AND SWAP1 POP SWAP2 SWAP1 POP JUMP JUMPDEST PUSH1 0x0 PUSH3 0x20F DUP3 PUSH3 0x1E2 JUMP JUMPDEST SWAP1 POP SWAP2 SWAP1 POP JUMP JUMPDEST PUSH3 0x221 DUP2 PUSH3 0x202 JUMP JUMPDEST DUP2 EQ PUSH3 0x22D JUMPI PUSH1 0x0 DUP1 REVERT JUMPDEST POP JUMP JUMPDEST PUSH1 0x0 DUP2 MLOAD SWAP1 POP PUSH3 0x241 DUP2 PUSH3 0x216 JUMP JUMPDEST SWAP3 SWAP2 POP POP JUMP JUMPDEST PUSH1 0x0 PUSH1 0x20 DUP3 DUP5 SUB SLT ISZERO PUSH3 0x260 JUMPI PUSH3 0x25F PUSH3 0x1DD JUMP JUMPDEST JUMPDEST PUSH1 0x0 PUSH3 0x270 DUP5 DUP3 DUP6 ADD PUSH3 0x230 JUMP JUMPDEST SWAP2 POP POP SWAP3 SWAP2 POP POP JUMP JUMPDEST PUSH1 0x0 DUP3 DUP3 MSTORE PUSH1 0x20 DUP3 ADD SWAP1 POP SWAP3 SWAP2 POP POP JUMP JUMPDEST PUSH32 0x556E696C656E6456323A205A45524F2041444452455353000000000000000000 PUSH1 0x0 DUP3 ADD MSTORE POP JUMP JUMPDEST PUSH1 0x0 PUSH3 0x2C2 PUSH1 0x17 DUP4 PUSH3 0x279 JUMP JUMPDEST SWAP2 POP PUSH3 0x2CF DUP3 PUSH3 0x28A JUMP JUMPDEST PUSH1 0x20 DUP3 ADD SWAP1 POP SWAP2 SWAP1 POP JUMP JUMPDEST PUSH1 0x0 PUSH1 0x20 DUP3 ADD SWAP1 POP DUP2 DUP2 SUB PUSH1 0x0 DUP4 ADD MSTORE PUSH3 0x2F5 DUP2 PUSH3 0x2B3 JUMP JUMPDEST SWAP1 POP SWAP2 SWAP1 POP JUMP JUMPDEST PUSH2 0x14F7 DUP1 PUSH3 0x30C PUSH1 0x0 CODECOPY PUSH1 0x0 RETURN INVALID PUSH1 0x80 PUSH1 0x40 MSTORE CALLVALUE DUP1 ISZERO PUSH2 0x10 JUMPI PUSH1 0x0 DUP1 REVERT JUMPDEST POP PUSH1 0x4 CALLDATASIZE LT PUSH2 0xB4 JUMPI PUSH1 0x0 CALLDATALOAD PUSH1 0xE0 SHR DUP1 PUSH4 0x715018A6 GT PUSH2 0x71 JUMPI DUP1 PUSH4 0x715018A6 EQ PUSH2 0x19D JUMPI DUP1 PUSH4 0x7BC6C34E EQ PUSH2 0x1A7 JUMPI DUP1 PUSH4 0x8DA5CB5B EQ PUSH2 0x1D7 JUMPI DUP1 PUSH4 0xAD5C4648 EQ PUSH2 0x1F5 JUMPI DUP1 PUSH4 0xF2FDE38B EQ PUSH2 0x213 JUMPI DUP1 PUSH4 0xF56730AC EQ PUSH2 0x22F JUMPI PUSH2 0xB4 JUMP JUMPDEST DUP1 PUSH4 0x16345F18 EQ PUSH2 0xB9 JUMPI DUP1 PUSH4 0x3176FCE1 EQ PUSH2 0xE9 JUMPI DUP1 PUSH4 0x39C0F0C4 EQ PUSH2 0x105 JUMPI DUP1 PUSH4 0x3FBFF512 EQ PUSH2 0x135 JUMPI DUP1 PUSH4 0x4CB3DC2E EQ PUSH2 0x151 JUMPI DUP1 PUSH4 0x5B2E4DC5 EQ PUSH2 0x16D JUMPI JUMPDEST PUSH1 0x0 DUP1 REVERT JUMPDEST PUSH2 0xD3 PUSH1 0x4 DUP1 CALLDATASIZE SUB DUP2 ADD SWAP1 PUSH2 0xCE SWAP2 SWAP1 PUSH2 0xE43 JUMP JUMPDEST PUSH2 0x25F JUMP JUMPDEST PUSH1 0x40 MLOAD PUSH2 0xE0 SWAP2 SWAP1 PUSH2 0xE89 JUMP JUMPDEST PUSH1 0x40 MLOAD DUP1 SWAP2 SUB SWAP1 RETURN JUMPDEST PUSH2 0x103 PUSH1 0x4 DUP1 CALLDATASIZE SUB DUP2 ADD SWAP1 PUSH2 0xFE SWAP2 SWAP1 PUSH2 0xF06 JUMP JUMPDEST PUSH2 0x2E0 JUMP JUMPDEST STOP JUMPDEST PUSH2 0x11F PUSH1 0x4 DUP1 CALLDATASIZE SUB DUP2 ADD SWAP1 PUSH2 0x11A SWAP2 SWAP1 PUSH2 0xF59 JUMP JUMPDEST PUSH2 0x366 JUMP JUMPDEST PUSH1 0x40 MLOAD PUSH2 0x12C SWAP2 SWAP1 PUSH2 0xE89 JUMP JUMPDEST PUSH1 0x40 MLOAD DUP1 SWAP2 SUB SWAP1 RETURN JUMPDEST PUSH2 0x14F PUSH1 0x4 DUP1 CALLDATASIZE SUB DUP2 ADD SWAP1 PUSH2 0x14A SWAP2 SWAP1 PUSH2 0xFFE JUMP JUMPDEST PUSH2 0x482 JUMP JUMPDEST STOP JUMPDEST PUSH2 0x16B PUSH1 0x4 DUP1 CALLDATASIZE SUB DUP2 ADD SWAP1 PUSH2 0x166 SWAP2 SWAP1 PUSH2 0xF06 JUMP JUMPDEST PUSH2 0x6E2 JUMP JUMPDEST STOP JUMPDEST PUSH2 0x187 PUSH1 0x4 DUP1 CALLDATASIZE SUB DUP2 ADD SWAP1 PUSH2 0x182 SWAP2 SWAP1 PUSH2 0xF06 JUMP JUMPDEST PUSH2 0x7FC JUMP JUMPDEST PUSH1 0x40 MLOAD PUSH2 0x194 SWAP2 SWAP1 PUSH2 0x108E JUMP JUMPDEST PUSH1 0x40 MLOAD DUP1 SWAP2 SUB SWAP1 RETURN JUMPDEST PUSH2 0x1A5 PUSH2 0xA33 JUMP JUMPDEST STOP JUMPDEST PUSH2 0x1C1 PUSH1 0x4 DUP1 CALLDATASIZE SUB DUP2 ADD SWAP1 PUSH2 0x1BC SWAP2 SWAP1 PUSH2 0x10A9 JUMP JUMPDEST PUSH2 0xABB JUMP JUMPDEST PUSH1 0x40 MLOAD PUSH2 0x1CE SWAP2 SWAP1 PUSH2 0xE89 JUMP JUMPDEST PUSH1 0x40 MLOAD DUP1 SWAP2 SUB SWAP1 RETURN JUMPDEST PUSH2 0x1DF PUSH2 0xB66 JUMP JUMPDEST PUSH1 0x40 MLOAD PUSH2 0x1EC SWAP2 SWAP1 PUSH2 0x10E5 JUMP JUMPDEST PUSH1 0x40 MLOAD DUP1 SWAP2 SUB SWAP1 RETURN JUMPDEST PUSH2 0x1FD PUSH2 0xB8F JUMP JUMPDEST PUSH1 0x40 MLOAD PUSH2 0x20A SWAP2 SWAP1 PUSH2 0x10E5 JUMP JUMPDEST PUSH1 0x40 MLOAD DUP1 SWAP2 SUB SWAP1 RETURN JUMPDEST PUSH2 0x22D PUSH1 0x4 DUP1 CALLDATASIZE SUB DUP2 ADD SWAP1 PUSH2 0x228 SWAP2 SWAP1 PUSH2 0x10A9 JUMP JUMPDEST PUSH2 0xBB5 JUMP JUMPDEST STOP JUMPDEST PUSH2 0x249 PUSH1 0x4 DUP1 CALLDATASIZE SUB DUP2 ADD SWAP1 PUSH2 0x244 SWAP2 SWAP1 PUSH2 0xF59 JUMP JUMPDEST PUSH2 0xCAC JUMP JUMPDEST PUSH1 0x40 MLOAD PUSH2 0x256 SWAP2 SWAP1 PUSH2 0x108E JUMP JUMPDEST PUSH1 0x40 MLOAD DUP1 SWAP2 SUB SWAP1 RETURN JUMPDEST PUSH1 0x0 DUP1 DUP3 PUSH20 0xFFFFFFFFFFFFFFFFFFFFFFFFFFFFFFFFFFFFFFFF AND PUSH4 0xFEAF968C PUSH1 0x40 MLOAD DUP2 PUSH4 0xFFFFFFFF AND PUSH1 0xE0 SHL DUP2 MSTORE PUSH1 0x4 ADD PUSH1 0xA0 PUSH1 0x40 MLOAD DUP1 DUP4 SUB DUP2 DUP7 GAS STATICCALL ISZERO DUP1 ISZERO PUSH2 0x2AD JUMPI RETURNDATASIZE PUSH1 0x0 DUP1 RETURNDATACOPY RETURNDATASIZE PUSH1 0x0 REVERT JUMPDEST POP POP POP POP PUSH1 0x40 MLOAD RETURNDATASIZE PUSH1 0x1F NOT PUSH1 0x1F DUP3 ADD AND DUP3 ADD DUP1 PUSH1 0x40 MSTORE POP DUP2 ADD SWAP1 PUSH2 0x2D1 SWAP2 SWAP1 PUSH2 0x1183 JUMP JUMPDEST POP POP POP SWAP2 POP POP DUP1 SWAP2 POP POP SWAP2 SWAP1 POP JUMP JUMPDEST DUP1 PUSH1 0x3 PUSH1 0x0 DUP6 PUSH20 0xFFFFFFFFFFFFFFFFFFFFFFFFFFFFFFFFFFFFFFFF AND PUSH20 0xFFFFFFFFFFFFFFFFFFFFFFFFFFFFFFFFFFFFFFFF AND DUP2 MSTORE PUSH1 0x20 ADD SWAP1 DUP2 MSTORE PUSH1 0x20 ADD PUSH1 0x0 KECCAK256 PUSH1 0x0 DUP5 PUSH20 0xFFFFFFFFFFFFFFFFFFFFFFFFFFFFFFFFFFFFFFFF AND PUSH20 0xFFFFFFFFFFFFFFFFFFFFFFFFFFFFFFFFFFFFFFFF AND DUP2 MSTORE PUSH1 0x20 ADD SWAP1 DUP2 MSTORE PUSH1 0x20 ADD PUSH1 0x0 KECCAK256 DUP2 SWAP1 SSTORE POP POP POP POP JUMP JUMPDEST PUSH1 0x0 DUP1 PUSH1 0x3 PUSH1 0x0 DUP6 PUSH20 0xFFFFFFFFFFFFFFFFFFFFFFFFFFFFFFFFFFFFFFFF AND PUSH20 0xFFFFFFFFFFFFFFFFFFFFFFFFFFFFFFFFFFFFFFFF AND DUP2 MSTORE PUSH1 0x20 ADD SWAP1 DUP2 MSTORE PUSH1 0x20 ADD PUSH1 0x0 KECCAK256 PUSH1 0x0 DUP5 PUSH20 0xFFFFFFFFFFFFFFFFFFFFFFFFFFFFFFFFFFFFFFFF AND PUSH20 0xFFFFFFFFFFFFFFFFFFFFFFFFFFFFFFFFFFFFFFFF AND DUP2 MSTORE PUSH1 0x20 ADD SWAP1 DUP2 MSTORE PUSH1 0x20 ADD PUSH1 0x0 KECCAK256 SLOAD GT ISZERO PUSH2 0x470 JUMPI PUSH1 0x3 PUSH1 0x0 DUP5 PUSH20 0xFFFFFFFFFFFFFFFFFFFFFFFFFFFFFFFFFFFFFFFF AND PUSH20 0xFFFFFFFFFFFFFFFFFFFFFFFFFFFFFFFFFFFFFFFF AND DUP2 MSTORE PUSH1 0x20 ADD SWAP1 DUP2 MSTORE PUSH1 0x20 ADD PUSH1 0x0 KECCAK256 PUSH1 0x0 DUP4 PUSH20 0xFFFFFFFFFFFFFFFFFFFFFFFFFFFFFFFFFFFFFFFF AND PUSH20 0xFFFFFFFFFFFFFFFFFFFFFFFFFFFFFFFFFFFFFFFF AND DUP2 MSTORE PUSH1 0x20 ADD SWAP1 DUP2 MSTORE PUSH1 0x20 ADD PUSH1 0x0 KECCAK256 SLOAD SWAP1 POP PUSH2 0x47C JUMP JUMPDEST PUSH8 0xDE0B6B3A7640000 SWAP1 POP JUMPDEST SWAP3 SWAP2 POP POP JUMP JUMPDEST PUSH2 0x48A PUSH2 0xCD1 JUMP JUMPDEST PUSH20 0xFFFFFFFFFFFFFFFFFFFFFFFFFFFFFFFFFFFFFFFF AND PUSH2 0x4A8 PUSH2 0xB66 JUMP JUMPDEST PUSH20 0xFFFFFFFFFFFFFFFFFFFFFFFFFFFFFFFFFFFFFFFF AND EQ PUSH2 0x4FE JUMPI PUSH1 0x40 MLOAD PUSH32 0x8C379A000000000000000000000000000000000000000000000000000000000 DUP2 MSTORE PUSH1 0x4 ADD PUSH2 0x4F5 SWAP1 PUSH2 0x125B JUMP JUMPDEST PUSH1 0x40 MLOAD DUP1 SWAP2 SUB SWAP1 REVERT JUMPDEST DUP2 DUP2 SWAP1 POP DUP5 DUP5 SWAP1 POP EQ PUSH2 0x546 JUMPI PUSH1 0x40 MLOAD PUSH32 0x8C379A000000000000000000000000000000000000000000000000000000000 DUP2 MSTORE PUSH1 0x4 ADD PUSH2 0x53D SWAP1 PUSH2 0x12C7 JUMP JUMPDEST PUSH1 0x40 MLOAD DUP1 SWAP2 SUB SWAP1 REVERT JUMPDEST PUSH1 0x0 JUMPDEST DUP5 DUP5 SWAP1 POP DUP2 LT ISZERO PUSH2 0x6DB JUMPI DUP3 DUP3 DUP3 DUP2 DUP2 LT PUSH2 0x567 JUMPI PUSH2 0x566 PUSH2 0x12E7 JUMP JUMPDEST JUMPDEST SWAP1 POP PUSH1 0x20 MUL ADD PUSH1 0x20 DUP2 ADD SWAP1 PUSH2 0x57C SWAP2 SWAP1 PUSH2 0x10A9 JUMP JUMPDEST PUSH1 0x2 PUSH1 0x0 DUP8 DUP8 DUP6 DUP2 DUP2 LT PUSH2 0x593 JUMPI PUSH2 0x592 PUSH2 0x12E7 JUMP JUMPDEST JUMPDEST SWAP1 POP PUSH1 0x20 MUL ADD PUSH1 0x20 DUP2 ADD SWAP1 PUSH2 0x5A8 SWAP2 SWAP1 PUSH2 0x10A9 JUMP JUMPDEST PUSH20 0xFFFFFFFFFFFFFFFFFFFFFFFFFFFFFFFFFFFFFFFF AND PUSH20 0xFFFFFFFFFFFFFFFFFFFFFFFFFFFFFFFFFFFFFFFF AND DUP2 MSTORE PUSH1 0x20 ADD SWAP1 DUP2 MSTORE PUSH1 0x20 ADD PUSH1 0x0 KECCAK256 PUSH1 0x0 PUSH2 0x100 EXP DUP2 SLOAD DUP2 PUSH20 0xFFFFFFFFFFFFFFFFFFFFFFFFFFFFFFFFFFFFFFFF MUL NOT AND SWAP1 DUP4 PUSH20 0xFFFFFFFFFFFFFFFFFFFFFFFFFFFFFFFFFFFFFFFF AND MUL OR SWAP1 SSTORE POP DUP3 DUP3 DUP3 DUP2 DUP2 LT PUSH2 0x633 JUMPI PUSH2 0x632 PUSH2 0x12E7 JUMP JUMPDEST JUMPDEST SWAP1 POP PUSH1 0x20 MUL ADD PUSH1 0x20 DUP2 ADD SWAP1 PUSH2 0x648 SWAP2 SWAP1 PUSH2 0x10A9 JUMP JUMPDEST PUSH20 0xFFFFFFFFFFFFFFFFFFFFFFFFFFFFFFFFFFFFFFFF AND DUP6 DUP6 DUP4 DUP2 DUP2 LT PUSH2 0x671 JUMPI PUSH2 0x670 PUSH2 0x12E7 JUMP JUMPDEST JUMPDEST SWAP1 POP PUSH1 0x20 MUL ADD PUSH1 0x20 DUP2 ADD SWAP1 PUSH2 0x686 SWAP2 SWAP1 PUSH2 0x10A9 JUMP JUMPDEST PUSH20 0xFFFFFFFFFFFFFFFFFFFFFFFFFFFFFFFFFFFFFFFF AND PUSH32 0x126A75207B8B11156EC1F4A0AD246F458582451FC5BEE4B8A729A1A68886E132 PUSH1 0x40 MLOAD PUSH1 0x40 MLOAD DUP1 SWAP2 SUB SWAP1 LOG3 DUP1 DUP1 PUSH2 0x6D3 SWAP1 PUSH2 0x1345 JUMP JUMPDEST SWAP2 POP POP PUSH2 0x549 JUMP JUMPDEST POP POP POP POP POP JUMP JUMPDEST DUP1 PUSH1 0x3 PUSH1 0x0 DUP6 PUSH20 0xFFFFFFFFFFFFFFFFFFFFFFFFFFFFFFFFFFFFFFFF AND PUSH20 0xFFFFFFFFFFFFFFFFFFFFFFFFFFFFFFFFFFFFFFFF AND DUP2 MSTORE PUSH1 0x20 ADD SWAP1 DUP2 MSTORE PUSH1 0x20 ADD PUSH1 0x0 KECCAK256 PUSH1 0x0 DUP5 PUSH20 0xFFFFFFFFFFFFFFFFFFFFFFFFFFFFFFFFFFFFFFFF AND PUSH20 0xFFFFFFFFFFFFFFFFFFFFFFFFFFFFFFFFFFFFFFFF AND DUP2 MSTORE PUSH1 0x20 ADD SWAP1 DUP2 MSTORE PUSH1 0x20 ADD PUSH1 0x0 KECCAK256 DUP2 SWAP1 SSTORE POP PUSH2 0x777 DUP2 PUSH1 0x1 PUSH2 0xCD9 SWAP1 SWAP2 SWAP1 PUSH4 0xFFFFFFFF AND JUMP JUMPDEST PUSH1 0x3 PUSH1 0x0 DUP5 PUSH20 0xFFFFFFFFFFFFFFFFFFFFFFFFFFFFFFFFFFFFFFFF AND PUSH20 0xFFFFFFFFFFFFFFFFFFFFFFFFFFFFFFFFFFFFFFFF AND DUP2 MSTORE PUSH1 0x20 ADD SWAP1 DUP2 MSTORE PUSH1 0x20 ADD PUSH1 0x0 KECCAK256 PUSH1 0x0 DUP6 PUSH20 0xFFFFFFFFFFFFFFFFFFFFFFFFFFFFFFFFFFFFFFFF AND PUSH20 0xFFFFFFFFFFFFFFFFFFFFFFFFFFFFFFFFFFFFFFFF AND DUP2 MSTORE PUSH1 0x20 ADD SWAP1 DUP2 MSTORE PUSH1 0x20 ADD PUSH1 0x0 KECCAK256 DUP2 SWAP1 SSTORE POP POP POP POP JUMP JUMPDEST PUSH1 0x0 DUP1 PUSH1 0x0 PUSH1 0x1 PUSH1 0x0 SWAP1 SLOAD SWAP1 PUSH2 0x100 EXP SWAP1 DIV PUSH20 0xFFFFFFFFFFFFFFFFFFFFFFFFFFFFFFFFFFFFFFFF AND PUSH20 0xFFFFFFFFFFFFFFFFFFFFFFFFFFFFFFFFFFFFFFFF AND DUP7 PUSH20 0xFFFFFFFFFFFFFFFFFFFFFFFFFFFFFFFFFFFFFFFF AND EQ DUP1 ISZERO PUSH2 0x8AC JUMPI POP PUSH1 0x1 PUSH1 0x0 SWAP1 SLOAD SWAP1 PUSH2 0x100 EXP SWAP1 DIV PUSH20 0xFFFFFFFFFFFFFFFFFFFFFFFFFFFFFFFFFFFFFFFF AND PUSH20 0xFFFFFFFFFFFFFFFFFFFFFFFFFFFFFFFFFFFFFFFF AND DUP6 PUSH20 0xFFFFFFFFFFFFFFFFFFFFFFFFFFFFFFFFFFFFFFFF AND EQ ISZERO JUMPDEST ISZERO PUSH2 0x8E1 JUMPI PUSH8 0xDE0B6B3A7640000 SWAP2 POP PUSH2 0x8C5 DUP6 PUSH2 0xABB JUMP JUMPDEST SWAP1 POP PUSH1 0x0 DUP2 SGT PUSH2 0x8DC JUMPI PUSH2 0x8D9 DUP7 DUP7 PUSH2 0x366 JUMP JUMPDEST SWAP1 POP JUMPDEST PUSH2 0xA03 JUMP JUMPDEST PUSH1 0x1 PUSH1 0x0 SWAP1 SLOAD SWAP1 PUSH2 0x100 EXP SWAP1 DIV PUSH20 0xFFFFFFFFFFFFFFFFFFFFFFFFFFFFFFFFFFFFFFFF AND PUSH20 0xFFFFFFFFFFFFFFFFFFFFFFFFFFFFFFFFFFFFFFFF AND DUP7 PUSH20 0xFFFFFFFFFFFFFFFFFFFFFFFFFFFFFFFFFFFFFFFF AND EQ ISZERO DUP1 ISZERO PUSH2 0x98C JUMPI POP PUSH1 0x1 PUSH1 0x0 SWAP1 SLOAD SWAP1 PUSH2 0x100 EXP SWAP1 DIV PUSH20 0xFFFFFFFFFFFFFFFFFFFFFFFFFFFFFFFFFFFFFFFF AND PUSH20 0xFFFFFFFFFFFFFFFFFFFFFFFFFFFFFFFFFFFFFFFF AND DUP6 PUSH20 0xFFFFFFFFFFFFFFFFFFFFFFFFFFFFFFFFFFFFFFFF AND EQ JUMPDEST ISZERO PUSH2 0x9C1 JUMPI PUSH2 0x99A DUP7 PUSH2 0xABB JUMP JUMPDEST SWAP2 POP PUSH8 0xDE0B6B3A7640000 SWAP1 POP PUSH1 0x0 DUP3 SGT PUSH2 0x9BC JUMPI PUSH2 0x9B9 DUP6 DUP8 PUSH2 0x366 JUMP JUMPDEST SWAP2 POP JUMPDEST PUSH2 0xA02 JUMP JUMPDEST PUSH2 0x9CA DUP7 PUSH2 0xABB JUMP JUMPDEST SWAP2 POP PUSH2 0x9D5 DUP6 PUSH2 0xABB JUMP JUMPDEST SWAP1 POP PUSH1 0x0 DUP3 SGT PUSH2 0x9EC JUMPI PUSH2 0x9E9 DUP6 DUP8 PUSH2 0x366 JUMP JUMPDEST SWAP2 POP JUMPDEST PUSH1 0x0 DUP2 SGT PUSH2 0xA01 JUMPI PUSH2 0x9FE DUP7 DUP7 PUSH2 0x366 JUMP JUMPDEST SWAP1 POP JUMPDEST JUMPDEST JUMPDEST PUSH2 0xA28 DUP3 PUSH2 0xA1A DUP4 DUP8 PUSH2 0xCEF SWAP1 SWAP2 SWAP1 PUSH4 0xFFFFFFFF AND JUMP JUMPDEST PUSH2 0xCD9 SWAP1 SWAP2 SWAP1 PUSH4 0xFFFFFFFF AND JUMP JUMPDEST SWAP3 POP POP POP SWAP4 SWAP3 POP POP POP JUMP JUMPDEST PUSH2 0xA3B PUSH2 0xCD1 JUMP JUMPDEST PUSH20 0xFFFFFFFFFFFFFFFFFFFFFFFFFFFFFFFFFFFFFFFF AND PUSH2 0xA59 PUSH2 0xB66 JUMP JUMPDEST PUSH20 0xFFFFFFFFFFFFFFFFFFFFFFFFFFFFFFFFFFFFFFFF AND EQ PUSH2 0xAAF JUMPI PUSH1 0x40 MLOAD PUSH32 0x8C379A000000000000000000000000000000000000000000000000000000000 DUP2 MSTORE PUSH1 0x4 ADD PUSH2 0xAA6 SWAP1 PUSH2 0x125B JUMP JUMPDEST PUSH1 0x40 MLOAD DUP1 SWAP2 SUB SWAP1 REVERT JUMPDEST PUSH2 0xAB9 PUSH1 0x0 PUSH2 0xD05 JUMP JUMPDEST JUMP JUMPDEST PUSH1 0x0 DUP1 PUSH1 0x2 PUSH1 0x0 DUP5 PUSH20 0xFFFFFFFFFFFFFFFFFFFFFFFFFFFFFFFFFFFFFFFF AND PUSH20 0xFFFFFFFFFFFFFFFFFFFFFFFFFFFFFFFFFFFFFFFF AND DUP2 MSTORE PUSH1 0x20 ADD SWAP1 DUP2 MSTORE PUSH1 0x20 ADD PUSH1 0x0 KECCAK256 PUSH1 0x0 SWAP1 SLOAD SWAP1 PUSH2 0x100 EXP SWAP1 DIV PUSH20 0xFFFFFFFFFFFFFFFFFFFFFFFFFFFFFFFFFFFFFFFF AND SWAP1 POP PUSH1 0x0 PUSH20 0xFFFFFFFFFFFFFFFFFFFFFFFFFFFFFFFFFFFFFFFF AND DUP2 PUSH20 0xFFFFFFFFFFFFFFFFFFFFFFFFFFFFFFFFFFFFFFFF AND EQ PUSH2 0xB60 JUMPI PUSH2 0xB5D DUP2 PUSH2 0x25F JUMP JUMPDEST SWAP2 POP JUMPDEST POP SWAP2 SWAP1 POP JUMP JUMPDEST PUSH1 0x0 DUP1 PUSH1 0x0 SWAP1 SLOAD SWAP1 PUSH2 0x100 EXP SWAP1 DIV PUSH20 0xFFFFFFFFFFFFFFFFFFFFFFFFFFFFFFFFFFFFFFFF AND SWAP1 POP SWAP1 JUMP JUMPDEST PUSH1 0x1 PUSH1 0x0 SWAP1 SLOAD SWAP1 PUSH2 0x100 EXP SWAP1 DIV PUSH20 0xFFFFFFFFFFFFFFFFFFFFFFFFFFFFFFFFFFFFFFFF AND DUP2 JUMP JUMPDEST PUSH2 0xBBD PUSH2 0xCD1 JUMP JUMPDEST PUSH20 0xFFFFFFFFFFFFFFFFFFFFFFFFFFFFFFFFFFFFFFFF AND PUSH2 0xBDB PUSH2 0xB66 JUMP JUMPDEST PUSH20 0xFFFFFFFFFFFFFFFFFFFFFFFFFFFFFFFFFFFFFFFF AND EQ PUSH2 0xC31 JUMPI PUSH1 0x40 MLOAD PUSH32 0x8C379A000000000000000000000000000000000000000000000000000000000 DUP2 MSTORE PUSH1 0x4 ADD PUSH2 0xC28 SWAP1 PUSH2 0x125B JUMP JUMPDEST PUSH1 0x40 MLOAD DUP1 SWAP2 SUB SWAP1 REVERT JUMPDEST PUSH1 0x0 PUSH20 0xFFFFFFFFFFFFFFFFFFFFFFFFFFFFFFFFFFFFFFFF AND DUP2 PUSH20 0xFFFFFFFFFFFFFFFFFFFFFFFFFFFFFFFFFFFFFFFF AND SUB PUSH2 0xCA0 JUMPI PUSH1 0x40 MLOAD PUSH32 0x8C379A000000000000000000000000000000000000000000000000000000000 DUP2 MSTORE PUSH1 0x4 ADD PUSH2 0xC97 SWAP1 PUSH2 0x13FF JUMP JUMPDEST PUSH1 0x40 MLOAD DUP1 SWAP2 SUB SWAP1 REVERT JUMPDEST PUSH2 0xCA9 DUP2 PUSH2 0xD05 JUMP JUMPDEST POP JUMP JUMPDEST PUSH1 0x3 PUSH1 0x20 MSTORE DUP2 PUSH1 0x0 MSTORE PUSH1 0x40 PUSH1 0x0 KECCAK256 PUSH1 0x20 MSTORE DUP1 PUSH1 0x0 MSTORE PUSH1 0x40 PUSH1 0x0 KECCAK256 PUSH1 0x0 SWAP2 POP SWAP2 POP POP SLOAD DUP2 JUMP JUMPDEST PUSH1 0x0 CALLER SWAP1 POP SWAP1 JUMP JUMPDEST PUSH1 0x0 DUP2 DUP4 PUSH2 0xCE7 SWAP2 SWAP1 PUSH2 0x144E JUMP JUMPDEST SWAP1 POP SWAP3 SWAP2 POP POP JUMP JUMPDEST PUSH1 0x0 DUP2 DUP4 PUSH2 0xCFD SWAP2 SWAP1 PUSH2 0x147F JUMP JUMPDEST SWAP1 POP SWAP3 SWAP2 POP POP JUMP JUMPDEST PUSH1 0x0 DUP1 PUSH1 0x0 SWAP1 SLOAD SWAP1 PUSH2 0x100 EXP SWAP1 DIV PUSH20 0xFFFFFFFFFFFFFFFFFFFFFFFFFFFFFFFFFFFFFFFF AND SWAP1 POP DUP2 PUSH1 0x0 DUP1 PUSH2 0x100 EXP DUP2 SLOAD DUP2 PUSH20 0xFFFFFFFFFFFFFFFFFFFFFFFFFFFFFFFFFFFFFFFF MUL NOT AND SWAP1 DUP4 PUSH20 0xFFFFFFFFFFFFFFFFFFFFFFFFFFFFFFFFFFFFFFFF AND MUL OR SWAP1 SSTORE POP DUP2 PUSH20 0xFFFFFFFFFFFFFFFFFFFFFFFFFFFFFFFFFFFFFFFF AND DUP2 PUSH20 0xFFFFFFFFFFFFFFFFFFFFFFFFFFFFFFFFFFFFFFFF AND PUSH32 0x8BE0079C531659141344CD1FD0A4F28419497F9722A3DAAFE3B4186F6B6457E0 PUSH1 0x40 MLOAD PUSH1 0x40 MLOAD DUP1 SWAP2 SUB SWAP1 LOG3 POP POP JUMP JUMPDEST PUSH1 0x0 DUP1 REVERT JUMPDEST PUSH1 0x0 DUP1 REVERT JUMPDEST PUSH1 0x0 PUSH20 0xFFFFFFFFFFFFFFFFFFFFFFFFFFFFFFFFFFFFFFFF DUP3 AND SWAP1 POP SWAP2 SWAP1 POP JUMP JUMPDEST PUSH1 0x0 PUSH2 0xDFE DUP3 PUSH2 0xDD3 JUMP JUMPDEST SWAP1 POP SWAP2 SWAP1 POP JUMP JUMPDEST PUSH1 0x0 PUSH2 0xE10 DUP3 PUSH2 0xDF3 JUMP JUMPDEST SWAP1 POP SWAP2 SWAP1 POP JUMP JUMPDEST PUSH2 0xE20 DUP2 PUSH2 0xE05 JUMP JUMPDEST DUP2 EQ PUSH2 0xE2B JUMPI PUSH1 0x0 DUP1 REVERT JUMPDEST POP JUMP JUMPDEST PUSH1 0x0 DUP2 CALLDATALOAD SWAP1 POP PUSH2 0xE3D DUP2 PUSH2 0xE17 JUMP JUMPDEST SWAP3 SWAP2 POP POP JUMP JUMPDEST PUSH1 0x0 PUSH1 0x20 DUP3 DUP5 SUB SLT ISZERO PUSH2 0xE59 JUMPI PUSH2 0xE58 PUSH2 0xDC9 JUMP JUMPDEST JUMPDEST PUSH1 0x0 PUSH2 0xE67 DUP5 DUP3 DUP6 ADD PUSH2 0xE2E JUMP JUMPDEST SWAP2 POP POP SWAP3 SWAP2 POP POP JUMP JUMPDEST PUSH1 0x0 DUP2 SWAP1 POP SWAP2 SWAP1 POP JUMP JUMPDEST PUSH2 0xE83 DUP2 PUSH2 0xE70 JUMP JUMPDEST DUP3 MSTORE POP POP JUMP JUMPDEST PUSH1 0x0 PUSH1 0x20 DUP3 ADD SWAP1 POP PUSH2 0xE9E PUSH1 0x0 DUP4 ADD DUP5 PUSH2 0xE7A JUMP JUMPDEST SWAP3 SWAP2 POP POP JUMP JUMPDEST PUSH2 0xEAD DUP2 PUSH2 0xDF3 JUMP JUMPDEST DUP2 EQ PUSH2 0xEB8 JUMPI PUSH1 0x0 DUP1 REVERT JUMPDEST POP JUMP JUMPDEST PUSH1 0x0 DUP2 CALLDATALOAD SWAP1 POP PUSH2 0xECA DUP2 PUSH2 0xEA4 JUMP JUMPDEST SWAP3 SWAP2 POP POP JUMP JUMPDEST PUSH1 0x0 DUP2 SWAP1 POP SWAP2 SWAP1 POP JUMP JUMPDEST PUSH2 0xEE3 DUP2 PUSH2 0xED0 JUMP JUMPDEST DUP2 EQ PUSH2 0xEEE JUMPI PUSH1 0x0 DUP1 REVERT JUMPDEST POP JUMP JUMPDEST PUSH1 0x0 DUP2 CALLDATALOAD SWAP1 POP PUSH2 0xF00 DUP2 PUSH2 0xEDA JUMP JUMPDEST SWAP3 SWAP2 POP POP JUMP JUMPDEST PUSH1 0x0 DUP1 PUSH1 0x0 PUSH1 0x60 DUP5 DUP7 SUB SLT ISZERO PUSH2 0xF1F JUMPI PUSH2 0xF1E PUSH2 0xDC9 JUMP JUMPDEST JUMPDEST PUSH1 0x0 PUSH2 0xF2D DUP7 DUP3 DUP8 ADD PUSH2 0xEBB JUMP JUMPDEST SWAP4 POP POP PUSH1 0x20 PUSH2 0xF3E DUP7 DUP3 DUP8 ADD PUSH2 0xEBB JUMP JUMPDEST SWAP3 POP POP PUSH1 0x40 PUSH2 0xF4F DUP7 DUP3 DUP8 ADD PUSH2 0xEF1 JUMP JUMPDEST SWAP2 POP POP SWAP3 POP SWAP3 POP SWAP3 JUMP JUMPDEST PUSH1 0x0 DUP1 PUSH1 0x40 DUP4 DUP6 SUB SLT ISZERO PUSH2 0xF70 JUMPI PUSH2 0xF6F PUSH2 0xDC9 JUMP JUMPDEST JUMPDEST PUSH1 0x0 PUSH2 0xF7E DUP6 DUP3 DUP7 ADD PUSH2 0xEBB JUMP JUMPDEST SWAP3 POP POP PUSH1 0x20 PUSH2 0xF8F DUP6 DUP3 DUP7 ADD PUSH2 0xEBB JUMP JUMPDEST SWAP2 POP POP SWAP3 POP SWAP3 SWAP1 POP JUMP JUMPDEST PUSH1 0x0 DUP1 REVERT JUMPDEST PUSH1 0x0 DUP1 REVERT JUMPDEST PUSH1 0x0 DUP1 REVERT JUMPDEST PUSH1 0x0 DUP1 DUP4 PUSH1 0x1F DUP5 ADD SLT PUSH2 0xFBE JUMPI PUSH2 0xFBD PUSH2 0xF99 JUMP JUMPDEST JUMPDEST DUP3 CALLDATALOAD SWAP1 POP PUSH8 0xFFFFFFFFFFFFFFFF DUP2 GT ISZERO PUSH2 0xFDB JUMPI PUSH2 0xFDA PUSH2 0xF9E JUMP JUMPDEST JUMPDEST PUSH1 0x20 DUP4 ADD SWAP2 POP DUP4 PUSH1 0x20 DUP3 MUL DUP4 ADD GT ISZERO PUSH2 0xFF7 JUMPI PUSH2 0xFF6 PUSH2 0xFA3 JUMP JUMPDEST JUMPDEST SWAP3 POP SWAP3 SWAP1 POP JUMP JUMPDEST PUSH1 0x0 DUP1 PUSH1 0x0 DUP1 PUSH1 0x40 DUP6 DUP8 SUB SLT ISZERO PUSH2 0x1018 JUMPI PUSH2 0x1017 PUSH2 0xDC9 JUMP JUMPDEST JUMPDEST PUSH1 0x0 DUP6 ADD CALLDATALOAD PUSH8 0xFFFFFFFFFFFFFFFF DUP2 GT ISZERO PUSH2 0x1036 JUMPI PUSH2 0x1035 PUSH2 0xDCE JUMP JUMPDEST JUMPDEST PUSH2 0x1042 DUP8 DUP3 DUP9 ADD PUSH2 0xFA8 JUMP JUMPDEST SWAP5 POP SWAP5 POP POP PUSH1 0x20 DUP6 ADD CALLDATALOAD PUSH8 0xFFFFFFFFFFFFFFFF DUP2 GT ISZERO PUSH2 0x1065 JUMPI PUSH2 0x1064 PUSH2 0xDCE JUMP JUMPDEST JUMPDEST PUSH2 0x1071 DUP8 DUP3 DUP9 ADD PUSH2 0xFA8 JUMP JUMPDEST SWAP3 POP SWAP3 POP POP SWAP3 SWAP6 SWAP2 SWAP5 POP SWAP3 POP JUMP JUMPDEST PUSH2 0x1088 DUP2 PUSH2 0xED0 JUMP JUMPDEST DUP3 MSTORE POP POP JUMP JUMPDEST PUSH1 0x0 PUSH1 0x20 DUP3 ADD SWAP1 POP PUSH2 0x10A3 PUSH1 0x0 DUP4 ADD DUP5 PUSH2 0x107F JUMP JUMPDEST SWAP3 SWAP2 POP POP JUMP JUMPDEST PUSH1 0x0 PUSH1 0x20 DUP3 DUP5 SUB SLT ISZERO PUSH2 0x10BF JUMPI PUSH2 0x10BE PUSH2 0xDC9 JUMP JUMPDEST JUMPDEST PUSH1 0x0 PUSH2 0x10CD DUP5 DUP3 DUP6 ADD PUSH2 0xEBB JUMP JUMPDEST SWAP2 POP POP SWAP3 SWAP2 POP POP JUMP JUMPDEST PUSH2 0x10DF DUP2 PUSH2 0xDF3 JUMP JUMPDEST DUP3 MSTORE POP POP JUMP JUMPDEST PUSH1 0x0 PUSH1 0x20 DUP3 ADD SWAP1 POP PUSH2 0x10FA PUSH1 0x0 DUP4 ADD DUP5 PUSH2 0x10D6 JUMP JUMPDEST SWAP3 SWAP2 POP POP JUMP JUMPDEST PUSH1 0x0 PUSH10 0xFFFFFFFFFFFFFFFFFFFF DUP3 AND SWAP1 POP SWAP2 SWAP1 POP JUMP JUMPDEST PUSH2 0x111F DUP2 PUSH2 0x1100 JUMP JUMPDEST DUP2 EQ PUSH2 0x112A JUMPI PUSH1 0x0 DUP1 REVERT JUMPDEST POP JUMP JUMPDEST PUSH1 0x0 DUP2 MLOAD SWAP1 POP PUSH2 0x113C DUP2 PUSH2 0x1116 JUMP JUMPDEST SWAP3 SWAP2 POP POP JUMP JUMPDEST PUSH2 0x114B DUP2 PUSH2 0xE70 JUMP JUMPDEST DUP2 EQ PUSH2 0x1156 JUMPI PUSH1 0x0 DUP1 REVERT JUMPDEST POP JUMP JUMPDEST PUSH1 0x0 DUP2 MLOAD SWAP1 POP PUSH2 0x1168 DUP2 PUSH2 0x1142 JUMP JUMPDEST SWAP3 SWAP2 POP POP JUMP JUMPDEST PUSH1 0x0 DUP2 MLOAD SWAP1 POP PUSH2 0x117D DUP2 PUSH2 0xEDA JUMP JUMPDEST SWAP3 SWAP2 POP POP JUMP JUMPDEST PUSH1 0x0 DUP1 PUSH1 0x0 DUP1 PUSH1 0x0 PUSH1 0xA0 DUP7 DUP9 SUB SLT ISZERO PUSH2 0x119F JUMPI PUSH2 0x119E PUSH2 0xDC9 JUMP JUMPDEST JUMPDEST PUSH1 0x0 PUSH2 0x11AD DUP9 DUP3 DUP10 ADD PUSH2 0x112D JUMP JUMPDEST SWAP6 POP POP PUSH1 0x20 PUSH2 0x11BE DUP9 DUP3 DUP10 ADD PUSH2 0x1159 JUMP JUMPDEST SWAP5 POP POP PUSH1 0x40 PUSH2 0x11CF DUP9 DUP3 DUP10 ADD PUSH2 0x116E JUMP JUMPDEST SWAP4 POP POP PUSH1 0x60 PUSH2 0x11E0 DUP9 DUP3 DUP10 ADD PUSH2 0x116E JUMP JUMPDEST SWAP3 POP POP PUSH1 0x80 PUSH2 0x11F1 DUP9 DUP3 DUP10 ADD PUSH2 0x112D JUMP JUMPDEST SWAP2 POP POP SWAP3 SWAP6 POP SWAP3 SWAP6 SWAP1 SWAP4 POP JUMP JUMPDEST PUSH1 0x0 DUP3 DUP3 MSTORE PUSH1 0x20 DUP3 ADD SWAP1 POP SWAP3 SWAP2 POP POP JUMP JUMPDEST PUSH32 0x4F776E61626C653A2063616C6C6572206973206E6F7420746865206F776E6572 PUSH1 0x0 DUP3 ADD MSTORE POP JUMP JUMPDEST PUSH1 0x0 PUSH2 0x1245 PUSH1 0x20 DUP4 PUSH2 0x11FE JUMP JUMPDEST SWAP2 POP PUSH2 0x1250 DUP3 PUSH2 0x120F JUMP JUMPDEST PUSH1 0x20 DUP3 ADD SWAP1 POP SWAP2 SWAP1 POP JUMP JUMPDEST PUSH1 0x0 PUSH1 0x20 DUP3 ADD SWAP1 POP DUP2 DUP2 SUB PUSH1 0x0 DUP4 ADD MSTORE PUSH2 0x1274 DUP2 PUSH2 0x1238 JUMP JUMPDEST SWAP1 POP SWAP2 SWAP1 POP JUMP JUMPDEST PUSH32 0x494E434F4E53495354454E545F504152414D535F4C454E475448000000000000 PUSH1 0x0 DUP3 ADD MSTORE POP JUMP JUMPDEST PUSH1 0x0 PUSH2 0x12B1 PUSH1 0x1A DUP4 PUSH2 0x11FE JUMP JUMPDEST SWAP2 POP PUSH2 0x12BC DUP3 PUSH2 0x127B JUMP JUMPDEST PUSH1 0x20 DUP3 ADD SWAP1 POP SWAP2 SWAP1 POP JUMP JUMPDEST PUSH1 0x0 PUSH1 0x20 DUP3 ADD SWAP1 POP DUP2 DUP2 SUB PUSH1 0x0 DUP4 ADD MSTORE PUSH2 0x12E0 DUP2 PUSH2 0x12A4 JUMP JUMPDEST SWAP1 POP SWAP2 SWAP1 POP JUMP JUMPDEST PUSH32 0x4E487B7100000000000000000000000000000000000000000000000000000000 PUSH1 0x0 MSTORE PUSH1 0x32 PUSH1 0x4 MSTORE PUSH1 0x24 PUSH1 0x0 REVERT JUMPDEST PUSH32 0x4E487B7100000000000000000000000000000000000000000000000000000000 PUSH1 0x0 MSTORE PUSH1 0x11 PUSH1 0x4 MSTORE PUSH1 0x24 PUSH1 0x0 REVERT JUMPDEST PUSH1 0x0 PUSH2 0x1350 DUP3 PUSH2 0xED0 JUMP JUMPDEST SWAP2 POP PUSH32 0xFFFFFFFFFFFFFFFFFFFFFFFFFFFFFFFFFFFFFFFFFFFFFFFFFFFFFFFFFFFFFFFF DUP3 SUB PUSH2 0x1382 JUMPI PUSH2 0x1381 PUSH2 0x1316 JUMP JUMPDEST JUMPDEST PUSH1 0x1 DUP3 ADD SWAP1 POP SWAP2 SWAP1 POP JUMP JUMPDEST PUSH32 0x4F776E61626C653A206E6577206F776E657220697320746865207A65726F2061 PUSH1 0x0 DUP3 ADD MSTORE PUSH32 0x6464726573730000000000000000000000000000000000000000000000000000 PUSH1 0x20 DUP3 ADD MSTORE POP JUMP JUMPDEST PUSH1 0x0 PUSH2 0x13E9 PUSH1 0x26 DUP4 PUSH2 0x11FE JUMP JUMPDEST SWAP2 POP PUSH2 0x13F4 DUP3 PUSH2 0x138D JUMP JUMPDEST PUSH1 0x40 DUP3 ADD SWAP1 POP SWAP2 SWAP1 POP JUMP JUMPDEST PUSH1 0x0 PUSH1 0x20 DUP3 ADD SWAP1 POP DUP2 DUP2 SUB PUSH1 0x0 DUP4 ADD MSTORE PUSH2 0x1418 DUP2 PUSH2 0x13DC JUMP JUMPDEST SWAP1 POP SWAP2 SWAP1 POP JUMP JUMPDEST PUSH32 0x4E487B7100000000000000000000000000000000000000000000000000000000 PUSH1 0x0 MSTORE PUSH1 0x12 PUSH1 0x4 MSTORE PUSH1 0x24 PUSH1 0x0 REVERT JUMPDEST PUSH1 0x0 PUSH2 0x1459 DUP3 PUSH2 0xED0 JUMP JUMPDEST SWAP2 POP PUSH2 0x1464 DUP4 PUSH2 0xED0 JUMP JUMPDEST SWAP3 POP DUP3 PUSH2 0x1474 JUMPI PUSH2 0x1473 PUSH2 0x141F JUMP JUMPDEST JUMPDEST DUP3 DUP3 DIV SWAP1 POP SWAP3 SWAP2 POP POP JUMP JUMPDEST PUSH1 0x0 PUSH2 0x148A DUP3 PUSH2 0xED0 JUMP JUMPDEST SWAP2 POP PUSH2 0x1495 DUP4 PUSH2 0xED0 JUMP JUMPDEST SWAP3 POP DUP3 DUP3 MUL PUSH2 0x14A3 DUP2 PUSH2 0xED0 JUMP JUMPDEST SWAP2 POP DUP3 DUP3 DIV DUP5 EQ DUP4 ISZERO OR PUSH2 0x14BA JUMPI PUSH2 0x14B9 PUSH2 0x1316 JUMP JUMPDEST JUMPDEST POP SWAP3 SWAP2 POP POP JUMP INVALID LOG2 PUSH5 0x6970667358 0x22 SLT KECCAK256 0xC8 0xE1 0xB8 CALLDATACOPY BLOCKHASH 0xAD 0xDF 0xBD JUMPI CODESIZE 0xD7 AND PUSH24 0x8813E79CAE25F52B3A338DFA8D5516369B8C8E64736F6C63 NUMBER STOP ADDMOD SGT STOP CALLER "
				},
				"gasEstimates": {
					"creation": {
						"codeDepositCost": "1073400",
						"executionCost": "infinite",
						"totalCost": "infinite"
					},
					"external": {
						"WETH()": "2580",
						"aPrice(address,address)": "infinite",
						"getAssetPrice(address,address,uint256)": "infinite",
						"getChainLinkAssetPrice(address)": "infinite",
						"getLatestPrice(address)": "infinite",
						"getUniswapV3Price(address,address)": "infinite",
						"owner()": "2566",
						"renounceOwnership()": "30374",
						"setAssetOracles(address[],address[])": "infinite",
						"setTokenPrice(address,address,uint256)": "infinite",
						"setTokenPriceB(address,address,uint256)": "infinite",
						"transferOwnership(address)": "30808"
					}
				},
				"methodIdentifiers": {
					"WETH()": "ad5c4648",
					"aPrice(address,address)": "f56730ac",
					"getAssetPrice(address,address,uint256)": "5b2e4dc5",
					"getChainLinkAssetPrice(address)": "7bc6c34e",
					"getLatestPrice(address)": "16345f18",
					"getUniswapV3Price(address,address)": "39c0f0c4",
					"owner()": "8da5cb5b",
					"renounceOwnership()": "715018a6",
					"setAssetOracles(address[],address[])": "3fbff512",
					"setTokenPrice(address,address,uint256)": "4cb3dc2e",
					"setTokenPriceB(address,address,uint256)": "3176fce1",
					"transferOwnership(address)": "f2fde38b"
				}
			},
			"storageLayout": {
				"storage": [
					{
						"astId": 7,
						"contract": "oracle.sol:UnilendV2oracle",
						"label": "_owner",
						"offset": 0,
						"slot": "0",
						"type": "t_address"
					},
					{
						"astId": 494,
						"contract": "oracle.sol:UnilendV2oracle",
						"label": "WETH",
						"offset": 0,
						"slot": "1",
						"type": "t_address"
					},
					{
						"astId": 499,
						"contract": "oracle.sol:UnilendV2oracle",
						"label": "assetsOracles",
						"offset": 0,
						"slot": "2",
						"type": "t_mapping(t_address,t_contract(AggregatorV3Interface)487)"
					},
					{
						"astId": 802,
						"contract": "oracle.sol:UnilendV2oracle",
						"label": "aPrice",
						"offset": 0,
						"slot": "3",
						"type": "t_mapping(t_address,t_mapping(t_address,t_uint256))"
					}
				],
				"types": {
					"t_address": {
						"encoding": "inplace",
						"label": "address",
						"numberOfBytes": "20"
					},
					"t_contract(AggregatorV3Interface)487": {
						"encoding": "inplace",
						"label": "contract AggregatorV3Interface",
						"numberOfBytes": "20"
					},
					"t_mapping(t_address,t_contract(AggregatorV3Interface)487)": {
						"encoding": "mapping",
						"key": "t_address",
						"label": "mapping(address => contract AggregatorV3Interface)",
						"numberOfBytes": "32",
						"value": "t_contract(AggregatorV3Interface)487"
					},
					"t_mapping(t_address,t_mapping(t_address,t_uint256))": {
						"encoding": "mapping",
						"key": "t_address",
						"label": "mapping(address => mapping(address => uint256))",
						"numberOfBytes": "32",
						"value": "t_mapping(t_address,t_uint256)"
					},
					"t_mapping(t_address,t_uint256)": {
						"encoding": "mapping",
						"key": "t_address",
						"label": "mapping(address => uint256)",
						"numberOfBytes": "32",
						"value": "t_uint256"
					},
					"t_uint256": {
						"encoding": "inplace",
						"label": "uint256",
						"numberOfBytes": "32"
					}
				}
			},
			"userdoc": {
				"kind": "user",
				"methods": {},
				"version": 1
			}
		}
	}
}