{
	"data": {
		"bytecode": {
			"linkReferences": {},
			"object": "608060405234801561001057600080fd5b5061034c806100206000396000f3fe608060405234801561001057600080fd5b506004361061002b5760003560e01c80634c8f48bb14610030575b600080fd5b61004a60048036038101906100459190610150565b610060565b604051610057919061019b565b60405180910390f35b60008060008411156100ae576100ab61008285856100f990919063ffffffff16565b61009d670de0b6b3a76400008761010f90919063ffffffff16565b61012590919063ffffffff16565b90505b60006100d76100c7601e8461010f90919063ffffffff16565b600a6100f990919063ffffffff16565b90506100ef622014808261012590919063ffffffff16565b9250505092915050565b6000818361010791906101b6565b905092915050565b6000818361011d919061023d565b905092915050565b60008183610133919061020c565b905092915050565b60008135905061014a816102ff565b92915050565b6000806040838503121561016357600080fd5b60006101718582860161013b565b92505060206101828582860161013b565b9150509250929050565b61019581610297565b82525050565b60006020820190506101b0600083018461018c565b92915050565b60006101c182610297565b91506101cc83610297565b9250827fffffffffffffffffffffffffffffffffffffffffffffffffffffffffffffffff03821115610201576102006102a1565b5b828201905092915050565b600061021782610297565b915061022283610297565b925082610232576102316102d0565b5b828204905092915050565b600061024882610297565b915061025383610297565b9250817fffffffffffffffffffffffffffffffffffffffffffffffffffffffffffffffff048311821515161561028c5761028b6102a1565b5b828202905092915050565b6000819050919050565b7f4e487b7100000000000000000000000000000000000000000000000000000000600052601160045260246000fd5b7f4e487b7100000000000000000000000000000000000000000000000000000000600052601260045260246000fd5b61030881610297565b811461031357600080fd5b5056fea26469706673582212202de1c99a28b053a4e9ea7e0f98052a758846b5bc0943db82c187a04508db76fc64736f6c63430008020033",
			"opcodes": "PUSH1 0x80 PUSH1 0x40 MSTORE CALLVALUE DUP1 ISZERO PUSH2 0x10 JUMPI PUSH1 0x0 DUP1 REVERT JUMPDEST POP PUSH2 0x34C DUP1 PUSH2 0x20 PUSH1 0x0 CODECOPY PUSH1 0x0 RETURN INVALID PUSH1 0x80 PUSH1 0x40 MSTORE CALLVALUE DUP1 ISZERO PUSH2 0x10 JUMPI PUSH1 0x0 DUP1 REVERT JUMPDEST POP PUSH1 0x4 CALLDATASIZE LT PUSH2 0x2B JUMPI PUSH1 0x0 CALLDATALOAD PUSH1 0xE0 SHR DUP1 PUSH4 0x4C8F48BB EQ PUSH2 0x30 JUMPI JUMPDEST PUSH1 0x0 DUP1 REVERT JUMPDEST PUSH2 0x4A PUSH1 0x4 DUP1 CALLDATASIZE SUB DUP2 ADD SWAP1 PUSH2 0x45 SWAP2 SWAP1 PUSH2 0x150 JUMP JUMPDEST PUSH2 0x60 JUMP JUMPDEST PUSH1 0x40 MLOAD PUSH2 0x57 SWAP2 SWAP1 PUSH2 0x19B JUMP JUMPDEST PUSH1 0x40 MLOAD DUP1 SWAP2 SUB SWAP1 RETURN JUMPDEST PUSH1 0x0 DUP1 PUSH1 0x0 DUP5 GT ISZERO PUSH2 0xAE JUMPI PUSH2 0xAB PUSH2 0x82 DUP6 DUP6 PUSH2 0xF9 SWAP1 SWAP2 SWAP1 PUSH4 0xFFFFFFFF AND JUMP JUMPDEST PUSH2 0x9D PUSH8 0xDE0B6B3A7640000 DUP8 PUSH2 0x10F SWAP1 SWAP2 SWAP1 PUSH4 0xFFFFFFFF AND JUMP JUMPDEST PUSH2 0x125 SWAP1 SWAP2 SWAP1 PUSH4 0xFFFFFFFF AND JUMP JUMPDEST SWAP1 POP JUMPDEST PUSH1 0x0 PUSH2 0xD7 PUSH2 0xC7 PUSH1 0x1E DUP5 PUSH2 0x10F SWAP1 SWAP2 SWAP1 PUSH4 0xFFFFFFFF AND JUMP JUMPDEST PUSH1 0xA PUSH2 0xF9 SWAP1 SWAP2 SWAP1 PUSH4 0xFFFFFFFF AND JUMP JUMPDEST SWAP1 POP PUSH2 0xEF PUSH3 0x201480 DUP3 PUSH2 0x125 SWAP1 SWAP2 SWAP1 PUSH4 0xFFFFFFFF AND JUMP JUMPDEST SWAP3 POP POP POP SWAP3 SWAP2 POP POP JUMP JUMPDEST PUSH1 0x0 DUP2 DUP4 PUSH2 0x107 SWAP2 SWAP1 PUSH2 0x1B6 JUMP JUMPDEST SWAP1 POP SWAP3 SWAP2 POP POP JUMP JUMPDEST PUSH1 0x0 DUP2 DUP4 PUSH2 0x11D SWAP2 SWAP1 PUSH2 0x23D JUMP JUMPDEST SWAP1 POP SWAP3 SWAP2 POP POP JUMP JUMPDEST PUSH1 0x0 DUP2 DUP4 PUSH2 0x133 SWAP2 SWAP1 PUSH2 0x20C JUMP JUMPDEST SWAP1 POP SWAP3 SWAP2 POP POP JUMP JUMPDEST PUSH1 0x0 DUP2 CALLDATALOAD SWAP1 POP PUSH2 0x14A DUP2 PUSH2 0x2FF JUMP JUMPDEST SWAP3 SWAP2 POP POP JUMP JUMPDEST PUSH1 0x0 DUP1 PUSH1 0x40 DUP4 DUP6 SUB SLT ISZERO PUSH2 0x163 JUMPI PUSH1 0x0 DUP1 REVERT JUMPDEST PUSH1 0x0 PUSH2 0x171 DUP6 DUP3 DUP7 ADD PUSH2 0x13B JUMP JUMPDEST SWAP3 POP POP PUSH1 0x20 PUSH2 0x182 DUP6 DUP3 DUP7 ADD PUSH2 0x13B JUMP JUMPDEST SWAP2 POP POP SWAP3 POP SWAP3 SWAP1 POP JUMP JUMPDEST PUSH2 0x195 DUP2 PUSH2 0x297 JUMP JUMPDEST DUP3 MSTORE POP POP JUMP JUMPDEST PUSH1 0x0 PUSH1 0x20 DUP3 ADD SWAP1 POP PUSH2 0x1B0 PUSH1 0x0 DUP4 ADD DUP5 PUSH2 0x18C JUMP JUMPDEST SWAP3 SWAP2 POP POP JUMP JUMPDEST PUSH1 0x0 PUSH2 0x1C1 DUP3 PUSH2 0x297 JUMP JUMPDEST SWAP2 POP PUSH2 0x1CC DUP4 PUSH2 0x297 JUMP JUMPDEST SWAP3 POP DUP3 PUSH32 0xFFFFFFFFFFFFFFFFFFFFFFFFFFFFFFFFFFFFFFFFFFFFFFFFFFFFFFFFFFFFFFFF SUB DUP3 GT ISZERO PUSH2 0x201 JUMPI PUSH2 0x200 PUSH2 0x2A1 JUMP JUMPDEST JUMPDEST DUP3 DUP3 ADD SWAP1 POP SWAP3 SWAP2 POP POP JUMP JUMPDEST PUSH1 0x0 PUSH2 0x217 DUP3 PUSH2 0x297 JUMP JUMPDEST SWAP2 POP PUSH2 0x222 DUP4 PUSH2 0x297 JUMP JUMPDEST SWAP3 POP DUP3 PUSH2 0x232 JUMPI PUSH2 0x231 PUSH2 0x2D0 JUMP JUMPDEST JUMPDEST DUP3 DUP3 DIV SWAP1 POP SWAP3 SWAP2 POP POP JUMP JUMPDEST PUSH1 0x0 PUSH2 0x248 DUP3 PUSH2 0x297 JUMP JUMPDEST SWAP2 POP PUSH2 0x253 DUP4 PUSH2 0x297 JUMP JUMPDEST SWAP3 POP DUP2 PUSH32 0xFFFFFFFFFFFFFFFFFFFFFFFFFFFFFFFFFFFFFFFFFFFFFFFFFFFFFFFFFFFFFFFF DIV DUP4 GT DUP3 ISZERO ISZERO AND ISZERO PUSH2 0x28C JUMPI PUSH2 0x28B PUSH2 0x2A1 JUMP JUMPDEST JUMPDEST DUP3 DUP3 MUL SWAP1 POP SWAP3 SWAP2 POP POP JUMP JUMPDEST PUSH1 0x0 DUP2 SWAP1 POP SWAP2 SWAP1 POP JUMP JUMPDEST PUSH32 0x4E487B7100000000000000000000000000000000000000000000000000000000 PUSH1 0x0 MSTORE PUSH1 0x11 PUSH1 0x4 MSTORE PUSH1 0x24 PUSH1 0x0 REVERT JUMPDEST PUSH32 0x4E487B7100000000000000000000000000000000000000000000000000000000 PUSH1 0x0 MSTORE PUSH1 0x12 PUSH1 0x4 MSTORE PUSH1 0x24 PUSH1 0x0 REVERT JUMPDEST PUSH2 0x308 DUP2 PUSH2 0x297 JUMP JUMPDEST DUP2 EQ PUSH2 0x313 JUMPI PUSH1 0x0 DUP1 REVERT JUMPDEST POP JUMP INVALID LOG2 PUSH5 0x6970667358 0x22 SLT KECCAK256 0x2D 0xE1 0xC9 SWAP11 0x28 0xB0 MSTORE8 LOG4 0xE9 0xEA PUSH31 0xF98052A758846B5BC0943DB82C187A04508DB76FC64736F6C634300080200 CALLER "
		},
		"gasEstimates": {
			"creation": {
				"codeDepositCost": "168800",
				"executionCost": "214",
				"totalCost": "169014"
			},
			"external": {
				"getCurrentInterestRate(uint256,uint256)": "infinite"
			}
		},
		"methodIdentifiers": {
			"getCurrentInterestRate(uint256,uint256)": "4c8f48bb"
		}
	},
	"abi": [
		{
			"inputs": [],
			"stateMutability": "nonpayable",
			"type": "constructor"
		},
		{
			"inputs": [
				{
					"internalType": "uint256",
					"name": "totalBorrow",
					"type": "uint256"
				},
				{
					"internalType": "uint256",
					"name": "availableBorrow",
					"type": "uint256"
				}
			],
			"name": "getCurrentInterestRate",
			"outputs": [
				{
					"internalType": "uint256",
					"name": "",
					"type": "uint256"
				}
			],
			"stateMutability": "pure",
			"type": "function"
		}
	]
}