{
	"data": {
		"bytecode": {
			"linkReferences": {},
			"object": "608060405234801561001057600080fd5b5033600260006101000a81548173ffffffffffffffffffffffffffffffffffffffff021916908373ffffffffffffffffffffffffffffffffffffffff16021790555061601980620000626000396000f3fe608060405234801561001057600080fd5b506004361061023b5760003560e01c806399cd69d11161013b578063c3525c28116100b8578063d21220a71161007c578063d21220a71461073a578063d336bbd514610758578063f2f4eb2614610789578063f7ad458b146107a7578063fee151ae146107c35761023b565b8063c3525c2814610680578063c6dfa13f1461069e578063c74fdd77146106ce578063c838249e146106ec578063d0b06f5d1461071c5761023b565b8063a93d1e64116100ff578063a93d1e64146105c6578063aad2476d146105f7578063ac89695114610613578063bfde2d5214610633578063c097e8d91461064f5761023b565b806399cd69d11461050a5780639e83b0781461053a5780639ffadd7b1461056b578063a0ab910e14610589578063a6afed95146105bc5761023b565b80634ed2b8ac116101c957806384ee000c1161018d57806384ee000c1461044e57806385e907601461047f57806388a0a1c71461049d5780638c3b690d146104ce578063930f7ee8146104ea5761023b565b80634ed2b8ac146103a557806353a86202146103c357806369f4e52d146103e157806373748381146103ff57806377ff1ef11461041b5761023b565b80630dfe1681116102105780630dfe1681146102db5780632b23ae49146102f95780632b8ebe8b146103295780633d101c12146103595780634dd9cbf4146103755761023b565b80627fdd4514610240578062cb8e221461025c578063023948881461028c57806307dc8ce3146102bf575b600080fd5b61025a60048036038101906102559190614c59565b6107ea565b005b61027660048036038101906102719190614d52565b6109b1565b6040516102839190614dc8565b60405180910390f35b6102a660048036038101906102a19190614de3565b610ae7565b6040516102b69493929190614e1f565b60405180910390f35b6102d960048036038101906102d49190614e64565b610b5b565b005b6102e3610c51565b6040516102f09190614ea0565b60405180910390f35b610313600480360381019061030e9190614f76565b610c75565b6040516103209190614dc8565b60405180910390f35b610343600480360381019061033e919061501d565b610e25565b6040516103509190614dc8565b60405180910390f35b610373600480360381019061036e9190614e64565b61134e565b005b61038f600480360381019061038a9190615070565b611444565b60405161039c91906150b0565b60405180910390f35b6103ad611856565b6040516103ba91906150b0565b60405180910390f35b6103cb611870565b6040516103d891906150b0565b60405180910390f35b6103e961188a565b6040516103f691906150b0565b60405180910390f35b610419600480360381019061041491906150cb565b6119e9565b005b61043560048036038101906104309190614de3565b611b18565b6040516104459493929190614e1f565b60405180910390f35b61046860048036038101906104639190614de3565b611b47565b6040516104769291906150f8565b60405180910390f35b610487611d28565b60405161049491906150b0565b60405180910390f35b6104b760048036038101906104b29190614de3565b611e85565b6040516104c59291906150f8565b60405180910390f35b6104e860048036038101906104e39190615121565b612065565b005b6104f2612176565b60405161050193929190615161565b60405180910390f35b610524600480360381019061051f919061501d565b61218e565b6040516105319190614dc8565b60405180910390f35b610554600480360381019061054f9190614de3565b61273d565b6040516105629291906150f8565b60405180910390f35b610573612a8b565b60405161058091906150b0565b60405180910390f35b6105a3600480360381019061059e9190614de3565b612aa5565b6040516105b39493929190614e1f565b60405180910390f35b6105c4612ad5565b005b6105e060048036038101906105db9190614de3565b612bdc565b6040516105ee9291906150f8565b60405180910390f35b610611600480360381019061060c9190614e64565b612c3d565b005b61061b612d33565b60405161062a93929190615161565b60405180910390f35b61064d60048036038101906106489190615198565b612d4b565b005b61066960048036038101906106649190614de3565b612deb565b6040516106779291906150f8565b60405180910390f35b610688613113565b604051610695919061520e565b60405180910390f35b6106b860048036038101906106b39190615229565b61311f565b6040516106c591906150b0565b60405180910390f35b6106d66131c7565b6040516106e39190614ea0565b60405180910390f35b6107066004803603810190610701919061501d565b6131ed565b6040516107139190614dc8565b60405180910390f35b61072461352d565b60405161073191906150b0565b60405180910390f35b610742613533565b60405161074f9190614ea0565b60405180910390f35b610772600480360381019061076d9190614de3565b613559565b6040516107809291906150f8565b60405180910390f35b6107916135ba565b60405161079e919061528a565b60405180910390f35b6107c160048036038101906107bc91906152d1565b6135e0565b005b6107cb613929565b6040516107e19a99989796959493929190615324565b60405180910390f35b600260149054906101000a900460ff161561083a576040517f08c379a00000000000000000000000000000000000000000000000000000000081526004016108319061541d565b60405180910390fd5b6001600260146101000a81548160ff021916908315150217905550856000806101000a81548173ffffffffffffffffffffffffffffffffffffffff021916908373ffffffffffffffffffffffffffffffffffffffff16021790555084600160006101000a81548173ffffffffffffffffffffffffffffffffffffffff021916908373ffffffffffffffffffffffffffffffffffffffff16021790555083600360006101000a81548173ffffffffffffffffffffffffffffffffffffffff021916908373ffffffffffffffffffffffffffffffffffffffff16021790555033600260006101000a81548173ffffffffffffffffffffffffffffffffffffffff021916908373ffffffffffffffffffffffffffffffffffffffff16021790555082600560006101000a81548160ff021916908360ff16021790555081600560016101000a81548160ff021916908360ff16021790555080600560026101000a81548160ff021916908360ff160217905550505050505050565b60003373ffffffffffffffffffffffffffffffffffffffff16600260009054906101000a900473ffffffffffffffffffffffffffffffffffffffff1673ffffffffffffffffffffffffffffffffffffffff1614610a43576040517f08c379a0000000000000000000000000000000000000000000000000000000008152600401610a3a90615489565b60405180910390fd5b610a4b612ad5565b6000610a58868685613aca565b809250819350505060008303610ade576000811215610aa657610aa560008054906101000a900473ffffffffffffffffffffffffffffffffffffffff168583610aa0906154d8565b6142a6565b5b6000811315610add57610adc600160009054906101000a900473ffffffffffffffffffffffffffffffffffffffff1685836142a6565b5b5b50949350505050565b6000806000806000600c6000878152602001908152602001600020604051806080016040529081600082015481526020016001820154815260200160028201548152602001600382015481525050905080600001518160400151826020015183606001519450945094509450509193509193565b3373ffffffffffffffffffffffffffffffffffffffff16600260009054906101000a900473ffffffffffffffffffffffffffffffffffffffff1673ffffffffffffffffffffffffffffffffffffffff1614610beb576040517f08c379a0000000000000000000000000000000000000000000000000000000008152600401610be290615489565b60405180910390fd5b7f920ca59b06c04301dd04742069a768501753072c3a21faede7c5fc9d5f132922600560029054906101000a900460ff1682604051610c2b92919061555b565b60405180910390a180600560026101000a81548160ff021916908360ff16021790555050565b60008054906101000a900473ffffffffffffffffffffffffffffffffffffffff1681565b60003373ffffffffffffffffffffffffffffffffffffffff16600260009054906101000a900473ffffffffffffffffffffffffffffffffffffffff1673ffffffffffffffffffffffffffffffffffffffff1614610d07576040517f08c379a0000000000000000000000000000000000000000000000000000000008152600401610cfe90615489565b60405180910390fd5b610d0f612ad5565b600080600080600090505b8a8a9050811015610d9957610d628b8b83818110610d3b57610d3a615584565b5b905060200201358a8a84818110610d5557610d54615584565b5b9050602002013588613aca565b80945081955050508385610d7691906155b3565b94508282610d8491906155b3565b91508080610d91906155f7565b915050610d1a565b5060008503610e18576000811215610de057610ddf60008054906101000a900473ffffffffffffffffffffffffffffffffffffffff168783610dda906154d8565b6142a6565b5b6000811315610e1757610e16600160009054906101000a900473ffffffffffffffffffffffffffffffffffffffff1687836142a6565b5b5b5050509695505050505050565b60003373ffffffffffffffffffffffffffffffffffffffff16600260009054906101000a900473ffffffffffffffffffffffffffffffffffffffff1673ffffffffffffffffffffffffffffffffffffffff1614610eb7576040517f08c379a0000000000000000000000000000000000000000000000000000000008152600401610eae90615489565b60405180910390fd5b610ebf612ad5565b6000600c6000868152602001908152602001600020905060008412156111225783610ee9906154d8565b81600001541015610f2f576040517f08c379a0000000000000000000000000000000000000000000000000000000008152600401610f269061568b565b60405180910390fd5b60006006905060008060009054906101000a900473ffffffffffffffffffffffffffffffffffffffff1673ffffffffffffffffffffffffffffffffffffffff166370a08231306040518263ffffffff1660e01b8152600401610f919190614ea0565b602060405180830381865afa158015610fae573d6000803e3d6000fd5b505050506040513d601f19601f82011682018060405250810190610fd291906156c0565b90506000610fed83600201548361434590919063ffffffff16565b905060006110098285600001548a611004906154d8565b61435b565b905080611015906154d8565b95508083101561105a576040517f08c379a000000000000000000000000000000000000000000000000000000000815260040161105190615739565b60405180910390fd5b61106f8989611068906154d8565b600061438b565b61107889614446565b6110a360008054906101000a900473ffffffffffffffffffffffffffffffffffffffff1688836142a6565b8860008054906101000a900473ffffffffffffffffffffffffffffffffffffffff1673ffffffffffffffffffffffffffffffffffffffff167fbd5034ffbd47e4e72a94baa2cdb74c6fad73cb3bcdc13036b72ec8306f5a76468a611106906154d8565b846040516111159291906150f8565b60405180910390a3505050505b6000841315611346578381600101541015611172576040517f08c379a00000000000000000000000000000000000000000000000000000000081526004016111699061568b565b60405180910390fd5b6000600990506000600160009054906101000a900473ffffffffffffffffffffffffffffffffffffffff1673ffffffffffffffffffffffffffffffffffffffff166370a08231306040518263ffffffff1660e01b81526004016111d59190614ea0565b602060405180830381865afa1580156111f2573d6000803e3d6000fd5b505050506040513d601f19601f8201168201806040525081019061121691906156c0565b9050600061123183600201548361434590919063ffffffff16565b905060006112448285600001548a61435b565b90508095508083101561128c576040517f08c379a000000000000000000000000000000000000000000000000000000000815260040161128390615739565b60405180910390fd5b6112988960008a61438b565b6112a189614446565b6112ce600160009054906101000a900473ffffffffffffffffffffffffffffffffffffffff1688836142a6565b88600160009054906101000a900473ffffffffffffffffffffffffffffffffffffffff1673ffffffffffffffffffffffffffffffffffffffff167fbd5034ffbd47e4e72a94baa2cdb74c6fad73cb3bcdc13036b72ec8306f5a76468a846040516113399291906150f8565b60405180910390a3505050505b509392505050565b3373ffffffffffffffffffffffffffffffffffffffff16600260009054906101000a900473ffffffffffffffffffffffffffffffffffffffff1673ffffffffffffffffffffffffffffffffffffffff16146113de576040517f08c379a00000000000000000000000000000000000000000000000000000000081526004016113d590615489565b60405180910390fd5b7fd04c878d2a248240897565030bafc976938e7c67cb6ad92bc030ca9ed3c75bc0600560019054906101000a900460ff168260405161141e92919061555b565b60405180910390a180600560016101000a81548160ff021916908360ff16021790555050565b60003373ffffffffffffffffffffffffffffffffffffffff16600260009054906101000a900473ffffffffffffffffffffffffffffffffffffffff1673ffffffffffffffffffffffffffffffffffffffff16146114d6576040517f08c379a00000000000000000000000000000000000000000000000000000000081526004016114cd90615489565b60405180910390fd5b60008060008412156116985760006006905060008060009054906101000a900473ffffffffffffffffffffffffffffffffffffffff1673ffffffffffffffffffffffffffffffffffffffff166370a08231306040518263ffffffff1660e01b81526004016115449190614ea0565b602060405180830381865afa158015611561573d6000803e3d6000fd5b505050506040513d601f19601f8201168201806040525081019061158591906156c0565b905060006115a083600201548361434590919063ffffffff16565b90506115d583600001546115c6896115b7906154d8565b8461450390919063ffffffff16565b896115d0906154d8565b614519565b94506000851161161a576040517f08c379a0000000000000000000000000000000000000000000000000000000008152600401611611906157a5565b60405180910390fd5b8760008054906101000a900473ffffffffffffffffffffffffffffffffffffffff1673ffffffffffffffffffffffffffffffffffffffff167faf77103a98a12032881b6214985e03ff85a9c1ad6fed28f4b0f3c52e01bcc58b8961167d906154d8565b8860405161168c9291906150f8565b60405180910390a35050505b600084131561183f576000600990506000600160009054906101000a900473ffffffffffffffffffffffffffffffffffffffff1673ffffffffffffffffffffffffffffffffffffffff166370a08231306040518263ffffffff1660e01b81526004016117049190614ea0565b602060405180830381865afa158015611721573d6000803e3d6000fd5b505050506040513d601f19601f8201168201806040525081019061174591906156c0565b9050600061176083600201548361434590919063ffffffff16565b9050611783836000015461177d898461450390919063ffffffff16565b89614519565b9350600084116117c8576040517f08c379a00000000000000000000000000000000000000000000000000000000081526004016117bf906157a5565b60405180910390fd5b87600160009054906101000a900473ffffffffffffffffffffffffffffffffffffffff1673ffffffffffffffffffffffffffffffffffffffff167faf77103a98a12032881b6214985e03ff85a9c1ad6fed28f4b0f3c52e01bcc58b89876040516118339291906150f8565b60405180910390a35050505b61184a858383614573565b60009250505092915050565b6000600560009054906101000a900460ff1660ff16905090565b6000600560019054906101000a900460ff1660ff16905090565b6000806009604051806060016040529081600082015481526020016001820154815260200160028201548152505090506000816040015190506000611973600160009054906101000a900473ffffffffffffffffffffffffffffffffffffffff1673ffffffffffffffffffffffffffffffffffffffff166370a08231306040518263ffffffff1660e01b81526004016119239190614ea0565b602060405180830381865afa158015611940573d6000803e3d6000fd5b505050506040513d601f19601f8201168201806040525081019061196491906156c0565b8361434590919063ffffffff16565b905060006119c260646119b46119a5600560029054906101000a900460ff1660ff16606461450390919063ffffffff16565b8561462e90919063ffffffff16565b61464490919063ffffffff16565b9050828111156119e2576119df838261450390919063ffffffff16565b94505b5050505090565b3373ffffffffffffffffffffffffffffffffffffffff16600260009054906101000a900473ffffffffffffffffffffffffffffffffffffffff1673ffffffffffffffffffffffffffffffffffffffff1614611a79576040517f08c379a0000000000000000000000000000000000000000000000000000000008152600401611a7090615489565b60405180910390fd5b7fedffc32e068c7c95dfd4bdfd5c4d939a084d6b11c4199eac8436ed234d72f926600360009054906101000a900473ffffffffffffffffffffffffffffffffffffffff1682604051611acc9291906157c5565b60405180910390a180600360006101000a81548173ffffffffffffffffffffffffffffffffffffffff021916908373ffffffffffffffffffffffffffffffffffffffff16021790555050565b600080600080611b2785611e85565b8094508195505050611b3885611b47565b80925081935050509193509193565b6000806000600c600085815260200190815260200160002060405180608001604052908160008201548152602001600182015481526020016002820154815260200160038201548152505090506000600960405180606001604052908160008201548152602001600182015481526020016002820154815250509050600081604001519050600454431115611c21576000611bed8360400151611be861188a565b61311f565b9050611c1d611c0e84604001518360045443611c0991906157ee565b61465a565b8361434590919063ffffffff16565b9150505b600083602001511115611cfd576000600160009054906101000a900473ffffffffffffffffffffffffffffffffffffffff1673ffffffffffffffffffffffffffffffffffffffff166370a08231306040518263ffffffff1660e01b8152600401611c8b9190614ea0565b602060405180830381865afa158015611ca8573d6000803e3d6000fd5b505050506040513d601f19601f82011682018060405250810190611ccc91906156c0565b90506000611ce3838361434590919063ffffffff16565b9050611cf8818560000151876020015161435b565b965050505b600083606001511115611d2057611d1d818360200151856060015161435b565b93505b505050915091565b6000806006604051806060016040529081600082015481526020016001820154815260200160028201548152505090506000816040015190506000611e0f60008054906101000a900473ffffffffffffffffffffffffffffffffffffffff1673ffffffffffffffffffffffffffffffffffffffff166370a08231306040518263ffffffff1660e01b8152600401611dbf9190614ea0565b602060405180830381865afa158015611ddc573d6000803e3d6000fd5b505050506040513d601f19601f82011682018060405250810190611e0091906156c0565b8361434590919063ffffffff16565b90506000611e5e6064611e50611e41600560029054906101000a900460ff1660ff16606461450390919063ffffffff16565b8561462e90919063ffffffff16565b61464490919063ffffffff16565b905082811115611e7e57611e7b838261450390919063ffffffff16565b94505b5050505090565b6000806000600c600085815260200190815260200160002060405180608001604052908160008201548152602001600182015481526020016002820154815260200160038201548152505090506000600660405180606001604052908160008201548152602001600182015481526020016002820154815250509050600081604001519050600454431115611f5f576000611f2b8360400151611f26611d28565b61311f565b9050611f5b611f4c84604001518360045443611f4791906157ee565b61465a565b8361434590919063ffffffff16565b9150505b60008360000151111561203a5760008060009054906101000a900473ffffffffffffffffffffffffffffffffffffffff1673ffffffffffffffffffffffffffffffffffffffff166370a08231306040518263ffffffff1660e01b8152600401611fc89190614ea0565b602060405180830381865afa158015611fe5573d6000803e3d6000fd5b505050506040513d601f19601f8201168201806040525081019061200991906156c0565b90506000612020838361434590919063ffffffff16565b9050612035818560000151876000015161435b565b965050505b60008360400151111561205d5761205a818360200151856040015161435b565b93505b505050915091565b3373ffffffffffffffffffffffffffffffffffffffff16600260009054906101000a900473ffffffffffffffffffffffffffffffffffffffff1673ffffffffffffffffffffffffffffffffffffffff16146120f5576040517f08c379a00000000000000000000000000000000000000000000000000000000081526004016120ec90615489565b60405180910390fd5b6120fd612ad5565b600081121561213b5761213a60008054906101000a900473ffffffffffffffffffffffffffffffffffffffff168383612135906154d8565b6142a6565b5b600081131561217257612171600160009054906101000a900473ffffffffffffffffffffffffffffffffffffffff1683836142a6565b5b5050565b60098060000154908060010154908060020154905083565b60003373ffffffffffffffffffffffffffffffffffffffff16600260009054906101000a900473ffffffffffffffffffffffffffffffffffffffff1673ffffffffffffffffffffffffffffffffffffffff1614612220576040517f08c379a000000000000000000000000000000000000000000000000000000000815260040161221790615489565b60405180910390fd5b612228612ad5565b6000600c6000868152602001908152602001600020905060008412156124ce5760006006905060008060009054906101000a900473ffffffffffffffffffffffffffffffffffffffff1673ffffffffffffffffffffffffffffffffffffffff166370a08231306040518263ffffffff1660e01b81526004016122aa9190614ea0565b602060405180830381865afa1580156122c7573d6000803e3d6000fd5b505050506040513d601f19601f820116820180604052508101906122eb91906156c0565b9050600061230683600201548361434590919063ffffffff16565b905060006123228285600001548a61231d906154d8565b6146a5565b905060008111612367576040517f08c379a000000000000000000000000000000000000000000000000000000000815260040161235e9061586e565b60405180910390fd5b80856000015410156123ae576040517f08c379a00000000000000000000000000000000000000000000000000000000081526004016123a59061568b565b60405180910390fd5b876123b8906154d8565b8310156123fa576040517f08c379a00000000000000000000000000000000000000000000000000000000081526004016123f190615739565b60405180910390fd5b6124068982600061438b565b61240f89614446565b61244360008054906101000a900473ffffffffffffffffffffffffffffffffffffffff16888a61243e906154d8565b6142a6565b8061244d906154d8565b95508860008054906101000a900473ffffffffffffffffffffffffffffffffffffffff1673ffffffffffffffffffffffffffffffffffffffff167fbd5034ffbd47e4e72a94baa2cdb74c6fad73cb3bcdc13036b72ec8306f5a7646838b6124b3906154d8565b6040516124c19291906150f8565b60405180910390a3505050505b6000841315612735576000600990506000600160009054906101000a900473ffffffffffffffffffffffffffffffffffffffff1673ffffffffffffffffffffffffffffffffffffffff166370a08231306040518263ffffffff1660e01b815260040161253a9190614ea0565b602060405180830381865afa158015612557573d6000803e3d6000fd5b505050506040513d601f19601f8201168201806040525081019061257b91906156c0565b9050600061259683600201548361434590919063ffffffff16565b905060006125a98285600001548a6146a5565b9050600081116125ee576040517f08c379a00000000000000000000000000000000000000000000000000000000081526004016125e59061586e565b60405180910390fd5b8085600101541015612635576040517f08c379a000000000000000000000000000000000000000000000000000000000815260040161262c9061568b565b60405180910390fd5b87831015612678576040517f08c379a000000000000000000000000000000000000000000000000000000000815260040161266f90615739565b60405180910390fd5b6126848960008361438b565b61268d89614446565b6126ba600160009054906101000a900473ffffffffffffffffffffffffffffffffffffffff16888a6142a6565b80955088600160009054906101000a900473ffffffffffffffffffffffffffffffffffffffff1673ffffffffffffffffffffffffffffffffffffffff167fbd5034ffbd47e4e72a94baa2cdb74c6fad73cb3bcdc13036b72ec8306f5a7646838b6040516127289291906150f8565b60405180910390a3505050505b509392505050565b60008060008061274c85611e85565b9150915060008061275c87611b47565b9150915060008303612790577fffffffffffffffffffffffffffffffffffffffffffffffffffffffffffffffff95506128f1565b6000600260009054906101000a900473ffffffffffffffffffffffffffffffffffffffff1673ffffffffffffffffffffffffffffffffffffffff166394a76cbb600160009054906101000a900473ffffffffffffffffffffffffffffffffffffffff1660008054906101000a900473ffffffffffffffffffffffffffffffffffffffff16866040518463ffffffff1660e01b81526004016128339392919061588e565b602060405180830381865afa158015612850573d6000803e3d6000fd5b505050506040513d601f19601f8201168201806040525081019061287491906156c0565b90506128ed846128df60646128d1670de0b6b3a76400006128c36128b4600560019054906101000a900460ff1660ff16606461450390919063ffffffff16565b8861462e90919063ffffffff16565b61462e90919063ffffffff16565b61464490919063ffffffff16565b61464490919063ffffffff16565b9650505b60008103612921577fffffffffffffffffffffffffffffffffffffffffffffffffffffffffffffffff9450612a82565b6000600260009054906101000a900473ffffffffffffffffffffffffffffffffffffffff1673ffffffffffffffffffffffffffffffffffffffff166394a76cbb60008054906101000a900473ffffffffffffffffffffffffffffffffffffffff16600160009054906101000a900473ffffffffffffffffffffffffffffffffffffffff16886040518463ffffffff1660e01b81526004016129c49392919061588e565b602060405180830381865afa1580156129e1573d6000803e3d6000fd5b505050506040513d601f19601f82011682018060405250810190612a0591906156c0565b9050612a7e82612a706064612a62670de0b6b3a7640000612a54612a45600560019054906101000a900460ff1660ff16606461450390919063ffffffff16565b8861462e90919063ffffffff16565b61462e90919063ffffffff16565b61464490919063ffffffff16565b61464490919063ffffffff16565b9550505b50505050915091565b6000600560029054906101000a900460ff1660ff16905090565b600c6020528060005260406000206000915090508060000154908060010154908060020154908060030154905084565b600060045443612ae591906157ee565b90506000811115612bd9576000600690506000600990506000612b138360020154612b0e611d28565b61311f565b90506000612b2c8360020154612b2761188a565b61311f565b9050612b53612b408560020154848861465a565b856002015461434590919063ffffffff16565b8460020181905550612b80612b6d8460020154838861465a565b846002015461434590919063ffffffff16565b8360020181905550436004819055507ff76dba0b37479080de0de393e8b418de865edd3f02b6c797750578020b882130828286600201548660020154604051612bcc9493929190614e1f565b60405180910390a1505050505b50565b6000806000600c60008581526020019081526020016000206040518060800160405290816000820154815260200160018201548152602001600282015481526020016003820154815250509050806000015181604001519250925050915091565b3373ffffffffffffffffffffffffffffffffffffffff16600260009054906101000a900473ffffffffffffffffffffffffffffffffffffffff1673ffffffffffffffffffffffffffffffffffffffff1614612ccd576040517f08c379a0000000000000000000000000000000000000000000000000000000008152600401612cc490615489565b60405180910390fd5b7f9477068d24a10341ac83142460a142b0d6d620518b7ceb0467dd8bb01200ddc0600560009054906101000a900460ff1682604051612d0d92919061555b565b60405180910390a180600560006101000a81548160ff021916908360ff16021790555050565b60068060000154908060010154908060020154905083565b3373ffffffffffffffffffffffffffffffffffffffff16600260009054906101000a900473ffffffffffffffffffffffffffffffffffffffff1673ffffffffffffffffffffffffffffffffffffffff1614612ddb576040517f08c379a0000000000000000000000000000000000000000000000000000000008152600401612dd290615489565b60405180910390fd5b612de68284836142a6565b505050565b600080600080612dfa85611e85565b91509150600080612e0a87611b47565b9150915060008303612e3e577fffffffffffffffffffffffffffffffffffffffffffffffffffffffffffffffff9550612f8c565b6000600260009054906101000a900473ffffffffffffffffffffffffffffffffffffffff1673ffffffffffffffffffffffffffffffffffffffff166394a76cbb600160009054906101000a900473ffffffffffffffffffffffffffffffffffffffff1660008054906101000a900473ffffffffffffffffffffffffffffffffffffffff16866040518463ffffffff1660e01b8152600401612ee19392919061588e565b602060405180830381865afa158015612efe573d6000803e3d6000fd5b505050506040513d601f19601f82011682018060405250810190612f2291906156c0565b9050612f8884612f7a6064612f6c670de0b6b3a7640000612f5e600560009054906101000a900460ff1660ff168861462e90919063ffffffff16565b61462e90919063ffffffff16565b61464490919063ffffffff16565b61464490919063ffffffff16565b9650505b60008103612fbc577fffffffffffffffffffffffffffffffffffffffffffffffffffffffffffffffff945061310a565b6000600260009054906101000a900473ffffffffffffffffffffffffffffffffffffffff1673ffffffffffffffffffffffffffffffffffffffff166394a76cbb60008054906101000a900473ffffffffffffffffffffffffffffffffffffffff16600160009054906101000a900473ffffffffffffffffffffffffffffffffffffffff16886040518463ffffffff1660e01b815260040161305f9392919061588e565b602060405180830381865afa15801561307c573d6000803e3d6000fd5b505050506040513d601f19601f820116820180604052508101906130a091906156c0565b9050613106826130f860646130ea670de0b6b3a76400006130dc600560009054906101000a900460ff1660ff168861462e90919063ffffffff16565b61462e90919063ffffffff16565b61464490919063ffffffff16565b61464490919063ffffffff16565b9550505b50505050915091565b670de0b6b3a764000081565b6000600360009054906101000a900473ffffffffffffffffffffffffffffffffffffffff1673ffffffffffffffffffffffffffffffffffffffff16634c8f48bb84846040518363ffffffff1660e01b815260040161317e9291906150f8565b602060405180830381865afa15801561319b573d6000803e3d6000fd5b505050506040513d601f19601f820116820180604052508101906131bf91906156c0565b905092915050565b600360009054906101000a900473ffffffffffffffffffffffffffffffffffffffff1681565b60003373ffffffffffffffffffffffffffffffffffffffff16600260009054906101000a900473ffffffffffffffffffffffffffffffffffffffff1673ffffffffffffffffffffffffffffffffffffffff161461327f576040517f08c379a000000000000000000000000000000000000000000000000000000000815260040161327690615489565b60405180910390fd5b613287612ad5565b6000600c6000868152602001908152602001600020905060008412156133f75760006006905060008160020154905060006132cb828460010154866002015461435b565b905080876132d8906154d8565b111561331e57806132e8906154d8565b96506132fa88856002015460006146d5565b61331181846002015461450390919063ffffffff16565b8360020181905550613370565b60006133388385600101548a613333906154d8565b6146a5565b9050613346898260006146d5565b61336688613353906154d8565b856002015461450390919063ffffffff16565b8460020181905550505b8694508760008054906101000a900473ffffffffffffffffffffffffffffffffffffffff1673ffffffffffffffffffffffffffffffffffffffff167ff2e05b26b4020b61a94725f7a9bd18e24b72eec2c9fa3592040e872f65dd172a896133d6906154d8565b86600201548a6040516133eb939291906158c5565b60405180910390a35050505b6000841315613525576000600990506000816002015490506000613424828460010154866003015461435b565b9050808711156134655780965061344188600086600301546146d5565b61345881846002015461450390919063ffffffff16565b83600201819055506134a5565b60006134768385600101548a6146a5565b9050613484896000836146d5565b61349b88856002015461450390919063ffffffff16565b8460020181905550505b86945087600160009054906101000a900473ffffffffffffffffffffffffffffffffffffffff1673ffffffffffffffffffffffffffffffffffffffff167ff2e05b26b4020b61a94725f7a9bd18e24b72eec2c9fa3592040e872f65dd172a8986600201548a604051613519939291906158c5565b60405180910390a35050505b509392505050565b60045481565b600160009054906101000a900473ffffffffffffffffffffffffffffffffffffffff1681565b6000806000600c60008581526020019081526020016000206040518060800160405290816000820154815260200160018201548152602001600282015481526020016003820154815250509050806020015181606001519250925050915091565b600260009054906101000a900473ffffffffffffffffffffffffffffffffffffffff1681565b3373ffffffffffffffffffffffffffffffffffffffff16600260009054906101000a900473ffffffffffffffffffffffffffffffffffffffff1673ffffffffffffffffffffffffffffffffffffffff1614613670576040517f08c379a000000000000000000000000000000000000000000000000000000000815260040161366790615489565b60405180910390fd5b613678612ad5565b60008212156137de5760006006905060006136a582600101548360020154866136a0906154d8565b614519565b9050600081116136ea576040517f08c379a00000000000000000000000000000000000000000000000000000000081526004016136e19061596e565b60405180910390fd5b6136f685826000614790565b61371684613703906154d8565b836002015461434590919063ffffffff16565b826002018190555061372785614446565b61375b60008054906101000a900473ffffffffffffffffffffffffffffffffffffffff168486613756906154d8565b6142a6565b8460008054906101000a900473ffffffffffffffffffffffffffffffffffffffff1673ffffffffffffffffffffffffffffffffffffffff167f66213fb9f1fa2b7f0877f6506f7ce239ede54b92e550c29d9937d2808aeaa722866137be906154d8565b8560020154876040516137d3939291906159e3565b60405180910390a350505b60008213156139245760006009905060006138028260010154836002015486614519565b905060008111613847576040517f08c379a000000000000000000000000000000000000000000000000000000000815260040161383e90615a8c565b60405180910390fd5b61385385600083614790565b61386a84836002015461434590919063ffffffff16565b826002018190555061387b85614446565b6138a8600160009054906101000a900473ffffffffffffffffffffffffffffffffffffffff1684866142a6565b84600160009054906101000a900473ffffffffffffffffffffffffffffffffffffffff1673ffffffffffffffffffffffffffffffffffffffff167f66213fb9f1fa2b7f0877f6506f7ce239ede54b92e550c29d9937d2808aeaa72286856002015487604051613919939291906159e3565b60405180910390a350505b505050565b60008060008060008060008060008060006006905060006009905081600001548260010154836002015460008054906101000a900473ffffffffffffffffffffffffffffffffffffffff1673ffffffffffffffffffffffffffffffffffffffff166370a08231306040518263ffffffff1660e01b81526004016139ac9190614ea0565b602060405180830381865afa1580156139c9573d6000803e3d6000fd5b505050506040513d601f19601f820116820180604052508101906139ed91906156c0565b6139f5611d28565b856000015486600101548760020154600160009054906101000a900473ffffffffffffffffffffffffffffffffffffffff1673ffffffffffffffffffffffffffffffffffffffff166370a08231306040518263ffffffff1660e01b8152600401613a5f9190614ea0565b602060405180830381865afa158015613a7c573d6000803e3d6000fd5b505050506040513d601f19601f82011682018060405250810190613aa091906156c0565b613aa861188a565b9b509b509b509b509b509b509b509b509b509b50505090919293949596979899565b600080613ad5612ad5565b6000600690506000600990506000861215613ecc576000613af588611e85565b9150506000613b0389611b47565b50905060007fffffffffffffffffffffffffffffffffffffffffffffffffffffffffffffffff90506000831115613c95576000600260009054906101000a900473ffffffffffffffffffffffffffffffffffffffff1673ffffffffffffffffffffffffffffffffffffffff166394a76cbb600160009054906101000a900473ffffffffffffffffffffffffffffffffffffffff1660008054906101000a900473ffffffffffffffffffffffffffffffffffffffff16866040518463ffffffff1660e01b8152600401613bd79392919061588e565b602060405180830381865afa158015613bf4573d6000803e3d6000fd5b505050506040513d601f19601f82011682018060405250810190613c1891906156c0565b9050613c9184613c836064613c75670de0b6b3a7640000613c67613c58600560019054906101000a900460ff1660ff16606461450390919063ffffffff16565b8861462e90919063ffffffff16565b61462e90919063ffffffff16565b61464490919063ffffffff16565b61464490919063ffffffff16565b9150505b670de0b6b3a764000067ffffffffffffffff16811015613ec8576000808a613cbc906154d8565b8511613ccd57849150839050613d01565b8a613cd7906154d8565b9150613cfe85613cf0848761462e90919063ffffffff16565b61464490919063ffffffff16565b90505b6000613d1688600201548960010154856146a5565b9050613d248d8260006146d5565b613d3b83896002015461450390919063ffffffff16565b88600201819055506000613df78860020154600160009054906101000a900473ffffffffffffffffffffffffffffffffffffffff1673ffffffffffffffffffffffffffffffffffffffff166370a08231306040518263ffffffff1660e01b8152600401613da89190614ea0565b602060405180830381865afa158015613dc5573d6000803e3d6000fd5b505050506040513d601f19601f82011682018060405250810190613de991906156c0565b61434590919063ffffffff16565b90506000613e0a828a60000154866146a5565b9050613e188f60008361438b565b60008d1115613e2e57613e2d8d600083614573565b5b84613e38906154d8565b9b50839a5060008c1215613ec2578c8f60008054906101000a900473ffffffffffffffffffffffffffffffffffffffff1673ffffffffffffffffffffffffffffffffffffffff167ffe5a820a2eb99b358b68f7e7b16f266165d1d9c299dcf0df8f71aee2637f749f8f613eaa906154d8565b88604051613eb99291906150f8565b60405180910390a45b50505050505b5050505b600086131561429c576000613ee088611e85565b5090506000613eee89611b47565b91505060007fffffffffffffffffffffffffffffffffffffffffffffffffffffffffffffffff90506000821115614080576000600260009054906101000a900473ffffffffffffffffffffffffffffffffffffffff1673ffffffffffffffffffffffffffffffffffffffff166394a76cbb60008054906101000a900473ffffffffffffffffffffffffffffffffffffffff16600160009054906101000a900473ffffffffffffffffffffffffffffffffffffffff16876040518463ffffffff1660e01b8152600401613fc29392919061588e565b602060405180830381865afa158015613fdf573d6000803e3d6000fd5b505050506040513d601f19601f8201168201806040525081019061400391906156c0565b905061407c8361406e6064614060670de0b6b3a7640000614052614043600560019054906101000a900460ff1660ff16606461450390919063ffffffff16565b8861462e90919063ffffffff16565b61462e90919063ffffffff16565b61464490919063ffffffff16565b61464490919063ffffffff16565b9150505b670de0b6b3a764000067ffffffffffffffff16811015614298576000808a84116140af578391508490506140da565b8a91506140d7846140c9848861462e90919063ffffffff16565b61464490919063ffffffff16565b90505b60006140ef87600201548860010154856146a5565b90506140fd8d6000836146d5565b61411483886002015461450390919063ffffffff16565b876002018190555060006141ce896002015460008054906101000a900473ffffffffffffffffffffffffffffffffffffffff1673ffffffffffffffffffffffffffffffffffffffff166370a08231306040518263ffffffff1660e01b815260040161417f9190614ea0565b602060405180830381865afa15801561419c573d6000803e3d6000fd5b505050506040513d601f19601f820116820180604052508101906141c091906156c0565b61434590919063ffffffff16565b905060006141e1828b60000154866146a5565b90506141ef8f82600061438b565b60008d1115614205576142048d826000614573565b5b849b5083614212906154d8565b9a5060008c1315614292578c8f600160009054906101000a900473ffffffffffffffffffffffffffffffffffffffff1673ffffffffffffffffffffffffffffffffffffffff167ffe5a820a2eb99b358b68f7e7b16f266165d1d9c299dcf0df8f71aee2637f749f8f886040516142899291906150f8565b60405180910390a45b50505050505b5050505b5050935093915050565b600073ffffffffffffffffffffffffffffffffffffffff168273ffffffffffffffffffffffffffffffffffffffff1603614315576040517f08c379a000000000000000000000000000000000000000000000000000000000815260040161430c90615af8565b60405180910390fd5b61434082828573ffffffffffffffffffffffffffffffffffffffff1661484b9092919063ffffffff16565b505050565b600081836143539190615b18565b905092915050565b600061438283614374868561462e90919063ffffffff16565b61464490919063ffffffff16565b90509392505050565b6000600c6000858152602001908152602001600020905060008311156143f1576000600690506143c884836000015461450390919063ffffffff16565b82600001819055506143e784826000015461450390919063ffffffff16565b8160000181905550505b60008211156144405760006009905061441783836001015461450390919063ffffffff16565b826001018190555061443683826000015461450390919063ffffffff16565b8160000181905550505b50505050565b60008061445283612deb565b91509150670de0b6b3a764000067ffffffffffffffff1682116144aa576040517f08c379a00000000000000000000000000000000000000000000000000000000081526004016144a190615b98565b60405180910390fd5b670de0b6b3a764000067ffffffffffffffff1681116144fe576040517f08c379a00000000000000000000000000000000000000000000000000000000081526004016144f590615c04565b60405180910390fd5b505050565b6000818361451191906157ee565b905092915050565b60008084036145445761453d614538838461462e90919063ffffffff16565b6148d1565b905061456c565b6145698361455b868561462e90919063ffffffff16565b61464490919063ffffffff16565b90505b9392505050565b6000600c6000858152602001908152602001600020905060008311156145d9576000600690506145b084836000015461434590919063ffffffff16565b82600001819055506145cf84826000015461434590919063ffffffff16565b8160000181905550505b6000821115614628576000600990506145ff83836001015461434590919063ffffffff16565b826001018190555061461e83826000015461434590919063ffffffff16565b8160000181905550505b50505050565b6000818361463c9190615c24565b905092915050565b600081836146529190615c95565b905092915050565b600061469c68056bc75e2d6310000061468e61467f858761462e90919063ffffffff16565b8761462e90919063ffffffff16565b61464490919063ffffffff16565b90509392505050565b60006146cc846146be858561462e90919063ffffffff16565b61464490919063ffffffff16565b90509392505050565b6000600c60008581526020019081526020016000209050600083111561473b5760006006905061471284836002015461450390919063ffffffff16565b826002018190555061473184826001015461450390919063ffffffff16565b8160010181905550505b600082111561478a5760006009905061476183836003015461450390919063ffffffff16565b826003018190555061478083826001015461450390919063ffffffff16565b8160010181905550505b50505050565b6000600c6000858152602001908152602001600020905060008311156147f6576000600690506147cd84836002015461434590919063ffffffff16565b82600201819055506147ec84826001015461434590919063ffffffff16565b8160010181905550505b60008211156148455760006009905061481c83836003015461434590919063ffffffff16565b826003018190555061483b83826001015461434590919063ffffffff16565b8160010181905550505b50505050565b6148cc8363a9059cbb60e01b848460405160240161486a929190615cc6565b604051602081830303815290604052907bffffffffffffffffffffffffffffffffffffffffffffffffffffffff19166020820180517bffffffffffffffffffffffffffffffffffffffffffffffffffffffff838183161783525050505061494b565b505050565b6000600382111561493857819050600060016002846148f09190615c95565b6148fa9190615b18565b90505b818110156149325780915060028182856149179190615c95565b6149219190615b18565b61492b9190615c95565b90506148fd565b50614946565b6000821461494557600190505b5b919050565b60006149ad826040518060400160405280602081526020017f5361666545524332303a206c6f772d6c6576656c2063616c6c206661696c65648152508573ffffffffffffffffffffffffffffffffffffffff16614a129092919063ffffffff16565b9050600081511115614a0d57808060200190518101906149cd9190615d27565b614a0c576040517f08c379a0000000000000000000000000000000000000000000000000000000008152600401614a0390615dc6565b60405180910390fd5b5b505050565b6060614a218484600085614a2a565b90509392505050565b606082471015614a6f576040517f08c379a0000000000000000000000000000000000000000000000000000000008152600401614a6690615e58565b60405180910390fd5b614a7885614b3e565b614ab7576040517f08c379a0000000000000000000000000000000000000000000000000000000008152600401614aae90615ec4565b60405180910390fd5b6000808673ffffffffffffffffffffffffffffffffffffffff168587604051614ae09190615f55565b60006040518083038185875af1925050503d8060008114614b1d576040519150601f19603f3d011682016040523d82523d6000602084013e614b22565b606091505b5091509150614b32828286614b51565b92505050949350505050565b600080823b905060008111915050919050565b60608315614b6157829050614bb1565b600083511115614b745782518084602001fd5b816040517f08c379a0000000000000000000000000000000000000000000000000000000008152600401614ba89190615fc1565b60405180910390fd5b9392505050565b600080fd5b600080fd5b600073ffffffffffffffffffffffffffffffffffffffff82169050919050565b6000614bed82614bc2565b9050919050565b614bfd81614be2565b8114614c0857600080fd5b50565b600081359050614c1a81614bf4565b92915050565b600060ff82169050919050565b614c3681614c20565b8114614c4157600080fd5b50565b600081359050614c5381614c2d565b92915050565b60008060008060008060c08789031215614c7657614c75614bb8565b5b6000614c8489828a01614c0b565b9650506020614c9589828a01614c0b565b9550506040614ca689828a01614c0b565b9450506060614cb789828a01614c44565b9350506080614cc889828a01614c44565b92505060a0614cd989828a01614c44565b9150509295509295509295565b6000819050919050565b614cf981614ce6565b8114614d0457600080fd5b50565b600081359050614d1681614cf0565b92915050565b6000819050919050565b614d2f81614d1c565b8114614d3a57600080fd5b50565b600081359050614d4c81614d26565b92915050565b60008060008060808587031215614d6c57614d6b614bb8565b5b6000614d7a87828801614d07565b9450506020614d8b87828801614d3d565b9350506040614d9c87828801614c0b565b9250506060614dad87828801614d07565b91505092959194509250565b614dc281614d1c565b82525050565b6000602082019050614ddd6000830184614db9565b92915050565b600060208284031215614df957614df8614bb8565b5b6000614e0784828501614d07565b91505092915050565b614e1981614ce6565b82525050565b6000608082019050614e346000830187614e10565b614e416020830186614e10565b614e4e6040830185614e10565b614e5b6060830184614e10565b95945050505050565b600060208284031215614e7a57614e79614bb8565b5b6000614e8884828501614c44565b91505092915050565b614e9a81614be2565b82525050565b6000602082019050614eb56000830184614e91565b92915050565b600080fd5b600080fd5b600080fd5b60008083601f840112614ee057614edf614ebb565b5b8235905067ffffffffffffffff811115614efd57614efc614ec0565b5b602083019150836020820283011115614f1957614f18614ec5565b5b9250929050565b60008083601f840112614f3657614f35614ebb565b5b8235905067ffffffffffffffff811115614f5357614f52614ec0565b5b602083019150836020820283011115614f6f57614f6e614ec5565b5b9250929050565b60008060008060008060808789031215614f9357614f92614bb8565b5b600087013567ffffffffffffffff811115614fb157614fb0614bbd565b5b614fbd89828a01614eca565b9650965050602087013567ffffffffffffffff811115614fe057614fdf614bbd565b5b614fec89828a01614f20565b94509450506040614fff89828a01614c0b565b925050606061501089828a01614d07565b9150509295509295509295565b60008060006060848603121561503657615035614bb8565b5b600061504486828701614d07565b935050602061505586828701614d3d565b925050604061506686828701614c0b565b9150509250925092565b6000806040838503121561508757615086614bb8565b5b600061509585828601614d07565b92505060206150a685828601614d3d565b9150509250929050565b60006020820190506150c56000830184614e10565b92915050565b6000602082840312156150e1576150e0614bb8565b5b60006150ef84828501614c0b565b91505092915050565b600060408201905061510d6000830185614e10565b61511a6020830184614e10565b9392505050565b6000806040838503121561513857615137614bb8565b5b600061514685828601614c0b565b925050602061515785828601614d3d565b9150509250929050565b60006060820190506151766000830186614e10565b6151836020830185614e10565b6151906040830184614e10565b949350505050565b6000806000606084860312156151b1576151b0614bb8565b5b60006151bf86828701614c0b565b93505060206151d086828701614c0b565b92505060406151e186828701614d07565b9150509250925092565b600067ffffffffffffffff82169050919050565b615208816151eb565b82525050565b600060208201905061522360008301846151ff565b92915050565b600080604083850312156152405761523f614bb8565b5b600061524e85828601614d07565b925050602061525f85828601614d07565b9150509250929050565b600061527482614bc2565b9050919050565b61528481615269565b82525050565b600060208201905061529f600083018461527b565b92915050565b6152ae81615269565b81146152b957600080fd5b50565b6000813590506152cb816152a5565b92915050565b6000806000606084860312156152ea576152e9614bb8565b5b60006152f886828701614d07565b935050602061530986828701614d3d565b925050604061531a868287016152bc565b9150509250925092565b60006101408201905061533a600083018d614e10565b615347602083018c614e10565b615354604083018b614e10565b615361606083018a614e10565b61536e6080830189614e10565b61537b60a0830188614e10565b61538860c0830187614e10565b61539560e0830186614e10565b6153a3610100830185614e10565b6153b1610120830184614e10565b9b9a5050505050505050505050565b600082825260208201905092915050565b7f556e696c656e6456323a20504f4f4c20414c524541445920494e495400000000600082015250565b6000615407601c836153c0565b9150615412826153d1565b602082019050919050565b60006020820190508181036000830152615436816153fa565b9050919050565b7f4e6f74205065726d697474656400000000000000000000000000000000000000600082015250565b6000615473600d836153c0565b915061547e8261543d565b602082019050919050565b600060208201905081810360008301526154a281615466565b9050919050565b7f4e487b7100000000000000000000000000000000000000000000000000000000600052601160045260246000fd5b60006154e382614d1c565b91507f80000000000000000000000000000000000000000000000000000000000000008203615515576155146154a9565b5b816000039050919050565b6000819050919050565b600061554561554061553b84614c20565b615520565b614ce6565b9050919050565b6155558161552a565b82525050565b6000604082019050615570600083018561554c565b61557d602083018461554c565b9392505050565b7f4e487b7100000000000000000000000000000000000000000000000000000000600052603260045260246000fd5b60006155be82614d1c565b91506155c983614d1c565b9250828201905082811215600083121683821260008412151617156155f1576155f06154a9565b5b92915050565b600061560282614ce6565b91507fffffffffffffffffffffffffffffffffffffffffffffffffffffffffffffffff8203615634576156336154a9565b5b600182019050919050565b7f42616c616e636520457863656564732052657175657374656400000000000000600082015250565b60006156756019836153c0565b91506156808261563f565b602082019050919050565b600060208201905081810360008301526156a481615668565b9050919050565b6000815190506156ba81614cf0565b92915050565b6000602082840312156156d6576156d5614bb8565b5b60006156e4848285016156ab565b91505092915050565b7f4e6f7420656e6f756768204c6971756964697479000000000000000000000000600082015250565b60006157236014836153c0565b915061572e826156ed565b602082019050919050565b6000602082019050818103600083015261575281615716565b9050919050565b7f496e73756666696369656e74204c6971756964697479204d696e746564000000600082015250565b600061578f601d836153c0565b915061579a82615759565b602082019050919050565b600060208201905081810360008301526157be81615782565b9050919050565b60006040820190506157da6000830185614e91565b6157e76020830184614e91565b9392505050565b60006157f982614ce6565b915061580483614ce6565b925082820390508181111561581c5761581b6154a9565b5b92915050565b7f496e73756666696369656e74204c6971756964697479204275726e6564000000600082015250565b6000615858601d836153c0565b915061586382615822565b602082019050919050565b600060208201905081810360008301526158878161584b565b9050919050565b60006060820190506158a36000830186614e91565b6158b06020830185614e91565b6158bd6040830184614e10565b949350505050565b60006060820190506158da6000830186614e10565b6158e76020830185614e10565b6158f46040830184614e91565b949350505050565b7f496e73756666696369656e7420426f72726f7730204c6971756964697479204d60008201527f696e746564000000000000000000000000000000000000000000000000000000602082015250565b60006159586025836153c0565b9150615963826158fc565b604082019050919050565b600060208201905081810360008301526159878161594b565b9050919050565b60006159a96159a461599f84614bc2565b615520565b614bc2565b9050919050565b60006159bb8261598e565b9050919050565b60006159cd826159b0565b9050919050565b6159dd816159c2565b82525050565b60006060820190506159f86000830186614e10565b615a056020830185614e10565b615a1260408301846159d4565b949350505050565b7f496e73756666696369656e7420426f72726f7731204c6971756964697479204d60008201527f696e746564000000000000000000000000000000000000000000000000000000602082015250565b6000615a766025836153c0565b9150615a8182615a1a565b604082019050919050565b60006020820190508181036000830152615aa581615a69565b9050919050565b7f556e696c656e6456313a2055534552205a45524f204144445245535300000000600082015250565b6000615ae2601c836153c0565b9150615aed82615aac565b602082019050919050565b60006020820190508181036000830152615b1181615ad5565b9050919050565b6000615b2382614ce6565b9150615b2e83614ce6565b9250828201905080821115615b4657615b456154a9565b5b92915050565b7f4c6f77204c7476204865616c7468466163746f72300000000000000000000000600082015250565b6000615b826015836153c0565b9150615b8d82615b4c565b602082019050919050565b60006020820190508181036000830152615bb181615b75565b9050919050565b7f4c6f77204c7476204865616c7468466163746f72310000000000000000000000600082015250565b6000615bee6015836153c0565b9150615bf982615bb8565b602082019050919050565b60006020820190508181036000830152615c1d81615be1565b9050919050565b6000615c2f82614ce6565b9150615c3a83614ce6565b9250828202615c4881614ce6565b91508282048414831517615c5f57615c5e6154a9565b5b5092915050565b7f4e487b7100000000000000000000000000000000000000000000000000000000600052601260045260246000fd5b6000615ca082614ce6565b9150615cab83614ce6565b925082615cbb57615cba615c66565b5b828204905092915050565b6000604082019050615cdb6000830185614e91565b615ce86020830184614e10565b9392505050565b60008115159050919050565b615d0481615cef565b8114615d0f57600080fd5b50565b600081519050615d2181615cfb565b92915050565b600060208284031215615d3d57615d3c614bb8565b5b6000615d4b84828501615d12565b91505092915050565b7f5361666545524332303a204552433230206f7065726174696f6e20646964206e60008201527f6f74207375636365656400000000000000000000000000000000000000000000602082015250565b6000615db0602a836153c0565b9150615dbb82615d54565b604082019050919050565b60006020820190508181036000830152615ddf81615da3565b9050919050565b7f416464726573733a20696e73756666696369656e742062616c616e636520666f60008201527f722063616c6c0000000000000000000000000000000000000000000000000000602082015250565b6000615e426026836153c0565b9150615e4d82615de6565b604082019050919050565b60006020820190508181036000830152615e7181615e35565b9050919050565b7f416464726573733a2063616c6c20746f206e6f6e2d636f6e7472616374000000600082015250565b6000615eae601d836153c0565b9150615eb982615e78565b602082019050919050565b60006020820190508181036000830152615edd81615ea1565b9050919050565b600081519050919050565b600081905092915050565b60005b83811015615f18578082015181840152602081019050615efd565b60008484015250505050565b6000615f2f82615ee4565b615f398185615eef565b9350615f49818560208601615efa565b80840191505092915050565b6000615f618284615f24565b915081905092915050565b600081519050919050565b6000601f19601f8301169050919050565b6000615f9382615f6c565b615f9d81856153c0565b9350615fad818560208601615efa565b615fb681615f77565b840191505092915050565b60006020820190508181036000830152615fdb8184615f88565b90509291505056fea2646970667358221220bea1c656a90e546fba53ebbfa595f7de5b2427e6219ba12d89482e4186fa8c2f64736f6c63430008130033",
			"opcodes": "PUSH1 0x80 PUSH1 0x40 MSTORE CALLVALUE DUP1 ISZERO PUSH2 0x10 JUMPI PUSH1 0x0 DUP1 REVERT JUMPDEST POP CALLER PUSH1 0x2 PUSH1 0x0 PUSH2 0x100 EXP DUP2 SLOAD DUP2 PUSH20 0xFFFFFFFFFFFFFFFFFFFFFFFFFFFFFFFFFFFFFFFF MUL NOT AND SWAP1 DUP4 PUSH20 0xFFFFFFFFFFFFFFFFFFFFFFFFFFFFFFFFFFFFFFFF AND MUL OR SWAP1 SSTORE POP PUSH2 0x6019 DUP1 PUSH3 0x62 PUSH1 0x0 CODECOPY PUSH1 0x0 RETURN INVALID PUSH1 0x80 PUSH1 0x40 MSTORE CALLVALUE DUP1 ISZERO PUSH2 0x10 JUMPI PUSH1 0x0 DUP1 REVERT JUMPDEST POP PUSH1 0x4 CALLDATASIZE LT PUSH2 0x23B JUMPI PUSH1 0x0 CALLDATALOAD PUSH1 0xE0 SHR DUP1 PUSH4 0x99CD69D1 GT PUSH2 0x13B JUMPI DUP1 PUSH4 0xC3525C28 GT PUSH2 0xB8 JUMPI DUP1 PUSH4 0xD21220A7 GT PUSH2 0x7C JUMPI DUP1 PUSH4 0xD21220A7 EQ PUSH2 0x73A JUMPI DUP1 PUSH4 0xD336BBD5 EQ PUSH2 0x758 JUMPI DUP1 PUSH4 0xF2F4EB26 EQ PUSH2 0x789 JUMPI DUP1 PUSH4 0xF7AD458B EQ PUSH2 0x7A7 JUMPI DUP1 PUSH4 0xFEE151AE EQ PUSH2 0x7C3 JUMPI PUSH2 0x23B JUMP JUMPDEST DUP1 PUSH4 0xC3525C28 EQ PUSH2 0x680 JUMPI DUP1 PUSH4 0xC6DFA13F EQ PUSH2 0x69E JUMPI DUP1 PUSH4 0xC74FDD77 EQ PUSH2 0x6CE JUMPI DUP1 PUSH4 0xC838249E EQ PUSH2 0x6EC JUMPI DUP1 PUSH4 0xD0B06F5D EQ PUSH2 0x71C JUMPI PUSH2 0x23B JUMP JUMPDEST DUP1 PUSH4 0xA93D1E64 GT PUSH2 0xFF JUMPI DUP1 PUSH4 0xA93D1E64 EQ PUSH2 0x5C6 JUMPI DUP1 PUSH4 0xAAD2476D EQ PUSH2 0x5F7 JUMPI DUP1 PUSH4 0xAC896951 EQ PUSH2 0x613 JUMPI DUP1 PUSH4 0xBFDE2D52 EQ PUSH2 0x633 JUMPI DUP1 PUSH4 0xC097E8D9 EQ PUSH2 0x64F JUMPI PUSH2 0x23B JUMP JUMPDEST DUP1 PUSH4 0x99CD69D1 EQ PUSH2 0x50A JUMPI DUP1 PUSH4 0x9E83B078 EQ PUSH2 0x53A JUMPI DUP1 PUSH4 0x9FFADD7B EQ PUSH2 0x56B JUMPI DUP1 PUSH4 0xA0AB910E EQ PUSH2 0x589 JUMPI DUP1 PUSH4 0xA6AFED95 EQ PUSH2 0x5BC JUMPI PUSH2 0x23B JUMP JUMPDEST DUP1 PUSH4 0x4ED2B8AC GT PUSH2 0x1C9 JUMPI DUP1 PUSH4 0x84EE000C GT PUSH2 0x18D JUMPI DUP1 PUSH4 0x84EE000C EQ PUSH2 0x44E JUMPI DUP1 PUSH4 0x85E90760 EQ PUSH2 0x47F JUMPI DUP1 PUSH4 0x88A0A1C7 EQ PUSH2 0x49D JUMPI DUP1 PUSH4 0x8C3B690D EQ PUSH2 0x4CE JUMPI DUP1 PUSH4 0x930F7EE8 EQ PUSH2 0x4EA JUMPI PUSH2 0x23B JUMP JUMPDEST DUP1 PUSH4 0x4ED2B8AC EQ PUSH2 0x3A5 JUMPI DUP1 PUSH4 0x53A86202 EQ PUSH2 0x3C3 JUMPI DUP1 PUSH4 0x69F4E52D EQ PUSH2 0x3E1 JUMPI DUP1 PUSH4 0x73748381 EQ PUSH2 0x3FF JUMPI DUP1 PUSH4 0x77FF1EF1 EQ PUSH2 0x41B JUMPI PUSH2 0x23B JUMP JUMPDEST DUP1 PUSH4 0xDFE1681 GT PUSH2 0x210 JUMPI DUP1 PUSH4 0xDFE1681 EQ PUSH2 0x2DB JUMPI DUP1 PUSH4 0x2B23AE49 EQ PUSH2 0x2F9 JUMPI DUP1 PUSH4 0x2B8EBE8B EQ PUSH2 0x329 JUMPI DUP1 PUSH4 0x3D101C12 EQ PUSH2 0x359 JUMPI DUP1 PUSH4 0x4DD9CBF4 EQ PUSH2 0x375 JUMPI PUSH2 0x23B JUMP JUMPDEST DUP1 PUSH3 0x7FDD45 EQ PUSH2 0x240 JUMPI DUP1 PUSH3 0xCB8E22 EQ PUSH2 0x25C JUMPI DUP1 PUSH4 0x2394888 EQ PUSH2 0x28C JUMPI DUP1 PUSH4 0x7DC8CE3 EQ PUSH2 0x2BF JUMPI JUMPDEST PUSH1 0x0 DUP1 REVERT JUMPDEST PUSH2 0x25A PUSH1 0x4 DUP1 CALLDATASIZE SUB DUP2 ADD SWAP1 PUSH2 0x255 SWAP2 SWAP1 PUSH2 0x4C59 JUMP JUMPDEST PUSH2 0x7EA JUMP JUMPDEST STOP JUMPDEST PUSH2 0x276 PUSH1 0x4 DUP1 CALLDATASIZE SUB DUP2 ADD SWAP1 PUSH2 0x271 SWAP2 SWAP1 PUSH2 0x4D52 JUMP JUMPDEST PUSH2 0x9B1 JUMP JUMPDEST PUSH1 0x40 MLOAD PUSH2 0x283 SWAP2 SWAP1 PUSH2 0x4DC8 JUMP JUMPDEST PUSH1 0x40 MLOAD DUP1 SWAP2 SUB SWAP1 RETURN JUMPDEST PUSH2 0x2A6 PUSH1 0x4 DUP1 CALLDATASIZE SUB DUP2 ADD SWAP1 PUSH2 0x2A1 SWAP2 SWAP1 PUSH2 0x4DE3 JUMP JUMPDEST PUSH2 0xAE7 JUMP JUMPDEST PUSH1 0x40 MLOAD PUSH2 0x2B6 SWAP5 SWAP4 SWAP3 SWAP2 SWAP1 PUSH2 0x4E1F JUMP JUMPDEST PUSH1 0x40 MLOAD DUP1 SWAP2 SUB SWAP1 RETURN JUMPDEST PUSH2 0x2D9 PUSH1 0x4 DUP1 CALLDATASIZE SUB DUP2 ADD SWAP1 PUSH2 0x2D4 SWAP2 SWAP1 PUSH2 0x4E64 JUMP JUMPDEST PUSH2 0xB5B JUMP JUMPDEST STOP JUMPDEST PUSH2 0x2E3 PUSH2 0xC51 JUMP JUMPDEST PUSH1 0x40 MLOAD PUSH2 0x2F0 SWAP2 SWAP1 PUSH2 0x4EA0 JUMP JUMPDEST PUSH1 0x40 MLOAD DUP1 SWAP2 SUB SWAP1 RETURN JUMPDEST PUSH2 0x313 PUSH1 0x4 DUP1 CALLDATASIZE SUB DUP2 ADD SWAP1 PUSH2 0x30E SWAP2 SWAP1 PUSH2 0x4F76 JUMP JUMPDEST PUSH2 0xC75 JUMP JUMPDEST PUSH1 0x40 MLOAD PUSH2 0x320 SWAP2 SWAP1 PUSH2 0x4DC8 JUMP JUMPDEST PUSH1 0x40 MLOAD DUP1 SWAP2 SUB SWAP1 RETURN JUMPDEST PUSH2 0x343 PUSH1 0x4 DUP1 CALLDATASIZE SUB DUP2 ADD SWAP1 PUSH2 0x33E SWAP2 SWAP1 PUSH2 0x501D JUMP JUMPDEST PUSH2 0xE25 JUMP JUMPDEST PUSH1 0x40 MLOAD PUSH2 0x350 SWAP2 SWAP1 PUSH2 0x4DC8 JUMP JUMPDEST PUSH1 0x40 MLOAD DUP1 SWAP2 SUB SWAP1 RETURN JUMPDEST PUSH2 0x373 PUSH1 0x4 DUP1 CALLDATASIZE SUB DUP2 ADD SWAP1 PUSH2 0x36E SWAP2 SWAP1 PUSH2 0x4E64 JUMP JUMPDEST PUSH2 0x134E JUMP JUMPDEST STOP JUMPDEST PUSH2 0x38F PUSH1 0x4 DUP1 CALLDATASIZE SUB DUP2 ADD SWAP1 PUSH2 0x38A SWAP2 SWAP1 PUSH2 0x5070 JUMP JUMPDEST PUSH2 0x1444 JUMP JUMPDEST PUSH1 0x40 MLOAD PUSH2 0x39C SWAP2 SWAP1 PUSH2 0x50B0 JUMP JUMPDEST PUSH1 0x40 MLOAD DUP1 SWAP2 SUB SWAP1 RETURN JUMPDEST PUSH2 0x3AD PUSH2 0x1856 JUMP JUMPDEST PUSH1 0x40 MLOAD PUSH2 0x3BA SWAP2 SWAP1 PUSH2 0x50B0 JUMP JUMPDEST PUSH1 0x40 MLOAD DUP1 SWAP2 SUB SWAP1 RETURN JUMPDEST PUSH2 0x3CB PUSH2 0x1870 JUMP JUMPDEST PUSH1 0x40 MLOAD PUSH2 0x3D8 SWAP2 SWAP1 PUSH2 0x50B0 JUMP JUMPDEST PUSH1 0x40 MLOAD DUP1 SWAP2 SUB SWAP1 RETURN JUMPDEST PUSH2 0x3E9 PUSH2 0x188A JUMP JUMPDEST PUSH1 0x40 MLOAD PUSH2 0x3F6 SWAP2 SWAP1 PUSH2 0x50B0 JUMP JUMPDEST PUSH1 0x40 MLOAD DUP1 SWAP2 SUB SWAP1 RETURN JUMPDEST PUSH2 0x419 PUSH1 0x4 DUP1 CALLDATASIZE SUB DUP2 ADD SWAP1 PUSH2 0x414 SWAP2 SWAP1 PUSH2 0x50CB JUMP JUMPDEST PUSH2 0x19E9 JUMP JUMPDEST STOP JUMPDEST PUSH2 0x435 PUSH1 0x4 DUP1 CALLDATASIZE SUB DUP2 ADD SWAP1 PUSH2 0x430 SWAP2 SWAP1 PUSH2 0x4DE3 JUMP JUMPDEST PUSH2 0x1B18 JUMP JUMPDEST PUSH1 0x40 MLOAD PUSH2 0x445 SWAP5 SWAP4 SWAP3 SWAP2 SWAP1 PUSH2 0x4E1F JUMP JUMPDEST PUSH1 0x40 MLOAD DUP1 SWAP2 SUB SWAP1 RETURN JUMPDEST PUSH2 0x468 PUSH1 0x4 DUP1 CALLDATASIZE SUB DUP2 ADD SWAP1 PUSH2 0x463 SWAP2 SWAP1 PUSH2 0x4DE3 JUMP JUMPDEST PUSH2 0x1B47 JUMP JUMPDEST PUSH1 0x40 MLOAD PUSH2 0x476 SWAP3 SWAP2 SWAP1 PUSH2 0x50F8 JUMP JUMPDEST PUSH1 0x40 MLOAD DUP1 SWAP2 SUB SWAP1 RETURN JUMPDEST PUSH2 0x487 PUSH2 0x1D28 JUMP JUMPDEST PUSH1 0x40 MLOAD PUSH2 0x494 SWAP2 SWAP1 PUSH2 0x50B0 JUMP JUMPDEST PUSH1 0x40 MLOAD DUP1 SWAP2 SUB SWAP1 RETURN JUMPDEST PUSH2 0x4B7 PUSH1 0x4 DUP1 CALLDATASIZE SUB DUP2 ADD SWAP1 PUSH2 0x4B2 SWAP2 SWAP1 PUSH2 0x4DE3 JUMP JUMPDEST PUSH2 0x1E85 JUMP JUMPDEST PUSH1 0x40 MLOAD PUSH2 0x4C5 SWAP3 SWAP2 SWAP1 PUSH2 0x50F8 JUMP JUMPDEST PUSH1 0x40 MLOAD DUP1 SWAP2 SUB SWAP1 RETURN JUMPDEST PUSH2 0x4E8 PUSH1 0x4 DUP1 CALLDATASIZE SUB DUP2 ADD SWAP1 PUSH2 0x4E3 SWAP2 SWAP1 PUSH2 0x5121 JUMP JUMPDEST PUSH2 0x2065 JUMP JUMPDEST STOP JUMPDEST PUSH2 0x4F2 PUSH2 0x2176 JUMP JUMPDEST PUSH1 0x40 MLOAD PUSH2 0x501 SWAP4 SWAP3 SWAP2 SWAP1 PUSH2 0x5161 JUMP JUMPDEST PUSH1 0x40 MLOAD DUP1 SWAP2 SUB SWAP1 RETURN JUMPDEST PUSH2 0x524 PUSH1 0x4 DUP1 CALLDATASIZE SUB DUP2 ADD SWAP1 PUSH2 0x51F SWAP2 SWAP1 PUSH2 0x501D JUMP JUMPDEST PUSH2 0x218E JUMP JUMPDEST PUSH1 0x40 MLOAD PUSH2 0x531 SWAP2 SWAP1 PUSH2 0x4DC8 JUMP JUMPDEST PUSH1 0x40 MLOAD DUP1 SWAP2 SUB SWAP1 RETURN JUMPDEST PUSH2 0x554 PUSH1 0x4 DUP1 CALLDATASIZE SUB DUP2 ADD SWAP1 PUSH2 0x54F SWAP2 SWAP1 PUSH2 0x4DE3 JUMP JUMPDEST PUSH2 0x273D JUMP JUMPDEST PUSH1 0x40 MLOAD PUSH2 0x562 SWAP3 SWAP2 SWAP1 PUSH2 0x50F8 JUMP JUMPDEST PUSH1 0x40 MLOAD DUP1 SWAP2 SUB SWAP1 RETURN JUMPDEST PUSH2 0x573 PUSH2 0x2A8B JUMP JUMPDEST PUSH1 0x40 MLOAD PUSH2 0x580 SWAP2 SWAP1 PUSH2 0x50B0 JUMP JUMPDEST PUSH1 0x40 MLOAD DUP1 SWAP2 SUB SWAP1 RETURN JUMPDEST PUSH2 0x5A3 PUSH1 0x4 DUP1 CALLDATASIZE SUB DUP2 ADD SWAP1 PUSH2 0x59E SWAP2 SWAP1 PUSH2 0x4DE3 JUMP JUMPDEST PUSH2 0x2AA5 JUMP JUMPDEST PUSH1 0x40 MLOAD PUSH2 0x5B3 SWAP5 SWAP4 SWAP3 SWAP2 SWAP1 PUSH2 0x4E1F JUMP JUMPDEST PUSH1 0x40 MLOAD DUP1 SWAP2 SUB SWAP1 RETURN JUMPDEST PUSH2 0x5C4 PUSH2 0x2AD5 JUMP JUMPDEST STOP JUMPDEST PUSH2 0x5E0 PUSH1 0x4 DUP1 CALLDATASIZE SUB DUP2 ADD SWAP1 PUSH2 0x5DB SWAP2 SWAP1 PUSH2 0x4DE3 JUMP JUMPDEST PUSH2 0x2BDC JUMP JUMPDEST PUSH1 0x40 MLOAD PUSH2 0x5EE SWAP3 SWAP2 SWAP1 PUSH2 0x50F8 JUMP JUMPDEST PUSH1 0x40 MLOAD DUP1 SWAP2 SUB SWAP1 RETURN JUMPDEST PUSH2 0x611 PUSH1 0x4 DUP1 CALLDATASIZE SUB DUP2 ADD SWAP1 PUSH2 0x60C SWAP2 SWAP1 PUSH2 0x4E64 JUMP JUMPDEST PUSH2 0x2C3D JUMP JUMPDEST STOP JUMPDEST PUSH2 0x61B PUSH2 0x2D33 JUMP JUMPDEST PUSH1 0x40 MLOAD PUSH2 0x62A SWAP4 SWAP3 SWAP2 SWAP1 PUSH2 0x5161 JUMP JUMPDEST PUSH1 0x40 MLOAD DUP1 SWAP2 SUB SWAP1 RETURN JUMPDEST PUSH2 0x64D PUSH1 0x4 DUP1 CALLDATASIZE SUB DUP2 ADD SWAP1 PUSH2 0x648 SWAP2 SWAP1 PUSH2 0x5198 JUMP JUMPDEST PUSH2 0x2D4B JUMP JUMPDEST STOP JUMPDEST PUSH2 0x669 PUSH1 0x4 DUP1 CALLDATASIZE SUB DUP2 ADD SWAP1 PUSH2 0x664 SWAP2 SWAP1 PUSH2 0x4DE3 JUMP JUMPDEST PUSH2 0x2DEB JUMP JUMPDEST PUSH1 0x40 MLOAD PUSH2 0x677 SWAP3 SWAP2 SWAP1 PUSH2 0x50F8 JUMP JUMPDEST PUSH1 0x40 MLOAD DUP1 SWAP2 SUB SWAP1 RETURN JUMPDEST PUSH2 0x688 PUSH2 0x3113 JUMP JUMPDEST PUSH1 0x40 MLOAD PUSH2 0x695 SWAP2 SWAP1 PUSH2 0x520E JUMP JUMPDEST PUSH1 0x40 MLOAD DUP1 SWAP2 SUB SWAP1 RETURN JUMPDEST PUSH2 0x6B8 PUSH1 0x4 DUP1 CALLDATASIZE SUB DUP2 ADD SWAP1 PUSH2 0x6B3 SWAP2 SWAP1 PUSH2 0x5229 JUMP JUMPDEST PUSH2 0x311F JUMP JUMPDEST PUSH1 0x40 MLOAD PUSH2 0x6C5 SWAP2 SWAP1 PUSH2 0x50B0 JUMP JUMPDEST PUSH1 0x40 MLOAD DUP1 SWAP2 SUB SWAP1 RETURN JUMPDEST PUSH2 0x6D6 PUSH2 0x31C7 JUMP JUMPDEST PUSH1 0x40 MLOAD PUSH2 0x6E3 SWAP2 SWAP1 PUSH2 0x4EA0 JUMP JUMPDEST PUSH1 0x40 MLOAD DUP1 SWAP2 SUB SWAP1 RETURN JUMPDEST PUSH2 0x706 PUSH1 0x4 DUP1 CALLDATASIZE SUB DUP2 ADD SWAP1 PUSH2 0x701 SWAP2 SWAP1 PUSH2 0x501D JUMP JUMPDEST PUSH2 0x31ED JUMP JUMPDEST PUSH1 0x40 MLOAD PUSH2 0x713 SWAP2 SWAP1 PUSH2 0x4DC8 JUMP JUMPDEST PUSH1 0x40 MLOAD DUP1 SWAP2 SUB SWAP1 RETURN JUMPDEST PUSH2 0x724 PUSH2 0x352D JUMP JUMPDEST PUSH1 0x40 MLOAD PUSH2 0x731 SWAP2 SWAP1 PUSH2 0x50B0 JUMP JUMPDEST PUSH1 0x40 MLOAD DUP1 SWAP2 SUB SWAP1 RETURN JUMPDEST PUSH2 0x742 PUSH2 0x3533 JUMP JUMPDEST PUSH1 0x40 MLOAD PUSH2 0x74F SWAP2 SWAP1 PUSH2 0x4EA0 JUMP JUMPDEST PUSH1 0x40 MLOAD DUP1 SWAP2 SUB SWAP1 RETURN JUMPDEST PUSH2 0x772 PUSH1 0x4 DUP1 CALLDATASIZE SUB DUP2 ADD SWAP1 PUSH2 0x76D SWAP2 SWAP1 PUSH2 0x4DE3 JUMP JUMPDEST PUSH2 0x3559 JUMP JUMPDEST PUSH1 0x40 MLOAD PUSH2 0x780 SWAP3 SWAP2 SWAP1 PUSH2 0x50F8 JUMP JUMPDEST PUSH1 0x40 MLOAD DUP1 SWAP2 SUB SWAP1 RETURN JUMPDEST PUSH2 0x791 PUSH2 0x35BA JUMP JUMPDEST PUSH1 0x40 MLOAD PUSH2 0x79E SWAP2 SWAP1 PUSH2 0x528A JUMP JUMPDEST PUSH1 0x40 MLOAD DUP1 SWAP2 SUB SWAP1 RETURN JUMPDEST PUSH2 0x7C1 PUSH1 0x4 DUP1 CALLDATASIZE SUB DUP2 ADD SWAP1 PUSH2 0x7BC SWAP2 SWAP1 PUSH2 0x52D1 JUMP JUMPDEST PUSH2 0x35E0 JUMP JUMPDEST STOP JUMPDEST PUSH2 0x7CB PUSH2 0x3929 JUMP JUMPDEST PUSH1 0x40 MLOAD PUSH2 0x7E1 SWAP11 SWAP10 SWAP9 SWAP8 SWAP7 SWAP6 SWAP5 SWAP4 SWAP3 SWAP2 SWAP1 PUSH2 0x5324 JUMP JUMPDEST PUSH1 0x40 MLOAD DUP1 SWAP2 SUB SWAP1 RETURN JUMPDEST PUSH1 0x2 PUSH1 0x14 SWAP1 SLOAD SWAP1 PUSH2 0x100 EXP SWAP1 DIV PUSH1 0xFF AND ISZERO PUSH2 0x83A JUMPI PUSH1 0x40 MLOAD PUSH32 0x8C379A000000000000000000000000000000000000000000000000000000000 DUP2 MSTORE PUSH1 0x4 ADD PUSH2 0x831 SWAP1 PUSH2 0x541D JUMP JUMPDEST PUSH1 0x40 MLOAD DUP1 SWAP2 SUB SWAP1 REVERT JUMPDEST PUSH1 0x1 PUSH1 0x2 PUSH1 0x14 PUSH2 0x100 EXP DUP2 SLOAD DUP2 PUSH1 0xFF MUL NOT AND SWAP1 DUP4 ISZERO ISZERO MUL OR SWAP1 SSTORE POP DUP6 PUSH1 0x0 DUP1 PUSH2 0x100 EXP DUP2 SLOAD DUP2 PUSH20 0xFFFFFFFFFFFFFFFFFFFFFFFFFFFFFFFFFFFFFFFF MUL NOT AND SWAP1 DUP4 PUSH20 0xFFFFFFFFFFFFFFFFFFFFFFFFFFFFFFFFFFFFFFFF AND MUL OR SWAP1 SSTORE POP DUP5 PUSH1 0x1 PUSH1 0x0 PUSH2 0x100 EXP DUP2 SLOAD DUP2 PUSH20 0xFFFFFFFFFFFFFFFFFFFFFFFFFFFFFFFFFFFFFFFF MUL NOT AND SWAP1 DUP4 PUSH20 0xFFFFFFFFFFFFFFFFFFFFFFFFFFFFFFFFFFFFFFFF AND MUL OR SWAP1 SSTORE POP DUP4 PUSH1 0x3 PUSH1 0x0 PUSH2 0x100 EXP DUP2 SLOAD DUP2 PUSH20 0xFFFFFFFFFFFFFFFFFFFFFFFFFFFFFFFFFFFFFFFF MUL NOT AND SWAP1 DUP4 PUSH20 0xFFFFFFFFFFFFFFFFFFFFFFFFFFFFFFFFFFFFFFFF AND MUL OR SWAP1 SSTORE POP CALLER PUSH1 0x2 PUSH1 0x0 PUSH2 0x100 EXP DUP2 SLOAD DUP2 PUSH20 0xFFFFFFFFFFFFFFFFFFFFFFFFFFFFFFFFFFFFFFFF MUL NOT AND SWAP1 DUP4 PUSH20 0xFFFFFFFFFFFFFFFFFFFFFFFFFFFFFFFFFFFFFFFF AND MUL OR SWAP1 SSTORE POP DUP3 PUSH1 0x5 PUSH1 0x0 PUSH2 0x100 EXP DUP2 SLOAD DUP2 PUSH1 0xFF MUL NOT AND SWAP1 DUP4 PUSH1 0xFF AND MUL OR SWAP1 SSTORE POP DUP2 PUSH1 0x5 PUSH1 0x1 PUSH2 0x100 EXP DUP2 SLOAD DUP2 PUSH1 0xFF MUL NOT AND SWAP1 DUP4 PUSH1 0xFF AND MUL OR SWAP1 SSTORE POP DUP1 PUSH1 0x5 PUSH1 0x2 PUSH2 0x100 EXP DUP2 SLOAD DUP2 PUSH1 0xFF MUL NOT AND SWAP1 DUP4 PUSH1 0xFF AND MUL OR SWAP1 SSTORE POP POP POP POP POP POP POP JUMP JUMPDEST PUSH1 0x0 CALLER PUSH20 0xFFFFFFFFFFFFFFFFFFFFFFFFFFFFFFFFFFFFFFFF AND PUSH1 0x2 PUSH1 0x0 SWAP1 SLOAD SWAP1 PUSH2 0x100 EXP SWAP1 DIV PUSH20 0xFFFFFFFFFFFFFFFFFFFFFFFFFFFFFFFFFFFFFFFF AND PUSH20 0xFFFFFFFFFFFFFFFFFFFFFFFFFFFFFFFFFFFFFFFF AND EQ PUSH2 0xA43 JUMPI PUSH1 0x40 MLOAD PUSH32 0x8C379A000000000000000000000000000000000000000000000000000000000 DUP2 MSTORE PUSH1 0x4 ADD PUSH2 0xA3A SWAP1 PUSH2 0x5489 JUMP JUMPDEST PUSH1 0x40 MLOAD DUP1 SWAP2 SUB SWAP1 REVERT JUMPDEST PUSH2 0xA4B PUSH2 0x2AD5 JUMP JUMPDEST PUSH1 0x0 PUSH2 0xA58 DUP7 DUP7 DUP6 PUSH2 0x3ACA JUMP JUMPDEST DUP1 SWAP3 POP DUP2 SWAP4 POP POP POP PUSH1 0x0 DUP4 SUB PUSH2 0xADE JUMPI PUSH1 0x0 DUP2 SLT ISZERO PUSH2 0xAA6 JUMPI PUSH2 0xAA5 PUSH1 0x0 DUP1 SLOAD SWAP1 PUSH2 0x100 EXP SWAP1 DIV PUSH20 0xFFFFFFFFFFFFFFFFFFFFFFFFFFFFFFFFFFFFFFFF AND DUP6 DUP4 PUSH2 0xAA0 SWAP1 PUSH2 0x54D8 JUMP JUMPDEST PUSH2 0x42A6 JUMP JUMPDEST JUMPDEST PUSH1 0x0 DUP2 SGT ISZERO PUSH2 0xADD JUMPI PUSH2 0xADC PUSH1 0x1 PUSH1 0x0 SWAP1 SLOAD SWAP1 PUSH2 0x100 EXP SWAP1 DIV PUSH20 0xFFFFFFFFFFFFFFFFFFFFFFFFFFFFFFFFFFFFFFFF AND DUP6 DUP4 PUSH2 0x42A6 JUMP JUMPDEST JUMPDEST JUMPDEST POP SWAP5 SWAP4 POP POP POP POP JUMP JUMPDEST PUSH1 0x0 DUP1 PUSH1 0x0 DUP1 PUSH1 0x0 PUSH1 0xC PUSH1 0x0 DUP8 DUP2 MSTORE PUSH1 0x20 ADD SWAP1 DUP2 MSTORE PUSH1 0x20 ADD PUSH1 0x0 KECCAK256 PUSH1 0x40 MLOAD DUP1 PUSH1 0x80 ADD PUSH1 0x40 MSTORE SWAP1 DUP2 PUSH1 0x0 DUP3 ADD SLOAD DUP2 MSTORE PUSH1 0x20 ADD PUSH1 0x1 DUP3 ADD SLOAD DUP2 MSTORE PUSH1 0x20 ADD PUSH1 0x2 DUP3 ADD SLOAD DUP2 MSTORE PUSH1 0x20 ADD PUSH1 0x3 DUP3 ADD SLOAD DUP2 MSTORE POP POP SWAP1 POP DUP1 PUSH1 0x0 ADD MLOAD DUP2 PUSH1 0x40 ADD MLOAD DUP3 PUSH1 0x20 ADD MLOAD DUP4 PUSH1 0x60 ADD MLOAD SWAP5 POP SWAP5 POP SWAP5 POP SWAP5 POP POP SWAP2 SWAP4 POP SWAP2 SWAP4 JUMP JUMPDEST CALLER PUSH20 0xFFFFFFFFFFFFFFFFFFFFFFFFFFFFFFFFFFFFFFFF AND PUSH1 0x2 PUSH1 0x0 SWAP1 SLOAD SWAP1 PUSH2 0x100 EXP SWAP1 DIV PUSH20 0xFFFFFFFFFFFFFFFFFFFFFFFFFFFFFFFFFFFFFFFF AND PUSH20 0xFFFFFFFFFFFFFFFFFFFFFFFFFFFFFFFFFFFFFFFF AND EQ PUSH2 0xBEB JUMPI PUSH1 0x40 MLOAD PUSH32 0x8C379A000000000000000000000000000000000000000000000000000000000 DUP2 MSTORE PUSH1 0x4 ADD PUSH2 0xBE2 SWAP1 PUSH2 0x5489 JUMP JUMPDEST PUSH1 0x40 MLOAD DUP1 SWAP2 SUB SWAP1 REVERT JUMPDEST PUSH32 0x920CA59B06C04301DD04742069A768501753072C3A21FAEDE7C5FC9D5F132922 PUSH1 0x5 PUSH1 0x2 SWAP1 SLOAD SWAP1 PUSH2 0x100 EXP SWAP1 DIV PUSH1 0xFF AND DUP3 PUSH1 0x40 MLOAD PUSH2 0xC2B SWAP3 SWAP2 SWAP1 PUSH2 0x555B JUMP JUMPDEST PUSH1 0x40 MLOAD DUP1 SWAP2 SUB SWAP1 LOG1 DUP1 PUSH1 0x5 PUSH1 0x2 PUSH2 0x100 EXP DUP2 SLOAD DUP2 PUSH1 0xFF MUL NOT AND SWAP1 DUP4 PUSH1 0xFF AND MUL OR SWAP1 SSTORE POP POP JUMP JUMPDEST PUSH1 0x0 DUP1 SLOAD SWAP1 PUSH2 0x100 EXP SWAP1 DIV PUSH20 0xFFFFFFFFFFFFFFFFFFFFFFFFFFFFFFFFFFFFFFFF AND DUP2 JUMP JUMPDEST PUSH1 0x0 CALLER PUSH20 0xFFFFFFFFFFFFFFFFFFFFFFFFFFFFFFFFFFFFFFFF AND PUSH1 0x2 PUSH1 0x0 SWAP1 SLOAD SWAP1 PUSH2 0x100 EXP SWAP1 DIV PUSH20 0xFFFFFFFFFFFFFFFFFFFFFFFFFFFFFFFFFFFFFFFF AND PUSH20 0xFFFFFFFFFFFFFFFFFFFFFFFFFFFFFFFFFFFFFFFF AND EQ PUSH2 0xD07 JUMPI PUSH1 0x40 MLOAD PUSH32 0x8C379A000000000000000000000000000000000000000000000000000000000 DUP2 MSTORE PUSH1 0x4 ADD PUSH2 0xCFE SWAP1 PUSH2 0x5489 JUMP JUMPDEST PUSH1 0x40 MLOAD DUP1 SWAP2 SUB SWAP1 REVERT JUMPDEST PUSH2 0xD0F PUSH2 0x2AD5 JUMP JUMPDEST PUSH1 0x0 DUP1 PUSH1 0x0 DUP1 PUSH1 0x0 SWAP1 POP JUMPDEST DUP11 DUP11 SWAP1 POP DUP2 LT ISZERO PUSH2 0xD99 JUMPI PUSH2 0xD62 DUP12 DUP12 DUP4 DUP2 DUP2 LT PUSH2 0xD3B JUMPI PUSH2 0xD3A PUSH2 0x5584 JUMP JUMPDEST JUMPDEST SWAP1 POP PUSH1 0x20 MUL ADD CALLDATALOAD DUP11 DUP11 DUP5 DUP2 DUP2 LT PUSH2 0xD55 JUMPI PUSH2 0xD54 PUSH2 0x5584 JUMP JUMPDEST JUMPDEST SWAP1 POP PUSH1 0x20 MUL ADD CALLDATALOAD DUP9 PUSH2 0x3ACA JUMP JUMPDEST DUP1 SWAP5 POP DUP2 SWAP6 POP POP POP DUP4 DUP6 PUSH2 0xD76 SWAP2 SWAP1 PUSH2 0x55B3 JUMP JUMPDEST SWAP5 POP DUP3 DUP3 PUSH2 0xD84 SWAP2 SWAP1 PUSH2 0x55B3 JUMP JUMPDEST SWAP2 POP DUP1 DUP1 PUSH2 0xD91 SWAP1 PUSH2 0x55F7 JUMP JUMPDEST SWAP2 POP POP PUSH2 0xD1A JUMP JUMPDEST POP PUSH1 0x0 DUP6 SUB PUSH2 0xE18 JUMPI PUSH1 0x0 DUP2 SLT ISZERO PUSH2 0xDE0 JUMPI PUSH2 0xDDF PUSH1 0x0 DUP1 SLOAD SWAP1 PUSH2 0x100 EXP SWAP1 DIV PUSH20 0xFFFFFFFFFFFFFFFFFFFFFFFFFFFFFFFFFFFFFFFF AND DUP8 DUP4 PUSH2 0xDDA SWAP1 PUSH2 0x54D8 JUMP JUMPDEST PUSH2 0x42A6 JUMP JUMPDEST JUMPDEST PUSH1 0x0 DUP2 SGT ISZERO PUSH2 0xE17 JUMPI PUSH2 0xE16 PUSH1 0x1 PUSH1 0x0 SWAP1 SLOAD SWAP1 PUSH2 0x100 EXP SWAP1 DIV PUSH20 0xFFFFFFFFFFFFFFFFFFFFFFFFFFFFFFFFFFFFFFFF AND DUP8 DUP4 PUSH2 0x42A6 JUMP JUMPDEST JUMPDEST JUMPDEST POP POP POP SWAP7 SWAP6 POP POP POP POP POP POP JUMP JUMPDEST PUSH1 0x0 CALLER PUSH20 0xFFFFFFFFFFFFFFFFFFFFFFFFFFFFFFFFFFFFFFFF AND PUSH1 0x2 PUSH1 0x0 SWAP1 SLOAD SWAP1 PUSH2 0x100 EXP SWAP1 DIV PUSH20 0xFFFFFFFFFFFFFFFFFFFFFFFFFFFFFFFFFFFFFFFF AND PUSH20 0xFFFFFFFFFFFFFFFFFFFFFFFFFFFFFFFFFFFFFFFF AND EQ PUSH2 0xEB7 JUMPI PUSH1 0x40 MLOAD PUSH32 0x8C379A000000000000000000000000000000000000000000000000000000000 DUP2 MSTORE PUSH1 0x4 ADD PUSH2 0xEAE SWAP1 PUSH2 0x5489 JUMP JUMPDEST PUSH1 0x40 MLOAD DUP1 SWAP2 SUB SWAP1 REVERT JUMPDEST PUSH2 0xEBF PUSH2 0x2AD5 JUMP JUMPDEST PUSH1 0x0 PUSH1 0xC PUSH1 0x0 DUP7 DUP2 MSTORE PUSH1 0x20 ADD SWAP1 DUP2 MSTORE PUSH1 0x20 ADD PUSH1 0x0 KECCAK256 SWAP1 POP PUSH1 0x0 DUP5 SLT ISZERO PUSH2 0x1122 JUMPI DUP4 PUSH2 0xEE9 SWAP1 PUSH2 0x54D8 JUMP JUMPDEST DUP2 PUSH1 0x0 ADD SLOAD LT ISZERO PUSH2 0xF2F JUMPI PUSH1 0x40 MLOAD PUSH32 0x8C379A000000000000000000000000000000000000000000000000000000000 DUP2 MSTORE PUSH1 0x4 ADD PUSH2 0xF26 SWAP1 PUSH2 0x568B JUMP JUMPDEST PUSH1 0x40 MLOAD DUP1 SWAP2 SUB SWAP1 REVERT JUMPDEST PUSH1 0x0 PUSH1 0x6 SWAP1 POP PUSH1 0x0 DUP1 PUSH1 0x0 SWAP1 SLOAD SWAP1 PUSH2 0x100 EXP SWAP1 DIV PUSH20 0xFFFFFFFFFFFFFFFFFFFFFFFFFFFFFFFFFFFFFFFF AND PUSH20 0xFFFFFFFFFFFFFFFFFFFFFFFFFFFFFFFFFFFFFFFF AND PUSH4 0x70A08231 ADDRESS PUSH1 0x40 MLOAD DUP3 PUSH4 0xFFFFFFFF AND PUSH1 0xE0 SHL DUP2 MSTORE PUSH1 0x4 ADD PUSH2 0xF91 SWAP2 SWAP1 PUSH2 0x4EA0 JUMP JUMPDEST PUSH1 0x20 PUSH1 0x40 MLOAD DUP1 DUP4 SUB DUP2 DUP7 GAS STATICCALL ISZERO DUP1 ISZERO PUSH2 0xFAE JUMPI RETURNDATASIZE PUSH1 0x0 DUP1 RETURNDATACOPY RETURNDATASIZE PUSH1 0x0 REVERT JUMPDEST POP POP POP POP PUSH1 0x40 MLOAD RETURNDATASIZE PUSH1 0x1F NOT PUSH1 0x1F DUP3 ADD AND DUP3 ADD DUP1 PUSH1 0x40 MSTORE POP DUP2 ADD SWAP1 PUSH2 0xFD2 SWAP2 SWAP1 PUSH2 0x56C0 JUMP JUMPDEST SWAP1 POP PUSH1 0x0 PUSH2 0xFED DUP4 PUSH1 0x2 ADD SLOAD DUP4 PUSH2 0x4345 SWAP1 SWAP2 SWAP1 PUSH4 0xFFFFFFFF AND JUMP JUMPDEST SWAP1 POP PUSH1 0x0 PUSH2 0x1009 DUP3 DUP6 PUSH1 0x0 ADD SLOAD DUP11 PUSH2 0x1004 SWAP1 PUSH2 0x54D8 JUMP JUMPDEST PUSH2 0x435B JUMP JUMPDEST SWAP1 POP DUP1 PUSH2 0x1015 SWAP1 PUSH2 0x54D8 JUMP JUMPDEST SWAP6 POP DUP1 DUP4 LT ISZERO PUSH2 0x105A JUMPI PUSH1 0x40 MLOAD PUSH32 0x8C379A000000000000000000000000000000000000000000000000000000000 DUP2 MSTORE PUSH1 0x4 ADD PUSH2 0x1051 SWAP1 PUSH2 0x5739 JUMP JUMPDEST PUSH1 0x40 MLOAD DUP1 SWAP2 SUB SWAP1 REVERT JUMPDEST PUSH2 0x106F DUP10 DUP10 PUSH2 0x1068 SWAP1 PUSH2 0x54D8 JUMP JUMPDEST PUSH1 0x0 PUSH2 0x438B JUMP JUMPDEST PUSH2 0x1078 DUP10 PUSH2 0x4446 JUMP JUMPDEST PUSH2 0x10A3 PUSH1 0x0 DUP1 SLOAD SWAP1 PUSH2 0x100 EXP SWAP1 DIV PUSH20 0xFFFFFFFFFFFFFFFFFFFFFFFFFFFFFFFFFFFFFFFF AND DUP9 DUP4 PUSH2 0x42A6 JUMP JUMPDEST DUP9 PUSH1 0x0 DUP1 SLOAD SWAP1 PUSH2 0x100 EXP SWAP1 DIV PUSH20 0xFFFFFFFFFFFFFFFFFFFFFFFFFFFFFFFFFFFFFFFF AND PUSH20 0xFFFFFFFFFFFFFFFFFFFFFFFFFFFFFFFFFFFFFFFF AND PUSH32 0xBD5034FFBD47E4E72A94BAA2CDB74C6FAD73CB3BCDC13036B72EC8306F5A7646 DUP11 PUSH2 0x1106 SWAP1 PUSH2 0x54D8 JUMP JUMPDEST DUP5 PUSH1 0x40 MLOAD PUSH2 0x1115 SWAP3 SWAP2 SWAP1 PUSH2 0x50F8 JUMP JUMPDEST PUSH1 0x40 MLOAD DUP1 SWAP2 SUB SWAP1 LOG3 POP POP POP POP JUMPDEST PUSH1 0x0 DUP5 SGT ISZERO PUSH2 0x1346 JUMPI DUP4 DUP2 PUSH1 0x1 ADD SLOAD LT ISZERO PUSH2 0x1172 JUMPI PUSH1 0x40 MLOAD PUSH32 0x8C379A000000000000000000000000000000000000000000000000000000000 DUP2 MSTORE PUSH1 0x4 ADD PUSH2 0x1169 SWAP1 PUSH2 0x568B JUMP JUMPDEST PUSH1 0x40 MLOAD DUP1 SWAP2 SUB SWAP1 REVERT JUMPDEST PUSH1 0x0 PUSH1 0x9 SWAP1 POP PUSH1 0x0 PUSH1 0x1 PUSH1 0x0 SWAP1 SLOAD SWAP1 PUSH2 0x100 EXP SWAP1 DIV PUSH20 0xFFFFFFFFFFFFFFFFFFFFFFFFFFFFFFFFFFFFFFFF AND PUSH20 0xFFFFFFFFFFFFFFFFFFFFFFFFFFFFFFFFFFFFFFFF AND PUSH4 0x70A08231 ADDRESS PUSH1 0x40 MLOAD DUP3 PUSH4 0xFFFFFFFF AND PUSH1 0xE0 SHL DUP2 MSTORE PUSH1 0x4 ADD PUSH2 0x11D5 SWAP2 SWAP1 PUSH2 0x4EA0 JUMP JUMPDEST PUSH1 0x20 PUSH1 0x40 MLOAD DUP1 DUP4 SUB DUP2 DUP7 GAS STATICCALL ISZERO DUP1 ISZERO PUSH2 0x11F2 JUMPI RETURNDATASIZE PUSH1 0x0 DUP1 RETURNDATACOPY RETURNDATASIZE PUSH1 0x0 REVERT JUMPDEST POP POP POP POP PUSH1 0x40 MLOAD RETURNDATASIZE PUSH1 0x1F NOT PUSH1 0x1F DUP3 ADD AND DUP3 ADD DUP1 PUSH1 0x40 MSTORE POP DUP2 ADD SWAP1 PUSH2 0x1216 SWAP2 SWAP1 PUSH2 0x56C0 JUMP JUMPDEST SWAP1 POP PUSH1 0x0 PUSH2 0x1231 DUP4 PUSH1 0x2 ADD SLOAD DUP4 PUSH2 0x4345 SWAP1 SWAP2 SWAP1 PUSH4 0xFFFFFFFF AND JUMP JUMPDEST SWAP1 POP PUSH1 0x0 PUSH2 0x1244 DUP3 DUP6 PUSH1 0x0 ADD SLOAD DUP11 PUSH2 0x435B JUMP JUMPDEST SWAP1 POP DUP1 SWAP6 POP DUP1 DUP4 LT ISZERO PUSH2 0x128C JUMPI PUSH1 0x40 MLOAD PUSH32 0x8C379A000000000000000000000000000000000000000000000000000000000 DUP2 MSTORE PUSH1 0x4 ADD PUSH2 0x1283 SWAP1 PUSH2 0x5739 JUMP JUMPDEST PUSH1 0x40 MLOAD DUP1 SWAP2 SUB SWAP1 REVERT JUMPDEST PUSH2 0x1298 DUP10 PUSH1 0x0 DUP11 PUSH2 0x438B JUMP JUMPDEST PUSH2 0x12A1 DUP10 PUSH2 0x4446 JUMP JUMPDEST PUSH2 0x12CE PUSH1 0x1 PUSH1 0x0 SWAP1 SLOAD SWAP1 PUSH2 0x100 EXP SWAP1 DIV PUSH20 0xFFFFFFFFFFFFFFFFFFFFFFFFFFFFFFFFFFFFFFFF AND DUP9 DUP4 PUSH2 0x42A6 JUMP JUMPDEST DUP9 PUSH1 0x1 PUSH1 0x0 SWAP1 SLOAD SWAP1 PUSH2 0x100 EXP SWAP1 DIV PUSH20 0xFFFFFFFFFFFFFFFFFFFFFFFFFFFFFFFFFFFFFFFF AND PUSH20 0xFFFFFFFFFFFFFFFFFFFFFFFFFFFFFFFFFFFFFFFF AND PUSH32 0xBD5034FFBD47E4E72A94BAA2CDB74C6FAD73CB3BCDC13036B72EC8306F5A7646 DUP11 DUP5 PUSH1 0x40 MLOAD PUSH2 0x1339 SWAP3 SWAP2 SWAP1 PUSH2 0x50F8 JUMP JUMPDEST PUSH1 0x40 MLOAD DUP1 SWAP2 SUB SWAP1 LOG3 POP POP POP POP JUMPDEST POP SWAP4 SWAP3 POP POP POP JUMP JUMPDEST CALLER PUSH20 0xFFFFFFFFFFFFFFFFFFFFFFFFFFFFFFFFFFFFFFFF AND PUSH1 0x2 PUSH1 0x0 SWAP1 SLOAD SWAP1 PUSH2 0x100 EXP SWAP1 DIV PUSH20 0xFFFFFFFFFFFFFFFFFFFFFFFFFFFFFFFFFFFFFFFF AND PUSH20 0xFFFFFFFFFFFFFFFFFFFFFFFFFFFFFFFFFFFFFFFF AND EQ PUSH2 0x13DE JUMPI PUSH1 0x40 MLOAD PUSH32 0x8C379A000000000000000000000000000000000000000000000000000000000 DUP2 MSTORE PUSH1 0x4 ADD PUSH2 0x13D5 SWAP1 PUSH2 0x5489 JUMP JUMPDEST PUSH1 0x40 MLOAD DUP1 SWAP2 SUB SWAP1 REVERT JUMPDEST PUSH32 0xD04C878D2A248240897565030BAFC976938E7C67CB6AD92BC030CA9ED3C75BC0 PUSH1 0x5 PUSH1 0x1 SWAP1 SLOAD SWAP1 PUSH2 0x100 EXP SWAP1 DIV PUSH1 0xFF AND DUP3 PUSH1 0x40 MLOAD PUSH2 0x141E SWAP3 SWAP2 SWAP1 PUSH2 0x555B JUMP JUMPDEST PUSH1 0x40 MLOAD DUP1 SWAP2 SUB SWAP1 LOG1 DUP1 PUSH1 0x5 PUSH1 0x1 PUSH2 0x100 EXP DUP2 SLOAD DUP2 PUSH1 0xFF MUL NOT AND SWAP1 DUP4 PUSH1 0xFF AND MUL OR SWAP1 SSTORE POP POP JUMP JUMPDEST PUSH1 0x0 CALLER PUSH20 0xFFFFFFFFFFFFFFFFFFFFFFFFFFFFFFFFFFFFFFFF AND PUSH1 0x2 PUSH1 0x0 SWAP1 SLOAD SWAP1 PUSH2 0x100 EXP SWAP1 DIV PUSH20 0xFFFFFFFFFFFFFFFFFFFFFFFFFFFFFFFFFFFFFFFF AND PUSH20 0xFFFFFFFFFFFFFFFFFFFFFFFFFFFFFFFFFFFFFFFF AND EQ PUSH2 0x14D6 JUMPI PUSH1 0x40 MLOAD PUSH32 0x8C379A000000000000000000000000000000000000000000000000000000000 DUP2 MSTORE PUSH1 0x4 ADD PUSH2 0x14CD SWAP1 PUSH2 0x5489 JUMP JUMPDEST PUSH1 0x40 MLOAD DUP1 SWAP2 SUB SWAP1 REVERT JUMPDEST PUSH1 0x0 DUP1 PUSH1 0x0 DUP5 SLT ISZERO PUSH2 0x1698 JUMPI PUSH1 0x0 PUSH1 0x6 SWAP1 POP PUSH1 0x0 DUP1 PUSH1 0x0 SWAP1 SLOAD SWAP1 PUSH2 0x100 EXP SWAP1 DIV PUSH20 0xFFFFFFFFFFFFFFFFFFFFFFFFFFFFFFFFFFFFFFFF AND PUSH20 0xFFFFFFFFFFFFFFFFFFFFFFFFFFFFFFFFFFFFFFFF AND PUSH4 0x70A08231 ADDRESS PUSH1 0x40 MLOAD DUP3 PUSH4 0xFFFFFFFF AND PUSH1 0xE0 SHL DUP2 MSTORE PUSH1 0x4 ADD PUSH2 0x1544 SWAP2 SWAP1 PUSH2 0x4EA0 JUMP JUMPDEST PUSH1 0x20 PUSH1 0x40 MLOAD DUP1 DUP4 SUB DUP2 DUP7 GAS STATICCALL ISZERO DUP1 ISZERO PUSH2 0x1561 JUMPI RETURNDATASIZE PUSH1 0x0 DUP1 RETURNDATACOPY RETURNDATASIZE PUSH1 0x0 REVERT JUMPDEST POP POP POP POP PUSH1 0x40 MLOAD RETURNDATASIZE PUSH1 0x1F NOT PUSH1 0x1F DUP3 ADD AND DUP3 ADD DUP1 PUSH1 0x40 MSTORE POP DUP2 ADD SWAP1 PUSH2 0x1585 SWAP2 SWAP1 PUSH2 0x56C0 JUMP JUMPDEST SWAP1 POP PUSH1 0x0 PUSH2 0x15A0 DUP4 PUSH1 0x2 ADD SLOAD DUP4 PUSH2 0x4345 SWAP1 SWAP2 SWAP1 PUSH4 0xFFFFFFFF AND JUMP JUMPDEST SWAP1 POP PUSH2 0x15D5 DUP4 PUSH1 0x0 ADD SLOAD PUSH2 0x15C6 DUP10 PUSH2 0x15B7 SWAP1 PUSH2 0x54D8 JUMP JUMPDEST DUP5 PUSH2 0x4503 SWAP1 SWAP2 SWAP1 PUSH4 0xFFFFFFFF AND JUMP JUMPDEST DUP10 PUSH2 0x15D0 SWAP1 PUSH2 0x54D8 JUMP JUMPDEST PUSH2 0x4519 JUMP JUMPDEST SWAP5 POP PUSH1 0x0 DUP6 GT PUSH2 0x161A JUMPI PUSH1 0x40 MLOAD PUSH32 0x8C379A000000000000000000000000000000000000000000000000000000000 DUP2 MSTORE PUSH1 0x4 ADD PUSH2 0x1611 SWAP1 PUSH2 0x57A5 JUMP JUMPDEST PUSH1 0x40 MLOAD DUP1 SWAP2 SUB SWAP1 REVERT JUMPDEST DUP8 PUSH1 0x0 DUP1 SLOAD SWAP1 PUSH2 0x100 EXP SWAP1 DIV PUSH20 0xFFFFFFFFFFFFFFFFFFFFFFFFFFFFFFFFFFFFFFFF AND PUSH20 0xFFFFFFFFFFFFFFFFFFFFFFFFFFFFFFFFFFFFFFFF AND PUSH32 0xAF77103A98A12032881B6214985E03FF85A9C1AD6FED28F4B0F3C52E01BCC58B DUP10 PUSH2 0x167D SWAP1 PUSH2 0x54D8 JUMP JUMPDEST DUP9 PUSH1 0x40 MLOAD PUSH2 0x168C SWAP3 SWAP2 SWAP1 PUSH2 0x50F8 JUMP JUMPDEST PUSH1 0x40 MLOAD DUP1 SWAP2 SUB SWAP1 LOG3 POP POP POP JUMPDEST PUSH1 0x0 DUP5 SGT ISZERO PUSH2 0x183F JUMPI PUSH1 0x0 PUSH1 0x9 SWAP1 POP PUSH1 0x0 PUSH1 0x1 PUSH1 0x0 SWAP1 SLOAD SWAP1 PUSH2 0x100 EXP SWAP1 DIV PUSH20 0xFFFFFFFFFFFFFFFFFFFFFFFFFFFFFFFFFFFFFFFF AND PUSH20 0xFFFFFFFFFFFFFFFFFFFFFFFFFFFFFFFFFFFFFFFF AND PUSH4 0x70A08231 ADDRESS PUSH1 0x40 MLOAD DUP3 PUSH4 0xFFFFFFFF AND PUSH1 0xE0 SHL DUP2 MSTORE PUSH1 0x4 ADD PUSH2 0x1704 SWAP2 SWAP1 PUSH2 0x4EA0 JUMP JUMPDEST PUSH1 0x20 PUSH1 0x40 MLOAD DUP1 DUP4 SUB DUP2 DUP7 GAS STATICCALL ISZERO DUP1 ISZERO PUSH2 0x1721 JUMPI RETURNDATASIZE PUSH1 0x0 DUP1 RETURNDATACOPY RETURNDATASIZE PUSH1 0x0 REVERT JUMPDEST POP POP POP POP PUSH1 0x40 MLOAD RETURNDATASIZE PUSH1 0x1F NOT PUSH1 0x1F DUP3 ADD AND DUP3 ADD DUP1 PUSH1 0x40 MSTORE POP DUP2 ADD SWAP1 PUSH2 0x1745 SWAP2 SWAP1 PUSH2 0x56C0 JUMP JUMPDEST SWAP1 POP PUSH1 0x0 PUSH2 0x1760 DUP4 PUSH1 0x2 ADD SLOAD DUP4 PUSH2 0x4345 SWAP1 SWAP2 SWAP1 PUSH4 0xFFFFFFFF AND JUMP JUMPDEST SWAP1 POP PUSH2 0x1783 DUP4 PUSH1 0x0 ADD SLOAD PUSH2 0x177D DUP10 DUP5 PUSH2 0x4503 SWAP1 SWAP2 SWAP1 PUSH4 0xFFFFFFFF AND JUMP JUMPDEST DUP10 PUSH2 0x4519 JUMP JUMPDEST SWAP4 POP PUSH1 0x0 DUP5 GT PUSH2 0x17C8 JUMPI PUSH1 0x40 MLOAD PUSH32 0x8C379A000000000000000000000000000000000000000000000000000000000 DUP2 MSTORE PUSH1 0x4 ADD PUSH2 0x17BF SWAP1 PUSH2 0x57A5 JUMP JUMPDEST PUSH1 0x40 MLOAD DUP1 SWAP2 SUB SWAP1 REVERT JUMPDEST DUP8 PUSH1 0x1 PUSH1 0x0 SWAP1 SLOAD SWAP1 PUSH2 0x100 EXP SWAP1 DIV PUSH20 0xFFFFFFFFFFFFFFFFFFFFFFFFFFFFFFFFFFFFFFFF AND PUSH20 0xFFFFFFFFFFFFFFFFFFFFFFFFFFFFFFFFFFFFFFFF AND PUSH32 0xAF77103A98A12032881B6214985E03FF85A9C1AD6FED28F4B0F3C52E01BCC58B DUP10 DUP8 PUSH1 0x40 MLOAD PUSH2 0x1833 SWAP3 SWAP2 SWAP1 PUSH2 0x50F8 JUMP JUMPDEST PUSH1 0x40 MLOAD DUP1 SWAP2 SUB SWAP1 LOG3 POP POP POP JUMPDEST PUSH2 0x184A DUP6 DUP4 DUP4 PUSH2 0x4573 JUMP JUMPDEST PUSH1 0x0 SWAP3 POP POP POP SWAP3 SWAP2 POP POP JUMP JUMPDEST PUSH1 0x0 PUSH1 0x5 PUSH1 0x0 SWAP1 SLOAD SWAP1 PUSH2 0x100 EXP SWAP1 DIV PUSH1 0xFF AND PUSH1 0xFF AND SWAP1 POP SWAP1 JUMP JUMPDEST PUSH1 0x0 PUSH1 0x5 PUSH1 0x1 SWAP1 SLOAD SWAP1 PUSH2 0x100 EXP SWAP1 DIV PUSH1 0xFF AND PUSH1 0xFF AND SWAP1 POP SWAP1 JUMP JUMPDEST PUSH1 0x0 DUP1 PUSH1 0x9 PUSH1 0x40 MLOAD DUP1 PUSH1 0x60 ADD PUSH1 0x40 MSTORE SWAP1 DUP2 PUSH1 0x0 DUP3 ADD SLOAD DUP2 MSTORE PUSH1 0x20 ADD PUSH1 0x1 DUP3 ADD SLOAD DUP2 MSTORE PUSH1 0x20 ADD PUSH1 0x2 DUP3 ADD SLOAD DUP2 MSTORE POP POP SWAP1 POP PUSH1 0x0 DUP2 PUSH1 0x40 ADD MLOAD SWAP1 POP PUSH1 0x0 PUSH2 0x1973 PUSH1 0x1 PUSH1 0x0 SWAP1 SLOAD SWAP1 PUSH2 0x100 EXP SWAP1 DIV PUSH20 0xFFFFFFFFFFFFFFFFFFFFFFFFFFFFFFFFFFFFFFFF AND PUSH20 0xFFFFFFFFFFFFFFFFFFFFFFFFFFFFFFFFFFFFFFFF AND PUSH4 0x70A08231 ADDRESS PUSH1 0x40 MLOAD DUP3 PUSH4 0xFFFFFFFF AND PUSH1 0xE0 SHL DUP2 MSTORE PUSH1 0x4 ADD PUSH2 0x1923 SWAP2 SWAP1 PUSH2 0x4EA0 JUMP JUMPDEST PUSH1 0x20 PUSH1 0x40 MLOAD DUP1 DUP4 SUB DUP2 DUP7 GAS STATICCALL ISZERO DUP1 ISZERO PUSH2 0x1940 JUMPI RETURNDATASIZE PUSH1 0x0 DUP1 RETURNDATACOPY RETURNDATASIZE PUSH1 0x0 REVERT JUMPDEST POP POP POP POP PUSH1 0x40 MLOAD RETURNDATASIZE PUSH1 0x1F NOT PUSH1 0x1F DUP3 ADD AND DUP3 ADD DUP1 PUSH1 0x40 MSTORE POP DUP2 ADD SWAP1 PUSH2 0x1964 SWAP2 SWAP1 PUSH2 0x56C0 JUMP JUMPDEST DUP4 PUSH2 0x4345 SWAP1 SWAP2 SWAP1 PUSH4 0xFFFFFFFF AND JUMP JUMPDEST SWAP1 POP PUSH1 0x0 PUSH2 0x19C2 PUSH1 0x64 PUSH2 0x19B4 PUSH2 0x19A5 PUSH1 0x5 PUSH1 0x2 SWAP1 SLOAD SWAP1 PUSH2 0x100 EXP SWAP1 DIV PUSH1 0xFF AND PUSH1 0xFF AND PUSH1 0x64 PUSH2 0x4503 SWAP1 SWAP2 SWAP1 PUSH4 0xFFFFFFFF AND JUMP JUMPDEST DUP6 PUSH2 0x462E SWAP1 SWAP2 SWAP1 PUSH4 0xFFFFFFFF AND JUMP JUMPDEST PUSH2 0x4644 SWAP1 SWAP2 SWAP1 PUSH4 0xFFFFFFFF AND JUMP JUMPDEST SWAP1 POP DUP3 DUP2 GT ISZERO PUSH2 0x19E2 JUMPI PUSH2 0x19DF DUP4 DUP3 PUSH2 0x4503 SWAP1 SWAP2 SWAP1 PUSH4 0xFFFFFFFF AND JUMP JUMPDEST SWAP5 POP JUMPDEST POP POP POP POP SWAP1 JUMP JUMPDEST CALLER PUSH20 0xFFFFFFFFFFFFFFFFFFFFFFFFFFFFFFFFFFFFFFFF AND PUSH1 0x2 PUSH1 0x0 SWAP1 SLOAD SWAP1 PUSH2 0x100 EXP SWAP1 DIV PUSH20 0xFFFFFFFFFFFFFFFFFFFFFFFFFFFFFFFFFFFFFFFF AND PUSH20 0xFFFFFFFFFFFFFFFFFFFFFFFFFFFFFFFFFFFFFFFF AND EQ PUSH2 0x1A79 JUMPI PUSH1 0x40 MLOAD PUSH32 0x8C379A000000000000000000000000000000000000000000000000000000000 DUP2 MSTORE PUSH1 0x4 ADD PUSH2 0x1A70 SWAP1 PUSH2 0x5489 JUMP JUMPDEST PUSH1 0x40 MLOAD DUP1 SWAP2 SUB SWAP1 REVERT JUMPDEST PUSH32 0xEDFFC32E068C7C95DFD4BDFD5C4D939A084D6B11C4199EAC8436ED234D72F926 PUSH1 0x3 PUSH1 0x0 SWAP1 SLOAD SWAP1 PUSH2 0x100 EXP SWAP1 DIV PUSH20 0xFFFFFFFFFFFFFFFFFFFFFFFFFFFFFFFFFFFFFFFF AND DUP3 PUSH1 0x40 MLOAD PUSH2 0x1ACC SWAP3 SWAP2 SWAP1 PUSH2 0x57C5 JUMP JUMPDEST PUSH1 0x40 MLOAD DUP1 SWAP2 SUB SWAP1 LOG1 DUP1 PUSH1 0x3 PUSH1 0x0 PUSH2 0x100 EXP DUP2 SLOAD DUP2 PUSH20 0xFFFFFFFFFFFFFFFFFFFFFFFFFFFFFFFFFFFFFFFF MUL NOT AND SWAP1 DUP4 PUSH20 0xFFFFFFFFFFFFFFFFFFFFFFFFFFFFFFFFFFFFFFFF AND MUL OR SWAP1 SSTORE POP POP JUMP JUMPDEST PUSH1 0x0 DUP1 PUSH1 0x0 DUP1 PUSH2 0x1B27 DUP6 PUSH2 0x1E85 JUMP JUMPDEST DUP1 SWAP5 POP DUP2 SWAP6 POP POP POP PUSH2 0x1B38 DUP6 PUSH2 0x1B47 JUMP JUMPDEST DUP1 SWAP3 POP DUP2 SWAP4 POP POP POP SWAP2 SWAP4 POP SWAP2 SWAP4 JUMP JUMPDEST PUSH1 0x0 DUP1 PUSH1 0x0 PUSH1 0xC PUSH1 0x0 DUP6 DUP2 MSTORE PUSH1 0x20 ADD SWAP1 DUP2 MSTORE PUSH1 0x20 ADD PUSH1 0x0 KECCAK256 PUSH1 0x40 MLOAD DUP1 PUSH1 0x80 ADD PUSH1 0x40 MSTORE SWAP1 DUP2 PUSH1 0x0 DUP3 ADD SLOAD DUP2 MSTORE PUSH1 0x20 ADD PUSH1 0x1 DUP3 ADD SLOAD DUP2 MSTORE PUSH1 0x20 ADD PUSH1 0x2 DUP3 ADD SLOAD DUP2 MSTORE PUSH1 0x20 ADD PUSH1 0x3 DUP3 ADD SLOAD DUP2 MSTORE POP POP SWAP1 POP PUSH1 0x0 PUSH1 0x9 PUSH1 0x40 MLOAD DUP1 PUSH1 0x60 ADD PUSH1 0x40 MSTORE SWAP1 DUP2 PUSH1 0x0 DUP3 ADD SLOAD DUP2 MSTORE PUSH1 0x20 ADD PUSH1 0x1 DUP3 ADD SLOAD DUP2 MSTORE PUSH1 0x20 ADD PUSH1 0x2 DUP3 ADD SLOAD DUP2 MSTORE POP POP SWAP1 POP PUSH1 0x0 DUP2 PUSH1 0x40 ADD MLOAD SWAP1 POP PUSH1 0x4 SLOAD NUMBER GT ISZERO PUSH2 0x1C21 JUMPI PUSH1 0x0 PUSH2 0x1BED DUP4 PUSH1 0x40 ADD MLOAD PUSH2 0x1BE8 PUSH2 0x188A JUMP JUMPDEST PUSH2 0x311F JUMP JUMPDEST SWAP1 POP PUSH2 0x1C1D PUSH2 0x1C0E DUP5 PUSH1 0x40 ADD MLOAD DUP4 PUSH1 0x4 SLOAD NUMBER PUSH2 0x1C09 SWAP2 SWAP1 PUSH2 0x57EE JUMP JUMPDEST PUSH2 0x465A JUMP JUMPDEST DUP4 PUSH2 0x4345 SWAP1 SWAP2 SWAP1 PUSH4 0xFFFFFFFF AND JUMP JUMPDEST SWAP2 POP POP JUMPDEST PUSH1 0x0 DUP4 PUSH1 0x20 ADD MLOAD GT ISZERO PUSH2 0x1CFD JUMPI PUSH1 0x0 PUSH1 0x1 PUSH1 0x0 SWAP1 SLOAD SWAP1 PUSH2 0x100 EXP SWAP1 DIV PUSH20 0xFFFFFFFFFFFFFFFFFFFFFFFFFFFFFFFFFFFFFFFF AND PUSH20 0xFFFFFFFFFFFFFFFFFFFFFFFFFFFFFFFFFFFFFFFF AND PUSH4 0x70A08231 ADDRESS PUSH1 0x40 MLOAD DUP3 PUSH4 0xFFFFFFFF AND PUSH1 0xE0 SHL DUP2 MSTORE PUSH1 0x4 ADD PUSH2 0x1C8B SWAP2 SWAP1 PUSH2 0x4EA0 JUMP JUMPDEST PUSH1 0x20 PUSH1 0x40 MLOAD DUP1 DUP4 SUB DUP2 DUP7 GAS STATICCALL ISZERO DUP1 ISZERO PUSH2 0x1CA8 JUMPI RETURNDATASIZE PUSH1 0x0 DUP1 RETURNDATACOPY RETURNDATASIZE PUSH1 0x0 REVERT JUMPDEST POP POP POP POP PUSH1 0x40 MLOAD RETURNDATASIZE PUSH1 0x1F NOT PUSH1 0x1F DUP3 ADD AND DUP3 ADD DUP1 PUSH1 0x40 MSTORE POP DUP2 ADD SWAP1 PUSH2 0x1CCC SWAP2 SWAP1 PUSH2 0x56C0 JUMP JUMPDEST SWAP1 POP PUSH1 0x0 PUSH2 0x1CE3 DUP4 DUP4 PUSH2 0x4345 SWAP1 SWAP2 SWAP1 PUSH4 0xFFFFFFFF AND JUMP JUMPDEST SWAP1 POP PUSH2 0x1CF8 DUP2 DUP6 PUSH1 0x0 ADD MLOAD DUP8 PUSH1 0x20 ADD MLOAD PUSH2 0x435B JUMP JUMPDEST SWAP7 POP POP POP JUMPDEST PUSH1 0x0 DUP4 PUSH1 0x60 ADD MLOAD GT ISZERO PUSH2 0x1D20 JUMPI PUSH2 0x1D1D DUP2 DUP4 PUSH1 0x20 ADD MLOAD DUP6 PUSH1 0x60 ADD MLOAD PUSH2 0x435B JUMP JUMPDEST SWAP4 POP JUMPDEST POP POP POP SWAP2 POP SWAP2 JUMP JUMPDEST PUSH1 0x0 DUP1 PUSH1 0x6 PUSH1 0x40 MLOAD DUP1 PUSH1 0x60 ADD PUSH1 0x40 MSTORE SWAP1 DUP2 PUSH1 0x0 DUP3 ADD SLOAD DUP2 MSTORE PUSH1 0x20 ADD PUSH1 0x1 DUP3 ADD SLOAD DUP2 MSTORE PUSH1 0x20 ADD PUSH1 0x2 DUP3 ADD SLOAD DUP2 MSTORE POP POP SWAP1 POP PUSH1 0x0 DUP2 PUSH1 0x40 ADD MLOAD SWAP1 POP PUSH1 0x0 PUSH2 0x1E0F PUSH1 0x0 DUP1 SLOAD SWAP1 PUSH2 0x100 EXP SWAP1 DIV PUSH20 0xFFFFFFFFFFFFFFFFFFFFFFFFFFFFFFFFFFFFFFFF AND PUSH20 0xFFFFFFFFFFFFFFFFFFFFFFFFFFFFFFFFFFFFFFFF AND PUSH4 0x70A08231 ADDRESS PUSH1 0x40 MLOAD DUP3 PUSH4 0xFFFFFFFF AND PUSH1 0xE0 SHL DUP2 MSTORE PUSH1 0x4 ADD PUSH2 0x1DBF SWAP2 SWAP1 PUSH2 0x4EA0 JUMP JUMPDEST PUSH1 0x20 PUSH1 0x40 MLOAD DUP1 DUP4 SUB DUP2 DUP7 GAS STATICCALL ISZERO DUP1 ISZERO PUSH2 0x1DDC JUMPI RETURNDATASIZE PUSH1 0x0 DUP1 RETURNDATACOPY RETURNDATASIZE PUSH1 0x0 REVERT JUMPDEST POP POP POP POP PUSH1 0x40 MLOAD RETURNDATASIZE PUSH1 0x1F NOT PUSH1 0x1F DUP3 ADD AND DUP3 ADD DUP1 PUSH1 0x40 MSTORE POP DUP2 ADD SWAP1 PUSH2 0x1E00 SWAP2 SWAP1 PUSH2 0x56C0 JUMP JUMPDEST DUP4 PUSH2 0x4345 SWAP1 SWAP2 SWAP1 PUSH4 0xFFFFFFFF AND JUMP JUMPDEST SWAP1 POP PUSH1 0x0 PUSH2 0x1E5E PUSH1 0x64 PUSH2 0x1E50 PUSH2 0x1E41 PUSH1 0x5 PUSH1 0x2 SWAP1 SLOAD SWAP1 PUSH2 0x100 EXP SWAP1 DIV PUSH1 0xFF AND PUSH1 0xFF AND PUSH1 0x64 PUSH2 0x4503 SWAP1 SWAP2 SWAP1 PUSH4 0xFFFFFFFF AND JUMP JUMPDEST DUP6 PUSH2 0x462E SWAP1 SWAP2 SWAP1 PUSH4 0xFFFFFFFF AND JUMP JUMPDEST PUSH2 0x4644 SWAP1 SWAP2 SWAP1 PUSH4 0xFFFFFFFF AND JUMP JUMPDEST SWAP1 POP DUP3 DUP2 GT ISZERO PUSH2 0x1E7E JUMPI PUSH2 0x1E7B DUP4 DUP3 PUSH2 0x4503 SWAP1 SWAP2 SWAP1 PUSH4 0xFFFFFFFF AND JUMP JUMPDEST SWAP5 POP JUMPDEST POP POP POP POP SWAP1 JUMP JUMPDEST PUSH1 0x0 DUP1 PUSH1 0x0 PUSH1 0xC PUSH1 0x0 DUP6 DUP2 MSTORE PUSH1 0x20 ADD SWAP1 DUP2 MSTORE PUSH1 0x20 ADD PUSH1 0x0 KECCAK256 PUSH1 0x40 MLOAD DUP1 PUSH1 0x80 ADD PUSH1 0x40 MSTORE SWAP1 DUP2 PUSH1 0x0 DUP3 ADD SLOAD DUP2 MSTORE PUSH1 0x20 ADD PUSH1 0x1 DUP3 ADD SLOAD DUP2 MSTORE PUSH1 0x20 ADD PUSH1 0x2 DUP3 ADD SLOAD DUP2 MSTORE PUSH1 0x20 ADD PUSH1 0x3 DUP3 ADD SLOAD DUP2 MSTORE POP POP SWAP1 POP PUSH1 0x0 PUSH1 0x6 PUSH1 0x40 MLOAD DUP1 PUSH1 0x60 ADD PUSH1 0x40 MSTORE SWAP1 DUP2 PUSH1 0x0 DUP3 ADD SLOAD DUP2 MSTORE PUSH1 0x20 ADD PUSH1 0x1 DUP3 ADD SLOAD DUP2 MSTORE PUSH1 0x20 ADD PUSH1 0x2 DUP3 ADD SLOAD DUP2 MSTORE POP POP SWAP1 POP PUSH1 0x0 DUP2 PUSH1 0x40 ADD MLOAD SWAP1 POP PUSH1 0x4 SLOAD NUMBER GT ISZERO PUSH2 0x1F5F JUMPI PUSH1 0x0 PUSH2 0x1F2B DUP4 PUSH1 0x40 ADD MLOAD PUSH2 0x1F26 PUSH2 0x1D28 JUMP JUMPDEST PUSH2 0x311F JUMP JUMPDEST SWAP1 POP PUSH2 0x1F5B PUSH2 0x1F4C DUP5 PUSH1 0x40 ADD MLOAD DUP4 PUSH1 0x4 SLOAD NUMBER PUSH2 0x1F47 SWAP2 SWAP1 PUSH2 0x57EE JUMP JUMPDEST PUSH2 0x465A JUMP JUMPDEST DUP4 PUSH2 0x4345 SWAP1 SWAP2 SWAP1 PUSH4 0xFFFFFFFF AND JUMP JUMPDEST SWAP2 POP POP JUMPDEST PUSH1 0x0 DUP4 PUSH1 0x0 ADD MLOAD GT ISZERO PUSH2 0x203A JUMPI PUSH1 0x0 DUP1 PUSH1 0x0 SWAP1 SLOAD SWAP1 PUSH2 0x100 EXP SWAP1 DIV PUSH20 0xFFFFFFFFFFFFFFFFFFFFFFFFFFFFFFFFFFFFFFFF AND PUSH20 0xFFFFFFFFFFFFFFFFFFFFFFFFFFFFFFFFFFFFFFFF AND PUSH4 0x70A08231 ADDRESS PUSH1 0x40 MLOAD DUP3 PUSH4 0xFFFFFFFF AND PUSH1 0xE0 SHL DUP2 MSTORE PUSH1 0x4 ADD PUSH2 0x1FC8 SWAP2 SWAP1 PUSH2 0x4EA0 JUMP JUMPDEST PUSH1 0x20 PUSH1 0x40 MLOAD DUP1 DUP4 SUB DUP2 DUP7 GAS STATICCALL ISZERO DUP1 ISZERO PUSH2 0x1FE5 JUMPI RETURNDATASIZE PUSH1 0x0 DUP1 RETURNDATACOPY RETURNDATASIZE PUSH1 0x0 REVERT JUMPDEST POP POP POP POP PUSH1 0x40 MLOAD RETURNDATASIZE PUSH1 0x1F NOT PUSH1 0x1F DUP3 ADD AND DUP3 ADD DUP1 PUSH1 0x40 MSTORE POP DUP2 ADD SWAP1 PUSH2 0x2009 SWAP2 SWAP1 PUSH2 0x56C0 JUMP JUMPDEST SWAP1 POP PUSH1 0x0 PUSH2 0x2020 DUP4 DUP4 PUSH2 0x4345 SWAP1 SWAP2 SWAP1 PUSH4 0xFFFFFFFF AND JUMP JUMPDEST SWAP1 POP PUSH2 0x2035 DUP2 DUP6 PUSH1 0x0 ADD MLOAD DUP8 PUSH1 0x0 ADD MLOAD PUSH2 0x435B JUMP JUMPDEST SWAP7 POP POP POP JUMPDEST PUSH1 0x0 DUP4 PUSH1 0x40 ADD MLOAD GT ISZERO PUSH2 0x205D JUMPI PUSH2 0x205A DUP2 DUP4 PUSH1 0x20 ADD MLOAD DUP6 PUSH1 0x40 ADD MLOAD PUSH2 0x435B JUMP JUMPDEST SWAP4 POP JUMPDEST POP POP POP SWAP2 POP SWAP2 JUMP JUMPDEST CALLER PUSH20 0xFFFFFFFFFFFFFFFFFFFFFFFFFFFFFFFFFFFFFFFF AND PUSH1 0x2 PUSH1 0x0 SWAP1 SLOAD SWAP1 PUSH2 0x100 EXP SWAP1 DIV PUSH20 0xFFFFFFFFFFFFFFFFFFFFFFFFFFFFFFFFFFFFFFFF AND PUSH20 0xFFFFFFFFFFFFFFFFFFFFFFFFFFFFFFFFFFFFFFFF AND EQ PUSH2 0x20F5 JUMPI PUSH1 0x40 MLOAD PUSH32 0x8C379A000000000000000000000000000000000000000000000000000000000 DUP2 MSTORE PUSH1 0x4 ADD PUSH2 0x20EC SWAP1 PUSH2 0x5489 JUMP JUMPDEST PUSH1 0x40 MLOAD DUP1 SWAP2 SUB SWAP1 REVERT JUMPDEST PUSH2 0x20FD PUSH2 0x2AD5 JUMP JUMPDEST PUSH1 0x0 DUP2 SLT ISZERO PUSH2 0x213B JUMPI PUSH2 0x213A PUSH1 0x0 DUP1 SLOAD SWAP1 PUSH2 0x100 EXP SWAP1 DIV PUSH20 0xFFFFFFFFFFFFFFFFFFFFFFFFFFFFFFFFFFFFFFFF AND DUP4 DUP4 PUSH2 0x2135 SWAP1 PUSH2 0x54D8 JUMP JUMPDEST PUSH2 0x42A6 JUMP JUMPDEST JUMPDEST PUSH1 0x0 DUP2 SGT ISZERO PUSH2 0x2172 JUMPI PUSH2 0x2171 PUSH1 0x1 PUSH1 0x0 SWAP1 SLOAD SWAP1 PUSH2 0x100 EXP SWAP1 DIV PUSH20 0xFFFFFFFFFFFFFFFFFFFFFFFFFFFFFFFFFFFFFFFF AND DUP4 DUP4 PUSH2 0x42A6 JUMP JUMPDEST JUMPDEST POP POP JUMP JUMPDEST PUSH1 0x9 DUP1 PUSH1 0x0 ADD SLOAD SWAP1 DUP1 PUSH1 0x1 ADD SLOAD SWAP1 DUP1 PUSH1 0x2 ADD SLOAD SWAP1 POP DUP4 JUMP JUMPDEST PUSH1 0x0 CALLER PUSH20 0xFFFFFFFFFFFFFFFFFFFFFFFFFFFFFFFFFFFFFFFF AND PUSH1 0x2 PUSH1 0x0 SWAP1 SLOAD SWAP1 PUSH2 0x100 EXP SWAP1 DIV PUSH20 0xFFFFFFFFFFFFFFFFFFFFFFFFFFFFFFFFFFFFFFFF AND PUSH20 0xFFFFFFFFFFFFFFFFFFFFFFFFFFFFFFFFFFFFFFFF AND EQ PUSH2 0x2220 JUMPI PUSH1 0x40 MLOAD PUSH32 0x8C379A000000000000000000000000000000000000000000000000000000000 DUP2 MSTORE PUSH1 0x4 ADD PUSH2 0x2217 SWAP1 PUSH2 0x5489 JUMP JUMPDEST PUSH1 0x40 MLOAD DUP1 SWAP2 SUB SWAP1 REVERT JUMPDEST PUSH2 0x2228 PUSH2 0x2AD5 JUMP JUMPDEST PUSH1 0x0 PUSH1 0xC PUSH1 0x0 DUP7 DUP2 MSTORE PUSH1 0x20 ADD SWAP1 DUP2 MSTORE PUSH1 0x20 ADD PUSH1 0x0 KECCAK256 SWAP1 POP PUSH1 0x0 DUP5 SLT ISZERO PUSH2 0x24CE JUMPI PUSH1 0x0 PUSH1 0x6 SWAP1 POP PUSH1 0x0 DUP1 PUSH1 0x0 SWAP1 SLOAD SWAP1 PUSH2 0x100 EXP SWAP1 DIV PUSH20 0xFFFFFFFFFFFFFFFFFFFFFFFFFFFFFFFFFFFFFFFF AND PUSH20 0xFFFFFFFFFFFFFFFFFFFFFFFFFFFFFFFFFFFFFFFF AND PUSH4 0x70A08231 ADDRESS PUSH1 0x40 MLOAD DUP3 PUSH4 0xFFFFFFFF AND PUSH1 0xE0 SHL DUP2 MSTORE PUSH1 0x4 ADD PUSH2 0x22AA SWAP2 SWAP1 PUSH2 0x4EA0 JUMP JUMPDEST PUSH1 0x20 PUSH1 0x40 MLOAD DUP1 DUP4 SUB DUP2 DUP7 GAS STATICCALL ISZERO DUP1 ISZERO PUSH2 0x22C7 JUMPI RETURNDATASIZE PUSH1 0x0 DUP1 RETURNDATACOPY RETURNDATASIZE PUSH1 0x0 REVERT JUMPDEST POP POP POP POP PUSH1 0x40 MLOAD RETURNDATASIZE PUSH1 0x1F NOT PUSH1 0x1F DUP3 ADD AND DUP3 ADD DUP1 PUSH1 0x40 MSTORE POP DUP2 ADD SWAP1 PUSH2 0x22EB SWAP2 SWAP1 PUSH2 0x56C0 JUMP JUMPDEST SWAP1 POP PUSH1 0x0 PUSH2 0x2306 DUP4 PUSH1 0x2 ADD SLOAD DUP4 PUSH2 0x4345 SWAP1 SWAP2 SWAP1 PUSH4 0xFFFFFFFF AND JUMP JUMPDEST SWAP1 POP PUSH1 0x0 PUSH2 0x2322 DUP3 DUP6 PUSH1 0x0 ADD SLOAD DUP11 PUSH2 0x231D SWAP1 PUSH2 0x54D8 JUMP JUMPDEST PUSH2 0x46A5 JUMP JUMPDEST SWAP1 POP PUSH1 0x0 DUP2 GT PUSH2 0x2367 JUMPI PUSH1 0x40 MLOAD PUSH32 0x8C379A000000000000000000000000000000000000000000000000000000000 DUP2 MSTORE PUSH1 0x4 ADD PUSH2 0x235E SWAP1 PUSH2 0x586E JUMP JUMPDEST PUSH1 0x40 MLOAD DUP1 SWAP2 SUB SWAP1 REVERT JUMPDEST DUP1 DUP6 PUSH1 0x0 ADD SLOAD LT ISZERO PUSH2 0x23AE JUMPI PUSH1 0x40 MLOAD PUSH32 0x8C379A000000000000000000000000000000000000000000000000000000000 DUP2 MSTORE PUSH1 0x4 ADD PUSH2 0x23A5 SWAP1 PUSH2 0x568B JUMP JUMPDEST PUSH1 0x40 MLOAD DUP1 SWAP2 SUB SWAP1 REVERT JUMPDEST DUP8 PUSH2 0x23B8 SWAP1 PUSH2 0x54D8 JUMP JUMPDEST DUP4 LT ISZERO PUSH2 0x23FA JUMPI PUSH1 0x40 MLOAD PUSH32 0x8C379A000000000000000000000000000000000000000000000000000000000 DUP2 MSTORE PUSH1 0x4 ADD PUSH2 0x23F1 SWAP1 PUSH2 0x5739 JUMP JUMPDEST PUSH1 0x40 MLOAD DUP1 SWAP2 SUB SWAP1 REVERT JUMPDEST PUSH2 0x2406 DUP10 DUP3 PUSH1 0x0 PUSH2 0x438B JUMP JUMPDEST PUSH2 0x240F DUP10 PUSH2 0x4446 JUMP JUMPDEST PUSH2 0x2443 PUSH1 0x0 DUP1 SLOAD SWAP1 PUSH2 0x100 EXP SWAP1 DIV PUSH20 0xFFFFFFFFFFFFFFFFFFFFFFFFFFFFFFFFFFFFFFFF AND DUP9 DUP11 PUSH2 0x243E SWAP1 PUSH2 0x54D8 JUMP JUMPDEST PUSH2 0x42A6 JUMP JUMPDEST DUP1 PUSH2 0x244D SWAP1 PUSH2 0x54D8 JUMP JUMPDEST SWAP6 POP DUP9 PUSH1 0x0 DUP1 SLOAD SWAP1 PUSH2 0x100 EXP SWAP1 DIV PUSH20 0xFFFFFFFFFFFFFFFFFFFFFFFFFFFFFFFFFFFFFFFF AND PUSH20 0xFFFFFFFFFFFFFFFFFFFFFFFFFFFFFFFFFFFFFFFF AND PUSH32 0xBD5034FFBD47E4E72A94BAA2CDB74C6FAD73CB3BCDC13036B72EC8306F5A7646 DUP4 DUP12 PUSH2 0x24B3 SWAP1 PUSH2 0x54D8 JUMP JUMPDEST PUSH1 0x40 MLOAD PUSH2 0x24C1 SWAP3 SWAP2 SWAP1 PUSH2 0x50F8 JUMP JUMPDEST PUSH1 0x40 MLOAD DUP1 SWAP2 SUB SWAP1 LOG3 POP POP POP POP JUMPDEST PUSH1 0x0 DUP5 SGT ISZERO PUSH2 0x2735 JUMPI PUSH1 0x0 PUSH1 0x9 SWAP1 POP PUSH1 0x0 PUSH1 0x1 PUSH1 0x0 SWAP1 SLOAD SWAP1 PUSH2 0x100 EXP SWAP1 DIV PUSH20 0xFFFFFFFFFFFFFFFFFFFFFFFFFFFFFFFFFFFFFFFF AND PUSH20 0xFFFFFFFFFFFFFFFFFFFFFFFFFFFFFFFFFFFFFFFF AND PUSH4 0x70A08231 ADDRESS PUSH1 0x40 MLOAD DUP3 PUSH4 0xFFFFFFFF AND PUSH1 0xE0 SHL DUP2 MSTORE PUSH1 0x4 ADD PUSH2 0x253A SWAP2 SWAP1 PUSH2 0x4EA0 JUMP JUMPDEST PUSH1 0x20 PUSH1 0x40 MLOAD DUP1 DUP4 SUB DUP2 DUP7 GAS STATICCALL ISZERO DUP1 ISZERO PUSH2 0x2557 JUMPI RETURNDATASIZE PUSH1 0x0 DUP1 RETURNDATACOPY RETURNDATASIZE PUSH1 0x0 REVERT JUMPDEST POP POP POP POP PUSH1 0x40 MLOAD RETURNDATASIZE PUSH1 0x1F NOT PUSH1 0x1F DUP3 ADD AND DUP3 ADD DUP1 PUSH1 0x40 MSTORE POP DUP2 ADD SWAP1 PUSH2 0x257B SWAP2 SWAP1 PUSH2 0x56C0 JUMP JUMPDEST SWAP1 POP PUSH1 0x0 PUSH2 0x2596 DUP4 PUSH1 0x2 ADD SLOAD DUP4 PUSH2 0x4345 SWAP1 SWAP2 SWAP1 PUSH4 0xFFFFFFFF AND JUMP JUMPDEST SWAP1 POP PUSH1 0x0 PUSH2 0x25A9 DUP3 DUP6 PUSH1 0x0 ADD SLOAD DUP11 PUSH2 0x46A5 JUMP JUMPDEST SWAP1 POP PUSH1 0x0 DUP2 GT PUSH2 0x25EE JUMPI PUSH1 0x40 MLOAD PUSH32 0x8C379A000000000000000000000000000000000000000000000000000000000 DUP2 MSTORE PUSH1 0x4 ADD PUSH2 0x25E5 SWAP1 PUSH2 0x586E JUMP JUMPDEST PUSH1 0x40 MLOAD DUP1 SWAP2 SUB SWAP1 REVERT JUMPDEST DUP1 DUP6 PUSH1 0x1 ADD SLOAD LT ISZERO PUSH2 0x2635 JUMPI PUSH1 0x40 MLOAD PUSH32 0x8C379A000000000000000000000000000000000000000000000000000000000 DUP2 MSTORE PUSH1 0x4 ADD PUSH2 0x262C SWAP1 PUSH2 0x568B JUMP JUMPDEST PUSH1 0x40 MLOAD DUP1 SWAP2 SUB SWAP1 REVERT JUMPDEST DUP8 DUP4 LT ISZERO PUSH2 0x2678 JUMPI PUSH1 0x40 MLOAD PUSH32 0x8C379A000000000000000000000000000000000000000000000000000000000 DUP2 MSTORE PUSH1 0x4 ADD PUSH2 0x266F SWAP1 PUSH2 0x5739 JUMP JUMPDEST PUSH1 0x40 MLOAD DUP1 SWAP2 SUB SWAP1 REVERT JUMPDEST PUSH2 0x2684 DUP10 PUSH1 0x0 DUP4 PUSH2 0x438B JUMP JUMPDEST PUSH2 0x268D DUP10 PUSH2 0x4446 JUMP JUMPDEST PUSH2 0x26BA PUSH1 0x1 PUSH1 0x0 SWAP1 SLOAD SWAP1 PUSH2 0x100 EXP SWAP1 DIV PUSH20 0xFFFFFFFFFFFFFFFFFFFFFFFFFFFFFFFFFFFFFFFF AND DUP9 DUP11 PUSH2 0x42A6 JUMP JUMPDEST DUP1 SWAP6 POP DUP9 PUSH1 0x1 PUSH1 0x0 SWAP1 SLOAD SWAP1 PUSH2 0x100 EXP SWAP1 DIV PUSH20 0xFFFFFFFFFFFFFFFFFFFFFFFFFFFFFFFFFFFFFFFF AND PUSH20 0xFFFFFFFFFFFFFFFFFFFFFFFFFFFFFFFFFFFFFFFF AND PUSH32 0xBD5034FFBD47E4E72A94BAA2CDB74C6FAD73CB3BCDC13036B72EC8306F5A7646 DUP4 DUP12 PUSH1 0x40 MLOAD PUSH2 0x2728 SWAP3 SWAP2 SWAP1 PUSH2 0x50F8 JUMP JUMPDEST PUSH1 0x40 MLOAD DUP1 SWAP2 SUB SWAP1 LOG3 POP POP POP POP JUMPDEST POP SWAP4 SWAP3 POP POP POP JUMP JUMPDEST PUSH1 0x0 DUP1 PUSH1 0x0 DUP1 PUSH2 0x274C DUP6 PUSH2 0x1E85 JUMP JUMPDEST SWAP2 POP SWAP2 POP PUSH1 0x0 DUP1 PUSH2 0x275C DUP8 PUSH2 0x1B47 JUMP JUMPDEST SWAP2 POP SWAP2 POP PUSH1 0x0 DUP4 SUB PUSH2 0x2790 JUMPI PUSH32 0xFFFFFFFFFFFFFFFFFFFFFFFFFFFFFFFFFFFFFFFFFFFFFFFFFFFFFFFFFFFFFFFF SWAP6 POP PUSH2 0x28F1 JUMP JUMPDEST PUSH1 0x0 PUSH1 0x2 PUSH1 0x0 SWAP1 SLOAD SWAP1 PUSH2 0x100 EXP SWAP1 DIV PUSH20 0xFFFFFFFFFFFFFFFFFFFFFFFFFFFFFFFFFFFFFFFF AND PUSH20 0xFFFFFFFFFFFFFFFFFFFFFFFFFFFFFFFFFFFFFFFF AND PUSH4 0x94A76CBB PUSH1 0x1 PUSH1 0x0 SWAP1 SLOAD SWAP1 PUSH2 0x100 EXP SWAP1 DIV PUSH20 0xFFFFFFFFFFFFFFFFFFFFFFFFFFFFFFFFFFFFFFFF AND PUSH1 0x0 DUP1 SLOAD SWAP1 PUSH2 0x100 EXP SWAP1 DIV PUSH20 0xFFFFFFFFFFFFFFFFFFFFFFFFFFFFFFFFFFFFFFFF AND DUP7 PUSH1 0x40 MLOAD DUP5 PUSH4 0xFFFFFFFF AND PUSH1 0xE0 SHL DUP2 MSTORE PUSH1 0x4 ADD PUSH2 0x2833 SWAP4 SWAP3 SWAP2 SWAP1 PUSH2 0x588E JUMP JUMPDEST PUSH1 0x20 PUSH1 0x40 MLOAD DUP1 DUP4 SUB DUP2 DUP7 GAS STATICCALL ISZERO DUP1 ISZERO PUSH2 0x2850 JUMPI RETURNDATASIZE PUSH1 0x0 DUP1 RETURNDATACOPY RETURNDATASIZE PUSH1 0x0 REVERT JUMPDEST POP POP POP POP PUSH1 0x40 MLOAD RETURNDATASIZE PUSH1 0x1F NOT PUSH1 0x1F DUP3 ADD AND DUP3 ADD DUP1 PUSH1 0x40 MSTORE POP DUP2 ADD SWAP1 PUSH2 0x2874 SWAP2 SWAP1 PUSH2 0x56C0 JUMP JUMPDEST SWAP1 POP PUSH2 0x28ED DUP5 PUSH2 0x28DF PUSH1 0x64 PUSH2 0x28D1 PUSH8 0xDE0B6B3A7640000 PUSH2 0x28C3 PUSH2 0x28B4 PUSH1 0x5 PUSH1 0x1 SWAP1 SLOAD SWAP1 PUSH2 0x100 EXP SWAP1 DIV PUSH1 0xFF AND PUSH1 0xFF AND PUSH1 0x64 PUSH2 0x4503 SWAP1 SWAP2 SWAP1 PUSH4 0xFFFFFFFF AND JUMP JUMPDEST DUP9 PUSH2 0x462E SWAP1 SWAP2 SWAP1 PUSH4 0xFFFFFFFF AND JUMP JUMPDEST PUSH2 0x462E SWAP1 SWAP2 SWAP1 PUSH4 0xFFFFFFFF AND JUMP JUMPDEST PUSH2 0x4644 SWAP1 SWAP2 SWAP1 PUSH4 0xFFFFFFFF AND JUMP JUMPDEST PUSH2 0x4644 SWAP1 SWAP2 SWAP1 PUSH4 0xFFFFFFFF AND JUMP JUMPDEST SWAP7 POP POP JUMPDEST PUSH1 0x0 DUP2 SUB PUSH2 0x2921 JUMPI PUSH32 0xFFFFFFFFFFFFFFFFFFFFFFFFFFFFFFFFFFFFFFFFFFFFFFFFFFFFFFFFFFFFFFFF SWAP5 POP PUSH2 0x2A82 JUMP JUMPDEST PUSH1 0x0 PUSH1 0x2 PUSH1 0x0 SWAP1 SLOAD SWAP1 PUSH2 0x100 EXP SWAP1 DIV PUSH20 0xFFFFFFFFFFFFFFFFFFFFFFFFFFFFFFFFFFFFFFFF AND PUSH20 0xFFFFFFFFFFFFFFFFFFFFFFFFFFFFFFFFFFFFFFFF AND PUSH4 0x94A76CBB PUSH1 0x0 DUP1 SLOAD SWAP1 PUSH2 0x100 EXP SWAP1 DIV PUSH20 0xFFFFFFFFFFFFFFFFFFFFFFFFFFFFFFFFFFFFFFFF AND PUSH1 0x1 PUSH1 0x0 SWAP1 SLOAD SWAP1 PUSH2 0x100 EXP SWAP1 DIV PUSH20 0xFFFFFFFFFFFFFFFFFFFFFFFFFFFFFFFFFFFFFFFF AND DUP9 PUSH1 0x40 MLOAD DUP5 PUSH4 0xFFFFFFFF AND PUSH1 0xE0 SHL DUP2 MSTORE PUSH1 0x4 ADD PUSH2 0x29C4 SWAP4 SWAP3 SWAP2 SWAP1 PUSH2 0x588E JUMP JUMPDEST PUSH1 0x20 PUSH1 0x40 MLOAD DUP1 DUP4 SUB DUP2 DUP7 GAS STATICCALL ISZERO DUP1 ISZERO PUSH2 0x29E1 JUMPI RETURNDATASIZE PUSH1 0x0 DUP1 RETURNDATACOPY RETURNDATASIZE PUSH1 0x0 REVERT JUMPDEST POP POP POP POP PUSH1 0x40 MLOAD RETURNDATASIZE PUSH1 0x1F NOT PUSH1 0x1F DUP3 ADD AND DUP3 ADD DUP1 PUSH1 0x40 MSTORE POP DUP2 ADD SWAP1 PUSH2 0x2A05 SWAP2 SWAP1 PUSH2 0x56C0 JUMP JUMPDEST SWAP1 POP PUSH2 0x2A7E DUP3 PUSH2 0x2A70 PUSH1 0x64 PUSH2 0x2A62 PUSH8 0xDE0B6B3A7640000 PUSH2 0x2A54 PUSH2 0x2A45 PUSH1 0x5 PUSH1 0x1 SWAP1 SLOAD SWAP1 PUSH2 0x100 EXP SWAP1 DIV PUSH1 0xFF AND PUSH1 0xFF AND PUSH1 0x64 PUSH2 0x4503 SWAP1 SWAP2 SWAP1 PUSH4 0xFFFFFFFF AND JUMP JUMPDEST DUP9 PUSH2 0x462E SWAP1 SWAP2 SWAP1 PUSH4 0xFFFFFFFF AND JUMP JUMPDEST PUSH2 0x462E SWAP1 SWAP2 SWAP1 PUSH4 0xFFFFFFFF AND JUMP JUMPDEST PUSH2 0x4644 SWAP1 SWAP2 SWAP1 PUSH4 0xFFFFFFFF AND JUMP JUMPDEST PUSH2 0x4644 SWAP1 SWAP2 SWAP1 PUSH4 0xFFFFFFFF AND JUMP JUMPDEST SWAP6 POP POP JUMPDEST POP POP POP POP SWAP2 POP SWAP2 JUMP JUMPDEST PUSH1 0x0 PUSH1 0x5 PUSH1 0x2 SWAP1 SLOAD SWAP1 PUSH2 0x100 EXP SWAP1 DIV PUSH1 0xFF AND PUSH1 0xFF AND SWAP1 POP SWAP1 JUMP JUMPDEST PUSH1 0xC PUSH1 0x20 MSTORE DUP1 PUSH1 0x0 MSTORE PUSH1 0x40 PUSH1 0x0 KECCAK256 PUSH1 0x0 SWAP2 POP SWAP1 POP DUP1 PUSH1 0x0 ADD SLOAD SWAP1 DUP1 PUSH1 0x1 ADD SLOAD SWAP1 DUP1 PUSH1 0x2 ADD SLOAD SWAP1 DUP1 PUSH1 0x3 ADD SLOAD SWAP1 POP DUP5 JUMP JUMPDEST PUSH1 0x0 PUSH1 0x4 SLOAD NUMBER PUSH2 0x2AE5 SWAP2 SWAP1 PUSH2 0x57EE JUMP JUMPDEST SWAP1 POP PUSH1 0x0 DUP2 GT ISZERO PUSH2 0x2BD9 JUMPI PUSH1 0x0 PUSH1 0x6 SWAP1 POP PUSH1 0x0 PUSH1 0x9 SWAP1 POP PUSH1 0x0 PUSH2 0x2B13 DUP4 PUSH1 0x2 ADD SLOAD PUSH2 0x2B0E PUSH2 0x1D28 JUMP JUMPDEST PUSH2 0x311F JUMP JUMPDEST SWAP1 POP PUSH1 0x0 PUSH2 0x2B2C DUP4 PUSH1 0x2 ADD SLOAD PUSH2 0x2B27 PUSH2 0x188A JUMP JUMPDEST PUSH2 0x311F JUMP JUMPDEST SWAP1 POP PUSH2 0x2B53 PUSH2 0x2B40 DUP6 PUSH1 0x2 ADD SLOAD DUP5 DUP9 PUSH2 0x465A JUMP JUMPDEST DUP6 PUSH1 0x2 ADD SLOAD PUSH2 0x4345 SWAP1 SWAP2 SWAP1 PUSH4 0xFFFFFFFF AND JUMP JUMPDEST DUP5 PUSH1 0x2 ADD DUP2 SWAP1 SSTORE POP PUSH2 0x2B80 PUSH2 0x2B6D DUP5 PUSH1 0x2 ADD SLOAD DUP4 DUP9 PUSH2 0x465A JUMP JUMPDEST DUP5 PUSH1 0x2 ADD SLOAD PUSH2 0x4345 SWAP1 SWAP2 SWAP1 PUSH4 0xFFFFFFFF AND JUMP JUMPDEST DUP4 PUSH1 0x2 ADD DUP2 SWAP1 SSTORE POP NUMBER PUSH1 0x4 DUP2 SWAP1 SSTORE POP PUSH32 0xF76DBA0B37479080DE0DE393E8B418DE865EDD3F02B6C797750578020B882130 DUP3 DUP3 DUP7 PUSH1 0x2 ADD SLOAD DUP7 PUSH1 0x2 ADD SLOAD PUSH1 0x40 MLOAD PUSH2 0x2BCC SWAP5 SWAP4 SWAP3 SWAP2 SWAP1 PUSH2 0x4E1F JUMP JUMPDEST PUSH1 0x40 MLOAD DUP1 SWAP2 SUB SWAP1 LOG1 POP POP POP POP JUMPDEST POP JUMP JUMPDEST PUSH1 0x0 DUP1 PUSH1 0x0 PUSH1 0xC PUSH1 0x0 DUP6 DUP2 MSTORE PUSH1 0x20 ADD SWAP1 DUP2 MSTORE PUSH1 0x20 ADD PUSH1 0x0 KECCAK256 PUSH1 0x40 MLOAD DUP1 PUSH1 0x80 ADD PUSH1 0x40 MSTORE SWAP1 DUP2 PUSH1 0x0 DUP3 ADD SLOAD DUP2 MSTORE PUSH1 0x20 ADD PUSH1 0x1 DUP3 ADD SLOAD DUP2 MSTORE PUSH1 0x20 ADD PUSH1 0x2 DUP3 ADD SLOAD DUP2 MSTORE PUSH1 0x20 ADD PUSH1 0x3 DUP3 ADD SLOAD DUP2 MSTORE POP POP SWAP1 POP DUP1 PUSH1 0x0 ADD MLOAD DUP2 PUSH1 0x40 ADD MLOAD SWAP3 POP SWAP3 POP POP SWAP2 POP SWAP2 JUMP JUMPDEST CALLER PUSH20 0xFFFFFFFFFFFFFFFFFFFFFFFFFFFFFFFFFFFFFFFF AND PUSH1 0x2 PUSH1 0x0 SWAP1 SLOAD SWAP1 PUSH2 0x100 EXP SWAP1 DIV PUSH20 0xFFFFFFFFFFFFFFFFFFFFFFFFFFFFFFFFFFFFFFFF AND PUSH20 0xFFFFFFFFFFFFFFFFFFFFFFFFFFFFFFFFFFFFFFFF AND EQ PUSH2 0x2CCD JUMPI PUSH1 0x40 MLOAD PUSH32 0x8C379A000000000000000000000000000000000000000000000000000000000 DUP2 MSTORE PUSH1 0x4 ADD PUSH2 0x2CC4 SWAP1 PUSH2 0x5489 JUMP JUMPDEST PUSH1 0x40 MLOAD DUP1 SWAP2 SUB SWAP1 REVERT JUMPDEST PUSH32 0x9477068D24A10341AC83142460A142B0D6D620518B7CEB0467DD8BB01200DDC0 PUSH1 0x5 PUSH1 0x0 SWAP1 SLOAD SWAP1 PUSH2 0x100 EXP SWAP1 DIV PUSH1 0xFF AND DUP3 PUSH1 0x40 MLOAD PUSH2 0x2D0D SWAP3 SWAP2 SWAP1 PUSH2 0x555B JUMP JUMPDEST PUSH1 0x40 MLOAD DUP1 SWAP2 SUB SWAP1 LOG1 DUP1 PUSH1 0x5 PUSH1 0x0 PUSH2 0x100 EXP DUP2 SLOAD DUP2 PUSH1 0xFF MUL NOT AND SWAP1 DUP4 PUSH1 0xFF AND MUL OR SWAP1 SSTORE POP POP JUMP JUMPDEST PUSH1 0x6 DUP1 PUSH1 0x0 ADD SLOAD SWAP1 DUP1 PUSH1 0x1 ADD SLOAD SWAP1 DUP1 PUSH1 0x2 ADD SLOAD SWAP1 POP DUP4 JUMP JUMPDEST CALLER PUSH20 0xFFFFFFFFFFFFFFFFFFFFFFFFFFFFFFFFFFFFFFFF AND PUSH1 0x2 PUSH1 0x0 SWAP1 SLOAD SWAP1 PUSH2 0x100 EXP SWAP1 DIV PUSH20 0xFFFFFFFFFFFFFFFFFFFFFFFFFFFFFFFFFFFFFFFF AND PUSH20 0xFFFFFFFFFFFFFFFFFFFFFFFFFFFFFFFFFFFFFFFF AND EQ PUSH2 0x2DDB JUMPI PUSH1 0x40 MLOAD PUSH32 0x8C379A000000000000000000000000000000000000000000000000000000000 DUP2 MSTORE PUSH1 0x4 ADD PUSH2 0x2DD2 SWAP1 PUSH2 0x5489 JUMP JUMPDEST PUSH1 0x40 MLOAD DUP1 SWAP2 SUB SWAP1 REVERT JUMPDEST PUSH2 0x2DE6 DUP3 DUP5 DUP4 PUSH2 0x42A6 JUMP JUMPDEST POP POP POP JUMP JUMPDEST PUSH1 0x0 DUP1 PUSH1 0x0 DUP1 PUSH2 0x2DFA DUP6 PUSH2 0x1E85 JUMP JUMPDEST SWAP2 POP SWAP2 POP PUSH1 0x0 DUP1 PUSH2 0x2E0A DUP8 PUSH2 0x1B47 JUMP JUMPDEST SWAP2 POP SWAP2 POP PUSH1 0x0 DUP4 SUB PUSH2 0x2E3E JUMPI PUSH32 0xFFFFFFFFFFFFFFFFFFFFFFFFFFFFFFFFFFFFFFFFFFFFFFFFFFFFFFFFFFFFFFFF SWAP6 POP PUSH2 0x2F8C JUMP JUMPDEST PUSH1 0x0 PUSH1 0x2 PUSH1 0x0 SWAP1 SLOAD SWAP1 PUSH2 0x100 EXP SWAP1 DIV PUSH20 0xFFFFFFFFFFFFFFFFFFFFFFFFFFFFFFFFFFFFFFFF AND PUSH20 0xFFFFFFFFFFFFFFFFFFFFFFFFFFFFFFFFFFFFFFFF AND PUSH4 0x94A76CBB PUSH1 0x1 PUSH1 0x0 SWAP1 SLOAD SWAP1 PUSH2 0x100 EXP SWAP1 DIV PUSH20 0xFFFFFFFFFFFFFFFFFFFFFFFFFFFFFFFFFFFFFFFF AND PUSH1 0x0 DUP1 SLOAD SWAP1 PUSH2 0x100 EXP SWAP1 DIV PUSH20 0xFFFFFFFFFFFFFFFFFFFFFFFFFFFFFFFFFFFFFFFF AND DUP7 PUSH1 0x40 MLOAD DUP5 PUSH4 0xFFFFFFFF AND PUSH1 0xE0 SHL DUP2 MSTORE PUSH1 0x4 ADD PUSH2 0x2EE1 SWAP4 SWAP3 SWAP2 SWAP1 PUSH2 0x588E JUMP JUMPDEST PUSH1 0x20 PUSH1 0x40 MLOAD DUP1 DUP4 SUB DUP2 DUP7 GAS STATICCALL ISZERO DUP1 ISZERO PUSH2 0x2EFE JUMPI RETURNDATASIZE PUSH1 0x0 DUP1 RETURNDATACOPY RETURNDATASIZE PUSH1 0x0 REVERT JUMPDEST POP POP POP POP PUSH1 0x40 MLOAD RETURNDATASIZE PUSH1 0x1F NOT PUSH1 0x1F DUP3 ADD AND DUP3 ADD DUP1 PUSH1 0x40 MSTORE POP DUP2 ADD SWAP1 PUSH2 0x2F22 SWAP2 SWAP1 PUSH2 0x56C0 JUMP JUMPDEST SWAP1 POP PUSH2 0x2F88 DUP5 PUSH2 0x2F7A PUSH1 0x64 PUSH2 0x2F6C PUSH8 0xDE0B6B3A7640000 PUSH2 0x2F5E PUSH1 0x5 PUSH1 0x0 SWAP1 SLOAD SWAP1 PUSH2 0x100 EXP SWAP1 DIV PUSH1 0xFF AND PUSH1 0xFF AND DUP9 PUSH2 0x462E SWAP1 SWAP2 SWAP1 PUSH4 0xFFFFFFFF AND JUMP JUMPDEST PUSH2 0x462E SWAP1 SWAP2 SWAP1 PUSH4 0xFFFFFFFF AND JUMP JUMPDEST PUSH2 0x4644 SWAP1 SWAP2 SWAP1 PUSH4 0xFFFFFFFF AND JUMP JUMPDEST PUSH2 0x4644 SWAP1 SWAP2 SWAP1 PUSH4 0xFFFFFFFF AND JUMP JUMPDEST SWAP7 POP POP JUMPDEST PUSH1 0x0 DUP2 SUB PUSH2 0x2FBC JUMPI PUSH32 0xFFFFFFFFFFFFFFFFFFFFFFFFFFFFFFFFFFFFFFFFFFFFFFFFFFFFFFFFFFFFFFFF SWAP5 POP PUSH2 0x310A JUMP JUMPDEST PUSH1 0x0 PUSH1 0x2 PUSH1 0x0 SWAP1 SLOAD SWAP1 PUSH2 0x100 EXP SWAP1 DIV PUSH20 0xFFFFFFFFFFFFFFFFFFFFFFFFFFFFFFFFFFFFFFFF AND PUSH20 0xFFFFFFFFFFFFFFFFFFFFFFFFFFFFFFFFFFFFFFFF AND PUSH4 0x94A76CBB PUSH1 0x0 DUP1 SLOAD SWAP1 PUSH2 0x100 EXP SWAP1 DIV PUSH20 0xFFFFFFFFFFFFFFFFFFFFFFFFFFFFFFFFFFFFFFFF AND PUSH1 0x1 PUSH1 0x0 SWAP1 SLOAD SWAP1 PUSH2 0x100 EXP SWAP1 DIV PUSH20 0xFFFFFFFFFFFFFFFFFFFFFFFFFFFFFFFFFFFFFFFF AND DUP9 PUSH1 0x40 MLOAD DUP5 PUSH4 0xFFFFFFFF AND PUSH1 0xE0 SHL DUP2 MSTORE PUSH1 0x4 ADD PUSH2 0x305F SWAP4 SWAP3 SWAP2 SWAP1 PUSH2 0x588E JUMP JUMPDEST PUSH1 0x20 PUSH1 0x40 MLOAD DUP1 DUP4 SUB DUP2 DUP7 GAS STATICCALL ISZERO DUP1 ISZERO PUSH2 0x307C JUMPI RETURNDATASIZE PUSH1 0x0 DUP1 RETURNDATACOPY RETURNDATASIZE PUSH1 0x0 REVERT JUMPDEST POP POP POP POP PUSH1 0x40 MLOAD RETURNDATASIZE PUSH1 0x1F NOT PUSH1 0x1F DUP3 ADD AND DUP3 ADD DUP1 PUSH1 0x40 MSTORE POP DUP2 ADD SWAP1 PUSH2 0x30A0 SWAP2 SWAP1 PUSH2 0x56C0 JUMP JUMPDEST SWAP1 POP PUSH2 0x3106 DUP3 PUSH2 0x30F8 PUSH1 0x64 PUSH2 0x30EA PUSH8 0xDE0B6B3A7640000 PUSH2 0x30DC PUSH1 0x5 PUSH1 0x0 SWAP1 SLOAD SWAP1 PUSH2 0x100 EXP SWAP1 DIV PUSH1 0xFF AND PUSH1 0xFF AND DUP9 PUSH2 0x462E SWAP1 SWAP2 SWAP1 PUSH4 0xFFFFFFFF AND JUMP JUMPDEST PUSH2 0x462E SWAP1 SWAP2 SWAP1 PUSH4 0xFFFFFFFF AND JUMP JUMPDEST PUSH2 0x4644 SWAP1 SWAP2 SWAP1 PUSH4 0xFFFFFFFF AND JUMP JUMPDEST PUSH2 0x4644 SWAP1 SWAP2 SWAP1 PUSH4 0xFFFFFFFF AND JUMP JUMPDEST SWAP6 POP POP JUMPDEST POP POP POP POP SWAP2 POP SWAP2 JUMP JUMPDEST PUSH8 0xDE0B6B3A7640000 DUP2 JUMP JUMPDEST PUSH1 0x0 PUSH1 0x3 PUSH1 0x0 SWAP1 SLOAD SWAP1 PUSH2 0x100 EXP SWAP1 DIV PUSH20 0xFFFFFFFFFFFFFFFFFFFFFFFFFFFFFFFFFFFFFFFF AND PUSH20 0xFFFFFFFFFFFFFFFFFFFFFFFFFFFFFFFFFFFFFFFF AND PUSH4 0x4C8F48BB DUP5 DUP5 PUSH1 0x40 MLOAD DUP4 PUSH4 0xFFFFFFFF AND PUSH1 0xE0 SHL DUP2 MSTORE PUSH1 0x4 ADD PUSH2 0x317E SWAP3 SWAP2 SWAP1 PUSH2 0x50F8 JUMP JUMPDEST PUSH1 0x20 PUSH1 0x40 MLOAD DUP1 DUP4 SUB DUP2 DUP7 GAS STATICCALL ISZERO DUP1 ISZERO PUSH2 0x319B JUMPI RETURNDATASIZE PUSH1 0x0 DUP1 RETURNDATACOPY RETURNDATASIZE PUSH1 0x0 REVERT JUMPDEST POP POP POP POP PUSH1 0x40 MLOAD RETURNDATASIZE PUSH1 0x1F NOT PUSH1 0x1F DUP3 ADD AND DUP3 ADD DUP1 PUSH1 0x40 MSTORE POP DUP2 ADD SWAP1 PUSH2 0x31BF SWAP2 SWAP1 PUSH2 0x56C0 JUMP JUMPDEST SWAP1 POP SWAP3 SWAP2 POP POP JUMP JUMPDEST PUSH1 0x3 PUSH1 0x0 SWAP1 SLOAD SWAP1 PUSH2 0x100 EXP SWAP1 DIV PUSH20 0xFFFFFFFFFFFFFFFFFFFFFFFFFFFFFFFFFFFFFFFF AND DUP2 JUMP JUMPDEST PUSH1 0x0 CALLER PUSH20 0xFFFFFFFFFFFFFFFFFFFFFFFFFFFFFFFFFFFFFFFF AND PUSH1 0x2 PUSH1 0x0 SWAP1 SLOAD SWAP1 PUSH2 0x100 EXP SWAP1 DIV PUSH20 0xFFFFFFFFFFFFFFFFFFFFFFFFFFFFFFFFFFFFFFFF AND PUSH20 0xFFFFFFFFFFFFFFFFFFFFFFFFFFFFFFFFFFFFFFFF AND EQ PUSH2 0x327F JUMPI PUSH1 0x40 MLOAD PUSH32 0x8C379A000000000000000000000000000000000000000000000000000000000 DUP2 MSTORE PUSH1 0x4 ADD PUSH2 0x3276 SWAP1 PUSH2 0x5489 JUMP JUMPDEST PUSH1 0x40 MLOAD DUP1 SWAP2 SUB SWAP1 REVERT JUMPDEST PUSH2 0x3287 PUSH2 0x2AD5 JUMP JUMPDEST PUSH1 0x0 PUSH1 0xC PUSH1 0x0 DUP7 DUP2 MSTORE PUSH1 0x20 ADD SWAP1 DUP2 MSTORE PUSH1 0x20 ADD PUSH1 0x0 KECCAK256 SWAP1 POP PUSH1 0x0 DUP5 SLT ISZERO PUSH2 0x33F7 JUMPI PUSH1 0x0 PUSH1 0x6 SWAP1 POP PUSH1 0x0 DUP2 PUSH1 0x2 ADD SLOAD SWAP1 POP PUSH1 0x0 PUSH2 0x32CB DUP3 DUP5 PUSH1 0x1 ADD SLOAD DUP7 PUSH1 0x2 ADD SLOAD PUSH2 0x435B JUMP JUMPDEST SWAP1 POP DUP1 DUP8 PUSH2 0x32D8 SWAP1 PUSH2 0x54D8 JUMP JUMPDEST GT ISZERO PUSH2 0x331E JUMPI DUP1 PUSH2 0x32E8 SWAP1 PUSH2 0x54D8 JUMP JUMPDEST SWAP7 POP PUSH2 0x32FA DUP9 DUP6 PUSH1 0x2 ADD SLOAD PUSH1 0x0 PUSH2 0x46D5 JUMP JUMPDEST PUSH2 0x3311 DUP2 DUP5 PUSH1 0x2 ADD SLOAD PUSH2 0x4503 SWAP1 SWAP2 SWAP1 PUSH4 0xFFFFFFFF AND JUMP JUMPDEST DUP4 PUSH1 0x2 ADD DUP2 SWAP1 SSTORE POP PUSH2 0x3370 JUMP JUMPDEST PUSH1 0x0 PUSH2 0x3338 DUP4 DUP6 PUSH1 0x1 ADD SLOAD DUP11 PUSH2 0x3333 SWAP1 PUSH2 0x54D8 JUMP JUMPDEST PUSH2 0x46A5 JUMP JUMPDEST SWAP1 POP PUSH2 0x3346 DUP10 DUP3 PUSH1 0x0 PUSH2 0x46D5 JUMP JUMPDEST PUSH2 0x3366 DUP9 PUSH2 0x3353 SWAP1 PUSH2 0x54D8 JUMP JUMPDEST DUP6 PUSH1 0x2 ADD SLOAD PUSH2 0x4503 SWAP1 SWAP2 SWAP1 PUSH4 0xFFFFFFFF AND JUMP JUMPDEST DUP5 PUSH1 0x2 ADD DUP2 SWAP1 SSTORE POP POP JUMPDEST DUP7 SWAP5 POP DUP8 PUSH1 0x0 DUP1 SLOAD SWAP1 PUSH2 0x100 EXP SWAP1 DIV PUSH20 0xFFFFFFFFFFFFFFFFFFFFFFFFFFFFFFFFFFFFFFFF AND PUSH20 0xFFFFFFFFFFFFFFFFFFFFFFFFFFFFFFFFFFFFFFFF AND PUSH32 0xF2E05B26B4020B61A94725F7A9BD18E24B72EEC2C9FA3592040E872F65DD172A DUP10 PUSH2 0x33D6 SWAP1 PUSH2 0x54D8 JUMP JUMPDEST DUP7 PUSH1 0x2 ADD SLOAD DUP11 PUSH1 0x40 MLOAD PUSH2 0x33EB SWAP4 SWAP3 SWAP2 SWAP1 PUSH2 0x58C5 JUMP JUMPDEST PUSH1 0x40 MLOAD DUP1 SWAP2 SUB SWAP1 LOG3 POP POP POP JUMPDEST PUSH1 0x0 DUP5 SGT ISZERO PUSH2 0x3525 JUMPI PUSH1 0x0 PUSH1 0x9 SWAP1 POP PUSH1 0x0 DUP2 PUSH1 0x2 ADD SLOAD SWAP1 POP PUSH1 0x0 PUSH2 0x3424 DUP3 DUP5 PUSH1 0x1 ADD SLOAD DUP7 PUSH1 0x3 ADD SLOAD PUSH2 0x435B JUMP JUMPDEST SWAP1 POP DUP1 DUP8 GT ISZERO PUSH2 0x3465 JUMPI DUP1 SWAP7 POP PUSH2 0x3441 DUP9 PUSH1 0x0 DUP7 PUSH1 0x3 ADD SLOAD PUSH2 0x46D5 JUMP JUMPDEST PUSH2 0x3458 DUP2 DUP5 PUSH1 0x2 ADD SLOAD PUSH2 0x4503 SWAP1 SWAP2 SWAP1 PUSH4 0xFFFFFFFF AND JUMP JUMPDEST DUP4 PUSH1 0x2 ADD DUP2 SWAP1 SSTORE POP PUSH2 0x34A5 JUMP JUMPDEST PUSH1 0x0 PUSH2 0x3476 DUP4 DUP6 PUSH1 0x1 ADD SLOAD DUP11 PUSH2 0x46A5 JUMP JUMPDEST SWAP1 POP PUSH2 0x3484 DUP10 PUSH1 0x0 DUP4 PUSH2 0x46D5 JUMP JUMPDEST PUSH2 0x349B DUP9 DUP6 PUSH1 0x2 ADD SLOAD PUSH2 0x4503 SWAP1 SWAP2 SWAP1 PUSH4 0xFFFFFFFF AND JUMP JUMPDEST DUP5 PUSH1 0x2 ADD DUP2 SWAP1 SSTORE POP POP JUMPDEST DUP7 SWAP5 POP DUP8 PUSH1 0x1 PUSH1 0x0 SWAP1 SLOAD SWAP1 PUSH2 0x100 EXP SWAP1 DIV PUSH20 0xFFFFFFFFFFFFFFFFFFFFFFFFFFFFFFFFFFFFFFFF AND PUSH20 0xFFFFFFFFFFFFFFFFFFFFFFFFFFFFFFFFFFFFFFFF AND PUSH32 0xF2E05B26B4020B61A94725F7A9BD18E24B72EEC2C9FA3592040E872F65DD172A DUP10 DUP7 PUSH1 0x2 ADD SLOAD DUP11 PUSH1 0x40 MLOAD PUSH2 0x3519 SWAP4 SWAP3 SWAP2 SWAP1 PUSH2 0x58C5 JUMP JUMPDEST PUSH1 0x40 MLOAD DUP1 SWAP2 SUB SWAP1 LOG3 POP POP POP JUMPDEST POP SWAP4 SWAP3 POP POP POP JUMP JUMPDEST PUSH1 0x4 SLOAD DUP2 JUMP JUMPDEST PUSH1 0x1 PUSH1 0x0 SWAP1 SLOAD SWAP1 PUSH2 0x100 EXP SWAP1 DIV PUSH20 0xFFFFFFFFFFFFFFFFFFFFFFFFFFFFFFFFFFFFFFFF AND DUP2 JUMP JUMPDEST PUSH1 0x0 DUP1 PUSH1 0x0 PUSH1 0xC PUSH1 0x0 DUP6 DUP2 MSTORE PUSH1 0x20 ADD SWAP1 DUP2 MSTORE PUSH1 0x20 ADD PUSH1 0x0 KECCAK256 PUSH1 0x40 MLOAD DUP1 PUSH1 0x80 ADD PUSH1 0x40 MSTORE SWAP1 DUP2 PUSH1 0x0 DUP3 ADD SLOAD DUP2 MSTORE PUSH1 0x20 ADD PUSH1 0x1 DUP3 ADD SLOAD DUP2 MSTORE PUSH1 0x20 ADD PUSH1 0x2 DUP3 ADD SLOAD DUP2 MSTORE PUSH1 0x20 ADD PUSH1 0x3 DUP3 ADD SLOAD DUP2 MSTORE POP POP SWAP1 POP DUP1 PUSH1 0x20 ADD MLOAD DUP2 PUSH1 0x60 ADD MLOAD SWAP3 POP SWAP3 POP POP SWAP2 POP SWAP2 JUMP JUMPDEST PUSH1 0x2 PUSH1 0x0 SWAP1 SLOAD SWAP1 PUSH2 0x100 EXP SWAP1 DIV PUSH20 0xFFFFFFFFFFFFFFFFFFFFFFFFFFFFFFFFFFFFFFFF AND DUP2 JUMP JUMPDEST CALLER PUSH20 0xFFFFFFFFFFFFFFFFFFFFFFFFFFFFFFFFFFFFFFFF AND PUSH1 0x2 PUSH1 0x0 SWAP1 SLOAD SWAP1 PUSH2 0x100 EXP SWAP1 DIV PUSH20 0xFFFFFFFFFFFFFFFFFFFFFFFFFFFFFFFFFFFFFFFF AND PUSH20 0xFFFFFFFFFFFFFFFFFFFFFFFFFFFFFFFFFFFFFFFF AND EQ PUSH2 0x3670 JUMPI PUSH1 0x40 MLOAD PUSH32 0x8C379A000000000000000000000000000000000000000000000000000000000 DUP2 MSTORE PUSH1 0x4 ADD PUSH2 0x3667 SWAP1 PUSH2 0x5489 JUMP JUMPDEST PUSH1 0x40 MLOAD DUP1 SWAP2 SUB SWAP1 REVERT JUMPDEST PUSH2 0x3678 PUSH2 0x2AD5 JUMP JUMPDEST PUSH1 0x0 DUP3 SLT ISZERO PUSH2 0x37DE JUMPI PUSH1 0x0 PUSH1 0x6 SWAP1 POP PUSH1 0x0 PUSH2 0x36A5 DUP3 PUSH1 0x1 ADD SLOAD DUP4 PUSH1 0x2 ADD SLOAD DUP7 PUSH2 0x36A0 SWAP1 PUSH2 0x54D8 JUMP JUMPDEST PUSH2 0x4519 JUMP JUMPDEST SWAP1 POP PUSH1 0x0 DUP2 GT PUSH2 0x36EA JUMPI PUSH1 0x40 MLOAD PUSH32 0x8C379A000000000000000000000000000000000000000000000000000000000 DUP2 MSTORE PUSH1 0x4 ADD PUSH2 0x36E1 SWAP1 PUSH2 0x596E JUMP JUMPDEST PUSH1 0x40 MLOAD DUP1 SWAP2 SUB SWAP1 REVERT JUMPDEST PUSH2 0x36F6 DUP6 DUP3 PUSH1 0x0 PUSH2 0x4790 JUMP JUMPDEST PUSH2 0x3716 DUP5 PUSH2 0x3703 SWAP1 PUSH2 0x54D8 JUMP JUMPDEST DUP4 PUSH1 0x2 ADD SLOAD PUSH2 0x4345 SWAP1 SWAP2 SWAP1 PUSH4 0xFFFFFFFF AND JUMP JUMPDEST DUP3 PUSH1 0x2 ADD DUP2 SWAP1 SSTORE POP PUSH2 0x3727 DUP6 PUSH2 0x4446 JUMP JUMPDEST PUSH2 0x375B PUSH1 0x0 DUP1 SLOAD SWAP1 PUSH2 0x100 EXP SWAP1 DIV PUSH20 0xFFFFFFFFFFFFFFFFFFFFFFFFFFFFFFFFFFFFFFFF AND DUP5 DUP7 PUSH2 0x3756 SWAP1 PUSH2 0x54D8 JUMP JUMPDEST PUSH2 0x42A6 JUMP JUMPDEST DUP5 PUSH1 0x0 DUP1 SLOAD SWAP1 PUSH2 0x100 EXP SWAP1 DIV PUSH20 0xFFFFFFFFFFFFFFFFFFFFFFFFFFFFFFFFFFFFFFFF AND PUSH20 0xFFFFFFFFFFFFFFFFFFFFFFFFFFFFFFFFFFFFFFFF AND PUSH32 0x66213FB9F1FA2B7F0877F6506F7CE239EDE54B92E550C29D9937D2808AEAA722 DUP7 PUSH2 0x37BE SWAP1 PUSH2 0x54D8 JUMP JUMPDEST DUP6 PUSH1 0x2 ADD SLOAD DUP8 PUSH1 0x40 MLOAD PUSH2 0x37D3 SWAP4 SWAP3 SWAP2 SWAP1 PUSH2 0x59E3 JUMP JUMPDEST PUSH1 0x40 MLOAD DUP1 SWAP2 SUB SWAP1 LOG3 POP POP JUMPDEST PUSH1 0x0 DUP3 SGT ISZERO PUSH2 0x3924 JUMPI PUSH1 0x0 PUSH1 0x9 SWAP1 POP PUSH1 0x0 PUSH2 0x3802 DUP3 PUSH1 0x1 ADD SLOAD DUP4 PUSH1 0x2 ADD SLOAD DUP7 PUSH2 0x4519 JUMP JUMPDEST SWAP1 POP PUSH1 0x0 DUP2 GT PUSH2 0x3847 JUMPI PUSH1 0x40 MLOAD PUSH32 0x8C379A000000000000000000000000000000000000000000000000000000000 DUP2 MSTORE PUSH1 0x4 ADD PUSH2 0x383E SWAP1 PUSH2 0x5A8C JUMP JUMPDEST PUSH1 0x40 MLOAD DUP1 SWAP2 SUB SWAP1 REVERT JUMPDEST PUSH2 0x3853 DUP6 PUSH1 0x0 DUP4 PUSH2 0x4790 JUMP JUMPDEST PUSH2 0x386A DUP5 DUP4 PUSH1 0x2 ADD SLOAD PUSH2 0x4345 SWAP1 SWAP2 SWAP1 PUSH4 0xFFFFFFFF AND JUMP JUMPDEST DUP3 PUSH1 0x2 ADD DUP2 SWAP1 SSTORE POP PUSH2 0x387B DUP6 PUSH2 0x4446 JUMP JUMPDEST PUSH2 0x38A8 PUSH1 0x1 PUSH1 0x0 SWAP1 SLOAD SWAP1 PUSH2 0x100 EXP SWAP1 DIV PUSH20 0xFFFFFFFFFFFFFFFFFFFFFFFFFFFFFFFFFFFFFFFF AND DUP5 DUP7 PUSH2 0x42A6 JUMP JUMPDEST DUP5 PUSH1 0x1 PUSH1 0x0 SWAP1 SLOAD SWAP1 PUSH2 0x100 EXP SWAP1 DIV PUSH20 0xFFFFFFFFFFFFFFFFFFFFFFFFFFFFFFFFFFFFFFFF AND PUSH20 0xFFFFFFFFFFFFFFFFFFFFFFFFFFFFFFFFFFFFFFFF AND PUSH32 0x66213FB9F1FA2B7F0877F6506F7CE239EDE54B92E550C29D9937D2808AEAA722 DUP7 DUP6 PUSH1 0x2 ADD SLOAD DUP8 PUSH1 0x40 MLOAD PUSH2 0x3919 SWAP4 SWAP3 SWAP2 SWAP1 PUSH2 0x59E3 JUMP JUMPDEST PUSH1 0x40 MLOAD DUP1 SWAP2 SUB SWAP1 LOG3 POP POP JUMPDEST POP POP POP JUMP JUMPDEST PUSH1 0x0 DUP1 PUSH1 0x0 DUP1 PUSH1 0x0 DUP1 PUSH1 0x0 DUP1 PUSH1 0x0 DUP1 PUSH1 0x0 PUSH1 0x6 SWAP1 POP PUSH1 0x0 PUSH1 0x9 SWAP1 POP DUP2 PUSH1 0x0 ADD SLOAD DUP3 PUSH1 0x1 ADD SLOAD DUP4 PUSH1 0x2 ADD SLOAD PUSH1 0x0 DUP1 SLOAD SWAP1 PUSH2 0x100 EXP SWAP1 DIV PUSH20 0xFFFFFFFFFFFFFFFFFFFFFFFFFFFFFFFFFFFFFFFF AND PUSH20 0xFFFFFFFFFFFFFFFFFFFFFFFFFFFFFFFFFFFFFFFF AND PUSH4 0x70A08231 ADDRESS PUSH1 0x40 MLOAD DUP3 PUSH4 0xFFFFFFFF AND PUSH1 0xE0 SHL DUP2 MSTORE PUSH1 0x4 ADD PUSH2 0x39AC SWAP2 SWAP1 PUSH2 0x4EA0 JUMP JUMPDEST PUSH1 0x20 PUSH1 0x40 MLOAD DUP1 DUP4 SUB DUP2 DUP7 GAS STATICCALL ISZERO DUP1 ISZERO PUSH2 0x39C9 JUMPI RETURNDATASIZE PUSH1 0x0 DUP1 RETURNDATACOPY RETURNDATASIZE PUSH1 0x0 REVERT JUMPDEST POP POP POP POP PUSH1 0x40 MLOAD RETURNDATASIZE PUSH1 0x1F NOT PUSH1 0x1F DUP3 ADD AND DUP3 ADD DUP1 PUSH1 0x40 MSTORE POP DUP2 ADD SWAP1 PUSH2 0x39ED SWAP2 SWAP1 PUSH2 0x56C0 JUMP JUMPDEST PUSH2 0x39F5 PUSH2 0x1D28 JUMP JUMPDEST DUP6 PUSH1 0x0 ADD SLOAD DUP7 PUSH1 0x1 ADD SLOAD DUP8 PUSH1 0x2 ADD SLOAD PUSH1 0x1 PUSH1 0x0 SWAP1 SLOAD SWAP1 PUSH2 0x100 EXP SWAP1 DIV PUSH20 0xFFFFFFFFFFFFFFFFFFFFFFFFFFFFFFFFFFFFFFFF AND PUSH20 0xFFFFFFFFFFFFFFFFFFFFFFFFFFFFFFFFFFFFFFFF AND PUSH4 0x70A08231 ADDRESS PUSH1 0x40 MLOAD DUP3 PUSH4 0xFFFFFFFF AND PUSH1 0xE0 SHL DUP2 MSTORE PUSH1 0x4 ADD PUSH2 0x3A5F SWAP2 SWAP1 PUSH2 0x4EA0 JUMP JUMPDEST PUSH1 0x20 PUSH1 0x40 MLOAD DUP1 DUP4 SUB DUP2 DUP7 GAS STATICCALL ISZERO DUP1 ISZERO PUSH2 0x3A7C JUMPI RETURNDATASIZE PUSH1 0x0 DUP1 RETURNDATACOPY RETURNDATASIZE PUSH1 0x0 REVERT JUMPDEST POP POP POP POP PUSH1 0x40 MLOAD RETURNDATASIZE PUSH1 0x1F NOT PUSH1 0x1F DUP3 ADD AND DUP3 ADD DUP1 PUSH1 0x40 MSTORE POP DUP2 ADD SWAP1 PUSH2 0x3AA0 SWAP2 SWAP1 PUSH2 0x56C0 JUMP JUMPDEST PUSH2 0x3AA8 PUSH2 0x188A JUMP JUMPDEST SWAP12 POP SWAP12 POP SWAP12 POP SWAP12 POP SWAP12 POP SWAP12 POP SWAP12 POP SWAP12 POP SWAP12 POP SWAP12 POP POP POP SWAP1 SWAP2 SWAP3 SWAP4 SWAP5 SWAP6 SWAP7 SWAP8 SWAP9 SWAP10 JUMP JUMPDEST PUSH1 0x0 DUP1 PUSH2 0x3AD5 PUSH2 0x2AD5 JUMP JUMPDEST PUSH1 0x0 PUSH1 0x6 SWAP1 POP PUSH1 0x0 PUSH1 0x9 SWAP1 POP PUSH1 0x0 DUP7 SLT ISZERO PUSH2 0x3ECC JUMPI PUSH1 0x0 PUSH2 0x3AF5 DUP9 PUSH2 0x1E85 JUMP JUMPDEST SWAP2 POP POP PUSH1 0x0 PUSH2 0x3B03 DUP10 PUSH2 0x1B47 JUMP JUMPDEST POP SWAP1 POP PUSH1 0x0 PUSH32 0xFFFFFFFFFFFFFFFFFFFFFFFFFFFFFFFFFFFFFFFFFFFFFFFFFFFFFFFFFFFFFFFF SWAP1 POP PUSH1 0x0 DUP4 GT ISZERO PUSH2 0x3C95 JUMPI PUSH1 0x0 PUSH1 0x2 PUSH1 0x0 SWAP1 SLOAD SWAP1 PUSH2 0x100 EXP SWAP1 DIV PUSH20 0xFFFFFFFFFFFFFFFFFFFFFFFFFFFFFFFFFFFFFFFF AND PUSH20 0xFFFFFFFFFFFFFFFFFFFFFFFFFFFFFFFFFFFFFFFF AND PUSH4 0x94A76CBB PUSH1 0x1 PUSH1 0x0 SWAP1 SLOAD SWAP1 PUSH2 0x100 EXP SWAP1 DIV PUSH20 0xFFFFFFFFFFFFFFFFFFFFFFFFFFFFFFFFFFFFFFFF AND PUSH1 0x0 DUP1 SLOAD SWAP1 PUSH2 0x100 EXP SWAP1 DIV PUSH20 0xFFFFFFFFFFFFFFFFFFFFFFFFFFFFFFFFFFFFFFFF AND DUP7 PUSH1 0x40 MLOAD DUP5 PUSH4 0xFFFFFFFF AND PUSH1 0xE0 SHL DUP2 MSTORE PUSH1 0x4 ADD PUSH2 0x3BD7 SWAP4 SWAP3 SWAP2 SWAP1 PUSH2 0x588E JUMP JUMPDEST PUSH1 0x20 PUSH1 0x40 MLOAD DUP1 DUP4 SUB DUP2 DUP7 GAS STATICCALL ISZERO DUP1 ISZERO PUSH2 0x3BF4 JUMPI RETURNDATASIZE PUSH1 0x0 DUP1 RETURNDATACOPY RETURNDATASIZE PUSH1 0x0 REVERT JUMPDEST POP POP POP POP PUSH1 0x40 MLOAD RETURNDATASIZE PUSH1 0x1F NOT PUSH1 0x1F DUP3 ADD AND DUP3 ADD DUP1 PUSH1 0x40 MSTORE POP DUP2 ADD SWAP1 PUSH2 0x3C18 SWAP2 SWAP1 PUSH2 0x56C0 JUMP JUMPDEST SWAP1 POP PUSH2 0x3C91 DUP5 PUSH2 0x3C83 PUSH1 0x64 PUSH2 0x3C75 PUSH8 0xDE0B6B3A7640000 PUSH2 0x3C67 PUSH2 0x3C58 PUSH1 0x5 PUSH1 0x1 SWAP1 SLOAD SWAP1 PUSH2 0x100 EXP SWAP1 DIV PUSH1 0xFF AND PUSH1 0xFF AND PUSH1 0x64 PUSH2 0x4503 SWAP1 SWAP2 SWAP1 PUSH4 0xFFFFFFFF AND JUMP JUMPDEST DUP9 PUSH2 0x462E SWAP1 SWAP2 SWAP1 PUSH4 0xFFFFFFFF AND JUMP JUMPDEST PUSH2 0x462E SWAP1 SWAP2 SWAP1 PUSH4 0xFFFFFFFF AND JUMP JUMPDEST PUSH2 0x4644 SWAP1 SWAP2 SWAP1 PUSH4 0xFFFFFFFF AND JUMP JUMPDEST PUSH2 0x4644 SWAP1 SWAP2 SWAP1 PUSH4 0xFFFFFFFF AND JUMP JUMPDEST SWAP2 POP POP JUMPDEST PUSH8 0xDE0B6B3A7640000 PUSH8 0xFFFFFFFFFFFFFFFF AND DUP2 LT ISZERO PUSH2 0x3EC8 JUMPI PUSH1 0x0 DUP1 DUP11 PUSH2 0x3CBC SWAP1 PUSH2 0x54D8 JUMP JUMPDEST DUP6 GT PUSH2 0x3CCD JUMPI DUP5 SWAP2 POP DUP4 SWAP1 POP PUSH2 0x3D01 JUMP JUMPDEST DUP11 PUSH2 0x3CD7 SWAP1 PUSH2 0x54D8 JUMP JUMPDEST SWAP2 POP PUSH2 0x3CFE DUP6 PUSH2 0x3CF0 DUP5 DUP8 PUSH2 0x462E SWAP1 SWAP2 SWAP1 PUSH4 0xFFFFFFFF AND JUMP JUMPDEST PUSH2 0x4644 SWAP1 SWAP2 SWAP1 PUSH4 0xFFFFFFFF AND JUMP JUMPDEST SWAP1 POP JUMPDEST PUSH1 0x0 PUSH2 0x3D16 DUP9 PUSH1 0x2 ADD SLOAD DUP10 PUSH1 0x1 ADD SLOAD DUP6 PUSH2 0x46A5 JUMP JUMPDEST SWAP1 POP PUSH2 0x3D24 DUP14 DUP3 PUSH1 0x0 PUSH2 0x46D5 JUMP JUMPDEST PUSH2 0x3D3B DUP4 DUP10 PUSH1 0x2 ADD SLOAD PUSH2 0x4503 SWAP1 SWAP2 SWAP1 PUSH4 0xFFFFFFFF AND JUMP JUMPDEST DUP9 PUSH1 0x2 ADD DUP2 SWAP1 SSTORE POP PUSH1 0x0 PUSH2 0x3DF7 DUP9 PUSH1 0x2 ADD SLOAD PUSH1 0x1 PUSH1 0x0 SWAP1 SLOAD SWAP1 PUSH2 0x100 EXP SWAP1 DIV PUSH20 0xFFFFFFFFFFFFFFFFFFFFFFFFFFFFFFFFFFFFFFFF AND PUSH20 0xFFFFFFFFFFFFFFFFFFFFFFFFFFFFFFFFFFFFFFFF AND PUSH4 0x70A08231 ADDRESS PUSH1 0x40 MLOAD DUP3 PUSH4 0xFFFFFFFF AND PUSH1 0xE0 SHL DUP2 MSTORE PUSH1 0x4 ADD PUSH2 0x3DA8 SWAP2 SWAP1 PUSH2 0x4EA0 JUMP JUMPDEST PUSH1 0x20 PUSH1 0x40 MLOAD DUP1 DUP4 SUB DUP2 DUP7 GAS STATICCALL ISZERO DUP1 ISZERO PUSH2 0x3DC5 JUMPI RETURNDATASIZE PUSH1 0x0 DUP1 RETURNDATACOPY RETURNDATASIZE PUSH1 0x0 REVERT JUMPDEST POP POP POP POP PUSH1 0x40 MLOAD RETURNDATASIZE PUSH1 0x1F NOT PUSH1 0x1F DUP3 ADD AND DUP3 ADD DUP1 PUSH1 0x40 MSTORE POP DUP2 ADD SWAP1 PUSH2 0x3DE9 SWAP2 SWAP1 PUSH2 0x56C0 JUMP JUMPDEST PUSH2 0x4345 SWAP1 SWAP2 SWAP1 PUSH4 0xFFFFFFFF AND JUMP JUMPDEST SWAP1 POP PUSH1 0x0 PUSH2 0x3E0A DUP3 DUP11 PUSH1 0x0 ADD SLOAD DUP7 PUSH2 0x46A5 JUMP JUMPDEST SWAP1 POP PUSH2 0x3E18 DUP16 PUSH1 0x0 DUP4 PUSH2 0x438B JUMP JUMPDEST PUSH1 0x0 DUP14 GT ISZERO PUSH2 0x3E2E JUMPI PUSH2 0x3E2D DUP14 PUSH1 0x0 DUP4 PUSH2 0x4573 JUMP JUMPDEST JUMPDEST DUP5 PUSH2 0x3E38 SWAP1 PUSH2 0x54D8 JUMP JUMPDEST SWAP12 POP DUP4 SWAP11 POP PUSH1 0x0 DUP13 SLT ISZERO PUSH2 0x3EC2 JUMPI DUP13 DUP16 PUSH1 0x0 DUP1 SLOAD SWAP1 PUSH2 0x100 EXP SWAP1 DIV PUSH20 0xFFFFFFFFFFFFFFFFFFFFFFFFFFFFFFFFFFFFFFFF AND PUSH20 0xFFFFFFFFFFFFFFFFFFFFFFFFFFFFFFFFFFFFFFFF AND PUSH32 0xFE5A820A2EB99B358B68F7E7B16F266165D1D9C299DCF0DF8F71AEE2637F749F DUP16 PUSH2 0x3EAA SWAP1 PUSH2 0x54D8 JUMP JUMPDEST DUP9 PUSH1 0x40 MLOAD PUSH2 0x3EB9 SWAP3 SWAP2 SWAP1 PUSH2 0x50F8 JUMP JUMPDEST PUSH1 0x40 MLOAD DUP1 SWAP2 SUB SWAP1 LOG4 JUMPDEST POP POP POP POP POP JUMPDEST POP POP POP JUMPDEST PUSH1 0x0 DUP7 SGT ISZERO PUSH2 0x429C JUMPI PUSH1 0x0 PUSH2 0x3EE0 DUP9 PUSH2 0x1E85 JUMP JUMPDEST POP SWAP1 POP PUSH1 0x0 PUSH2 0x3EEE DUP10 PUSH2 0x1B47 JUMP JUMPDEST SWAP2 POP POP PUSH1 0x0 PUSH32 0xFFFFFFFFFFFFFFFFFFFFFFFFFFFFFFFFFFFFFFFFFFFFFFFFFFFFFFFFFFFFFFFF SWAP1 POP PUSH1 0x0 DUP3 GT ISZERO PUSH2 0x4080 JUMPI PUSH1 0x0 PUSH1 0x2 PUSH1 0x0 SWAP1 SLOAD SWAP1 PUSH2 0x100 EXP SWAP1 DIV PUSH20 0xFFFFFFFFFFFFFFFFFFFFFFFFFFFFFFFFFFFFFFFF AND PUSH20 0xFFFFFFFFFFFFFFFFFFFFFFFFFFFFFFFFFFFFFFFF AND PUSH4 0x94A76CBB PUSH1 0x0 DUP1 SLOAD SWAP1 PUSH2 0x100 EXP SWAP1 DIV PUSH20 0xFFFFFFFFFFFFFFFFFFFFFFFFFFFFFFFFFFFFFFFF AND PUSH1 0x1 PUSH1 0x0 SWAP1 SLOAD SWAP1 PUSH2 0x100 EXP SWAP1 DIV PUSH20 0xFFFFFFFFFFFFFFFFFFFFFFFFFFFFFFFFFFFFFFFF AND DUP8 PUSH1 0x40 MLOAD DUP5 PUSH4 0xFFFFFFFF AND PUSH1 0xE0 SHL DUP2 MSTORE PUSH1 0x4 ADD PUSH2 0x3FC2 SWAP4 SWAP3 SWAP2 SWAP1 PUSH2 0x588E JUMP JUMPDEST PUSH1 0x20 PUSH1 0x40 MLOAD DUP1 DUP4 SUB DUP2 DUP7 GAS STATICCALL ISZERO DUP1 ISZERO PUSH2 0x3FDF JUMPI RETURNDATASIZE PUSH1 0x0 DUP1 RETURNDATACOPY RETURNDATASIZE PUSH1 0x0 REVERT JUMPDEST POP POP POP POP PUSH1 0x40 MLOAD RETURNDATASIZE PUSH1 0x1F NOT PUSH1 0x1F DUP3 ADD AND DUP3 ADD DUP1 PUSH1 0x40 MSTORE POP DUP2 ADD SWAP1 PUSH2 0x4003 SWAP2 SWAP1 PUSH2 0x56C0 JUMP JUMPDEST SWAP1 POP PUSH2 0x407C DUP4 PUSH2 0x406E PUSH1 0x64 PUSH2 0x4060 PUSH8 0xDE0B6B3A7640000 PUSH2 0x4052 PUSH2 0x4043 PUSH1 0x5 PUSH1 0x1 SWAP1 SLOAD SWAP1 PUSH2 0x100 EXP SWAP1 DIV PUSH1 0xFF AND PUSH1 0xFF AND PUSH1 0x64 PUSH2 0x4503 SWAP1 SWAP2 SWAP1 PUSH4 0xFFFFFFFF AND JUMP JUMPDEST DUP9 PUSH2 0x462E SWAP1 SWAP2 SWAP1 PUSH4 0xFFFFFFFF AND JUMP JUMPDEST PUSH2 0x462E SWAP1 SWAP2 SWAP1 PUSH4 0xFFFFFFFF AND JUMP JUMPDEST PUSH2 0x4644 SWAP1 SWAP2 SWAP1 PUSH4 0xFFFFFFFF AND JUMP JUMPDEST PUSH2 0x4644 SWAP1 SWAP2 SWAP1 PUSH4 0xFFFFFFFF AND JUMP JUMPDEST SWAP2 POP POP JUMPDEST PUSH8 0xDE0B6B3A7640000 PUSH8 0xFFFFFFFFFFFFFFFF AND DUP2 LT ISZERO PUSH2 0x4298 JUMPI PUSH1 0x0 DUP1 DUP11 DUP5 GT PUSH2 0x40AF JUMPI DUP4 SWAP2 POP DUP5 SWAP1 POP PUSH2 0x40DA JUMP JUMPDEST DUP11 SWAP2 POP PUSH2 0x40D7 DUP5 PUSH2 0x40C9 DUP5 DUP9 PUSH2 0x462E SWAP1 SWAP2 SWAP1 PUSH4 0xFFFFFFFF AND JUMP JUMPDEST PUSH2 0x4644 SWAP1 SWAP2 SWAP1 PUSH4 0xFFFFFFFF AND JUMP JUMPDEST SWAP1 POP JUMPDEST PUSH1 0x0 PUSH2 0x40EF DUP8 PUSH1 0x2 ADD SLOAD DUP9 PUSH1 0x1 ADD SLOAD DUP6 PUSH2 0x46A5 JUMP JUMPDEST SWAP1 POP PUSH2 0x40FD DUP14 PUSH1 0x0 DUP4 PUSH2 0x46D5 JUMP JUMPDEST PUSH2 0x4114 DUP4 DUP9 PUSH1 0x2 ADD SLOAD PUSH2 0x4503 SWAP1 SWAP2 SWAP1 PUSH4 0xFFFFFFFF AND JUMP JUMPDEST DUP8 PUSH1 0x2 ADD DUP2 SWAP1 SSTORE POP PUSH1 0x0 PUSH2 0x41CE DUP10 PUSH1 0x2 ADD SLOAD PUSH1 0x0 DUP1 SLOAD SWAP1 PUSH2 0x100 EXP SWAP1 DIV PUSH20 0xFFFFFFFFFFFFFFFFFFFFFFFFFFFFFFFFFFFFFFFF AND PUSH20 0xFFFFFFFFFFFFFFFFFFFFFFFFFFFFFFFFFFFFFFFF AND PUSH4 0x70A08231 ADDRESS PUSH1 0x40 MLOAD DUP3 PUSH4 0xFFFFFFFF AND PUSH1 0xE0 SHL DUP2 MSTORE PUSH1 0x4 ADD PUSH2 0x417F SWAP2 SWAP1 PUSH2 0x4EA0 JUMP JUMPDEST PUSH1 0x20 PUSH1 0x40 MLOAD DUP1 DUP4 SUB DUP2 DUP7 GAS STATICCALL ISZERO DUP1 ISZERO PUSH2 0x419C JUMPI RETURNDATASIZE PUSH1 0x0 DUP1 RETURNDATACOPY RETURNDATASIZE PUSH1 0x0 REVERT JUMPDEST POP POP POP POP PUSH1 0x40 MLOAD RETURNDATASIZE PUSH1 0x1F NOT PUSH1 0x1F DUP3 ADD AND DUP3 ADD DUP1 PUSH1 0x40 MSTORE POP DUP2 ADD SWAP1 PUSH2 0x41C0 SWAP2 SWAP1 PUSH2 0x56C0 JUMP JUMPDEST PUSH2 0x4345 SWAP1 SWAP2 SWAP1 PUSH4 0xFFFFFFFF AND JUMP JUMPDEST SWAP1 POP PUSH1 0x0 PUSH2 0x41E1 DUP3 DUP12 PUSH1 0x0 ADD SLOAD DUP7 PUSH2 0x46A5 JUMP JUMPDEST SWAP1 POP PUSH2 0x41EF DUP16 DUP3 PUSH1 0x0 PUSH2 0x438B JUMP JUMPDEST PUSH1 0x0 DUP14 GT ISZERO PUSH2 0x4205 JUMPI PUSH2 0x4204 DUP14 DUP3 PUSH1 0x0 PUSH2 0x4573 JUMP JUMPDEST JUMPDEST DUP5 SWAP12 POP DUP4 PUSH2 0x4212 SWAP1 PUSH2 0x54D8 JUMP JUMPDEST SWAP11 POP PUSH1 0x0 DUP13 SGT ISZERO PUSH2 0x4292 JUMPI DUP13 DUP16 PUSH1 0x1 PUSH1 0x0 SWAP1 SLOAD SWAP1 PUSH2 0x100 EXP SWAP1 DIV PUSH20 0xFFFFFFFFFFFFFFFFFFFFFFFFFFFFFFFFFFFFFFFF AND PUSH20 0xFFFFFFFFFFFFFFFFFFFFFFFFFFFFFFFFFFFFFFFF AND PUSH32 0xFE5A820A2EB99B358B68F7E7B16F266165D1D9C299DCF0DF8F71AEE2637F749F DUP16 DUP9 PUSH1 0x40 MLOAD PUSH2 0x4289 SWAP3 SWAP2 SWAP1 PUSH2 0x50F8 JUMP JUMPDEST PUSH1 0x40 MLOAD DUP1 SWAP2 SUB SWAP1 LOG4 JUMPDEST POP POP POP POP POP JUMPDEST POP POP POP JUMPDEST POP POP SWAP4 POP SWAP4 SWAP2 POP POP JUMP JUMPDEST PUSH1 0x0 PUSH20 0xFFFFFFFFFFFFFFFFFFFFFFFFFFFFFFFFFFFFFFFF AND DUP3 PUSH20 0xFFFFFFFFFFFFFFFFFFFFFFFFFFFFFFFFFFFFFFFF AND SUB PUSH2 0x4315 JUMPI PUSH1 0x40 MLOAD PUSH32 0x8C379A000000000000000000000000000000000000000000000000000000000 DUP2 MSTORE PUSH1 0x4 ADD PUSH2 0x430C SWAP1 PUSH2 0x5AF8 JUMP JUMPDEST PUSH1 0x40 MLOAD DUP1 SWAP2 SUB SWAP1 REVERT JUMPDEST PUSH2 0x4340 DUP3 DUP3 DUP6 PUSH20 0xFFFFFFFFFFFFFFFFFFFFFFFFFFFFFFFFFFFFFFFF AND PUSH2 0x484B SWAP1 SWAP3 SWAP2 SWAP1 PUSH4 0xFFFFFFFF AND JUMP JUMPDEST POP POP POP JUMP JUMPDEST PUSH1 0x0 DUP2 DUP4 PUSH2 0x4353 SWAP2 SWAP1 PUSH2 0x5B18 JUMP JUMPDEST SWAP1 POP SWAP3 SWAP2 POP POP JUMP JUMPDEST PUSH1 0x0 PUSH2 0x4382 DUP4 PUSH2 0x4374 DUP7 DUP6 PUSH2 0x462E SWAP1 SWAP2 SWAP1 PUSH4 0xFFFFFFFF AND JUMP JUMPDEST PUSH2 0x4644 SWAP1 SWAP2 SWAP1 PUSH4 0xFFFFFFFF AND JUMP JUMPDEST SWAP1 POP SWAP4 SWAP3 POP POP POP JUMP JUMPDEST PUSH1 0x0 PUSH1 0xC PUSH1 0x0 DUP6 DUP2 MSTORE PUSH1 0x20 ADD SWAP1 DUP2 MSTORE PUSH1 0x20 ADD PUSH1 0x0 KECCAK256 SWAP1 POP PUSH1 0x0 DUP4 GT ISZERO PUSH2 0x43F1 JUMPI PUSH1 0x0 PUSH1 0x6 SWAP1 POP PUSH2 0x43C8 DUP5 DUP4 PUSH1 0x0 ADD SLOAD PUSH2 0x4503 SWAP1 SWAP2 SWAP1 PUSH4 0xFFFFFFFF AND JUMP JUMPDEST DUP3 PUSH1 0x0 ADD DUP2 SWAP1 SSTORE POP PUSH2 0x43E7 DUP5 DUP3 PUSH1 0x0 ADD SLOAD PUSH2 0x4503 SWAP1 SWAP2 SWAP1 PUSH4 0xFFFFFFFF AND JUMP JUMPDEST DUP2 PUSH1 0x0 ADD DUP2 SWAP1 SSTORE POP POP JUMPDEST PUSH1 0x0 DUP3 GT ISZERO PUSH2 0x4440 JUMPI PUSH1 0x0 PUSH1 0x9 SWAP1 POP PUSH2 0x4417 DUP4 DUP4 PUSH1 0x1 ADD SLOAD PUSH2 0x4503 SWAP1 SWAP2 SWAP1 PUSH4 0xFFFFFFFF AND JUMP JUMPDEST DUP3 PUSH1 0x1 ADD DUP2 SWAP1 SSTORE POP PUSH2 0x4436 DUP4 DUP3 PUSH1 0x0 ADD SLOAD PUSH2 0x4503 SWAP1 SWAP2 SWAP1 PUSH4 0xFFFFFFFF AND JUMP JUMPDEST DUP2 PUSH1 0x0 ADD DUP2 SWAP1 SSTORE POP POP JUMPDEST POP POP POP POP JUMP JUMPDEST PUSH1 0x0 DUP1 PUSH2 0x4452 DUP4 PUSH2 0x2DEB JUMP JUMPDEST SWAP2 POP SWAP2 POP PUSH8 0xDE0B6B3A7640000 PUSH8 0xFFFFFFFFFFFFFFFF AND DUP3 GT PUSH2 0x44AA JUMPI PUSH1 0x40 MLOAD PUSH32 0x8C379A000000000000000000000000000000000000000000000000000000000 DUP2 MSTORE PUSH1 0x4 ADD PUSH2 0x44A1 SWAP1 PUSH2 0x5B98 JUMP JUMPDEST PUSH1 0x40 MLOAD DUP1 SWAP2 SUB SWAP1 REVERT JUMPDEST PUSH8 0xDE0B6B3A7640000 PUSH8 0xFFFFFFFFFFFFFFFF AND DUP2 GT PUSH2 0x44FE JUMPI PUSH1 0x40 MLOAD PUSH32 0x8C379A000000000000000000000000000000000000000000000000000000000 DUP2 MSTORE PUSH1 0x4 ADD PUSH2 0x44F5 SWAP1 PUSH2 0x5C04 JUMP JUMPDEST PUSH1 0x40 MLOAD DUP1 SWAP2 SUB SWAP1 REVERT JUMPDEST POP POP POP JUMP JUMPDEST PUSH1 0x0 DUP2 DUP4 PUSH2 0x4511 SWAP2 SWAP1 PUSH2 0x57EE JUMP JUMPDEST SWAP1 POP SWAP3 SWAP2 POP POP JUMP JUMPDEST PUSH1 0x0 DUP1 DUP5 SUB PUSH2 0x4544 JUMPI PUSH2 0x453D PUSH2 0x4538 DUP4 DUP5 PUSH2 0x462E SWAP1 SWAP2 SWAP1 PUSH4 0xFFFFFFFF AND JUMP JUMPDEST PUSH2 0x48D1 JUMP JUMPDEST SWAP1 POP PUSH2 0x456C JUMP JUMPDEST PUSH2 0x4569 DUP4 PUSH2 0x455B DUP7 DUP6 PUSH2 0x462E SWAP1 SWAP2 SWAP1 PUSH4 0xFFFFFFFF AND JUMP JUMPDEST PUSH2 0x4644 SWAP1 SWAP2 SWAP1 PUSH4 0xFFFFFFFF AND JUMP JUMPDEST SWAP1 POP JUMPDEST SWAP4 SWAP3 POP POP POP JUMP JUMPDEST PUSH1 0x0 PUSH1 0xC PUSH1 0x0 DUP6 DUP2 MSTORE PUSH1 0x20 ADD SWAP1 DUP2 MSTORE PUSH1 0x20 ADD PUSH1 0x0 KECCAK256 SWAP1 POP PUSH1 0x0 DUP4 GT ISZERO PUSH2 0x45D9 JUMPI PUSH1 0x0 PUSH1 0x6 SWAP1 POP PUSH2 0x45B0 DUP5 DUP4 PUSH1 0x0 ADD SLOAD PUSH2 0x4345 SWAP1 SWAP2 SWAP1 PUSH4 0xFFFFFFFF AND JUMP JUMPDEST DUP3 PUSH1 0x0 ADD DUP2 SWAP1 SSTORE POP PUSH2 0x45CF DUP5 DUP3 PUSH1 0x0 ADD SLOAD PUSH2 0x4345 SWAP1 SWAP2 SWAP1 PUSH4 0xFFFFFFFF AND JUMP JUMPDEST DUP2 PUSH1 0x0 ADD DUP2 SWAP1 SSTORE POP POP JUMPDEST PUSH1 0x0 DUP3 GT ISZERO PUSH2 0x4628 JUMPI PUSH1 0x0 PUSH1 0x9 SWAP1 POP PUSH2 0x45FF DUP4 DUP4 PUSH1 0x1 ADD SLOAD PUSH2 0x4345 SWAP1 SWAP2 SWAP1 PUSH4 0xFFFFFFFF AND JUMP JUMPDEST DUP3 PUSH1 0x1 ADD DUP2 SWAP1 SSTORE POP PUSH2 0x461E DUP4 DUP3 PUSH1 0x0 ADD SLOAD PUSH2 0x4345 SWAP1 SWAP2 SWAP1 PUSH4 0xFFFFFFFF AND JUMP JUMPDEST DUP2 PUSH1 0x0 ADD DUP2 SWAP1 SSTORE POP POP JUMPDEST POP POP POP POP JUMP JUMPDEST PUSH1 0x0 DUP2 DUP4 PUSH2 0x463C SWAP2 SWAP1 PUSH2 0x5C24 JUMP JUMPDEST SWAP1 POP SWAP3 SWAP2 POP POP JUMP JUMPDEST PUSH1 0x0 DUP2 DUP4 PUSH2 0x4652 SWAP2 SWAP1 PUSH2 0x5C95 JUMP JUMPDEST SWAP1 POP SWAP3 SWAP2 POP POP JUMP JUMPDEST PUSH1 0x0 PUSH2 0x469C PUSH9 0x56BC75E2D63100000 PUSH2 0x468E PUSH2 0x467F DUP6 DUP8 PUSH2 0x462E SWAP1 SWAP2 SWAP1 PUSH4 0xFFFFFFFF AND JUMP JUMPDEST DUP8 PUSH2 0x462E SWAP1 SWAP2 SWAP1 PUSH4 0xFFFFFFFF AND JUMP JUMPDEST PUSH2 0x4644 SWAP1 SWAP2 SWAP1 PUSH4 0xFFFFFFFF AND JUMP JUMPDEST SWAP1 POP SWAP4 SWAP3 POP POP POP JUMP JUMPDEST PUSH1 0x0 PUSH2 0x46CC DUP5 PUSH2 0x46BE DUP6 DUP6 PUSH2 0x462E SWAP1 SWAP2 SWAP1 PUSH4 0xFFFFFFFF AND JUMP JUMPDEST PUSH2 0x4644 SWAP1 SWAP2 SWAP1 PUSH4 0xFFFFFFFF AND JUMP JUMPDEST SWAP1 POP SWAP4 SWAP3 POP POP POP JUMP JUMPDEST PUSH1 0x0 PUSH1 0xC PUSH1 0x0 DUP6 DUP2 MSTORE PUSH1 0x20 ADD SWAP1 DUP2 MSTORE PUSH1 0x20 ADD PUSH1 0x0 KECCAK256 SWAP1 POP PUSH1 0x0 DUP4 GT ISZERO PUSH2 0x473B JUMPI PUSH1 0x0 PUSH1 0x6 SWAP1 POP PUSH2 0x4712 DUP5 DUP4 PUSH1 0x2 ADD SLOAD PUSH2 0x4503 SWAP1 SWAP2 SWAP1 PUSH4 0xFFFFFFFF AND JUMP JUMPDEST DUP3 PUSH1 0x2 ADD DUP2 SWAP1 SSTORE POP PUSH2 0x4731 DUP5 DUP3 PUSH1 0x1 ADD SLOAD PUSH2 0x4503 SWAP1 SWAP2 SWAP1 PUSH4 0xFFFFFFFF AND JUMP JUMPDEST DUP2 PUSH1 0x1 ADD DUP2 SWAP1 SSTORE POP POP JUMPDEST PUSH1 0x0 DUP3 GT ISZERO PUSH2 0x478A JUMPI PUSH1 0x0 PUSH1 0x9 SWAP1 POP PUSH2 0x4761 DUP4 DUP4 PUSH1 0x3 ADD SLOAD PUSH2 0x4503 SWAP1 SWAP2 SWAP1 PUSH4 0xFFFFFFFF AND JUMP JUMPDEST DUP3 PUSH1 0x3 ADD DUP2 SWAP1 SSTORE POP PUSH2 0x4780 DUP4 DUP3 PUSH1 0x1 ADD SLOAD PUSH2 0x4503 SWAP1 SWAP2 SWAP1 PUSH4 0xFFFFFFFF AND JUMP JUMPDEST DUP2 PUSH1 0x1 ADD DUP2 SWAP1 SSTORE POP POP JUMPDEST POP POP POP POP JUMP JUMPDEST PUSH1 0x0 PUSH1 0xC PUSH1 0x0 DUP6 DUP2 MSTORE PUSH1 0x20 ADD SWAP1 DUP2 MSTORE PUSH1 0x20 ADD PUSH1 0x0 KECCAK256 SWAP1 POP PUSH1 0x0 DUP4 GT ISZERO PUSH2 0x47F6 JUMPI PUSH1 0x0 PUSH1 0x6 SWAP1 POP PUSH2 0x47CD DUP5 DUP4 PUSH1 0x2 ADD SLOAD PUSH2 0x4345 SWAP1 SWAP2 SWAP1 PUSH4 0xFFFFFFFF AND JUMP JUMPDEST DUP3 PUSH1 0x2 ADD DUP2 SWAP1 SSTORE POP PUSH2 0x47EC DUP5 DUP3 PUSH1 0x1 ADD SLOAD PUSH2 0x4345 SWAP1 SWAP2 SWAP1 PUSH4 0xFFFFFFFF AND JUMP JUMPDEST DUP2 PUSH1 0x1 ADD DUP2 SWAP1 SSTORE POP POP JUMPDEST PUSH1 0x0 DUP3 GT ISZERO PUSH2 0x4845 JUMPI PUSH1 0x0 PUSH1 0x9 SWAP1 POP PUSH2 0x481C DUP4 DUP4 PUSH1 0x3 ADD SLOAD PUSH2 0x4345 SWAP1 SWAP2 SWAP1 PUSH4 0xFFFFFFFF AND JUMP JUMPDEST DUP3 PUSH1 0x3 ADD DUP2 SWAP1 SSTORE POP PUSH2 0x483B DUP4 DUP3 PUSH1 0x1 ADD SLOAD PUSH2 0x4345 SWAP1 SWAP2 SWAP1 PUSH4 0xFFFFFFFF AND JUMP JUMPDEST DUP2 PUSH1 0x1 ADD DUP2 SWAP1 SSTORE POP POP JUMPDEST POP POP POP POP JUMP JUMPDEST PUSH2 0x48CC DUP4 PUSH4 0xA9059CBB PUSH1 0xE0 SHL DUP5 DUP5 PUSH1 0x40 MLOAD PUSH1 0x24 ADD PUSH2 0x486A SWAP3 SWAP2 SWAP1 PUSH2 0x5CC6 JUMP JUMPDEST PUSH1 0x40 MLOAD PUSH1 0x20 DUP2 DUP4 SUB SUB DUP2 MSTORE SWAP1 PUSH1 0x40 MSTORE SWAP1 PUSH28 0xFFFFFFFFFFFFFFFFFFFFFFFFFFFFFFFFFFFFFFFFFFFFFFFFFFFFFFFF NOT AND PUSH1 0x20 DUP3 ADD DUP1 MLOAD PUSH28 0xFFFFFFFFFFFFFFFFFFFFFFFFFFFFFFFFFFFFFFFFFFFFFFFFFFFFFFFF DUP4 DUP2 DUP4 AND OR DUP4 MSTORE POP POP POP POP PUSH2 0x494B JUMP JUMPDEST POP POP POP JUMP JUMPDEST PUSH1 0x0 PUSH1 0x3 DUP3 GT ISZERO PUSH2 0x4938 JUMPI DUP2 SWAP1 POP PUSH1 0x0 PUSH1 0x1 PUSH1 0x2 DUP5 PUSH2 0x48F0 SWAP2 SWAP1 PUSH2 0x5C95 JUMP JUMPDEST PUSH2 0x48FA SWAP2 SWAP1 PUSH2 0x5B18 JUMP JUMPDEST SWAP1 POP JUMPDEST DUP2 DUP2 LT ISZERO PUSH2 0x4932 JUMPI DUP1 SWAP2 POP PUSH1 0x2 DUP2 DUP3 DUP6 PUSH2 0x4917 SWAP2 SWAP1 PUSH2 0x5C95 JUMP JUMPDEST PUSH2 0x4921 SWAP2 SWAP1 PUSH2 0x5B18 JUMP JUMPDEST PUSH2 0x492B SWAP2 SWAP1 PUSH2 0x5C95 JUMP JUMPDEST SWAP1 POP PUSH2 0x48FD JUMP JUMPDEST POP PUSH2 0x4946 JUMP JUMPDEST PUSH1 0x0 DUP3 EQ PUSH2 0x4945 JUMPI PUSH1 0x1 SWAP1 POP JUMPDEST JUMPDEST SWAP2 SWAP1 POP JUMP JUMPDEST PUSH1 0x0 PUSH2 0x49AD DUP3 PUSH1 0x40 MLOAD DUP1 PUSH1 0x40 ADD PUSH1 0x40 MSTORE DUP1 PUSH1 0x20 DUP2 MSTORE PUSH1 0x20 ADD PUSH32 0x5361666545524332303A206C6F772D6C6576656C2063616C6C206661696C6564 DUP2 MSTORE POP DUP6 PUSH20 0xFFFFFFFFFFFFFFFFFFFFFFFFFFFFFFFFFFFFFFFF AND PUSH2 0x4A12 SWAP1 SWAP3 SWAP2 SWAP1 PUSH4 0xFFFFFFFF AND JUMP JUMPDEST SWAP1 POP PUSH1 0x0 DUP2 MLOAD GT ISZERO PUSH2 0x4A0D JUMPI DUP1 DUP1 PUSH1 0x20 ADD SWAP1 MLOAD DUP2 ADD SWAP1 PUSH2 0x49CD SWAP2 SWAP1 PUSH2 0x5D27 JUMP JUMPDEST PUSH2 0x4A0C JUMPI PUSH1 0x40 MLOAD PUSH32 0x8C379A000000000000000000000000000000000000000000000000000000000 DUP2 MSTORE PUSH1 0x4 ADD PUSH2 0x4A03 SWAP1 PUSH2 0x5DC6 JUMP JUMPDEST PUSH1 0x40 MLOAD DUP1 SWAP2 SUB SWAP1 REVERT JUMPDEST JUMPDEST POP POP POP JUMP JUMPDEST PUSH1 0x60 PUSH2 0x4A21 DUP5 DUP5 PUSH1 0x0 DUP6 PUSH2 0x4A2A JUMP JUMPDEST SWAP1 POP SWAP4 SWAP3 POP POP POP JUMP JUMPDEST PUSH1 0x60 DUP3 SELFBALANCE LT ISZERO PUSH2 0x4A6F JUMPI PUSH1 0x40 MLOAD PUSH32 0x8C379A000000000000000000000000000000000000000000000000000000000 DUP2 MSTORE PUSH1 0x4 ADD PUSH2 0x4A66 SWAP1 PUSH2 0x5E58 JUMP JUMPDEST PUSH1 0x40 MLOAD DUP1 SWAP2 SUB SWAP1 REVERT JUMPDEST PUSH2 0x4A78 DUP6 PUSH2 0x4B3E JUMP JUMPDEST PUSH2 0x4AB7 JUMPI PUSH1 0x40 MLOAD PUSH32 0x8C379A000000000000000000000000000000000000000000000000000000000 DUP2 MSTORE PUSH1 0x4 ADD PUSH2 0x4AAE SWAP1 PUSH2 0x5EC4 JUMP JUMPDEST PUSH1 0x40 MLOAD DUP1 SWAP2 SUB SWAP1 REVERT JUMPDEST PUSH1 0x0 DUP1 DUP7 PUSH20 0xFFFFFFFFFFFFFFFFFFFFFFFFFFFFFFFFFFFFFFFF AND DUP6 DUP8 PUSH1 0x40 MLOAD PUSH2 0x4AE0 SWAP2 SWAP1 PUSH2 0x5F55 JUMP JUMPDEST PUSH1 0x0 PUSH1 0x40 MLOAD DUP1 DUP4 SUB DUP2 DUP6 DUP8 GAS CALL SWAP3 POP POP POP RETURNDATASIZE DUP1 PUSH1 0x0 DUP2 EQ PUSH2 0x4B1D JUMPI PUSH1 0x40 MLOAD SWAP2 POP PUSH1 0x1F NOT PUSH1 0x3F RETURNDATASIZE ADD AND DUP3 ADD PUSH1 0x40 MSTORE RETURNDATASIZE DUP3 MSTORE RETURNDATASIZE PUSH1 0x0 PUSH1 0x20 DUP5 ADD RETURNDATACOPY PUSH2 0x4B22 JUMP JUMPDEST PUSH1 0x60 SWAP2 POP JUMPDEST POP SWAP2 POP SWAP2 POP PUSH2 0x4B32 DUP3 DUP3 DUP7 PUSH2 0x4B51 JUMP JUMPDEST SWAP3 POP POP POP SWAP5 SWAP4 POP POP POP POP JUMP JUMPDEST PUSH1 0x0 DUP1 DUP3 EXTCODESIZE SWAP1 POP PUSH1 0x0 DUP2 GT SWAP2 POP POP SWAP2 SWAP1 POP JUMP JUMPDEST PUSH1 0x60 DUP4 ISZERO PUSH2 0x4B61 JUMPI DUP3 SWAP1 POP PUSH2 0x4BB1 JUMP JUMPDEST PUSH1 0x0 DUP4 MLOAD GT ISZERO PUSH2 0x4B74 JUMPI DUP3 MLOAD DUP1 DUP5 PUSH1 0x20 ADD REVERT JUMPDEST DUP2 PUSH1 0x40 MLOAD PUSH32 0x8C379A000000000000000000000000000000000000000000000000000000000 DUP2 MSTORE PUSH1 0x4 ADD PUSH2 0x4BA8 SWAP2 SWAP1 PUSH2 0x5FC1 JUMP JUMPDEST PUSH1 0x40 MLOAD DUP1 SWAP2 SUB SWAP1 REVERT JUMPDEST SWAP4 SWAP3 POP POP POP JUMP JUMPDEST PUSH1 0x0 DUP1 REVERT JUMPDEST PUSH1 0x0 DUP1 REVERT JUMPDEST PUSH1 0x0 PUSH20 0xFFFFFFFFFFFFFFFFFFFFFFFFFFFFFFFFFFFFFFFF DUP3 AND SWAP1 POP SWAP2 SWAP1 POP JUMP JUMPDEST PUSH1 0x0 PUSH2 0x4BED DUP3 PUSH2 0x4BC2 JUMP JUMPDEST SWAP1 POP SWAP2 SWAP1 POP JUMP JUMPDEST PUSH2 0x4BFD DUP2 PUSH2 0x4BE2 JUMP JUMPDEST DUP2 EQ PUSH2 0x4C08 JUMPI PUSH1 0x0 DUP1 REVERT JUMPDEST POP JUMP JUMPDEST PUSH1 0x0 DUP2 CALLDATALOAD SWAP1 POP PUSH2 0x4C1A DUP2 PUSH2 0x4BF4 JUMP JUMPDEST SWAP3 SWAP2 POP POP JUMP JUMPDEST PUSH1 0x0 PUSH1 0xFF DUP3 AND SWAP1 POP SWAP2 SWAP1 POP JUMP JUMPDEST PUSH2 0x4C36 DUP2 PUSH2 0x4C20 JUMP JUMPDEST DUP2 EQ PUSH2 0x4C41 JUMPI PUSH1 0x0 DUP1 REVERT JUMPDEST POP JUMP JUMPDEST PUSH1 0x0 DUP2 CALLDATALOAD SWAP1 POP PUSH2 0x4C53 DUP2 PUSH2 0x4C2D JUMP JUMPDEST SWAP3 SWAP2 POP POP JUMP JUMPDEST PUSH1 0x0 DUP1 PUSH1 0x0 DUP1 PUSH1 0x0 DUP1 PUSH1 0xC0 DUP8 DUP10 SUB SLT ISZERO PUSH2 0x4C76 JUMPI PUSH2 0x4C75 PUSH2 0x4BB8 JUMP JUMPDEST JUMPDEST PUSH1 0x0 PUSH2 0x4C84 DUP10 DUP3 DUP11 ADD PUSH2 0x4C0B JUMP JUMPDEST SWAP7 POP POP PUSH1 0x20 PUSH2 0x4C95 DUP10 DUP3 DUP11 ADD PUSH2 0x4C0B JUMP JUMPDEST SWAP6 POP POP PUSH1 0x40 PUSH2 0x4CA6 DUP10 DUP3 DUP11 ADD PUSH2 0x4C0B JUMP JUMPDEST SWAP5 POP POP PUSH1 0x60 PUSH2 0x4CB7 DUP10 DUP3 DUP11 ADD PUSH2 0x4C44 JUMP JUMPDEST SWAP4 POP POP PUSH1 0x80 PUSH2 0x4CC8 DUP10 DUP3 DUP11 ADD PUSH2 0x4C44 JUMP JUMPDEST SWAP3 POP POP PUSH1 0xA0 PUSH2 0x4CD9 DUP10 DUP3 DUP11 ADD PUSH2 0x4C44 JUMP JUMPDEST SWAP2 POP POP SWAP3 SWAP6 POP SWAP3 SWAP6 POP SWAP3 SWAP6 JUMP JUMPDEST PUSH1 0x0 DUP2 SWAP1 POP SWAP2 SWAP1 POP JUMP JUMPDEST PUSH2 0x4CF9 DUP2 PUSH2 0x4CE6 JUMP JUMPDEST DUP2 EQ PUSH2 0x4D04 JUMPI PUSH1 0x0 DUP1 REVERT JUMPDEST POP JUMP JUMPDEST PUSH1 0x0 DUP2 CALLDATALOAD SWAP1 POP PUSH2 0x4D16 DUP2 PUSH2 0x4CF0 JUMP JUMPDEST SWAP3 SWAP2 POP POP JUMP JUMPDEST PUSH1 0x0 DUP2 SWAP1 POP SWAP2 SWAP1 POP JUMP JUMPDEST PUSH2 0x4D2F DUP2 PUSH2 0x4D1C JUMP JUMPDEST DUP2 EQ PUSH2 0x4D3A JUMPI PUSH1 0x0 DUP1 REVERT JUMPDEST POP JUMP JUMPDEST PUSH1 0x0 DUP2 CALLDATALOAD SWAP1 POP PUSH2 0x4D4C DUP2 PUSH2 0x4D26 JUMP JUMPDEST SWAP3 SWAP2 POP POP JUMP JUMPDEST PUSH1 0x0 DUP1 PUSH1 0x0 DUP1 PUSH1 0x80 DUP6 DUP8 SUB SLT ISZERO PUSH2 0x4D6C JUMPI PUSH2 0x4D6B PUSH2 0x4BB8 JUMP JUMPDEST JUMPDEST PUSH1 0x0 PUSH2 0x4D7A DUP8 DUP3 DUP9 ADD PUSH2 0x4D07 JUMP JUMPDEST SWAP5 POP POP PUSH1 0x20 PUSH2 0x4D8B DUP8 DUP3 DUP9 ADD PUSH2 0x4D3D JUMP JUMPDEST SWAP4 POP POP PUSH1 0x40 PUSH2 0x4D9C DUP8 DUP3 DUP9 ADD PUSH2 0x4C0B JUMP JUMPDEST SWAP3 POP POP PUSH1 0x60 PUSH2 0x4DAD DUP8 DUP3 DUP9 ADD PUSH2 0x4D07 JUMP JUMPDEST SWAP2 POP POP SWAP3 SWAP6 SWAP2 SWAP5 POP SWAP3 POP JUMP JUMPDEST PUSH2 0x4DC2 DUP2 PUSH2 0x4D1C JUMP JUMPDEST DUP3 MSTORE POP POP JUMP JUMPDEST PUSH1 0x0 PUSH1 0x20 DUP3 ADD SWAP1 POP PUSH2 0x4DDD PUSH1 0x0 DUP4 ADD DUP5 PUSH2 0x4DB9 JUMP JUMPDEST SWAP3 SWAP2 POP POP JUMP JUMPDEST PUSH1 0x0 PUSH1 0x20 DUP3 DUP5 SUB SLT ISZERO PUSH2 0x4DF9 JUMPI PUSH2 0x4DF8 PUSH2 0x4BB8 JUMP JUMPDEST JUMPDEST PUSH1 0x0 PUSH2 0x4E07 DUP5 DUP3 DUP6 ADD PUSH2 0x4D07 JUMP JUMPDEST SWAP2 POP POP SWAP3 SWAP2 POP POP JUMP JUMPDEST PUSH2 0x4E19 DUP2 PUSH2 0x4CE6 JUMP JUMPDEST DUP3 MSTORE POP POP JUMP JUMPDEST PUSH1 0x0 PUSH1 0x80 DUP3 ADD SWAP1 POP PUSH2 0x4E34 PUSH1 0x0 DUP4 ADD DUP8 PUSH2 0x4E10 JUMP JUMPDEST PUSH2 0x4E41 PUSH1 0x20 DUP4 ADD DUP7 PUSH2 0x4E10 JUMP JUMPDEST PUSH2 0x4E4E PUSH1 0x40 DUP4 ADD DUP6 PUSH2 0x4E10 JUMP JUMPDEST PUSH2 0x4E5B PUSH1 0x60 DUP4 ADD DUP5 PUSH2 0x4E10 JUMP JUMPDEST SWAP6 SWAP5 POP POP POP POP POP JUMP JUMPDEST PUSH1 0x0 PUSH1 0x20 DUP3 DUP5 SUB SLT ISZERO PUSH2 0x4E7A JUMPI PUSH2 0x4E79 PUSH2 0x4BB8 JUMP JUMPDEST JUMPDEST PUSH1 0x0 PUSH2 0x4E88 DUP5 DUP3 DUP6 ADD PUSH2 0x4C44 JUMP JUMPDEST SWAP2 POP POP SWAP3 SWAP2 POP POP JUMP JUMPDEST PUSH2 0x4E9A DUP2 PUSH2 0x4BE2 JUMP JUMPDEST DUP3 MSTORE POP POP JUMP JUMPDEST PUSH1 0x0 PUSH1 0x20 DUP3 ADD SWAP1 POP PUSH2 0x4EB5 PUSH1 0x0 DUP4 ADD DUP5 PUSH2 0x4E91 JUMP JUMPDEST SWAP3 SWAP2 POP POP JUMP JUMPDEST PUSH1 0x0 DUP1 REVERT JUMPDEST PUSH1 0x0 DUP1 REVERT JUMPDEST PUSH1 0x0 DUP1 REVERT JUMPDEST PUSH1 0x0 DUP1 DUP4 PUSH1 0x1F DUP5 ADD SLT PUSH2 0x4EE0 JUMPI PUSH2 0x4EDF PUSH2 0x4EBB JUMP JUMPDEST JUMPDEST DUP3 CALLDATALOAD SWAP1 POP PUSH8 0xFFFFFFFFFFFFFFFF DUP2 GT ISZERO PUSH2 0x4EFD JUMPI PUSH2 0x4EFC PUSH2 0x4EC0 JUMP JUMPDEST JUMPDEST PUSH1 0x20 DUP4 ADD SWAP2 POP DUP4 PUSH1 0x20 DUP3 MUL DUP4 ADD GT ISZERO PUSH2 0x4F19 JUMPI PUSH2 0x4F18 PUSH2 0x4EC5 JUMP JUMPDEST JUMPDEST SWAP3 POP SWAP3 SWAP1 POP JUMP JUMPDEST PUSH1 0x0 DUP1 DUP4 PUSH1 0x1F DUP5 ADD SLT PUSH2 0x4F36 JUMPI PUSH2 0x4F35 PUSH2 0x4EBB JUMP JUMPDEST JUMPDEST DUP3 CALLDATALOAD SWAP1 POP PUSH8 0xFFFFFFFFFFFFFFFF DUP2 GT ISZERO PUSH2 0x4F53 JUMPI PUSH2 0x4F52 PUSH2 0x4EC0 JUMP JUMPDEST JUMPDEST PUSH1 0x20 DUP4 ADD SWAP2 POP DUP4 PUSH1 0x20 DUP3 MUL DUP4 ADD GT ISZERO PUSH2 0x4F6F JUMPI PUSH2 0x4F6E PUSH2 0x4EC5 JUMP JUMPDEST JUMPDEST SWAP3 POP SWAP3 SWAP1 POP JUMP JUMPDEST PUSH1 0x0 DUP1 PUSH1 0x0 DUP1 PUSH1 0x0 DUP1 PUSH1 0x80 DUP8 DUP10 SUB SLT ISZERO PUSH2 0x4F93 JUMPI PUSH2 0x4F92 PUSH2 0x4BB8 JUMP JUMPDEST JUMPDEST PUSH1 0x0 DUP8 ADD CALLDATALOAD PUSH8 0xFFFFFFFFFFFFFFFF DUP2 GT ISZERO PUSH2 0x4FB1 JUMPI PUSH2 0x4FB0 PUSH2 0x4BBD JUMP JUMPDEST JUMPDEST PUSH2 0x4FBD DUP10 DUP3 DUP11 ADD PUSH2 0x4ECA JUMP JUMPDEST SWAP7 POP SWAP7 POP POP PUSH1 0x20 DUP8 ADD CALLDATALOAD PUSH8 0xFFFFFFFFFFFFFFFF DUP2 GT ISZERO PUSH2 0x4FE0 JUMPI PUSH2 0x4FDF PUSH2 0x4BBD JUMP JUMPDEST JUMPDEST PUSH2 0x4FEC DUP10 DUP3 DUP11 ADD PUSH2 0x4F20 JUMP JUMPDEST SWAP5 POP SWAP5 POP POP PUSH1 0x40 PUSH2 0x4FFF DUP10 DUP3 DUP11 ADD PUSH2 0x4C0B JUMP JUMPDEST SWAP3 POP POP PUSH1 0x60 PUSH2 0x5010 DUP10 DUP3 DUP11 ADD PUSH2 0x4D07 JUMP JUMPDEST SWAP2 POP POP SWAP3 SWAP6 POP SWAP3 SWAP6 POP SWAP3 SWAP6 JUMP JUMPDEST PUSH1 0x0 DUP1 PUSH1 0x0 PUSH1 0x60 DUP5 DUP7 SUB SLT ISZERO PUSH2 0x5036 JUMPI PUSH2 0x5035 PUSH2 0x4BB8 JUMP JUMPDEST JUMPDEST PUSH1 0x0 PUSH2 0x5044 DUP7 DUP3 DUP8 ADD PUSH2 0x4D07 JUMP JUMPDEST SWAP4 POP POP PUSH1 0x20 PUSH2 0x5055 DUP7 DUP3 DUP8 ADD PUSH2 0x4D3D JUMP JUMPDEST SWAP3 POP POP PUSH1 0x40 PUSH2 0x5066 DUP7 DUP3 DUP8 ADD PUSH2 0x4C0B JUMP JUMPDEST SWAP2 POP POP SWAP3 POP SWAP3 POP SWAP3 JUMP JUMPDEST PUSH1 0x0 DUP1 PUSH1 0x40 DUP4 DUP6 SUB SLT ISZERO PUSH2 0x5087 JUMPI PUSH2 0x5086 PUSH2 0x4BB8 JUMP JUMPDEST JUMPDEST PUSH1 0x0 PUSH2 0x5095 DUP6 DUP3 DUP7 ADD PUSH2 0x4D07 JUMP JUMPDEST SWAP3 POP POP PUSH1 0x20 PUSH2 0x50A6 DUP6 DUP3 DUP7 ADD PUSH2 0x4D3D JUMP JUMPDEST SWAP2 POP POP SWAP3 POP SWAP3 SWAP1 POP JUMP JUMPDEST PUSH1 0x0 PUSH1 0x20 DUP3 ADD SWAP1 POP PUSH2 0x50C5 PUSH1 0x0 DUP4 ADD DUP5 PUSH2 0x4E10 JUMP JUMPDEST SWAP3 SWAP2 POP POP JUMP JUMPDEST PUSH1 0x0 PUSH1 0x20 DUP3 DUP5 SUB SLT ISZERO PUSH2 0x50E1 JUMPI PUSH2 0x50E0 PUSH2 0x4BB8 JUMP JUMPDEST JUMPDEST PUSH1 0x0 PUSH2 0x50EF DUP5 DUP3 DUP6 ADD PUSH2 0x4C0B JUMP JUMPDEST SWAP2 POP POP SWAP3 SWAP2 POP POP JUMP JUMPDEST PUSH1 0x0 PUSH1 0x40 DUP3 ADD SWAP1 POP PUSH2 0x510D PUSH1 0x0 DUP4 ADD DUP6 PUSH2 0x4E10 JUMP JUMPDEST PUSH2 0x511A PUSH1 0x20 DUP4 ADD DUP5 PUSH2 0x4E10 JUMP JUMPDEST SWAP4 SWAP3 POP POP POP JUMP JUMPDEST PUSH1 0x0 DUP1 PUSH1 0x40 DUP4 DUP6 SUB SLT ISZERO PUSH2 0x5138 JUMPI PUSH2 0x5137 PUSH2 0x4BB8 JUMP JUMPDEST JUMPDEST PUSH1 0x0 PUSH2 0x5146 DUP6 DUP3 DUP7 ADD PUSH2 0x4C0B JUMP JUMPDEST SWAP3 POP POP PUSH1 0x20 PUSH2 0x5157 DUP6 DUP3 DUP7 ADD PUSH2 0x4D3D JUMP JUMPDEST SWAP2 POP POP SWAP3 POP SWAP3 SWAP1 POP JUMP JUMPDEST PUSH1 0x0 PUSH1 0x60 DUP3 ADD SWAP1 POP PUSH2 0x5176 PUSH1 0x0 DUP4 ADD DUP7 PUSH2 0x4E10 JUMP JUMPDEST PUSH2 0x5183 PUSH1 0x20 DUP4 ADD DUP6 PUSH2 0x4E10 JUMP JUMPDEST PUSH2 0x5190 PUSH1 0x40 DUP4 ADD DUP5 PUSH2 0x4E10 JUMP JUMPDEST SWAP5 SWAP4 POP POP POP POP JUMP JUMPDEST PUSH1 0x0 DUP1 PUSH1 0x0 PUSH1 0x60 DUP5 DUP7 SUB SLT ISZERO PUSH2 0x51B1 JUMPI PUSH2 0x51B0 PUSH2 0x4BB8 JUMP JUMPDEST JUMPDEST PUSH1 0x0 PUSH2 0x51BF DUP7 DUP3 DUP8 ADD PUSH2 0x4C0B JUMP JUMPDEST SWAP4 POP POP PUSH1 0x20 PUSH2 0x51D0 DUP7 DUP3 DUP8 ADD PUSH2 0x4C0B JUMP JUMPDEST SWAP3 POP POP PUSH1 0x40 PUSH2 0x51E1 DUP7 DUP3 DUP8 ADD PUSH2 0x4D07 JUMP JUMPDEST SWAP2 POP POP SWAP3 POP SWAP3 POP SWAP3 JUMP JUMPDEST PUSH1 0x0 PUSH8 0xFFFFFFFFFFFFFFFF DUP3 AND SWAP1 POP SWAP2 SWAP1 POP JUMP JUMPDEST PUSH2 0x5208 DUP2 PUSH2 0x51EB JUMP JUMPDEST DUP3 MSTORE POP POP JUMP JUMPDEST PUSH1 0x0 PUSH1 0x20 DUP3 ADD SWAP1 POP PUSH2 0x5223 PUSH1 0x0 DUP4 ADD DUP5 PUSH2 0x51FF JUMP JUMPDEST SWAP3 SWAP2 POP POP JUMP JUMPDEST PUSH1 0x0 DUP1 PUSH1 0x40 DUP4 DUP6 SUB SLT ISZERO PUSH2 0x5240 JUMPI PUSH2 0x523F PUSH2 0x4BB8 JUMP JUMPDEST JUMPDEST PUSH1 0x0 PUSH2 0x524E DUP6 DUP3 DUP7 ADD PUSH2 0x4D07 JUMP JUMPDEST SWAP3 POP POP PUSH1 0x20 PUSH2 0x525F DUP6 DUP3 DUP7 ADD PUSH2 0x4D07 JUMP JUMPDEST SWAP2 POP POP SWAP3 POP SWAP3 SWAP1 POP JUMP JUMPDEST PUSH1 0x0 PUSH2 0x5274 DUP3 PUSH2 0x4BC2 JUMP JUMPDEST SWAP1 POP SWAP2 SWAP1 POP JUMP JUMPDEST PUSH2 0x5284 DUP2 PUSH2 0x5269 JUMP JUMPDEST DUP3 MSTORE POP POP JUMP JUMPDEST PUSH1 0x0 PUSH1 0x20 DUP3 ADD SWAP1 POP PUSH2 0x529F PUSH1 0x0 DUP4 ADD DUP5 PUSH2 0x527B JUMP JUMPDEST SWAP3 SWAP2 POP POP JUMP JUMPDEST PUSH2 0x52AE DUP2 PUSH2 0x5269 JUMP JUMPDEST DUP2 EQ PUSH2 0x52B9 JUMPI PUSH1 0x0 DUP1 REVERT JUMPDEST POP JUMP JUMPDEST PUSH1 0x0 DUP2 CALLDATALOAD SWAP1 POP PUSH2 0x52CB DUP2 PUSH2 0x52A5 JUMP JUMPDEST SWAP3 SWAP2 POP POP JUMP JUMPDEST PUSH1 0x0 DUP1 PUSH1 0x0 PUSH1 0x60 DUP5 DUP7 SUB SLT ISZERO PUSH2 0x52EA JUMPI PUSH2 0x52E9 PUSH2 0x4BB8 JUMP JUMPDEST JUMPDEST PUSH1 0x0 PUSH2 0x52F8 DUP7 DUP3 DUP8 ADD PUSH2 0x4D07 JUMP JUMPDEST SWAP4 POP POP PUSH1 0x20 PUSH2 0x5309 DUP7 DUP3 DUP8 ADD PUSH2 0x4D3D JUMP JUMPDEST SWAP3 POP POP PUSH1 0x40 PUSH2 0x531A DUP7 DUP3 DUP8 ADD PUSH2 0x52BC JUMP JUMPDEST SWAP2 POP POP SWAP3 POP SWAP3 POP SWAP3 JUMP JUMPDEST PUSH1 0x0 PUSH2 0x140 DUP3 ADD SWAP1 POP PUSH2 0x533A PUSH1 0x0 DUP4 ADD DUP14 PUSH2 0x4E10 JUMP JUMPDEST PUSH2 0x5347 PUSH1 0x20 DUP4 ADD DUP13 PUSH2 0x4E10 JUMP JUMPDEST PUSH2 0x5354 PUSH1 0x40 DUP4 ADD DUP12 PUSH2 0x4E10 JUMP JUMPDEST PUSH2 0x5361 PUSH1 0x60 DUP4 ADD DUP11 PUSH2 0x4E10 JUMP JUMPDEST PUSH2 0x536E PUSH1 0x80 DUP4 ADD DUP10 PUSH2 0x4E10 JUMP JUMPDEST PUSH2 0x537B PUSH1 0xA0 DUP4 ADD DUP9 PUSH2 0x4E10 JUMP JUMPDEST PUSH2 0x5388 PUSH1 0xC0 DUP4 ADD DUP8 PUSH2 0x4E10 JUMP JUMPDEST PUSH2 0x5395 PUSH1 0xE0 DUP4 ADD DUP7 PUSH2 0x4E10 JUMP JUMPDEST PUSH2 0x53A3 PUSH2 0x100 DUP4 ADD DUP6 PUSH2 0x4E10 JUMP JUMPDEST PUSH2 0x53B1 PUSH2 0x120 DUP4 ADD DUP5 PUSH2 0x4E10 JUMP JUMPDEST SWAP12 SWAP11 POP POP POP POP POP POP POP POP POP POP POP JUMP JUMPDEST PUSH1 0x0 DUP3 DUP3 MSTORE PUSH1 0x20 DUP3 ADD SWAP1 POP SWAP3 SWAP2 POP POP JUMP JUMPDEST PUSH32 0x556E696C656E6456323A20504F4F4C20414C524541445920494E495400000000 PUSH1 0x0 DUP3 ADD MSTORE POP JUMP JUMPDEST PUSH1 0x0 PUSH2 0x5407 PUSH1 0x1C DUP4 PUSH2 0x53C0 JUMP JUMPDEST SWAP2 POP PUSH2 0x5412 DUP3 PUSH2 0x53D1 JUMP JUMPDEST PUSH1 0x20 DUP3 ADD SWAP1 POP SWAP2 SWAP1 POP JUMP JUMPDEST PUSH1 0x0 PUSH1 0x20 DUP3 ADD SWAP1 POP DUP2 DUP2 SUB PUSH1 0x0 DUP4 ADD MSTORE PUSH2 0x5436 DUP2 PUSH2 0x53FA JUMP JUMPDEST SWAP1 POP SWAP2 SWAP1 POP JUMP JUMPDEST PUSH32 0x4E6F74205065726D697474656400000000000000000000000000000000000000 PUSH1 0x0 DUP3 ADD MSTORE POP JUMP JUMPDEST PUSH1 0x0 PUSH2 0x5473 PUSH1 0xD DUP4 PUSH2 0x53C0 JUMP JUMPDEST SWAP2 POP PUSH2 0x547E DUP3 PUSH2 0x543D JUMP JUMPDEST PUSH1 0x20 DUP3 ADD SWAP1 POP SWAP2 SWAP1 POP JUMP JUMPDEST PUSH1 0x0 PUSH1 0x20 DUP3 ADD SWAP1 POP DUP2 DUP2 SUB PUSH1 0x0 DUP4 ADD MSTORE PUSH2 0x54A2 DUP2 PUSH2 0x5466 JUMP JUMPDEST SWAP1 POP SWAP2 SWAP1 POP JUMP JUMPDEST PUSH32 0x4E487B7100000000000000000000000000000000000000000000000000000000 PUSH1 0x0 MSTORE PUSH1 0x11 PUSH1 0x4 MSTORE PUSH1 0x24 PUSH1 0x0 REVERT JUMPDEST PUSH1 0x0 PUSH2 0x54E3 DUP3 PUSH2 0x4D1C JUMP JUMPDEST SWAP2 POP PUSH32 0x8000000000000000000000000000000000000000000000000000000000000000 DUP3 SUB PUSH2 0x5515 JUMPI PUSH2 0x5514 PUSH2 0x54A9 JUMP JUMPDEST JUMPDEST DUP2 PUSH1 0x0 SUB SWAP1 POP SWAP2 SWAP1 POP JUMP JUMPDEST PUSH1 0x0 DUP2 SWAP1 POP SWAP2 SWAP1 POP JUMP JUMPDEST PUSH1 0x0 PUSH2 0x5545 PUSH2 0x5540 PUSH2 0x553B DUP5 PUSH2 0x4C20 JUMP JUMPDEST PUSH2 0x5520 JUMP JUMPDEST PUSH2 0x4CE6 JUMP JUMPDEST SWAP1 POP SWAP2 SWAP1 POP JUMP JUMPDEST PUSH2 0x5555 DUP2 PUSH2 0x552A JUMP JUMPDEST DUP3 MSTORE POP POP JUMP JUMPDEST PUSH1 0x0 PUSH1 0x40 DUP3 ADD SWAP1 POP PUSH2 0x5570 PUSH1 0x0 DUP4 ADD DUP6 PUSH2 0x554C JUMP JUMPDEST PUSH2 0x557D PUSH1 0x20 DUP4 ADD DUP5 PUSH2 0x554C JUMP JUMPDEST SWAP4 SWAP3 POP POP POP JUMP JUMPDEST PUSH32 0x4E487B7100000000000000000000000000000000000000000000000000000000 PUSH1 0x0 MSTORE PUSH1 0x32 PUSH1 0x4 MSTORE PUSH1 0x24 PUSH1 0x0 REVERT JUMPDEST PUSH1 0x0 PUSH2 0x55BE DUP3 PUSH2 0x4D1C JUMP JUMPDEST SWAP2 POP PUSH2 0x55C9 DUP4 PUSH2 0x4D1C JUMP JUMPDEST SWAP3 POP DUP3 DUP3 ADD SWAP1 POP DUP3 DUP2 SLT ISZERO PUSH1 0x0 DUP4 SLT AND DUP4 DUP3 SLT PUSH1 0x0 DUP5 SLT ISZERO AND OR ISZERO PUSH2 0x55F1 JUMPI PUSH2 0x55F0 PUSH2 0x54A9 JUMP JUMPDEST JUMPDEST SWAP3 SWAP2 POP POP JUMP JUMPDEST PUSH1 0x0 PUSH2 0x5602 DUP3 PUSH2 0x4CE6 JUMP JUMPDEST SWAP2 POP PUSH32 0xFFFFFFFFFFFFFFFFFFFFFFFFFFFFFFFFFFFFFFFFFFFFFFFFFFFFFFFFFFFFFFFF DUP3 SUB PUSH2 0x5634 JUMPI PUSH2 0x5633 PUSH2 0x54A9 JUMP JUMPDEST JUMPDEST PUSH1 0x1 DUP3 ADD SWAP1 POP SWAP2 SWAP1 POP JUMP JUMPDEST PUSH32 0x42616C616E636520457863656564732052657175657374656400000000000000 PUSH1 0x0 DUP3 ADD MSTORE POP JUMP JUMPDEST PUSH1 0x0 PUSH2 0x5675 PUSH1 0x19 DUP4 PUSH2 0x53C0 JUMP JUMPDEST SWAP2 POP PUSH2 0x5680 DUP3 PUSH2 0x563F JUMP JUMPDEST PUSH1 0x20 DUP3 ADD SWAP1 POP SWAP2 SWAP1 POP JUMP JUMPDEST PUSH1 0x0 PUSH1 0x20 DUP3 ADD SWAP1 POP DUP2 DUP2 SUB PUSH1 0x0 DUP4 ADD MSTORE PUSH2 0x56A4 DUP2 PUSH2 0x5668 JUMP JUMPDEST SWAP1 POP SWAP2 SWAP1 POP JUMP JUMPDEST PUSH1 0x0 DUP2 MLOAD SWAP1 POP PUSH2 0x56BA DUP2 PUSH2 0x4CF0 JUMP JUMPDEST SWAP3 SWAP2 POP POP JUMP JUMPDEST PUSH1 0x0 PUSH1 0x20 DUP3 DUP5 SUB SLT ISZERO PUSH2 0x56D6 JUMPI PUSH2 0x56D5 PUSH2 0x4BB8 JUMP JUMPDEST JUMPDEST PUSH1 0x0 PUSH2 0x56E4 DUP5 DUP3 DUP6 ADD PUSH2 0x56AB JUMP JUMPDEST SWAP2 POP POP SWAP3 SWAP2 POP POP JUMP JUMPDEST PUSH32 0x4E6F7420656E6F756768204C6971756964697479000000000000000000000000 PUSH1 0x0 DUP3 ADD MSTORE POP JUMP JUMPDEST PUSH1 0x0 PUSH2 0x5723 PUSH1 0x14 DUP4 PUSH2 0x53C0 JUMP JUMPDEST SWAP2 POP PUSH2 0x572E DUP3 PUSH2 0x56ED JUMP JUMPDEST PUSH1 0x20 DUP3 ADD SWAP1 POP SWAP2 SWAP1 POP JUMP JUMPDEST PUSH1 0x0 PUSH1 0x20 DUP3 ADD SWAP1 POP DUP2 DUP2 SUB PUSH1 0x0 DUP4 ADD MSTORE PUSH2 0x5752 DUP2 PUSH2 0x5716 JUMP JUMPDEST SWAP1 POP SWAP2 SWAP1 POP JUMP JUMPDEST PUSH32 0x496E73756666696369656E74204C6971756964697479204D696E746564000000 PUSH1 0x0 DUP3 ADD MSTORE POP JUMP JUMPDEST PUSH1 0x0 PUSH2 0x578F PUSH1 0x1D DUP4 PUSH2 0x53C0 JUMP JUMPDEST SWAP2 POP PUSH2 0x579A DUP3 PUSH2 0x5759 JUMP JUMPDEST PUSH1 0x20 DUP3 ADD SWAP1 POP SWAP2 SWAP1 POP JUMP JUMPDEST PUSH1 0x0 PUSH1 0x20 DUP3 ADD SWAP1 POP DUP2 DUP2 SUB PUSH1 0x0 DUP4 ADD MSTORE PUSH2 0x57BE DUP2 PUSH2 0x5782 JUMP JUMPDEST SWAP1 POP SWAP2 SWAP1 POP JUMP JUMPDEST PUSH1 0x0 PUSH1 0x40 DUP3 ADD SWAP1 POP PUSH2 0x57DA PUSH1 0x0 DUP4 ADD DUP6 PUSH2 0x4E91 JUMP JUMPDEST PUSH2 0x57E7 PUSH1 0x20 DUP4 ADD DUP5 PUSH2 0x4E91 JUMP JUMPDEST SWAP4 SWAP3 POP POP POP JUMP JUMPDEST PUSH1 0x0 PUSH2 0x57F9 DUP3 PUSH2 0x4CE6 JUMP JUMPDEST SWAP2 POP PUSH2 0x5804 DUP4 PUSH2 0x4CE6 JUMP JUMPDEST SWAP3 POP DUP3 DUP3 SUB SWAP1 POP DUP2 DUP2 GT ISZERO PUSH2 0x581C JUMPI PUSH2 0x581B PUSH2 0x54A9 JUMP JUMPDEST JUMPDEST SWAP3 SWAP2 POP POP JUMP JUMPDEST PUSH32 0x496E73756666696369656E74204C6971756964697479204275726E6564000000 PUSH1 0x0 DUP3 ADD MSTORE POP JUMP JUMPDEST PUSH1 0x0 PUSH2 0x5858 PUSH1 0x1D DUP4 PUSH2 0x53C0 JUMP JUMPDEST SWAP2 POP PUSH2 0x5863 DUP3 PUSH2 0x5822 JUMP JUMPDEST PUSH1 0x20 DUP3 ADD SWAP1 POP SWAP2 SWAP1 POP JUMP JUMPDEST PUSH1 0x0 PUSH1 0x20 DUP3 ADD SWAP1 POP DUP2 DUP2 SUB PUSH1 0x0 DUP4 ADD MSTORE PUSH2 0x5887 DUP2 PUSH2 0x584B JUMP JUMPDEST SWAP1 POP SWAP2 SWAP1 POP JUMP JUMPDEST PUSH1 0x0 PUSH1 0x60 DUP3 ADD SWAP1 POP PUSH2 0x58A3 PUSH1 0x0 DUP4 ADD DUP7 PUSH2 0x4E91 JUMP JUMPDEST PUSH2 0x58B0 PUSH1 0x20 DUP4 ADD DUP6 PUSH2 0x4E91 JUMP JUMPDEST PUSH2 0x58BD PUSH1 0x40 DUP4 ADD DUP5 PUSH2 0x4E10 JUMP JUMPDEST SWAP5 SWAP4 POP POP POP POP JUMP JUMPDEST PUSH1 0x0 PUSH1 0x60 DUP3 ADD SWAP1 POP PUSH2 0x58DA PUSH1 0x0 DUP4 ADD DUP7 PUSH2 0x4E10 JUMP JUMPDEST PUSH2 0x58E7 PUSH1 0x20 DUP4 ADD DUP6 PUSH2 0x4E10 JUMP JUMPDEST PUSH2 0x58F4 PUSH1 0x40 DUP4 ADD DUP5 PUSH2 0x4E91 JUMP JUMPDEST SWAP5 SWAP4 POP POP POP POP JUMP JUMPDEST PUSH32 0x496E73756666696369656E7420426F72726F7730204C6971756964697479204D PUSH1 0x0 DUP3 ADD MSTORE PUSH32 0x696E746564000000000000000000000000000000000000000000000000000000 PUSH1 0x20 DUP3 ADD MSTORE POP JUMP JUMPDEST PUSH1 0x0 PUSH2 0x5958 PUSH1 0x25 DUP4 PUSH2 0x53C0 JUMP JUMPDEST SWAP2 POP PUSH2 0x5963 DUP3 PUSH2 0x58FC JUMP JUMPDEST PUSH1 0x40 DUP3 ADD SWAP1 POP SWAP2 SWAP1 POP JUMP JUMPDEST PUSH1 0x0 PUSH1 0x20 DUP3 ADD SWAP1 POP DUP2 DUP2 SUB PUSH1 0x0 DUP4 ADD MSTORE PUSH2 0x5987 DUP2 PUSH2 0x594B JUMP JUMPDEST SWAP1 POP SWAP2 SWAP1 POP JUMP JUMPDEST PUSH1 0x0 PUSH2 0x59A9 PUSH2 0x59A4 PUSH2 0x599F DUP5 PUSH2 0x4BC2 JUMP JUMPDEST PUSH2 0x5520 JUMP JUMPDEST PUSH2 0x4BC2 JUMP JUMPDEST SWAP1 POP SWAP2 SWAP1 POP JUMP JUMPDEST PUSH1 0x0 PUSH2 0x59BB DUP3 PUSH2 0x598E JUMP JUMPDEST SWAP1 POP SWAP2 SWAP1 POP JUMP JUMPDEST PUSH1 0x0 PUSH2 0x59CD DUP3 PUSH2 0x59B0 JUMP JUMPDEST SWAP1 POP SWAP2 SWAP1 POP JUMP JUMPDEST PUSH2 0x59DD DUP2 PUSH2 0x59C2 JUMP JUMPDEST DUP3 MSTORE POP POP JUMP JUMPDEST PUSH1 0x0 PUSH1 0x60 DUP3 ADD SWAP1 POP PUSH2 0x59F8 PUSH1 0x0 DUP4 ADD DUP7 PUSH2 0x4E10 JUMP JUMPDEST PUSH2 0x5A05 PUSH1 0x20 DUP4 ADD DUP6 PUSH2 0x4E10 JUMP JUMPDEST PUSH2 0x5A12 PUSH1 0x40 DUP4 ADD DUP5 PUSH2 0x59D4 JUMP JUMPDEST SWAP5 SWAP4 POP POP POP POP JUMP JUMPDEST PUSH32 0x496E73756666696369656E7420426F72726F7731204C6971756964697479204D PUSH1 0x0 DUP3 ADD MSTORE PUSH32 0x696E746564000000000000000000000000000000000000000000000000000000 PUSH1 0x20 DUP3 ADD MSTORE POP JUMP JUMPDEST PUSH1 0x0 PUSH2 0x5A76 PUSH1 0x25 DUP4 PUSH2 0x53C0 JUMP JUMPDEST SWAP2 POP PUSH2 0x5A81 DUP3 PUSH2 0x5A1A JUMP JUMPDEST PUSH1 0x40 DUP3 ADD SWAP1 POP SWAP2 SWAP1 POP JUMP JUMPDEST PUSH1 0x0 PUSH1 0x20 DUP3 ADD SWAP1 POP DUP2 DUP2 SUB PUSH1 0x0 DUP4 ADD MSTORE PUSH2 0x5AA5 DUP2 PUSH2 0x5A69 JUMP JUMPDEST SWAP1 POP SWAP2 SWAP1 POP JUMP JUMPDEST PUSH32 0x556E696C656E6456313A2055534552205A45524F204144445245535300000000 PUSH1 0x0 DUP3 ADD MSTORE POP JUMP JUMPDEST PUSH1 0x0 PUSH2 0x5AE2 PUSH1 0x1C DUP4 PUSH2 0x53C0 JUMP JUMPDEST SWAP2 POP PUSH2 0x5AED DUP3 PUSH2 0x5AAC JUMP JUMPDEST PUSH1 0x20 DUP3 ADD SWAP1 POP SWAP2 SWAP1 POP JUMP JUMPDEST PUSH1 0x0 PUSH1 0x20 DUP3 ADD SWAP1 POP DUP2 DUP2 SUB PUSH1 0x0 DUP4 ADD MSTORE PUSH2 0x5B11 DUP2 PUSH2 0x5AD5 JUMP JUMPDEST SWAP1 POP SWAP2 SWAP1 POP JUMP JUMPDEST PUSH1 0x0 PUSH2 0x5B23 DUP3 PUSH2 0x4CE6 JUMP JUMPDEST SWAP2 POP PUSH2 0x5B2E DUP4 PUSH2 0x4CE6 JUMP JUMPDEST SWAP3 POP DUP3 DUP3 ADD SWAP1 POP DUP1 DUP3 GT ISZERO PUSH2 0x5B46 JUMPI PUSH2 0x5B45 PUSH2 0x54A9 JUMP JUMPDEST JUMPDEST SWAP3 SWAP2 POP POP JUMP JUMPDEST PUSH32 0x4C6F77204C7476204865616C7468466163746F72300000000000000000000000 PUSH1 0x0 DUP3 ADD MSTORE POP JUMP JUMPDEST PUSH1 0x0 PUSH2 0x5B82 PUSH1 0x15 DUP4 PUSH2 0x53C0 JUMP JUMPDEST SWAP2 POP PUSH2 0x5B8D DUP3 PUSH2 0x5B4C JUMP JUMPDEST PUSH1 0x20 DUP3 ADD SWAP1 POP SWAP2 SWAP1 POP JUMP JUMPDEST PUSH1 0x0 PUSH1 0x20 DUP3 ADD SWAP1 POP DUP2 DUP2 SUB PUSH1 0x0 DUP4 ADD MSTORE PUSH2 0x5BB1 DUP2 PUSH2 0x5B75 JUMP JUMPDEST SWAP1 POP SWAP2 SWAP1 POP JUMP JUMPDEST PUSH32 0x4C6F77204C7476204865616C7468466163746F72310000000000000000000000 PUSH1 0x0 DUP3 ADD MSTORE POP JUMP JUMPDEST PUSH1 0x0 PUSH2 0x5BEE PUSH1 0x15 DUP4 PUSH2 0x53C0 JUMP JUMPDEST SWAP2 POP PUSH2 0x5BF9 DUP3 PUSH2 0x5BB8 JUMP JUMPDEST PUSH1 0x20 DUP3 ADD SWAP1 POP SWAP2 SWAP1 POP JUMP JUMPDEST PUSH1 0x0 PUSH1 0x20 DUP3 ADD SWAP1 POP DUP2 DUP2 SUB PUSH1 0x0 DUP4 ADD MSTORE PUSH2 0x5C1D DUP2 PUSH2 0x5BE1 JUMP JUMPDEST SWAP1 POP SWAP2 SWAP1 POP JUMP JUMPDEST PUSH1 0x0 PUSH2 0x5C2F DUP3 PUSH2 0x4CE6 JUMP JUMPDEST SWAP2 POP PUSH2 0x5C3A DUP4 PUSH2 0x4CE6 JUMP JUMPDEST SWAP3 POP DUP3 DUP3 MUL PUSH2 0x5C48 DUP2 PUSH2 0x4CE6 JUMP JUMPDEST SWAP2 POP DUP3 DUP3 DIV DUP5 EQ DUP4 ISZERO OR PUSH2 0x5C5F JUMPI PUSH2 0x5C5E PUSH2 0x54A9 JUMP JUMPDEST JUMPDEST POP SWAP3 SWAP2 POP POP JUMP JUMPDEST PUSH32 0x4E487B7100000000000000000000000000000000000000000000000000000000 PUSH1 0x0 MSTORE PUSH1 0x12 PUSH1 0x4 MSTORE PUSH1 0x24 PUSH1 0x0 REVERT JUMPDEST PUSH1 0x0 PUSH2 0x5CA0 DUP3 PUSH2 0x4CE6 JUMP JUMPDEST SWAP2 POP PUSH2 0x5CAB DUP4 PUSH2 0x4CE6 JUMP JUMPDEST SWAP3 POP DUP3 PUSH2 0x5CBB JUMPI PUSH2 0x5CBA PUSH2 0x5C66 JUMP JUMPDEST JUMPDEST DUP3 DUP3 DIV SWAP1 POP SWAP3 SWAP2 POP POP JUMP JUMPDEST PUSH1 0x0 PUSH1 0x40 DUP3 ADD SWAP1 POP PUSH2 0x5CDB PUSH1 0x0 DUP4 ADD DUP6 PUSH2 0x4E91 JUMP JUMPDEST PUSH2 0x5CE8 PUSH1 0x20 DUP4 ADD DUP5 PUSH2 0x4E10 JUMP JUMPDEST SWAP4 SWAP3 POP POP POP JUMP JUMPDEST PUSH1 0x0 DUP2 ISZERO ISZERO SWAP1 POP SWAP2 SWAP1 POP JUMP JUMPDEST PUSH2 0x5D04 DUP2 PUSH2 0x5CEF JUMP JUMPDEST DUP2 EQ PUSH2 0x5D0F JUMPI PUSH1 0x0 DUP1 REVERT JUMPDEST POP JUMP JUMPDEST PUSH1 0x0 DUP2 MLOAD SWAP1 POP PUSH2 0x5D21 DUP2 PUSH2 0x5CFB JUMP JUMPDEST SWAP3 SWAP2 POP POP JUMP JUMPDEST PUSH1 0x0 PUSH1 0x20 DUP3 DUP5 SUB SLT ISZERO PUSH2 0x5D3D JUMPI PUSH2 0x5D3C PUSH2 0x4BB8 JUMP JUMPDEST JUMPDEST PUSH1 0x0 PUSH2 0x5D4B DUP5 DUP3 DUP6 ADD PUSH2 0x5D12 JUMP JUMPDEST SWAP2 POP POP SWAP3 SWAP2 POP POP JUMP JUMPDEST PUSH32 0x5361666545524332303A204552433230206F7065726174696F6E20646964206E PUSH1 0x0 DUP3 ADD MSTORE PUSH32 0x6F74207375636365656400000000000000000000000000000000000000000000 PUSH1 0x20 DUP3 ADD MSTORE POP JUMP JUMPDEST PUSH1 0x0 PUSH2 0x5DB0 PUSH1 0x2A DUP4 PUSH2 0x53C0 JUMP JUMPDEST SWAP2 POP PUSH2 0x5DBB DUP3 PUSH2 0x5D54 JUMP JUMPDEST PUSH1 0x40 DUP3 ADD SWAP1 POP SWAP2 SWAP1 POP JUMP JUMPDEST PUSH1 0x0 PUSH1 0x20 DUP3 ADD SWAP1 POP DUP2 DUP2 SUB PUSH1 0x0 DUP4 ADD MSTORE PUSH2 0x5DDF DUP2 PUSH2 0x5DA3 JUMP JUMPDEST SWAP1 POP SWAP2 SWAP1 POP JUMP JUMPDEST PUSH32 0x416464726573733A20696E73756666696369656E742062616C616E636520666F PUSH1 0x0 DUP3 ADD MSTORE PUSH32 0x722063616C6C0000000000000000000000000000000000000000000000000000 PUSH1 0x20 DUP3 ADD MSTORE POP JUMP JUMPDEST PUSH1 0x0 PUSH2 0x5E42 PUSH1 0x26 DUP4 PUSH2 0x53C0 JUMP JUMPDEST SWAP2 POP PUSH2 0x5E4D DUP3 PUSH2 0x5DE6 JUMP JUMPDEST PUSH1 0x40 DUP3 ADD SWAP1 POP SWAP2 SWAP1 POP JUMP JUMPDEST PUSH1 0x0 PUSH1 0x20 DUP3 ADD SWAP1 POP DUP2 DUP2 SUB PUSH1 0x0 DUP4 ADD MSTORE PUSH2 0x5E71 DUP2 PUSH2 0x5E35 JUMP JUMPDEST SWAP1 POP SWAP2 SWAP1 POP JUMP JUMPDEST PUSH32 0x416464726573733A2063616C6C20746F206E6F6E2D636F6E7472616374000000 PUSH1 0x0 DUP3 ADD MSTORE POP JUMP JUMPDEST PUSH1 0x0 PUSH2 0x5EAE PUSH1 0x1D DUP4 PUSH2 0x53C0 JUMP JUMPDEST SWAP2 POP PUSH2 0x5EB9 DUP3 PUSH2 0x5E78 JUMP JUMPDEST PUSH1 0x20 DUP3 ADD SWAP1 POP SWAP2 SWAP1 POP JUMP JUMPDEST PUSH1 0x0 PUSH1 0x20 DUP3 ADD SWAP1 POP DUP2 DUP2 SUB PUSH1 0x0 DUP4 ADD MSTORE PUSH2 0x5EDD DUP2 PUSH2 0x5EA1 JUMP JUMPDEST SWAP1 POP SWAP2 SWAP1 POP JUMP JUMPDEST PUSH1 0x0 DUP2 MLOAD SWAP1 POP SWAP2 SWAP1 POP JUMP JUMPDEST PUSH1 0x0 DUP2 SWAP1 POP SWAP3 SWAP2 POP POP JUMP JUMPDEST PUSH1 0x0 JUMPDEST DUP4 DUP2 LT ISZERO PUSH2 0x5F18 JUMPI DUP1 DUP3 ADD MLOAD DUP2 DUP5 ADD MSTORE PUSH1 0x20 DUP2 ADD SWAP1 POP PUSH2 0x5EFD JUMP JUMPDEST PUSH1 0x0 DUP5 DUP5 ADD MSTORE POP POP POP POP JUMP JUMPDEST PUSH1 0x0 PUSH2 0x5F2F DUP3 PUSH2 0x5EE4 JUMP JUMPDEST PUSH2 0x5F39 DUP2 DUP6 PUSH2 0x5EEF JUMP JUMPDEST SWAP4 POP PUSH2 0x5F49 DUP2 DUP6 PUSH1 0x20 DUP7 ADD PUSH2 0x5EFA JUMP JUMPDEST DUP1 DUP5 ADD SWAP2 POP POP SWAP3 SWAP2 POP POP JUMP JUMPDEST PUSH1 0x0 PUSH2 0x5F61 DUP3 DUP5 PUSH2 0x5F24 JUMP JUMPDEST SWAP2 POP DUP2 SWAP1 POP SWAP3 SWAP2 POP POP JUMP JUMPDEST PUSH1 0x0 DUP2 MLOAD SWAP1 POP SWAP2 SWAP1 POP JUMP JUMPDEST PUSH1 0x0 PUSH1 0x1F NOT PUSH1 0x1F DUP4 ADD AND SWAP1 POP SWAP2 SWAP1 POP JUMP JUMPDEST PUSH1 0x0 PUSH2 0x5F93 DUP3 PUSH2 0x5F6C JUMP JUMPDEST PUSH2 0x5F9D DUP2 DUP6 PUSH2 0x53C0 JUMP JUMPDEST SWAP4 POP PUSH2 0x5FAD DUP2 DUP6 PUSH1 0x20 DUP7 ADD PUSH2 0x5EFA JUMP JUMPDEST PUSH2 0x5FB6 DUP2 PUSH2 0x5F77 JUMP JUMPDEST DUP5 ADD SWAP2 POP POP SWAP3 SWAP2 POP POP JUMP JUMPDEST PUSH1 0x0 PUSH1 0x20 DUP3 ADD SWAP1 POP DUP2 DUP2 SUB PUSH1 0x0 DUP4 ADD MSTORE PUSH2 0x5FDB DUP2 DUP5 PUSH2 0x5F88 JUMP JUMPDEST SWAP1 POP SWAP3 SWAP2 POP POP JUMP INVALID LOG2 PUSH5 0x6970667358 0x22 SLT KECCAK256 0xBE LOG1 0xC6 JUMP 0xA9 0xE SLOAD PUSH16 0xBA53EBBFA595F7DE5B2427E6219BA12D DUP10 BASEFEE 0x2E COINBASE DUP7 STATICCALL DUP13 0x2F PUSH5 0x736F6C6343 STOP ADDMOD SGT STOP CALLER "
		},
		"gasEstimates": {
			"creation": {
				"codeDepositCost": "4920200",
				"executionCost": "30086",
				"totalCost": "4950286"
			},
			"external": {
				"HEALTH_FACTOR_LIQUIDATION_THRESHOLD()": "380",
				"accrueInterest()": "infinite",
				"borrow(uint256,int256,address)": "infinite",
				"core()": "2602",
				"getAvailableLiquidity0()": "infinite",
				"getAvailableLiquidity1()": "infinite",
				"getInterestRate(uint256,uint256)": "infinite",
				"getLB()": "2597",
				"getLTV()": "2525",
				"getRF()": "2619",
				"init(address,address,address,uint8,uint8,uint8)": "infinite",
				"interestRateAddress()": "2603",
				"lastUpdated()": "2562",
				"lend(uint256,int256)": "infinite",
				"liquidate(uint256,int256,address,uint256)": "infinite",
				"liquidateMulti(uint256[],int256[],address,uint256)": "infinite",
				"poolData()": "infinite",
				"positionData(uint256)": "infinite",
				"processFlashLoan(address,int256)": "infinite",
				"redeem(uint256,int256,address)": "infinite",
				"redeemUnderlying(uint256,int256,address)": "infinite",
				"repay(uint256,int256,address)": "infinite",
				"setInterestRateAddress(address)": "infinite",
				"setLB(uint8)": "infinite",
				"setLTV(uint8)": "infinite",
				"setRF(uint8)": "infinite",
				"token0()": "2557",
				"token0Data()": "infinite",
				"token1()": "2558",
				"token1Data()": "infinite",
				"transferFlashLoanProtocolFee(address,address,uint256)": "infinite",
				"userBalanceOftoken0(uint256)": "infinite",
				"userBalanceOftoken1(uint256)": "infinite",
				"userBalanceOftokens(uint256)": "infinite",
				"userHealthFactor(uint256)": "infinite",
				"userHealthFactorLtv(uint256)": "infinite",
				"userSharesOftoken0(uint256)": "infinite",
				"userSharesOftoken1(uint256)": "infinite",
				"userSharesOftokens(uint256)": "infinite"
			},
			"internal": {
				"_burnBposition(uint256,uint256,uint256)": "infinite",
				"_burnLPposition(uint256,uint256,uint256)": "infinite",
				"_mintBposition(uint256,uint256,uint256)": "infinite",
				"_mintLPposition(uint256,uint256,uint256)": "infinite",
				"checkHealthFactorLtv(uint256)": "infinite",
				"liquidateInternal(uint256,int256,uint256)": "infinite"
			}
		},
		"methodIdentifiers": {
			"HEALTH_FACTOR_LIQUIDATION_THRESHOLD()": "c3525c28",
			"accrueInterest()": "a6afed95",
			"borrow(uint256,int256,address)": "f7ad458b",
			"core()": "f2f4eb26",
			"getAvailableLiquidity0()": "85e90760",
			"getAvailableLiquidity1()": "69f4e52d",
			"getInterestRate(uint256,uint256)": "c6dfa13f",
			"getLB()": "53a86202",
			"getLTV()": "4ed2b8ac",
			"getRF()": "9ffadd7b",
			"init(address,address,address,uint8,uint8,uint8)": "007fdd45",
			"interestRateAddress()": "c74fdd77",
			"lastUpdated()": "d0b06f5d",
			"lend(uint256,int256)": "4dd9cbf4",
			"liquidate(uint256,int256,address,uint256)": "00cb8e22",
			"liquidateMulti(uint256[],int256[],address,uint256)": "2b23ae49",
			"poolData()": "fee151ae",
			"positionData(uint256)": "a0ab910e",
			"processFlashLoan(address,int256)": "8c3b690d",
			"redeem(uint256,int256,address)": "2b8ebe8b",
			"redeemUnderlying(uint256,int256,address)": "99cd69d1",
			"repay(uint256,int256,address)": "c838249e",
			"setInterestRateAddress(address)": "73748381",
			"setLB(uint8)": "3d101c12",
			"setLTV(uint8)": "aad2476d",
			"setRF(uint8)": "07dc8ce3",
			"token0()": "0dfe1681",
			"token0Data()": "ac896951",
			"token1()": "d21220a7",
			"token1Data()": "930f7ee8",
			"transferFlashLoanProtocolFee(address,address,uint256)": "bfde2d52",
			"userBalanceOftoken0(uint256)": "88a0a1c7",
			"userBalanceOftoken1(uint256)": "84ee000c",
			"userBalanceOftokens(uint256)": "77ff1ef1",
			"userHealthFactor(uint256)": "9e83b078",
			"userHealthFactorLtv(uint256)": "c097e8d9",
			"userSharesOftoken0(uint256)": "a93d1e64",
			"userSharesOftoken1(uint256)": "d336bbd5",
			"userSharesOftokens(uint256)": "02394888"
		}
	},
	"abi": [
		{
			"inputs": [],
			"stateMutability": "nonpayable",
			"type": "constructor"
		},
		{
			"anonymous": false,
			"inputs": [
				{
					"indexed": true,
					"internalType": "address",
					"name": "_asset",
					"type": "address"
				},
				{
					"indexed": true,
					"internalType": "uint256",
					"name": "_positionID",
					"type": "uint256"
				},
				{
					"indexed": false,
					"internalType": "uint256",
					"name": "_amount",
					"type": "uint256"
				},
				{
					"indexed": false,
					"internalType": "uint256",
					"name": "totalBorrows",
					"type": "uint256"
				},
				{
					"indexed": false,
					"internalType": "address",
					"name": "_recipient",
					"type": "address"
				}
			],
			"name": "Borrow",
			"type": "event"
		},
		{
			"anonymous": false,
			"inputs": [
				{
					"indexed": false,
					"internalType": "uint256",
					"name": "_newRate0",
					"type": "uint256"
				},
				{
					"indexed": false,
					"internalType": "uint256",
					"name": "_newRate1",
					"type": "uint256"
				},
				{
					"indexed": false,
					"internalType": "uint256",
					"name": "totalBorrows0",
					"type": "uint256"
				},
				{
					"indexed": false,
					"internalType": "uint256",
					"name": "totalBorrows1",
					"type": "uint256"
				}
			],
			"name": "InterestUpdate",
			"type": "event"
		},
		{
			"anonymous": false,
			"inputs": [
				{
					"indexed": true,
					"internalType": "address",
					"name": "_asset",
					"type": "address"
				},
				{
					"indexed": true,
					"internalType": "uint256",
					"name": "_positionID",
					"type": "uint256"
				},
				{
					"indexed": false,
					"internalType": "uint256",
					"name": "_amount",
					"type": "uint256"
				},
				{
					"indexed": false,
					"internalType": "uint256",
					"name": "_token_amount",
					"type": "uint256"
				}
			],
			"name": "Lend",
			"type": "event"
		},
		{
			"anonymous": false,
			"inputs": [
				{
					"indexed": true,
					"internalType": "address",
					"name": "_asset",
					"type": "address"
				},
				{
					"indexed": true,
					"internalType": "uint256",
					"name": "_positionID",
					"type": "uint256"
				},
				{
					"indexed": true,
					"internalType": "uint256",
					"name": "_toPositionID",
					"type": "uint256"
				},
				{
					"indexed": false,
					"internalType": "uint256",
					"name": "repayAmount",
					"type": "uint256"
				},
				{
					"indexed": false,
					"internalType": "uint256",
					"name": "seizeTokens",
					"type": "uint256"
				}
			],
			"name": "LiquidateBorrow",
			"type": "event"
		},
		{
			"anonymous": false,
			"inputs": [
				{
					"indexed": true,
					"internalType": "uint256",
					"name": "_positionID",
					"type": "uint256"
				},
				{
					"indexed": false,
					"internalType": "uint256",
					"name": "_price",
					"type": "uint256"
				},
				{
					"indexed": false,
					"internalType": "uint256",
					"name": "_last_price",
					"type": "uint256"
				},
				{
					"indexed": false,
					"internalType": "uint256",
					"name": "_amount",
					"type": "uint256"
				}
			],
			"name": "LiquidationPriceUpdate",
			"type": "event"
		},
		{
			"anonymous": false,
			"inputs": [
				{
					"indexed": false,
					"internalType": "uint256",
					"name": "oldLB",
					"type": "uint256"
				},
				{
					"indexed": false,
					"internalType": "uint256",
					"name": "newLB",
					"type": "uint256"
				}
			],
			"name": "NewLB",
			"type": "event"
		},
		{
			"anonymous": false,
			"inputs": [
				{
					"indexed": false,
					"internalType": "uint256",
					"name": "oldLTV",
					"type": "uint256"
				},
				{
					"indexed": false,
					"internalType": "uint256",
					"name": "newLTV",
					"type": "uint256"
				}
			],
			"name": "NewLTV",
			"type": "event"
		},
		{
			"anonymous": false,
			"inputs": [
				{
					"indexed": false,
					"internalType": "address",
					"name": "oldInterestRateModel",
					"type": "address"
				},
				{
					"indexed": false,
					"internalType": "address",
					"name": "newInterestRateModel",
					"type": "address"
				}
			],
			"name": "NewMarketInterestRateModel",
			"type": "event"
		},
		{
			"anonymous": false,
			"inputs": [
				{
					"indexed": false,
					"internalType": "uint256",
					"name": "oldRF",
					"type": "uint256"
				},
				{
					"indexed": false,
					"internalType": "uint256",
					"name": "newRF",
					"type": "uint256"
				}
			],
			"name": "NewRF",
			"type": "event"
		},
		{
			"anonymous": false,
			"inputs": [
				{
					"indexed": true,
					"internalType": "address",
					"name": "_asset",
					"type": "address"
				},
				{
					"indexed": true,
					"internalType": "uint256",
					"name": "_positionID",
					"type": "uint256"
				},
				{
					"indexed": false,
					"internalType": "uint256",
					"name": "_token_amount",
					"type": "uint256"
				},
				{
					"indexed": false,
					"internalType": "uint256",
					"name": "_amount",
					"type": "uint256"
				}
			],
			"name": "Redeem",
			"type": "event"
		},
		{
			"anonymous": false,
			"inputs": [
				{
					"indexed": true,
					"internalType": "address",
					"name": "_asset",
					"type": "address"
				},
				{
					"indexed": true,
					"internalType": "uint256",
					"name": "_positionID",
					"type": "uint256"
				},
				{
					"indexed": false,
					"internalType": "uint256",
					"name": "_amount",
					"type": "uint256"
				},
				{
					"indexed": false,
					"internalType": "uint256",
					"name": "totalBorrows",
					"type": "uint256"
				},
				{
					"indexed": false,
					"internalType": "address",
					"name": "_payer",
					"type": "address"
				}
			],
			"name": "RepayBorrow",
			"type": "event"
		},
		{
			"inputs": [],
			"name": "HEALTH_FACTOR_LIQUIDATION_THRESHOLD",
			"outputs": [
				{
					"internalType": "uint64",
					"name": "",
					"type": "uint64"
				}
			],
			"stateMutability": "view",
			"type": "function"
		},
		{
			"inputs": [],
			"name": "accrueInterest",
			"outputs": [],
			"stateMutability": "nonpayable",
			"type": "function"
		},
		{
			"inputs": [
				{
					"internalType": "uint256",
					"name": "_nftID",
					"type": "uint256"
				},
				{
					"internalType": "int256",
					"name": "amount",
					"type": "int256"
				},
				{
					"internalType": "address payable",
					"name": "_recipient",
					"type": "address"
				}
			],
			"name": "borrow",
			"outputs": [],
			"stateMutability": "nonpayable",
			"type": "function"
		},
		{
			"inputs": [],
			"name": "core",
			"outputs": [
				{
					"internalType": "address payable",
					"name": "",
					"type": "address"
				}
			],
			"stateMutability": "view",
			"type": "function"
		},
		{
			"inputs": [],
			"name": "getAvailableLiquidity0",
			"outputs": [
				{
					"internalType": "uint256",
					"name": "_available",
					"type": "uint256"
				}
			],
			"stateMutability": "view",
			"type": "function"
		},
		{
			"inputs": [],
			"name": "getAvailableLiquidity1",
			"outputs": [
				{
					"internalType": "uint256",
					"name": "_available",
					"type": "uint256"
				}
			],
			"stateMutability": "view",
			"type": "function"
		},
		{
			"inputs": [
				{
					"internalType": "uint256",
					"name": "_totalBorrow",
					"type": "uint256"
				},
				{
					"internalType": "uint256",
					"name": "_availableBorrow",
					"type": "uint256"
				}
			],
			"name": "getInterestRate",
			"outputs": [
				{
					"internalType": "uint256",
					"name": "",
					"type": "uint256"
				}
			],
			"stateMutability": "view",
			"type": "function"
		},
		{
			"inputs": [],
			"name": "getLB",
			"outputs": [
				{
					"internalType": "uint256",
					"name": "",
					"type": "uint256"
				}
			],
			"stateMutability": "view",
			"type": "function"
		},
		{
			"inputs": [],
			"name": "getLTV",
			"outputs": [
				{
					"internalType": "uint256",
					"name": "",
					"type": "uint256"
				}
			],
			"stateMutability": "view",
			"type": "function"
		},
		{
			"inputs": [],
			"name": "getRF",
			"outputs": [
				{
					"internalType": "uint256",
					"name": "",
					"type": "uint256"
				}
			],
			"stateMutability": "view",
			"type": "function"
		},
		{
			"inputs": [
				{
					"internalType": "address",
					"name": "_token0",
					"type": "address"
				},
				{
					"internalType": "address",
					"name": "_token1",
					"type": "address"
				},
				{
					"internalType": "address",
					"name": "_interestRate",
					"type": "address"
				},
				{
					"internalType": "uint8",
					"name": "_ltv",
					"type": "uint8"
				},
				{
					"internalType": "uint8",
					"name": "_lb",
					"type": "uint8"
				},
				{
					"internalType": "uint8",
					"name": "_rf",
					"type": "uint8"
				}
			],
			"name": "init",
			"outputs": [],
			"stateMutability": "nonpayable",
			"type": "function"
		},
		{
			"inputs": [],
			"name": "interestRateAddress",
			"outputs": [
				{
					"internalType": "address",
					"name": "",
					"type": "address"
				}
			],
			"stateMutability": "view",
			"type": "function"
		},
		{
			"inputs": [],
			"name": "lastUpdated",
			"outputs": [
				{
					"internalType": "uint256",
					"name": "",
					"type": "uint256"
				}
			],
			"stateMutability": "view",
			"type": "function"
		},
		{
			"inputs": [
				{
					"internalType": "uint256",
					"name": "_nftID",
					"type": "uint256"
				},
				{
					"internalType": "int256",
					"name": "amount",
					"type": "int256"
				}
			],
			"name": "lend",
			"outputs": [
				{
					"internalType": "uint256",
					"name": "",
					"type": "uint256"
				}
			],
			"stateMutability": "nonpayable",
			"type": "function"
		},
		{
			"inputs": [
				{
					"internalType": "uint256",
					"name": "_nftID",
					"type": "uint256"
				},
				{
					"internalType": "int256",
					"name": "amount",
					"type": "int256"
				},
				{
					"internalType": "address",
					"name": "_receiver",
					"type": "address"
				},
				{
					"internalType": "uint256",
					"name": "_toNftID",
					"type": "uint256"
				}
			],
			"name": "liquidate",
			"outputs": [
				{
					"internalType": "int256",
					"name": "liquidatedAmount",
					"type": "int256"
				}
			],
			"stateMutability": "nonpayable",
			"type": "function"
		},
		{
			"inputs": [
				{
					"internalType": "uint256[]",
					"name": "_nftIDs",
					"type": "uint256[]"
				},
				{
					"internalType": "int256[]",
					"name": "amounts",
					"type": "int256[]"
				},
				{
					"internalType": "address",
					"name": "_receiver",
					"type": "address"
				},
				{
					"internalType": "uint256",
					"name": "_toNftID",
					"type": "uint256"
				}
			],
			"name": "liquidateMulti",
			"outputs": [
				{
					"internalType": "int256",
					"name": "liquidatedAmountTotal",
					"type": "int256"
				}
			],
			"stateMutability": "nonpayable",
			"type": "function"
		},
		{
			"inputs": [],
			"name": "poolData",
			"outputs": [
				{
					"internalType": "uint256",
					"name": "_totalLendShare0",
					"type": "uint256"
				},
				{
					"internalType": "uint256",
					"name": "_totalBorrowShare0",
					"type": "uint256"
				},
				{
					"internalType": "uint256",
					"name": "_totalBorrow0",
					"type": "uint256"
				},
				{
					"internalType": "uint256",
					"name": "_totalBalance0",
					"type": "uint256"
				},
				{
					"internalType": "uint256",
					"name": "_totalAvailableLiquidity0",
					"type": "uint256"
				},
				{
					"internalType": "uint256",
					"name": "_totalLendShare1",
					"type": "uint256"
				},
				{
					"internalType": "uint256",
					"name": "_totalBorrowShare1",
					"type": "uint256"
				},
				{
					"internalType": "uint256",
					"name": "_totalBorrow1",
					"type": "uint256"
				},
				{
					"internalType": "uint256",
					"name": "_totalBalance1",
					"type": "uint256"
				},
				{
					"internalType": "uint256",
					"name": "_totalAvailableLiquidity1",
					"type": "uint256"
				}
			],
			"stateMutability": "view",
			"type": "function"
		},
		{
			"inputs": [
				{
					"internalType": "uint256",
					"name": "",
					"type": "uint256"
				}
			],
			"name": "positionData",
			"outputs": [
				{
					"internalType": "uint256",
					"name": "token0lendShare",
					"type": "uint256"
				},
				{
					"internalType": "uint256",
					"name": "token1lendShare",
					"type": "uint256"
				},
				{
					"internalType": "uint256",
					"name": "token0borrowShare",
					"type": "uint256"
				},
				{
					"internalType": "uint256",
					"name": "token1borrowShare",
					"type": "uint256"
				}
			],
			"stateMutability": "view",
			"type": "function"
		},
		{
			"inputs": [
				{
					"internalType": "address",
					"name": "_receiver",
					"type": "address"
				},
				{
					"internalType": "int256",
					"name": "_amount",
					"type": "int256"
				}
			],
			"name": "processFlashLoan",
			"outputs": [],
			"stateMutability": "nonpayable",
			"type": "function"
		},
		{
			"inputs": [
				{
					"internalType": "uint256",
					"name": "_nftID",
					"type": "uint256"
				},
				{
					"internalType": "int256",
					"name": "tok_amount",
					"type": "int256"
				},
				{
					"internalType": "address",
					"name": "_receiver",
					"type": "address"
				}
			],
			"name": "redeem",
			"outputs": [
				{
					"internalType": "int256",
					"name": "_amount",
					"type": "int256"
				}
			],
			"stateMutability": "nonpayable",
			"type": "function"
		},
		{
			"inputs": [
				{
					"internalType": "uint256",
					"name": "_nftID",
					"type": "uint256"
				},
				{
					"internalType": "int256",
					"name": "_amount",
					"type": "int256"
				},
				{
					"internalType": "address",
					"name": "_receiver",
					"type": "address"
				}
			],
			"name": "redeemUnderlying",
			"outputs": [
				{
					"internalType": "int256",
					"name": "rtAmount",
					"type": "int256"
				}
			],
			"stateMutability": "nonpayable",
			"type": "function"
		},
		{
			"inputs": [
				{
					"internalType": "uint256",
					"name": "_nftID",
					"type": "uint256"
				},
				{
					"internalType": "int256",
					"name": "amount",
					"type": "int256"
				},
				{
					"internalType": "address",
					"name": "_payer",
					"type": "address"
				}
			],
			"name": "repay",
			"outputs": [
				{
					"internalType": "int256",
					"name": "_rAmount",
					"type": "int256"
				}
			],
			"stateMutability": "nonpayable",
			"type": "function"
		},
		{
			"inputs": [
				{
					"internalType": "address",
					"name": "_address",
					"type": "address"
				}
			],
			"name": "setInterestRateAddress",
			"outputs": [],
			"stateMutability": "nonpayable",
			"type": "function"
		},
		{
			"inputs": [
				{
					"internalType": "uint8",
					"name": "_number",
					"type": "uint8"
				}
			],
			"name": "setLB",
			"outputs": [],
			"stateMutability": "nonpayable",
			"type": "function"
		},
		{
			"inputs": [
				{
					"internalType": "uint8",
					"name": "_number",
					"type": "uint8"
				}
			],
			"name": "setLTV",
			"outputs": [],
			"stateMutability": "nonpayable",
			"type": "function"
		},
		{
			"inputs": [
				{
					"internalType": "uint8",
					"name": "_number",
					"type": "uint8"
				}
			],
			"name": "setRF",
			"outputs": [],
			"stateMutability": "nonpayable",
			"type": "function"
		},
		{
			"inputs": [],
			"name": "token0",
			"outputs": [
				{
					"internalType": "address",
					"name": "",
					"type": "address"
				}
			],
			"stateMutability": "view",
			"type": "function"
		},
		{
			"inputs": [],
			"name": "token0Data",
			"outputs": [
				{
					"internalType": "uint256",
					"name": "totalLendShare",
					"type": "uint256"
				},
				{
					"internalType": "uint256",
					"name": "totalBorrowShare",
					"type": "uint256"
				},
				{
					"internalType": "uint256",
					"name": "totalBorrow",
					"type": "uint256"
				}
			],
			"stateMutability": "view",
			"type": "function"
		},
		{
			"inputs": [],
			"name": "token1",
			"outputs": [
				{
					"internalType": "address",
					"name": "",
					"type": "address"
				}
			],
			"stateMutability": "view",
			"type": "function"
		},
		{
			"inputs": [],
			"name": "token1Data",
			"outputs": [
				{
					"internalType": "uint256",
					"name": "totalLendShare",
					"type": "uint256"
				},
				{
					"internalType": "uint256",
					"name": "totalBorrowShare",
					"type": "uint256"
				},
				{
					"internalType": "uint256",
					"name": "totalBorrow",
					"type": "uint256"
				}
			],
			"stateMutability": "view",
			"type": "function"
		},
		{
			"inputs": [
				{
					"internalType": "address",
					"name": "_distributorAddress",
					"type": "address"
				},
				{
					"internalType": "address",
					"name": "_token",
					"type": "address"
				},
				{
					"internalType": "uint256",
					"name": "_amount",
					"type": "uint256"
				}
			],
			"name": "transferFlashLoanProtocolFee",
			"outputs": [],
			"stateMutability": "nonpayable",
			"type": "function"
		},
		{
			"inputs": [
				{
					"internalType": "uint256",
					"name": "_nftID",
					"type": "uint256"
				}
			],
			"name": "userBalanceOftoken0",
			"outputs": [
				{
					"internalType": "uint256",
					"name": "_lendBalance0",
					"type": "uint256"
				},
				{
					"internalType": "uint256",
					"name": "_borrowBalance0",
					"type": "uint256"
				}
			],
			"stateMutability": "view",
			"type": "function"
		},
		{
			"inputs": [
				{
					"internalType": "uint256",
					"name": "_nftID",
					"type": "uint256"
				}
			],
			"name": "userBalanceOftoken1",
			"outputs": [
				{
					"internalType": "uint256",
					"name": "_lendBalance1",
					"type": "uint256"
				},
				{
					"internalType": "uint256",
					"name": "_borrowBalance1",
					"type": "uint256"
				}
			],
			"stateMutability": "view",
			"type": "function"
		},
		{
			"inputs": [
				{
					"internalType": "uint256",
					"name": "_nftID",
					"type": "uint256"
				}
			],
			"name": "userBalanceOftokens",
			"outputs": [
				{
					"internalType": "uint256",
					"name": "_lendBalance0",
					"type": "uint256"
				},
				{
					"internalType": "uint256",
					"name": "_borrowBalance0",
					"type": "uint256"
				},
				{
					"internalType": "uint256",
					"name": "_lendBalance1",
					"type": "uint256"
				},
				{
					"internalType": "uint256",
					"name": "_borrowBalance1",
					"type": "uint256"
				}
			],
			"stateMutability": "view",
			"type": "function"
		},
		{
			"inputs": [
				{
					"internalType": "uint256",
					"name": "_nftID",
					"type": "uint256"
				}
			],
			"name": "userHealthFactor",
			"outputs": [
				{
					"internalType": "uint256",
					"name": "_healthFactor0",
					"type": "uint256"
				},
				{
					"internalType": "uint256",
					"name": "_healthFactor1",
					"type": "uint256"
				}
			],
			"stateMutability": "view",
			"type": "function"
		},
		{
			"inputs": [
				{
					"internalType": "uint256",
					"name": "_nftID",
					"type": "uint256"
				}
			],
			"name": "userHealthFactorLtv",
			"outputs": [
				{
					"internalType": "uint256",
					"name": "_healthFactor0",
					"type": "uint256"
				},
				{
					"internalType": "uint256",
					"name": "_healthFactor1",
					"type": "uint256"
				}
			],
			"stateMutability": "view",
			"type": "function"
		},
		{
			"inputs": [
				{
					"internalType": "uint256",
					"name": "_nftID",
					"type": "uint256"
				}
			],
			"name": "userSharesOftoken0",
			"outputs": [
				{
					"internalType": "uint256",
					"name": "_lendShare0",
					"type": "uint256"
				},
				{
					"internalType": "uint256",
					"name": "_borrowShare0",
					"type": "uint256"
				}
			],
			"stateMutability": "view",
			"type": "function"
		},
		{
			"inputs": [
				{
					"internalType": "uint256",
					"name": "_nftID",
					"type": "uint256"
				}
			],
			"name": "userSharesOftoken1",
			"outputs": [
				{
					"internalType": "uint256",
					"name": "_lendShare1",
					"type": "uint256"
				},
				{
					"internalType": "uint256",
					"name": "_borrowShare1",
					"type": "uint256"
				}
			],
			"stateMutability": "view",
			"type": "function"
		},
		{
			"inputs": [
				{
					"internalType": "uint256",
					"name": "_nftID",
					"type": "uint256"
				}
			],
			"name": "userSharesOftokens",
			"outputs": [
				{
					"internalType": "uint256",
					"name": "_lendShare0",
					"type": "uint256"
				},
				{
					"internalType": "uint256",
					"name": "_borrowShare0",
					"type": "uint256"
				},
				{
					"internalType": "uint256",
					"name": "_lendShare1",
					"type": "uint256"
				},
				{
					"internalType": "uint256",
					"name": "_borrowShare1",
					"type": "uint256"
				}
			],
			"stateMutability": "view",
			"type": "function"
		}
	]
}