{
	"data": {
		"bytecode": {
			"linkReferences": {},
			"object": "60806040526005600855610bb86009556046600a60006101000a81548160ff021916908360ff160217905550600a8060016101000a81548160ff021916908360ff160217905550600a8060026101000a81548160ff021916908360ff1602179055503480156200006e57600080fd5b506040516200798438038062007984833981810160405281019062000094919062000201565b6001600081905550600073ffffffffffffffffffffffffffffffffffffffff168173ffffffffffffffffffffffffffffffffffffffff16036200010e576040517f08c379a0000000000000000000000000000000000000000000000000000000008152600401620001059062000294565b60405180910390fd5b33600160006101000a81548173ffffffffffffffffffffffffffffffffffffffff021916908373ffffffffffffffffffffffffffffffffffffffff16021790555080600360006101000a81548173ffffffffffffffffffffffffffffffffffffffff021916908373ffffffffffffffffffffffffffffffffffffffff16021790555050620002b6565b600080fd5b600073ffffffffffffffffffffffffffffffffffffffff82169050919050565b6000620001c9826200019c565b9050919050565b620001db81620001bc565b8114620001e757600080fd5b50565b600081519050620001fb81620001d0565b92915050565b6000602082840312156200021a576200021962000197565b5b60006200022a84828501620001ea565b91505092915050565b600082825260208201905092915050565b7f556e696c656e6456323a205a45524f2041444452455353000000000000000000600082015250565b60006200027c60178362000233565b9150620002898262000244565b602082019050919050565b60006020820190508181036000830152620002af816200026d565b9050919050565b6176be80620002c66000396000f3fe60806040526004361061024a5760003560e01c806382626547116101395780639747d94f116100b6578063b3716d491161007a578063b3716d491461095f578063c3d3cb8e1461098a578063c42cf535146109c8578063ca4f2803146109f1578063e343361514610a2f578063e96466d014610a6c57610251565b80639747d94f14610866578063a51af4c51461088f578063a89ae4ba146108ba578063abdb31e4146108e5578063ad1b188b1461092257610251565b80638dee9460116100fd5780638dee94601461075a5780638f484f371461078357806392cbbd15146107ae57806394a76cbb146107ec578063968224f51461082957610251565b8063826265471461064b57806386c1c74d14610688578063878fa60a146106b357806387950f49146106f35780638dabcaf31461071c57610251565b80634c69c00f116101c75780635c7c67181161018b5780635c7c67181461053d578063627c1a9a1461057d578063651791ae146105a657806367861dc1146105e45780636f44a6ad1461062257610251565b80634c69c00f14610445578063531aa03e1461046e5780635585fff1146104ab5780635833cdf9146104d4578063586feb401461051157610251565b8063199a692f1161020e578063199a692f146103635780632816d4401461038c57806329317a22146103b55780632f52b02a146103de57806337ef51eb1461040757610251565b8063081e3eda146102565780630c340a24146102815780631030914e146102ac5780631668355d146102e957806318fcb9611461032657610251565b3661025157005b600080fd5b34801561026257600080fd5b5061026b610aa9565b60405161027891906158e3565b60405180910390f35b34801561028d57600080fd5b50610296610aaf565b6040516102a3919061593f565b60405180910390f35b3480156102b857600080fd5b506102d360048036038101906102ce9190615990565b610ad5565b6040516102e0919061593f565b60405180910390f35b3480156102f557600080fd5b50610310600480360381019061030b9190615a3e565b610b7c565b60405161031d9190615ac8565b60405180910390f35b34801561033257600080fd5b5061034d60048036038101906103489190615ae3565b61106c565b60405161035a91906158e3565b60405180910390f35b34801561036f57600080fd5b5061038a60048036038101906103859190615ae3565b611127565b005b34801561039857600080fd5b506103b360048036038101906103ae9190615ae3565b61133e565b005b3480156103c157600080fd5b506103dc60048036038101906103d79190615b49565b6114c4565b005b3480156103ea57600080fd5b5061040560048036038101906104009190615b89565b61165c565b005b34801561041357600080fd5b5061042e60048036038101906104299190615990565b61188a565b60405161043c929190615bdc565b60405180910390f35b34801561045157600080fd5b5061046c60048036038101906104679190615ae3565b611a06565b005b34801561047a57600080fd5b5061049560048036038101906104909190615990565b611b8c565b6040516104a2919061593f565b60405180910390f35b3480156104b757600080fd5b506104d260048036038101906104cd9190615b49565b611bce565b005b3480156104e057600080fd5b506104fb60048036038101906104f69190615c05565b611d66565b6040516105089190615ac8565b60405180910390f35b34801561051d57600080fd5b50610526611faa565b604051610534929190615bdc565b60405180910390f35b34801561054957600080fd5b50610564600480360381019061055f9190615990565b611fbb565b6040516105749493929190615c58565b60405180910390f35b34801561058957600080fd5b506105a4600480360381019061059f9190615b49565b612145565b005b3480156105b257600080fd5b506105cd60048036038101906105c89190615990565b6122dd565b6040516105db929190615bdc565b60405180910390f35b3480156105f057600080fd5b5061060b60048036038101906106069190615990565b612459565b604051610619929190615bdc565b60405180910390f35b34801561062e57600080fd5b5061064960048036038101906106449190615990565b6125d5565b005b34801561065757600080fd5b50610672600480360381019061066d9190615c05565b612787565b60405161067f9190615ac8565b60405180910390f35b34801561069457600080fd5b5061069d612a96565b6040516106aa919061593f565b60405180910390f35b3480156106bf57600080fd5b506106da60048036038101906106d59190615990565b612abc565b6040516106ea9493929190615c58565b60405180910390f35b3480156106ff57600080fd5b5061071a60048036038101906107159190615cdb565b612c46565b005b34801561072857600080fd5b50610743600480360381019061073e9190615990565b612d89565b604051610751929190615bdc565b60405180910390f35b34801561076657600080fd5b50610781600480360381019061077c9190615d34565b612f05565b005b34801561078f57600080fd5b506107986133a5565b6040516107a5919061593f565b60405180910390f35b3480156107ba57600080fd5b506107d560048036038101906107d09190615990565b6133cb565b6040516107e3929190615bdc565b60405180910390f35b3480156107f857600080fd5b50610813600480360381019061080e9190615d9b565b613547565b60405161082091906158e3565b60405180910390f35b34801561083557600080fd5b50610850600480360381019061084b9190615ea9565b6135f2565b60405161085d9190615ac8565b60405180910390f35b34801561087257600080fd5b5061088d60048036038101906108889190615fbb565b613a0b565b005b34801561089b57600080fd5b506108a4613ebc565b6040516108b19190616052565b60405180910390f35b3480156108c657600080fd5b506108cf613ee2565b6040516108dc919061593f565b60405180910390f35b3480156108f157600080fd5b5061090c6004803603810190610907919061606d565b613f08565b60405161091991906158e3565b60405180910390f35b34801561092e57600080fd5b50610949600480360381019061094491906160ad565b61419b565b60405161095691906160fc565b60405180910390f35b34801561096b57600080fd5b506109746142e5565b604051610981919061593f565b60405180910390f35b34801561099657600080fd5b506109b160048036038101906109ac9190615ae3565b61430b565b6040516109bf929190615bdc565b60405180910390f35b3480156109d457600080fd5b506109ef60048036038101906109ea9190615ae3565b614439565b005b3480156109fd57600080fd5b50610a186004803603810190610a139190615ae3565b6145bf565b604051610a26929190616117565b60405180910390f35b348015610a3b57600080fd5b50610a566004803603810190610a519190615990565b6146d0565b604051610a63919061593f565b60405180910390f35b348015610a7857600080fd5b50610a936004803603810190610a8e9190615c05565b614e7d565b604051610aa09190615ac8565b60405180910390f35b60075481565b600160009054906101000a900473ffffffffffffffffffffffffffffffffffffffff1681565b6000600b60008473ffffffffffffffffffffffffffffffffffffffff1673ffffffffffffffffffffffffffffffffffffffff16815260200190815260200160002060008373ffffffffffffffffffffffffffffffffffffffff1673ffffffffffffffffffffffffffffffffffffffff16815260200190815260200160002060009054906101000a900473ffffffffffffffffffffffffffffffffffffffff16905092915050565b60008360008103610bc2576040517f08c379a0000000000000000000000000000000000000000000000000000000008152600401610bb99061619d565b60405180910390fd5b600260005403610c07576040517f08c379a0000000000000000000000000000000000000000000000000000000008152600401610bfe90616209565b60405180910390fd5b6002600081905550600080610c1b896145bf565b91509150600073ffffffffffffffffffffffffffffffffffffffff168273ffffffffffffffffffffffffffffffffffffffff1603610c8e576040517f08c379a0000000000000000000000000000000000000000000000000000000008152600401610c8590616275565b60405180910390fd5b600089905060003390506000600660009054906101000a900473ffffffffffffffffffffffffffffffffffffffff1673ffffffffffffffffffffffffffffffffffffffff16634b7cab4a8d8d6040518363ffffffff1660e01b8152600401610cf7929190616117565b602060405180830381865afa158015610d14573d6000803e3d6000fd5b505050506040513d601f19601f82011682018060405250810190610d3891906162aa565b905060008111610d7d576040517f08c379a0000000000000000000000000000000000000000000000000000000008152600401610d7490616323565b60405180910390fd5b8715610f59576000600660009054906101000a900473ffffffffffffffffffffffffffffffffffffffff1673ffffffffffffffffffffffffffffffffffffffff16634b7cab4a8e8c6040518363ffffffff1660e01b8152600401610de2929190616117565b602060405180830381865afa158015610dff573d6000803e3d6000fd5b505050506040513d601f19601f82011682018060405250810190610e2391906162aa565b905060008103610ed057600660009054906101000a900473ffffffffffffffffffffffffffffffffffffffff1673ffffffffffffffffffffffffffffffffffffffff1663116310658e8c6040518363ffffffff1660e01b8152600401610e8a929190616117565b6020604051808303816000875af1158015610ea9573d6000803e3d6000fd5b505050506040513d601f19601f82011682018060405250810190610ecd91906162aa565b90505b8373ffffffffffffffffffffffffffffffffffffffff1662cb8e22838d8d856040518563ffffffff1660e01b8152600401610f0e9493929190616343565b6020604051808303816000875af1158015610f2d573d6000803e3d6000fd5b505050506040513d601f19601f82011682018060405250810190610f51919061639d565b975050610fde565b8273ffffffffffffffffffffffffffffffffffffffff1662cb8e22828c8c60006040518563ffffffff1660e01b8152600401610f98949392919061640f565b6020604051808303816000875af1158015610fb7573d6000803e3d6000fd5b505050506040513d601f19601f82011682018060405250810190610fdb919061639d565b96505b600087121561101e5761101d828d89610ff690616483565b8873ffffffffffffffffffffffffffffffffffffffff16615106909392919063ffffffff16565b5b600087131561105557611054828d898773ffffffffffffffffffffffffffffffffffffffff16615106909392919063ffffffff16565b5b505050505060016000819055505095945050505050565b600080611078836145bf565b509050600073ffffffffffffffffffffffffffffffffffffffff168173ffffffffffffffffffffffffffffffffffffffff1614611121578273ffffffffffffffffffffffffffffffffffffffff16634ed2b8ac6040518163ffffffff1660e01b8152600401602060405180830381865afa1580156110fa573d6000803e3d6000fd5b505050506040513d601f19601f8201168201806040525081019061111e91906162aa565b91505b50919050565b3373ffffffffffffffffffffffffffffffffffffffff16600160009054906101000a900473ffffffffffffffffffffffffffffffffffffffff1673ffffffffffffffffffffffffffffffffffffffff16146111b7576040517f08c379a00000000000000000000000000000000000000000000000000000000081526004016111ae90616517565b60405180910390fd5b600073ffffffffffffffffffffffffffffffffffffffff168173ffffffffffffffffffffffffffffffffffffffff1603611226576040517f08c379a000000000000000000000000000000000000000000000000000000000815260040161121d90616583565b60405180910390fd5b600073ffffffffffffffffffffffffffffffffffffffff16600660009054906101000a900473ffffffffffffffffffffffffffffffffffffffff1673ffffffffffffffffffffffffffffffffffffffff16146112b7576040517f08c379a00000000000000000000000000000000000000000000000000000000081526004016112ae90616615565b60405180910390fd5b80600660006101000a81548173ffffffffffffffffffffffffffffffffffffffff021916908373ffffffffffffffffffffffffffffffffffffffff1602179055508073ffffffffffffffffffffffffffffffffffffffff167fd1bee18dac08eaf4a21f4327b1c36d39ace87f0f53021d8ddd81a78b3e3c3f9460405160405180910390a250565b3373ffffffffffffffffffffffffffffffffffffffff16600160009054906101000a900473ffffffffffffffffffffffffffffffffffffffff1673ffffffffffffffffffffffffffffffffffffffff16146113ce576040517f08c379a00000000000000000000000000000000000000000000000000000000081526004016113c590616517565b60405180910390fd5b600073ffffffffffffffffffffffffffffffffffffffff168173ffffffffffffffffffffffffffffffffffffffff160361143d576040517f08c379a000000000000000000000000000000000000000000000000000000000815260040161143490616583565b60405180910390fd5b80600260006101000a81548173ffffffffffffffffffffffffffffffffffffffff021916908373ffffffffffffffffffffffffffffffffffffffff1602179055508073ffffffffffffffffffffffffffffffffffffffff167f084ca56628a3b53cf3ed4e99326974896a563e32dc49afa1ea8d3481cc23067d60405160405180910390a250565b3373ffffffffffffffffffffffffffffffffffffffff16600160009054906101000a900473ffffffffffffffffffffffffffffffffffffffff1673ffffffffffffffffffffffffffffffffffffffff1614611554576040517f08c379a000000000000000000000000000000000000000000000000000000000815260040161154b90616517565b60405180910390fd5b60008160ff1611801561156a575060638160ff16105b6115a9576040517f08c379a00000000000000000000000000000000000000000000000000000000081526004016115a090616681565b60405180910390fd5b60006115b4836145bf565b509050600073ffffffffffffffffffffffffffffffffffffffff168173ffffffffffffffffffffffffffffffffffffffff1614611657578273ffffffffffffffffffffffffffffffffffffffff16633d101c12836040518263ffffffff1660e01b815260040161162491906166b0565b600060405180830381600087803b15801561163e57600080fd5b505af1158015611652573d6000803e3d6000fd5b505050505b505050565b3373ffffffffffffffffffffffffffffffffffffffff16600160009054906101000a900473ffffffffffffffffffffffffffffffffffffffff1673ffffffffffffffffffffffffffffffffffffffff16146116ec576040517f08c379a00000000000000000000000000000000000000000000000000000000081526004016116e390616517565b60405180910390fd5b60008360ff16118015611702575060638360ff16105b611741576040517f08c379a000000000000000000000000000000000000000000000000000000000815260040161173890616681565b60405180910390fd5b60008260ff16118015611765575082606461175c91906166cb565b60ff168260ff16105b6117a4576040517f08c379a000000000000000000000000000000000000000000000000000000000815260040161179b90616681565b60405180910390fd5b60008160ff161180156117ba5750605a8160ff16105b6117f9576040517f08c379a00000000000000000000000000000000000000000000000000000000081526004016117f090616681565b60405180910390fd5b82600a60006101000a81548160ff021916908360ff16021790555081600a60016101000a81548160ff021916908360ff16021790555080600a60026101000a81548160ff021916908360ff1602179055507f34d4be8efaba2086807b9b61a5f36c72fceba595d95d97e8551952129bda923b83838360405161187d93929190616700565b60405180910390a1505050565b6000806000611898856145bf565b509050600073ffffffffffffffffffffffffffffffffffffffff168173ffffffffffffffffffffffffffffffffffffffff16146119fe576000600660009054906101000a900473ffffffffffffffffffffffffffffffffffffffff1673ffffffffffffffffffffffffffffffffffffffff16634b7cab4a87876040518363ffffffff1660e01b815260040161192e929190616117565b602060405180830381865afa15801561194b573d6000803e3d6000fd5b505050506040513d601f19601f8201168201806040525081019061196f91906162aa565b905060008111156119fc578573ffffffffffffffffffffffffffffffffffffffff1663d336bbd5826040518263ffffffff1660e01b81526004016119b391906158e3565b6040805180830381865afa1580156119cf573d6000803e3d6000fd5b505050506040513d601f19601f820116820180604052508101906119f39190616737565b80945081955050505b505b509250929050565b3373ffffffffffffffffffffffffffffffffffffffff16600160009054906101000a900473ffffffffffffffffffffffffffffffffffffffff1673ffffffffffffffffffffffffffffffffffffffff1614611a96576040517f08c379a0000000000000000000000000000000000000000000000000000000008152600401611a8d90616517565b60405180910390fd5b600073ffffffffffffffffffffffffffffffffffffffff168173ffffffffffffffffffffffffffffffffffffffff1603611b05576040517f08c379a0000000000000000000000000000000000000000000000000000000008152600401611afc90616583565b60405180910390fd5b80600560006101000a81548173ffffffffffffffffffffffffffffffffffffffff021916908373ffffffffffffffffffffffffffffffffffffffff1602179055508073ffffffffffffffffffffffffffffffffffffffff167f83b00e25c000adada62072ff4992b6702b635a6e3d57e135bbd60a01be113ead60405160405180910390a250565b600b6020528160005260406000206020528060005260406000206000915091509054906101000a900473ffffffffffffffffffffffffffffffffffffffff1681565b3373ffffffffffffffffffffffffffffffffffffffff16600160009054906101000a900473ffffffffffffffffffffffffffffffffffffffff1673ffffffffffffffffffffffffffffffffffffffff1614611c5e576040517f08c379a0000000000000000000000000000000000000000000000000000000008152600401611c5590616517565b60405180910390fd5b60008160ff16118015611c74575060638160ff16105b611cb3576040517f08c379a0000000000000000000000000000000000000000000000000000000008152600401611caa90616681565b60405180910390fd5b6000611cbe836145bf565b509050600073ffffffffffffffffffffffffffffffffffffffff168173ffffffffffffffffffffffffffffffffffffffff1614611d61578273ffffffffffffffffffffffffffffffffffffffff166307dc8ce3836040518263ffffffff1660e01b8152600401611d2e91906166b0565b600060405180830381600087803b158015611d4857600080fd5b505af1158015611d5c573d6000803e3d6000fd5b505050505b505050565b6000600260005403611dad576040517f08c379a0000000000000000000000000000000000000000000000000000000008152600401611da490616209565b60405180910390fd5b60026000819055506000611dc0856145bf565b509050600073ffffffffffffffffffffffffffffffffffffffff168173ffffffffffffffffffffffffffffffffffffffff1603611e32576040517f08c379a0000000000000000000000000000000000000000000000000000000008152600401611e2990616275565b60405180910390fd5b6000600660009054906101000a900473ffffffffffffffffffffffffffffffffffffffff1673ffffffffffffffffffffffffffffffffffffffff16634b7cab4a87336040518363ffffffff1660e01b8152600401611e91929190616117565b602060405180830381865afa158015611eae573d6000803e3d6000fd5b505050506040513d601f19601f82011682018060405250810190611ed291906162aa565b905060008111611f17576040517f08c379a0000000000000000000000000000000000000000000000000000000008152600401611f0e90616323565b60405180910390fd5b8573ffffffffffffffffffffffffffffffffffffffff16632b8ebe8b8287876040518463ffffffff1660e01b8152600401611f5493929190616777565b6020604051808303816000875af1158015611f73573d6000803e3d6000fd5b505050506040513d601f19601f82011682018060405250810190611f97919061639d565b9250505060016000819055509392505050565b600080600854600954915091509091565b6000806000806000611fcc876145bf565b509050600073ffffffffffffffffffffffffffffffffffffffff168173ffffffffffffffffffffffffffffffffffffffff161461213b576000600660009054906101000a900473ffffffffffffffffffffffffffffffffffffffff1673ffffffffffffffffffffffffffffffffffffffff16634b7cab4a89896040518363ffffffff1660e01b8152600401612062929190616117565b602060405180830381865afa15801561207f573d6000803e3d6000fd5b505050506040513d601f19601f820116820180604052508101906120a391906162aa565b90506000811115612139578773ffffffffffffffffffffffffffffffffffffffff166377ff1ef1826040518263ffffffff1660e01b81526004016120e791906158e3565b608060405180830381865afa158015612104573d6000803e3d6000fd5b505050506040513d601f19601f8201168201806040525081019061212891906167ae565b809650819750829850839950505050505b505b5092959194509250565b3373ffffffffffffffffffffffffffffffffffffffff16600160009054906101000a900473ffffffffffffffffffffffffffffffffffffffff1673ffffffffffffffffffffffffffffffffffffffff16146121d5576040517f08c379a00000000000000000000000000000000000000000000000000000000081526004016121cc90616517565b60405180910390fd5b60008160ff161180156121eb575060638160ff16105b61222a576040517f08c379a000000000000000000000000000000000000000000000000000000000815260040161222190616681565b60405180910390fd5b6000612235836145bf565b509050600073ffffffffffffffffffffffffffffffffffffffff168173ffffffffffffffffffffffffffffffffffffffff16146122d8578273ffffffffffffffffffffffffffffffffffffffff1663aad2476d836040518263ffffffff1660e01b81526004016122a591906166b0565b600060405180830381600087803b1580156122bf57600080fd5b505af11580156122d3573d6000803e3d6000fd5b505050505b505050565b60008060006122eb856145bf565b509050600073ffffffffffffffffffffffffffffffffffffffff168173ffffffffffffffffffffffffffffffffffffffff1614612451576000600660009054906101000a900473ffffffffffffffffffffffffffffffffffffffff1673ffffffffffffffffffffffffffffffffffffffff16634b7cab4a87876040518363ffffffff1660e01b8152600401612381929190616117565b602060405180830381865afa15801561239e573d6000803e3d6000fd5b505050506040513d601f19601f820116820180604052508101906123c291906162aa565b9050600081111561244f578573ffffffffffffffffffffffffffffffffffffffff166388a0a1c7826040518263ffffffff1660e01b815260040161240691906158e3565b6040805180830381865afa158015612422573d6000803e3d6000fd5b505050506040513d601f19601f820116820180604052508101906124469190616737565b80945081955050505b505b509250929050565b6000806000612467856145bf565b509050600073ffffffffffffffffffffffffffffffffffffffff168173ffffffffffffffffffffffffffffffffffffffff16146125cd576000600660009054906101000a900473ffffffffffffffffffffffffffffffffffffffff1673ffffffffffffffffffffffffffffffffffffffff16634b7cab4a87876040518363ffffffff1660e01b81526004016124fd929190616117565b602060405180830381865afa15801561251a573d6000803e3d6000fd5b505050506040513d601f19601f8201168201806040525081019061253e91906162aa565b905060008111156125cb578573ffffffffffffffffffffffffffffffffffffffff1663a93d1e64826040518263ffffffff1660e01b815260040161258291906158e3565b6040805180830381865afa15801561259e573d6000803e3d6000fd5b505050506040513d601f19601f820116820180604052508101906125c29190616737565b80945081955050505b505b509250929050565b3373ffffffffffffffffffffffffffffffffffffffff16600160009054906101000a900473ffffffffffffffffffffffffffffffffffffffff1673ffffffffffffffffffffffffffffffffffffffff1614612665576040517f08c379a000000000000000000000000000000000000000000000000000000000815260040161265c90616517565b60405180910390fd5b600073ffffffffffffffffffffffffffffffffffffffff168173ffffffffffffffffffffffffffffffffffffffff16036126d4576040517f08c379a00000000000000000000000000000000000000000000000000000000081526004016126cb90616583565b60405180910390fd5b60006126df836145bf565b509050600073ffffffffffffffffffffffffffffffffffffffff168173ffffffffffffffffffffffffffffffffffffffff1614612782578273ffffffffffffffffffffffffffffffffffffffff166373748381836040518263ffffffff1660e01b815260040161274f919061593f565b600060405180830381600087803b15801561276957600080fd5b505af115801561277d573d6000803e3d6000fd5b505050505b505050565b600082600081036127cd576040517f08c379a00000000000000000000000000000000000000000000000000000000081526004016127c49061619d565b60405180910390fd5b600260005403612812576040517f08c379a000000000000000000000000000000000000000000000000000000000815260040161280990616209565b60405180910390fd5b6002600081905550600080612826876145bf565b91509150600073ffffffffffffffffffffffffffffffffffffffff168273ffffffffffffffffffffffffffffffffffffffff1603612899576040517f08c379a000000000000000000000000000000000000000000000000000000000815260040161289090616275565b60405180910390fd5b600087905060003390506000600660009054906101000a900473ffffffffffffffffffffffffffffffffffffffff1673ffffffffffffffffffffffffffffffffffffffff16634b7cab4a8b8a6040518363ffffffff1660e01b8152600401612902929190616117565b602060405180830381865afa15801561291f573d6000803e3d6000fd5b505050506040513d601f19601f8201168201806040525081019061294391906162aa565b905060008111612988576040517f08c379a000000000000000000000000000000000000000000000000000000000815260040161297f90616323565b60405180910390fd5b8273ffffffffffffffffffffffffffffffffffffffff1663c838249e828b856040518463ffffffff1660e01b81526004016129c593929190616777565b6020604051808303816000875af11580156129e4573d6000803e3d6000fd5b505050506040513d601f19601f82011682018060405250810190612a08919061639d565b96506000871215612a4a57612a49828b89612a2290616483565b8873ffffffffffffffffffffffffffffffffffffffff16615106909392919063ffffffff16565b5b6000871315612a8157612a80828b898773ffffffffffffffffffffffffffffffffffffffff16615106909392919063ffffffff16565b5b50505050506001600081905550509392505050565b600260009054906101000a900473ffffffffffffffffffffffffffffffffffffffff1681565b6000806000806000612acd876145bf565b509050600073ffffffffffffffffffffffffffffffffffffffff168173ffffffffffffffffffffffffffffffffffffffff1614612c3c576000600660009054906101000a900473ffffffffffffffffffffffffffffffffffffffff1673ffffffffffffffffffffffffffffffffffffffff16634b7cab4a89896040518363ffffffff1660e01b8152600401612b63929190616117565b602060405180830381865afa158015612b80573d6000803e3d6000fd5b505050506040513d601f19601f82011682018060405250810190612ba491906162aa565b90506000811115612c3a578773ffffffffffffffffffffffffffffffffffffffff166302394888826040518263ffffffff1660e01b8152600401612be891906158e3565b608060405180830381865afa158015612c05573d6000803e3d6000fd5b505050506040513d601f19601f82011682018060405250810190612c2991906167ae565b809650819750829850839950505050505b505b5092959194509250565b3373ffffffffffffffffffffffffffffffffffffffff16600160009054906101000a900473ffffffffffffffffffffffffffffffffffffffff1673ffffffffffffffffffffffffffffffffffffffff1614612cd6576040517f08c379a0000000000000000000000000000000000000000000000000000000008152600401612ccd90616517565b60405180910390fd5b600073ffffffffffffffffffffffffffffffffffffffff168173ffffffffffffffffffffffffffffffffffffffff1603612d45576040517f08c379a0000000000000000000000000000000000000000000000000000000008152600401612d3c90616583565b60405180910390fd5b80600460006101000a81548173ffffffffffffffffffffffffffffffffffffffff021916908373ffffffffffffffffffffffffffffffffffffffff16021790555050565b6000806000612d97856145bf565b509050600073ffffffffffffffffffffffffffffffffffffffff168173ffffffffffffffffffffffffffffffffffffffff1614612efd576000600660009054906101000a900473ffffffffffffffffffffffffffffffffffffffff1673ffffffffffffffffffffffffffffffffffffffff16634b7cab4a87876040518363ffffffff1660e01b8152600401612e2d929190616117565b602060405180830381865afa158015612e4a573d6000803e3d6000fd5b505050506040513d601f19601f82011682018060405250810190612e6e91906162aa565b90506000811115612efb578573ffffffffffffffffffffffffffffffffffffffff166384ee000c826040518263ffffffff1660e01b8152600401612eb291906158e3565b6040805180830381865afa158015612ece573d6000803e3d6000fd5b505050506040513d601f19601f82011682018060405250810190612ef29190616737565b80945081955050505b505b509250929050565b8260008103612f49576040517f08c379a0000000000000000000000000000000000000000000000000000000008152600401612f409061619d565b60405180910390fd5b600260005403612f8e576040517f08c379a0000000000000000000000000000000000000000000000000000000008152600401612f8590616209565b60405180910390fd5b6002600081905550600080612fa2876145bf565b91509150600073ffffffffffffffffffffffffffffffffffffffff168273ffffffffffffffffffffffffffffffffffffffff1603613015576040517f08c379a000000000000000000000000000000000000000000000000000000000815260040161300c90616275565b60405180910390fd5b600087905060003390506000600660009054906101000a900473ffffffffffffffffffffffffffffffffffffffff1673ffffffffffffffffffffffffffffffffffffffff16634b7cab4a8b846040518363ffffffff1660e01b815260040161307e929190616117565b602060405180830381865afa15801561309b573d6000803e3d6000fd5b505050506040513d601f19601f820116820180604052508101906130bf91906162aa565b90506000810361316c57600660009054906101000a900473ffffffffffffffffffffffffffffffffffffffff1673ffffffffffffffffffffffffffffffffffffffff1663116310658b846040518363ffffffff1660e01b8152600401613126929190616117565b6020604051808303816000875af1158015613145573d6000803e3d6000fd5b505050506040513d601f19601f8201168201806040525081019061316991906162aa565b90505b6000891215613247578861317f90616483565b8373ffffffffffffffffffffffffffffffffffffffff166385e907606040518163ffffffff1660e01b8152600401602060405180830381865afa1580156131ca573d6000803e3d6000fd5b505050506040513d601f19601f820116820180604052508101906131ee91906162aa565b101561322f576040517f08c379a000000000000000000000000000000000000000000000000000000000815260040161322690616887565b60405180910390fd5b6000881115613246576132448a858a8461518f565b505b5b600089131561332257888373ffffffffffffffffffffffffffffffffffffffff166369f4e52d6040518163ffffffff1660e01b8152600401602060405180830381865afa15801561329c573d6000803e3d6000fd5b505050506040513d601f19601f820116820180604052508101906132c091906162aa565b1015613301576040517f08c379a00000000000000000000000000000000000000000000000000000000081526004016132f890616919565b60405180910390fd5b60008811156133215761331f8a868a61331990616483565b8461518f565b505b5b8273ffffffffffffffffffffffffffffffffffffffff1663f7ad458b828b8a6040518463ffffffff1660e01b815260040161335f93929190616939565b600060405180830381600087803b15801561337957600080fd5b505af115801561338d573d6000803e3d6000fd5b50505050505050505060016000819055505050505050565b600360009054906101000a900473ffffffffffffffffffffffffffffffffffffffff1681565b60008060006133d9856145bf565b509050600073ffffffffffffffffffffffffffffffffffffffff168173ffffffffffffffffffffffffffffffffffffffff161461353f576000600660009054906101000a900473ffffffffffffffffffffffffffffffffffffffff1673ffffffffffffffffffffffffffffffffffffffff16634b7cab4a87876040518363ffffffff1660e01b815260040161346f929190616117565b602060405180830381865afa15801561348c573d6000803e3d6000fd5b505050506040513d601f19601f820116820180604052508101906134b091906162aa565b9050600081111561353d578573ffffffffffffffffffffffffffffffffffffffff16639e83b078826040518263ffffffff1660e01b81526004016134f491906158e3565b6040805180830381865afa158015613510573d6000803e3d6000fd5b505050506040513d601f19601f820116820180604052508101906135349190616737565b80945081955050505b505b509250929050565b6000600560009054906101000a900473ffffffffffffffffffffffffffffffffffffffff1673ffffffffffffffffffffffffffffffffffffffff16635b2e4dc58486856040518463ffffffff1660e01b81526004016135a893929190616970565b602060405180830381865afa1580156135c5573d6000803e3d6000fd5b505050506040513d601f19601f820116820180604052508101906135e991906162aa565b90509392505050565b6000600260005403613639576040517f08c379a000000000000000000000000000000000000000000000000000000000815260040161363090616209565b60405180910390fd5b600260008190555060008061364d8a6145bf565b91509150600073ffffffffffffffffffffffffffffffffffffffff168273ffffffffffffffffffffffffffffffffffffffff16036136c0576040517f08c379a00000000000000000000000000000000000000000000000000000000081526004016136b790616275565b60405180910390fd5b868690508989905014613708576040517f08c379a00000000000000000000000000000000000000000000000000000000081526004016136ff906169f3565b60405180910390fd5b60008a9050600033905085156138f3576000600660009054906101000a900473ffffffffffffffffffffffffffffffffffffffff1673ffffffffffffffffffffffffffffffffffffffff16634b7cab4a8e8a6040518363ffffffff1660e01b8152600401613777929190616117565b602060405180830381865afa158015613794573d6000803e3d6000fd5b505050506040513d601f19601f820116820180604052508101906137b891906162aa565b90506000810361386557600660009054906101000a900473ffffffffffffffffffffffffffffffffffffffff1673ffffffffffffffffffffffffffffffffffffffff1663116310658e8a6040518363ffffffff1660e01b815260040161381f929190616117565b6020604051808303816000875af115801561383e573d6000803e3d6000fd5b505050506040513d601f19601f8201168201806040525081019061386291906162aa565b90505b8273ffffffffffffffffffffffffffffffffffffffff16632b23ae498d8d8d8d8d876040518763ffffffff1660e01b81526004016138a896959493929190616b51565b6020604051808303816000875af11580156138c7573d6000803e3d6000fd5b505050506040513d601f19601f820116820180604052508101906138eb919061639d565b95505061397d565b8173ffffffffffffffffffffffffffffffffffffffff16632b23ae498c8c8c8c8c60006040518763ffffffff1660e01b815260040161393796959493929190616ba8565b6020604051808303816000875af1158015613956573d6000803e3d6000fd5b505050506040513d601f19601f8201168201806040525081019061397a919061639d565b94505b60008512156139bd576139bc818d8761399590616483565b8773ffffffffffffffffffffffffffffffffffffffff16615106909392919063ffffffff16565b5b60008513156139f4576139f3818d878673ffffffffffffffffffffffffffffffffffffffff16615106909392919063ffffffff16565b5b505050506001600081905550979650505050505050565b600260005403613a50576040517f08c379a0000000000000000000000000000000000000000000000000000000008152600401613a4790616209565b60405180910390fd5b6002600081905550600080613a64866145bf565b91509150600073ffffffffffffffffffffffffffffffffffffffff168273ffffffffffffffffffffffffffffffffffffffff1603613ad7576040517f08c379a0000000000000000000000000000000000000000000000000000000008152600401613ace90616275565b60405180910390fd5b6000808612613ae65781613ae8565b825b90506000808712613af95786613b04565b86613b0390616483565b5b905060008273ffffffffffffffffffffffffffffffffffffffff166370a082318a6040518263ffffffff1660e01b8152600401613b41919061593f565b602060405180830381865afa158015613b5e573d6000803e3d6000fd5b505050506040513d601f19601f82011682018060405250810190613b8291906162aa565b905081811015613bc7576040517f08c379a0000000000000000000000000000000000000000000000000000000008152600401613bbe90616c71565b60405180910390fd5b600080613bd2611faa565b915091506000613bff612710613bf1858861551890919063ffffffff16565b61552e90919063ffffffff16565b90506000613c2a612710613c1c858561551890919063ffffffff16565b61552e90919063ffffffff16565b9050600082118015613c3c5750600081115b613c7b576040517f08c379a0000000000000000000000000000000000000000000000000000000008152600401613c7290616d03565b60405180910390fd5b8c73ffffffffffffffffffffffffffffffffffffffff16638c3b690d8f8e6040518363ffffffff1660e01b8152600401613cb6929190616d23565b600060405180830381600087803b158015613cd057600080fd5b505af1158015613ce4573d6000803e3d6000fd5b505050508d73ffffffffffffffffffffffffffffffffffffffff1663ee8725588888858f8f6040518663ffffffff1660e01b8152600401613d29959493929190616daa565b600060405180830381600087803b158015613d4357600080fd5b505af1158015613d57573d6000803e3d6000fd5b5050505060008773ffffffffffffffffffffffffffffffffffffffff166370a082318f6040518263ffffffff1660e01b8152600401613d96919061593f565b602060405180830381865afa158015613db3573d6000803e3d6000fd5b505050506040513d601f19601f82011682018060405250810190613dd791906162aa565b9050613dec838761554490919063ffffffff16565b8114613e2d576040517f08c379a0000000000000000000000000000000000000000000000000000000008152600401613e2490616e6a565b60405180910390fd5b613e388e898461555a565b8773ffffffffffffffffffffffffffffffffffffffff168f73ffffffffffffffffffffffffffffffffffffffff167fc2cc38a259b9814b48837a5ef563394b3270f0685c07092429fc52017f92acff8f868642604051613e9b9493929190616e8a565b60405180910390a35050505050505050505060016000819055505050505050565b600460009054906101000a900473ffffffffffffffffffffffffffffffffffffffff1681565b600560009054906101000a900473ffffffffffffffffffffffffffffffffffffffff1681565b60008160008103613f4e576040517f08c379a0000000000000000000000000000000000000000000000000000000008152600401613f459061619d565b60405180910390fd5b600260005403613f93576040517f08c379a0000000000000000000000000000000000000000000000000000000008152600401613f8a90616209565b60405180910390fd5b6002600081905550600080613fa7866145bf565b91509150600073ffffffffffffffffffffffffffffffffffffffff168273ffffffffffffffffffffffffffffffffffffffff160361401a576040517f08c379a000000000000000000000000000000000000000000000000000000000815260040161401190616275565b60405180910390fd5b6000600660009054906101000a900473ffffffffffffffffffffffffffffffffffffffff1673ffffffffffffffffffffffffffffffffffffffff16634b7cab4a88336040518363ffffffff1660e01b8152600401614079929190616117565b602060405180830381865afa158015614096573d6000803e3d6000fd5b505050506040513d601f19601f820116820180604052508101906140ba91906162aa565b90506000810361416757600660009054906101000a900473ffffffffffffffffffffffffffffffffffffffff1673ffffffffffffffffffffffffffffffffffffffff16631163106588336040518363ffffffff1660e01b8152600401614121929190616117565b6020604051808303816000875af1158015614140573d6000803e3d6000fd5b505050506040513d601f19601f8201168201806040525081019061416491906162aa565b90505b60008087126141765782614178565b835b90506141868882898561518f565b95505050505060016000819055505092915050565b60003373ffffffffffffffffffffffffffffffffffffffff16600160009054906101000a900473ffffffffffffffffffffffffffffffffffffffff1673ffffffffffffffffffffffffffffffffffffffff161461422d576040517f08c379a000000000000000000000000000000000000000000000000000000000815260040161422490616517565b60405180910390fd5b60008311801561423e575061271083105b61427d576040517f08c379a000000000000000000000000000000000000000000000000000000000815260040161427490616f41565b60405180910390fd5b60008211801561428e575061271082105b6142cd576040517f08c379a00000000000000000000000000000000000000000000000000000000081526004016142c490616fd3565b60405180910390fd5b82600881905550816009819055506001905092915050565b600660009054906101000a900473ffffffffffffffffffffffffffffffffffffffff1681565b6000806000614319846145bf565b509050600073ffffffffffffffffffffffffffffffffffffffff168173ffffffffffffffffffffffffffffffffffffffff1614614433578373ffffffffffffffffffffffffffffffffffffffff166385e907606040518163ffffffff1660e01b8152600401602060405180830381865afa15801561439b573d6000803e3d6000fd5b505050506040513d601f19601f820116820180604052508101906143bf91906162aa565b92508373ffffffffffffffffffffffffffffffffffffffff166369f4e52d6040518163ffffffff1660e01b8152600401602060405180830381865afa15801561440c573d6000803e3d6000fd5b505050506040513d601f19601f8201168201806040525081019061443091906162aa565b91505b50915091565b3373ffffffffffffffffffffffffffffffffffffffff16600160009054906101000a900473ffffffffffffffffffffffffffffffffffffffff1673ffffffffffffffffffffffffffffffffffffffff16146144c9576040517f08c379a00000000000000000000000000000000000000000000000000000000081526004016144c090616517565b60405180910390fd5b600073ffffffffffffffffffffffffffffffffffffffff168173ffffffffffffffffffffffffffffffffffffffff1603614538576040517f08c379a000000000000000000000000000000000000000000000000000000000815260040161452f90616583565b60405180910390fd5b80600160006101000a81548173ffffffffffffffffffffffffffffffffffffffff021916908373ffffffffffffffffffffffffffffffffffffffff1602179055508073ffffffffffffffffffffffffffffffffffffffff167f887312a808c8c8792f23debc8e3d3ab4830defa261de0e5e0056001ea3ceea9b60405160405180910390a250565b6000806000600c60008573ffffffffffffffffffffffffffffffffffffffff1673ffffffffffffffffffffffffffffffffffffffff1681526020019081526020016000206040518060400160405290816000820160009054906101000a900473ffffffffffffffffffffffffffffffffffffffff1673ffffffffffffffffffffffffffffffffffffffff1673ffffffffffffffffffffffffffffffffffffffff1681526020016001820160009054906101000a900473ffffffffffffffffffffffffffffffffffffffff1673ffffffffffffffffffffffffffffffffffffffff1673ffffffffffffffffffffffffffffffffffffffff16815250509050806000015181602001519250925050915091565b60008060008373ffffffffffffffffffffffffffffffffffffffff168573ffffffffffffffffffffffffffffffffffffffff161061470f578385614712565b84845b91509150600073ffffffffffffffffffffffffffffffffffffffff168573ffffffffffffffffffffffffffffffffffffffff1603614785576040517f08c379a000000000000000000000000000000000000000000000000000000000815260040161477c90616583565b60405180910390fd5b8373ffffffffffffffffffffffffffffffffffffffff168573ffffffffffffffffffffffffffffffffffffffff16036147f3576040517f08c379a00000000000000000000000000000000000000000000000000000000081526004016147ea9061703f565b60405180910390fd5b600073ffffffffffffffffffffffffffffffffffffffff16600b60008473ffffffffffffffffffffffffffffffffffffffff1673ffffffffffffffffffffffffffffffffffffffff16815260200190815260200160002060008373ffffffffffffffffffffffffffffffffffffffff1673ffffffffffffffffffffffffffffffffffffffff16815260200190815260200160002060009054906101000a900473ffffffffffffffffffffffffffffffffffffffff1673ffffffffffffffffffffffffffffffffffffffff16146148fe576040517f08c379a00000000000000000000000000000000000000000000000000000000081526004016148f5906170ab565b60405180910390fd5b600080600360009054906101000a900473ffffffffffffffffffffffffffffffffffffffff1660601b905060008473ffffffffffffffffffffffffffffffffffffffff166318160ddd6040518163ffffffff1660e01b8152600401602060405180830381865afa158015614976573d6000803e3d6000fd5b505050506040513d601f19601f8201168201806040525081019061499a91906162aa565b116149da576040517f08c379a00000000000000000000000000000000000000000000000000000000081526004016149d190617117565b60405180910390fd5b60008373ffffffffffffffffffffffffffffffffffffffff166318160ddd6040518163ffffffff1660e01b8152600401602060405180830381865afa158015614a27573d6000803e3d6000fd5b505050506040513d601f19601f82011682018060405250810190614a4b91906162aa565b11614a8b576040517f08c379a0000000000000000000000000000000000000000000000000000000008152600401614a8290617117565b60405180910390fd5b6040517f3d602d80600a3d3981f3363d3d373d3d3d363d7300000000000000000000000081528160148201527f5af43d82803e903d91602b57fd5bf3000000000000000000000000000000000060288201526037816000f092505060008290508073ffffffffffffffffffffffffffffffffffffffff16627fdd458686600260009054906101000a900473ffffffffffffffffffffffffffffffffffffffff16600a60009054906101000a900460ff16600a60019054906101000a900460ff16600a60029054906101000a900460ff166040518763ffffffff1660e01b8152600401614b7c96959493929190617137565b600060405180830381600087803b158015614b9657600080fd5b505af1158015614baa573d6000803e3d6000fd5b505050506000600c60008373ffffffffffffffffffffffffffffffffffffffff1673ffffffffffffffffffffffffffffffffffffffff1681526020019081526020016000209050858160000160006101000a81548173ffffffffffffffffffffffffffffffffffffffff021916908373ffffffffffffffffffffffffffffffffffffffff160217905550848160010160006101000a81548173ffffffffffffffffffffffffffffffffffffffff021916908373ffffffffffffffffffffffffffffffffffffffff16021790555081600b60008873ffffffffffffffffffffffffffffffffffffffff1673ffffffffffffffffffffffffffffffffffffffff16815260200190815260200160002060008773ffffffffffffffffffffffffffffffffffffffff1673ffffffffffffffffffffffffffffffffffffffff16815260200190815260200160002060006101000a81548173ffffffffffffffffffffffffffffffffffffffff021916908373ffffffffffffffffffffffffffffffffffffffff16021790555081600b60008773ffffffffffffffffffffffffffffffffffffffff1673ffffffffffffffffffffffffffffffffffffffff16815260200190815260200160002060008873ffffffffffffffffffffffffffffffffffffffff1673ffffffffffffffffffffffffffffffffffffffff16815260200190815260200160002060006101000a81548173ffffffffffffffffffffffffffffffffffffffff021916908373ffffffffffffffffffffffffffffffffffffffff16021790555060076000815480929190614e0090617198565b91905055508473ffffffffffffffffffffffffffffffffffffffff168673ffffffffffffffffffffffffffffffffffffffff167febbbe9dc3a19d2f959ac76ac0372b4983cdfb945f5d6aef4873c36fabb2ba8aa84600754604051614e669291906171e0565b60405180910390a381965050505050505092915050565b60008260008103614ec3576040517f08c379a0000000000000000000000000000000000000000000000000000000008152600401614eba9061619d565b60405180910390fd5b600260005403614f08576040517f08c379a0000000000000000000000000000000000000000000000000000000008152600401614eff90616209565b60405180910390fd5b60026000819055506000614f1b866145bf565b509050600073ffffffffffffffffffffffffffffffffffffffff168173ffffffffffffffffffffffffffffffffffffffff1603614f8d576040517f08c379a0000000000000000000000000000000000000000000000000000000008152600401614f8490616275565b60405180910390fd5b6000600660009054906101000a900473ffffffffffffffffffffffffffffffffffffffff1673ffffffffffffffffffffffffffffffffffffffff16634b7cab4a88336040518363ffffffff1660e01b8152600401614fec929190616117565b602060405180830381865afa158015615009573d6000803e3d6000fd5b505050506040513d601f19601f8201168201806040525081019061502d91906162aa565b905060008111615072576040517f08c379a000000000000000000000000000000000000000000000000000000000815260040161506990616323565b60405180910390fd5b8673ffffffffffffffffffffffffffffffffffffffff166399cd69d18288886040518463ffffffff1660e01b81526004016150af93929190616777565b6020604051808303816000875af11580156150ce573d6000803e3d6000fd5b505050506040513d601f19601f820116820180604052508101906150f2919061639d565b935050506001600081905550509392505050565b615189846323b872dd60e01b85858560405160240161512793929190616970565b604051602081830303815290604052907bffffffffffffffffffffffffffffffffffffffffffffffffffffffff19166020820180517bffffffffffffffffffffffffffffffffffffffffffffffffffffffff8381831617835250505050615647565b50505050565b6000803390508573ffffffffffffffffffffffffffffffffffffffff1663a6afed956040518163ffffffff1660e01b8152600401600060405180830381600087803b1580156151dd57600080fd5b505af11580156151f1573d6000803e3d6000fd5b50505050600084121561534b5760008573ffffffffffffffffffffffffffffffffffffffff166370a08231886040518263ffffffff1660e01b8152600401615239919061593f565b602060405180830381865afa158015615256573d6000803e3d6000fd5b505050506040513d601f19601f8201168201806040525081019061527a91906162aa565b90506152b282888761528b90616483565b8973ffffffffffffffffffffffffffffffffffffffff16615106909392919063ffffffff16565b61533e818773ffffffffffffffffffffffffffffffffffffffff166370a082318a6040518263ffffffff1660e01b81526004016152ef919061593f565b602060405180830381865afa15801561530c573d6000803e3d6000fd5b505050506040513d601f19601f8201168201806040525081019061533091906162aa565b61570e90919063ffffffff16565b61534790616483565b9450505b600084131561548f5760008573ffffffffffffffffffffffffffffffffffffffff166370a08231886040518263ffffffff1660e01b815260040161538f919061593f565b602060405180830381865afa1580156153ac573d6000803e3d6000fd5b505050506040513d601f19601f820116820180604052508101906153d091906162aa565b90506153ff8288878973ffffffffffffffffffffffffffffffffffffffff16615106909392919063ffffffff16565b61548b818773ffffffffffffffffffffffffffffffffffffffff166370a082318a6040518263ffffffff1660e01b815260040161543c919061593f565b602060405180830381865afa158015615459573d6000803e3d6000fd5b505050506040513d601f19601f8201168201806040525081019061547d91906162aa565b61570e90919063ffffffff16565b9450505b8573ffffffffffffffffffffffffffffffffffffffff16634dd9cbf484866040518363ffffffff1660e01b81526004016154ca929190617209565b6020604051808303816000875af11580156154e9573d6000803e3d6000fd5b505050506040513d601f19601f8201168201806040525081019061550d91906162aa565b915050949350505050565b600081836155269190617232565b905092915050565b6000818361553c91906172a3565b905092915050565b6000818361555291906172d4565b905092915050565b600073ffffffffffffffffffffffffffffffffffffffff16600460009054906101000a900473ffffffffffffffffffffffffffffffffffffffff1673ffffffffffffffffffffffffffffffffffffffff1614615642578273ffffffffffffffffffffffffffffffffffffffff1663bfde2d52600460009054906101000a900473ffffffffffffffffffffffffffffffffffffffff1684846040518463ffffffff1660e01b815260040161560f9392919061735d565b600060405180830381600087803b15801561562957600080fd5b505af115801561563d573d6000803e3d6000fd5b505050505b505050565b60006156a9826040518060400160405280602081526020017f5361666545524332303a206c6f772d6c6576656c2063616c6c206661696c65648152508573ffffffffffffffffffffffffffffffffffffffff166157249092919063ffffffff16565b905060008151111561570957808060200190518101906156c991906173a9565b615708576040517f08c379a00000000000000000000000000000000000000000000000000000000081526004016156ff90617448565b60405180910390fd5b5b505050565b6000818361571c9190617468565b905092915050565b6060615733848460008561573c565b90509392505050565b606082471015615781576040517f08c379a00000000000000000000000000000000000000000000000000000000081526004016157789061750e565b60405180910390fd5b61578a85615850565b6157c9576040517f08c379a00000000000000000000000000000000000000000000000000000000081526004016157c09061757a565b60405180910390fd5b6000808673ffffffffffffffffffffffffffffffffffffffff1685876040516157f2919061760b565b60006040518083038185875af1925050503d806000811461582f576040519150601f19603f3d011682016040523d82523d6000602084013e615834565b606091505b5091509150615844828286615863565b92505050949350505050565b600080823b905060008111915050919050565b60608315615873578290506158c3565b6000835111156158865782518084602001fd5b816040517f08c379a00000000000000000000000000000000000000000000000000000000081526004016158ba9190617666565b60405180910390fd5b9392505050565b6000819050919050565b6158dd816158ca565b82525050565b60006020820190506158f860008301846158d4565b92915050565b600073ffffffffffffffffffffffffffffffffffffffff82169050919050565b6000615929826158fe565b9050919050565b6159398161591e565b82525050565b60006020820190506159546000830184615930565b92915050565b600080fd5b600080fd5b61596d8161591e565b811461597857600080fd5b50565b60008135905061598a81615964565b92915050565b600080604083850312156159a7576159a661595a565b5b60006159b58582860161597b565b92505060206159c68582860161597b565b9150509250929050565b6000819050919050565b6159e3816159d0565b81146159ee57600080fd5b50565b600081359050615a00816159da565b92915050565b60008115159050919050565b615a1b81615a06565b8114615a2657600080fd5b50565b600081359050615a3881615a12565b92915050565b600080600080600060a08688031215615a5a57615a5961595a565b5b6000615a688882890161597b565b9550506020615a798882890161597b565b9450506040615a8a888289016159f1565b9350506060615a9b8882890161597b565b9250506080615aac88828901615a29565b9150509295509295909350565b615ac2816159d0565b82525050565b6000602082019050615add6000830184615ab9565b92915050565b600060208284031215615af957615af861595a565b5b6000615b078482850161597b565b91505092915050565b600060ff82169050919050565b615b2681615b10565b8114615b3157600080fd5b50565b600081359050615b4381615b1d565b92915050565b60008060408385031215615b6057615b5f61595a565b5b6000615b6e8582860161597b565b9250506020615b7f85828601615b34565b9150509250929050565b600080600060608486031215615ba257615ba161595a565b5b6000615bb086828701615b34565b9350506020615bc186828701615b34565b9250506040615bd286828701615b34565b9150509250925092565b6000604082019050615bf160008301856158d4565b615bfe60208301846158d4565b9392505050565b600080600060608486031215615c1e57615c1d61595a565b5b6000615c2c8682870161597b565b9350506020615c3d868287016159f1565b9250506040615c4e8682870161597b565b9150509250925092565b6000608082019050615c6d60008301876158d4565b615c7a60208301866158d4565b615c8760408301856158d4565b615c9460608301846158d4565b95945050505050565b6000615ca8826158fe565b9050919050565b615cb881615c9d565b8114615cc357600080fd5b50565b600081359050615cd581615caf565b92915050565b600060208284031215615cf157615cf061595a565b5b6000615cff84828501615cc6565b91505092915050565b615d11816158ca565b8114615d1c57600080fd5b50565b600081359050615d2e81615d08565b92915050565b60008060008060808587031215615d4e57615d4d61595a565b5b6000615d5c8782880161597b565b9450506020615d6d878288016159f1565b9350506040615d7e87828801615d1f565b9250506060615d8f87828801615cc6565b91505092959194509250565b600080600060608486031215615db457615db361595a565b5b6000615dc28682870161597b565b9350506020615dd38682870161597b565b9250506040615de486828701615d1f565b9150509250925092565b600080fd5b600080fd5b600080fd5b60008083601f840112615e1357615e12615dee565b5b8235905067ffffffffffffffff811115615e3057615e2f615df3565b5b602083019150836020820283011115615e4c57615e4b615df8565b5b9250929050565b60008083601f840112615e6957615e68615dee565b5b8235905067ffffffffffffffff811115615e8657615e85615df3565b5b602083019150836020820283011115615ea257615ea1615df8565b5b9250929050565b600080600080600080600060a0888a031215615ec857615ec761595a565b5b6000615ed68a828b0161597b565b975050602088013567ffffffffffffffff811115615ef757615ef661595f565b5b615f038a828b01615dfd565b9650965050604088013567ffffffffffffffff811115615f2657615f2561595f565b5b615f328a828b01615e53565b94509450506060615f458a828b0161597b565b9250506080615f568a828b01615a29565b91505092959891949750929550565b60008083601f840112615f7b57615f7a615dee565b5b8235905067ffffffffffffffff811115615f9857615f97615df3565b5b602083019150836001820283011115615fb457615fb3615df8565b5b9250929050565b600080600080600060808688031215615fd757615fd661595a565b5b6000615fe58882890161597b565b9550506020615ff68882890161597b565b9450506040616007888289016159f1565b935050606086013567ffffffffffffffff8111156160285761602761595f565b5b61603488828901615f65565b92509250509295509295909350565b61604c81615c9d565b82525050565b60006020820190506160676000830184616043565b92915050565b600080604083850312156160845761608361595a565b5b60006160928582860161597b565b92505060206160a3858286016159f1565b9150509250929050565b600080604083850312156160c4576160c361595a565b5b60006160d285828601615d1f565b92505060206160e385828601615d1f565b9150509250929050565b6160f681615a06565b82525050565b600060208201905061611160008301846160ed565b92915050565b600060408201905061612c6000830185615930565b6161396020830184615930565b9392505050565b600082825260208201905092915050565b7f416d6f756e74206d757374206e6f742062652030000000000000000000000000600082015250565b6000616187601483616140565b915061619282616151565b602082019050919050565b600060208201905081810360008301526161b68161617a565b9050919050565b7f5265656e7472616e637947756172643a207265656e7472616e742063616c6c00600082015250565b60006161f3601f83616140565b91506161fe826161bd565b602082019050919050565b60006020820190508181036000830152616222816161e6565b9050919050565b7f556e696c656e6456323a20504f4f4c204e4f5420464f554e4400000000000000600082015250565b600061625f601983616140565b915061626a82616229565b602082019050919050565b6000602082019050818103600083015261628e81616252565b9050919050565b6000815190506162a481615d08565b92915050565b6000602082840312156162c0576162bf61595a565b5b60006162ce84828501616295565b91505092915050565b7f556e696c656e6456323a20504f534954494f4e204e4f5420464f554e44000000600082015250565b600061630d601d83616140565b9150616318826162d7565b602082019050919050565b6000602082019050818103600083015261633c81616300565b9050919050565b600060808201905061635860008301876158d4565b6163656020830186615ab9565b6163726040830185615930565b61637f60608301846158d4565b95945050505050565b600081519050616397816159da565b92915050565b6000602082840312156163b3576163b261595a565b5b60006163c184828501616388565b91505092915050565b6000819050919050565b6000819050919050565b60006163f96163f46163ef846163ca565b6163d4565b6158ca565b9050919050565b616409816163de565b82525050565b600060808201905061642460008301876158d4565b6164316020830186615ab9565b61643e6040830185615930565b61644b6060830184616400565b95945050505050565b7f4e487b7100000000000000000000000000000000000000000000000000000000600052601160045260246000fd5b600061648e826159d0565b91507f800000000000000000000000000000000000000000000000000000000000000082036164c0576164bf616454565b5b816000039050919050565b7f5468652063616c6c6572206d757374206265206120676f7665726e6f72000000600082015250565b6000616501601d83616140565b915061650c826164cb565b602082019050919050565b60006020820190508181036000830152616530816164f4565b9050919050565b7f556e696c656e6456323a205a45524f2041444452455353000000000000000000600082015250565b600061656d601783616140565b915061657882616537565b602082019050919050565b6000602082019050818103600083015261659c81616560565b9050919050565b7f556e696c656e6456323a20506f736974696f6e204164647265737320416c726560008201527f6164792053657400000000000000000000000000000000000000000000000000602082015250565b60006165ff602783616140565b915061660a826165a3565b604082019050919050565b6000602082019050818103600083015261662e816165f2565b9050919050565b7f556e696c656e6456323a20494e56414c49442052414e47450000000000000000600082015250565b600061666b601883616140565b915061667682616635565b602082019050919050565b6000602082019050818103600083015261669a8161665e565b9050919050565b6166aa81615b10565b82525050565b60006020820190506166c560008301846166a1565b92915050565b60006166d682615b10565b91506166e183615b10565b9250828203905060ff8111156166fa576166f9616454565b5b92915050565b600060608201905061671560008301866166a1565b61672260208301856166a1565b61672f60408301846166a1565b949350505050565b6000806040838503121561674e5761674d61595a565b5b600061675c85828601616295565b925050602061676d85828601616295565b9150509250929050565b600060608201905061678c60008301866158d4565b6167996020830185615ab9565b6167a66040830184615930565b949350505050565b600080600080608085870312156167c8576167c761595a565b5b60006167d687828801616295565b94505060206167e787828801616295565b93505060406167f887828801616295565b925050606061680987828801616295565b91505092959194509250565b7f5468657265206973206e6f7420656e6f756768206c697175696469747930206160008201527f7661696c61626c6520746f20626f72726f770000000000000000000000000000602082015250565b6000616871603283616140565b915061687c82616815565b604082019050919050565b600060208201905081810360008301526168a081616864565b9050919050565b7f5468657265206973206e6f7420656e6f756768206c697175696469747931206160008201527f7661696c61626c6520746f20626f72726f770000000000000000000000000000602082015250565b6000616903603283616140565b915061690e826168a7565b604082019050919050565b60006020820190508181036000830152616932816168f6565b9050919050565b600060608201905061694e60008301866158d4565b61695b6020830185615ab9565b6169686040830184616043565b949350505050565b60006060820190506169856000830186615930565b6169926020830185615930565b61699f60408301846158d4565b949350505050565b7f556e696c656e6456323a20494e56414c4944204152524159204c454e47544800600082015250565b60006169dd601f83616140565b91506169e8826169a7565b602082019050919050565b60006020820190508181036000830152616a0c816169d0565b9050919050565b600082825260208201905092915050565b600080fd5b82818337505050565b6000616a3e8385616a13565b93507f07ffffffffffffffffffffffffffffffffffffffffffffffffffffffffffffff831115616a7157616a70616a24565b5b602083029250616a82838584616a29565b82840190509392505050565b600082825260208201905092915050565b6000819050919050565b616ab2816159d0565b82525050565b6000616ac48383616aa9565b60208301905092915050565b6000616adf60208401846159f1565b905092915050565b6000602082019050919050565b6000616b008385616a8e565b9350616b0b82616a9f565b8060005b85811015616b4457616b218284616ad0565b616b2b8882616ab8565b9750616b3683616ae7565b925050600181019050616b0f565b5085925050509392505050565b60006080820190508181036000830152616b6c81888a616a32565b90508181036020830152616b81818688616af4565b9050616b906040830185615930565b616b9d60608301846158d4565b979650505050505050565b60006080820190508181036000830152616bc381888a616a32565b90508181036020830152616bd8818688616af4565b9050616be76040830185615930565b616bf46060830184616400565b979650505050505050565b7f5468657265206973206e6f7420656e6f756768206c697175696469747920617660008201527f61696c61626c6520746f20626f72726f77000000000000000000000000000000602082015250565b6000616c5b603183616140565b9150616c6682616bff565b604082019050919050565b60006020820190508181036000830152616c8a81616c4e565b9050919050565b7f5468652072657175657374656420616d6f756e7420697320746f6f20736d616c60008201527f6c20666f72206120666c6173684c6f616e2e0000000000000000000000000000602082015250565b6000616ced603283616140565b9150616cf882616c91565b604082019050919050565b60006020820190508181036000830152616d1c81616ce0565b9050919050565b6000604082019050616d386000830185615930565b616d456020830184615ab9565b9392505050565b600082825260208201905092915050565b82818337600083830152505050565b6000601f19601f8301169050919050565b6000616d898385616d4c565b9350616d96838584616d5d565b616d9f83616d6c565b840190509392505050565b6000608082019050616dbf6000830188615930565b616dcc60208301876158d4565b616dd960408301866158d4565b8181036060830152616dec818486616d7d565b90509695505050505050565b7f5468652061637475616c2062616c616e6365206f66207468652070726f746f6360008201527f6f6c20697320696e636f6e73697374656e740000000000000000000000000000602082015250565b6000616e54603283616140565b9150616e5f82616df8565b604082019050919050565b60006020820190508181036000830152616e8381616e47565b9050919050565b6000608082019050616e9f6000830187615ab9565b616eac60208301866158d4565b616eb960408301856158d4565b616ec660608301846158d4565b95945050505050565b7f556e696c656e6456313a20494e56414c494420544f54414c204645452052414e60008201527f4745000000000000000000000000000000000000000000000000000000000000602082015250565b6000616f2b602283616140565b9150616f3682616ecf565b604082019050919050565b60006020820190508181036000830152616f5a81616f1e565b9050919050565b7f556e696c656e6456313a20494e56414c49442050524f544f434f4c204645452060008201527f52414e4745000000000000000000000000000000000000000000000000000000602082015250565b6000616fbd602583616140565b9150616fc882616f61565b604082019050919050565b60006020820190508181036000830152616fec81616fb0565b9050919050565b7f556e696c656e6456323a204944454e544943414c204144445245535345530000600082015250565b6000617029601e83616140565b915061703482616ff3565b602082019050919050565b600060208201905081810360008301526170588161701c565b9050919050565b7f556e696c656e6456323a20504f4f4c20414c5245414459204352454154454400600082015250565b6000617095601f83616140565b91506170a08261705f565b602082019050919050565b600060208201905081810360008301526170c481617088565b9050919050565b7f556e696c656e6456323a20494e56414c494420455243323020544f4b454e0000600082015250565b6000617101601e83616140565b915061710c826170cb565b602082019050919050565b60006020820190508181036000830152617130816170f4565b9050919050565b600060c08201905061714c6000830189615930565b6171596020830188615930565b6171666040830187615930565b61717360608301866166a1565b61718060808301856166a1565b61718d60a08301846166a1565b979650505050505050565b60006171a3826158ca565b91507fffffffffffffffffffffffffffffffffffffffffffffffffffffffffffffffff82036171d5576171d4616454565b5b600182019050919050565b60006040820190506171f56000830185615930565b61720260208301846158d4565b9392505050565b600060408201905061721e60008301856158d4565b61722b6020830184615ab9565b9392505050565b600061723d826158ca565b9150617248836158ca565b9250828202617256816158ca565b9150828204841483151761726d5761726c616454565b5b5092915050565b7f4e487b7100000000000000000000000000000000000000000000000000000000600052601260045260246000fd5b60006172ae826158ca565b91506172b9836158ca565b9250826172c9576172c8617274565b5b828204905092915050565b60006172df826158ca565b91506172ea836158ca565b925082820190508082111561730257617301616454565b5b92915050565b600061732361731e617319846158fe565b6163d4565b6158fe565b9050919050565b600061733582617308565b9050919050565b60006173478261732a565b9050919050565b6173578161733c565b82525050565b6000606082019050617372600083018661734e565b61737f6020830185615930565b61738c60408301846158d4565b949350505050565b6000815190506173a381615a12565b92915050565b6000602082840312156173bf576173be61595a565b5b60006173cd84828501617394565b91505092915050565b7f5361666545524332303a204552433230206f7065726174696f6e20646964206e60008201527f6f74207375636365656400000000000000000000000000000000000000000000602082015250565b6000617432602a83616140565b915061743d826173d6565b604082019050919050565b6000602082019050818103600083015261746181617425565b9050919050565b6000617473826158ca565b915061747e836158ca565b925082820390508181111561749657617495616454565b5b92915050565b7f416464726573733a20696e73756666696369656e742062616c616e636520666f60008201527f722063616c6c0000000000000000000000000000000000000000000000000000602082015250565b60006174f8602683616140565b91506175038261749c565b604082019050919050565b60006020820190508181036000830152617527816174eb565b9050919050565b7f416464726573733a2063616c6c20746f206e6f6e2d636f6e7472616374000000600082015250565b6000617564601d83616140565b915061756f8261752e565b602082019050919050565b6000602082019050818103600083015261759381617557565b9050919050565b600081519050919050565b600081905092915050565b60005b838110156175ce5780820151818401526020810190506175b3565b60008484015250505050565b60006175e58261759a565b6175ef81856175a5565b93506175ff8185602086016175b0565b80840191505092915050565b600061761782846175da565b915081905092915050565b600081519050919050565b600061763882617622565b6176428185616140565b93506176528185602086016175b0565b61765b81616d6c565b840191505092915050565b60006020820190508181036000830152617680818461762d565b90509291505056fea264697066735822122085a9dcc6c30f03b9a76ea71d6543cf4b0ea40a6b7b42f88316555e8787065c9b64736f6c63430008130033",
			"opcodes": "PUSH1 0x80 PUSH1 0x40 MSTORE PUSH1 0x5 PUSH1 0x8 SSTORE PUSH2 0xBB8 PUSH1 0x9 SSTORE PUSH1 0x46 PUSH1 0xA PUSH1 0x0 PUSH2 0x100 EXP DUP2 SLOAD DUP2 PUSH1 0xFF MUL NOT AND SWAP1 DUP4 PUSH1 0xFF AND MUL OR SWAP1 SSTORE POP PUSH1 0xA DUP1 PUSH1 0x1 PUSH2 0x100 EXP DUP2 SLOAD DUP2 PUSH1 0xFF MUL NOT AND SWAP1 DUP4 PUSH1 0xFF AND MUL OR SWAP1 SSTORE POP PUSH1 0xA DUP1 PUSH1 0x2 PUSH2 0x100 EXP DUP2 SLOAD DUP2 PUSH1 0xFF MUL NOT AND SWAP1 DUP4 PUSH1 0xFF AND MUL OR SWAP1 SSTORE POP CALLVALUE DUP1 ISZERO PUSH3 0x6E JUMPI PUSH1 0x0 DUP1 REVERT JUMPDEST POP PUSH1 0x40 MLOAD PUSH3 0x7984 CODESIZE SUB DUP1 PUSH3 0x7984 DUP4 CODECOPY DUP2 DUP2 ADD PUSH1 0x40 MSTORE DUP2 ADD SWAP1 PUSH3 0x94 SWAP2 SWAP1 PUSH3 0x201 JUMP JUMPDEST PUSH1 0x1 PUSH1 0x0 DUP2 SWAP1 SSTORE POP PUSH1 0x0 PUSH20 0xFFFFFFFFFFFFFFFFFFFFFFFFFFFFFFFFFFFFFFFF AND DUP2 PUSH20 0xFFFFFFFFFFFFFFFFFFFFFFFFFFFFFFFFFFFFFFFF AND SUB PUSH3 0x10E JUMPI PUSH1 0x40 MLOAD PUSH32 0x8C379A000000000000000000000000000000000000000000000000000000000 DUP2 MSTORE PUSH1 0x4 ADD PUSH3 0x105 SWAP1 PUSH3 0x294 JUMP JUMPDEST PUSH1 0x40 MLOAD DUP1 SWAP2 SUB SWAP1 REVERT JUMPDEST CALLER PUSH1 0x1 PUSH1 0x0 PUSH2 0x100 EXP DUP2 SLOAD DUP2 PUSH20 0xFFFFFFFFFFFFFFFFFFFFFFFFFFFFFFFFFFFFFFFF MUL NOT AND SWAP1 DUP4 PUSH20 0xFFFFFFFFFFFFFFFFFFFFFFFFFFFFFFFFFFFFFFFF AND MUL OR SWAP1 SSTORE POP DUP1 PUSH1 0x3 PUSH1 0x0 PUSH2 0x100 EXP DUP2 SLOAD DUP2 PUSH20 0xFFFFFFFFFFFFFFFFFFFFFFFFFFFFFFFFFFFFFFFF MUL NOT AND SWAP1 DUP4 PUSH20 0xFFFFFFFFFFFFFFFFFFFFFFFFFFFFFFFFFFFFFFFF AND MUL OR SWAP1 SSTORE POP POP PUSH3 0x2B6 JUMP JUMPDEST PUSH1 0x0 DUP1 REVERT JUMPDEST PUSH1 0x0 PUSH20 0xFFFFFFFFFFFFFFFFFFFFFFFFFFFFFFFFFFFFFFFF DUP3 AND SWAP1 POP SWAP2 SWAP1 POP JUMP JUMPDEST PUSH1 0x0 PUSH3 0x1C9 DUP3 PUSH3 0x19C JUMP JUMPDEST SWAP1 POP SWAP2 SWAP1 POP JUMP JUMPDEST PUSH3 0x1DB DUP2 PUSH3 0x1BC JUMP JUMPDEST DUP2 EQ PUSH3 0x1E7 JUMPI PUSH1 0x0 DUP1 REVERT JUMPDEST POP JUMP JUMPDEST PUSH1 0x0 DUP2 MLOAD SWAP1 POP PUSH3 0x1FB DUP2 PUSH3 0x1D0 JUMP JUMPDEST SWAP3 SWAP2 POP POP JUMP JUMPDEST PUSH1 0x0 PUSH1 0x20 DUP3 DUP5 SUB SLT ISZERO PUSH3 0x21A JUMPI PUSH3 0x219 PUSH3 0x197 JUMP JUMPDEST JUMPDEST PUSH1 0x0 PUSH3 0x22A DUP5 DUP3 DUP6 ADD PUSH3 0x1EA JUMP JUMPDEST SWAP2 POP POP SWAP3 SWAP2 POP POP JUMP JUMPDEST PUSH1 0x0 DUP3 DUP3 MSTORE PUSH1 0x20 DUP3 ADD SWAP1 POP SWAP3 SWAP2 POP POP JUMP JUMPDEST PUSH32 0x556E696C656E6456323A205A45524F2041444452455353000000000000000000 PUSH1 0x0 DUP3 ADD MSTORE POP JUMP JUMPDEST PUSH1 0x0 PUSH3 0x27C PUSH1 0x17 DUP4 PUSH3 0x233 JUMP JUMPDEST SWAP2 POP PUSH3 0x289 DUP3 PUSH3 0x244 JUMP JUMPDEST PUSH1 0x20 DUP3 ADD SWAP1 POP SWAP2 SWAP1 POP JUMP JUMPDEST PUSH1 0x0 PUSH1 0x20 DUP3 ADD SWAP1 POP DUP2 DUP2 SUB PUSH1 0x0 DUP4 ADD MSTORE PUSH3 0x2AF DUP2 PUSH3 0x26D JUMP JUMPDEST SWAP1 POP SWAP2 SWAP1 POP JUMP JUMPDEST PUSH2 0x76BE DUP1 PUSH3 0x2C6 PUSH1 0x0 CODECOPY PUSH1 0x0 RETURN INVALID PUSH1 0x80 PUSH1 0x40 MSTORE PUSH1 0x4 CALLDATASIZE LT PUSH2 0x24A JUMPI PUSH1 0x0 CALLDATALOAD PUSH1 0xE0 SHR DUP1 PUSH4 0x82626547 GT PUSH2 0x139 JUMPI DUP1 PUSH4 0x9747D94F GT PUSH2 0xB6 JUMPI DUP1 PUSH4 0xB3716D49 GT PUSH2 0x7A JUMPI DUP1 PUSH4 0xB3716D49 EQ PUSH2 0x95F JUMPI DUP1 PUSH4 0xC3D3CB8E EQ PUSH2 0x98A JUMPI DUP1 PUSH4 0xC42CF535 EQ PUSH2 0x9C8 JUMPI DUP1 PUSH4 0xCA4F2803 EQ PUSH2 0x9F1 JUMPI DUP1 PUSH4 0xE3433615 EQ PUSH2 0xA2F JUMPI DUP1 PUSH4 0xE96466D0 EQ PUSH2 0xA6C JUMPI PUSH2 0x251 JUMP JUMPDEST DUP1 PUSH4 0x9747D94F EQ PUSH2 0x866 JUMPI DUP1 PUSH4 0xA51AF4C5 EQ PUSH2 0x88F JUMPI DUP1 PUSH4 0xA89AE4BA EQ PUSH2 0x8BA JUMPI DUP1 PUSH4 0xABDB31E4 EQ PUSH2 0x8E5 JUMPI DUP1 PUSH4 0xAD1B188B EQ PUSH2 0x922 JUMPI PUSH2 0x251 JUMP JUMPDEST DUP1 PUSH4 0x8DEE9460 GT PUSH2 0xFD JUMPI DUP1 PUSH4 0x8DEE9460 EQ PUSH2 0x75A JUMPI DUP1 PUSH4 0x8F484F37 EQ PUSH2 0x783 JUMPI DUP1 PUSH4 0x92CBBD15 EQ PUSH2 0x7AE JUMPI DUP1 PUSH4 0x94A76CBB EQ PUSH2 0x7EC JUMPI DUP1 PUSH4 0x968224F5 EQ PUSH2 0x829 JUMPI PUSH2 0x251 JUMP JUMPDEST DUP1 PUSH4 0x82626547 EQ PUSH2 0x64B JUMPI DUP1 PUSH4 0x86C1C74D EQ PUSH2 0x688 JUMPI DUP1 PUSH4 0x878FA60A EQ PUSH2 0x6B3 JUMPI DUP1 PUSH4 0x87950F49 EQ PUSH2 0x6F3 JUMPI DUP1 PUSH4 0x8DABCAF3 EQ PUSH2 0x71C JUMPI PUSH2 0x251 JUMP JUMPDEST DUP1 PUSH4 0x4C69C00F GT PUSH2 0x1C7 JUMPI DUP1 PUSH4 0x5C7C6718 GT PUSH2 0x18B JUMPI DUP1 PUSH4 0x5C7C6718 EQ PUSH2 0x53D JUMPI DUP1 PUSH4 0x627C1A9A EQ PUSH2 0x57D JUMPI DUP1 PUSH4 0x651791AE EQ PUSH2 0x5A6 JUMPI DUP1 PUSH4 0x67861DC1 EQ PUSH2 0x5E4 JUMPI DUP1 PUSH4 0x6F44A6AD EQ PUSH2 0x622 JUMPI PUSH2 0x251 JUMP JUMPDEST DUP1 PUSH4 0x4C69C00F EQ PUSH2 0x445 JUMPI DUP1 PUSH4 0x531AA03E EQ PUSH2 0x46E JUMPI DUP1 PUSH4 0x5585FFF1 EQ PUSH2 0x4AB JUMPI DUP1 PUSH4 0x5833CDF9 EQ PUSH2 0x4D4 JUMPI DUP1 PUSH4 0x586FEB40 EQ PUSH2 0x511 JUMPI PUSH2 0x251 JUMP JUMPDEST DUP1 PUSH4 0x199A692F GT PUSH2 0x20E JUMPI DUP1 PUSH4 0x199A692F EQ PUSH2 0x363 JUMPI DUP1 PUSH4 0x2816D440 EQ PUSH2 0x38C JUMPI DUP1 PUSH4 0x29317A22 EQ PUSH2 0x3B5 JUMPI DUP1 PUSH4 0x2F52B02A EQ PUSH2 0x3DE JUMPI DUP1 PUSH4 0x37EF51EB EQ PUSH2 0x407 JUMPI PUSH2 0x251 JUMP JUMPDEST DUP1 PUSH4 0x81E3EDA EQ PUSH2 0x256 JUMPI DUP1 PUSH4 0xC340A24 EQ PUSH2 0x281 JUMPI DUP1 PUSH4 0x1030914E EQ PUSH2 0x2AC JUMPI DUP1 PUSH4 0x1668355D EQ PUSH2 0x2E9 JUMPI DUP1 PUSH4 0x18FCB961 EQ PUSH2 0x326 JUMPI PUSH2 0x251 JUMP JUMPDEST CALLDATASIZE PUSH2 0x251 JUMPI STOP JUMPDEST PUSH1 0x0 DUP1 REVERT JUMPDEST CALLVALUE DUP1 ISZERO PUSH2 0x262 JUMPI PUSH1 0x0 DUP1 REVERT JUMPDEST POP PUSH2 0x26B PUSH2 0xAA9 JUMP JUMPDEST PUSH1 0x40 MLOAD PUSH2 0x278 SWAP2 SWAP1 PUSH2 0x58E3 JUMP JUMPDEST PUSH1 0x40 MLOAD DUP1 SWAP2 SUB SWAP1 RETURN JUMPDEST CALLVALUE DUP1 ISZERO PUSH2 0x28D JUMPI PUSH1 0x0 DUP1 REVERT JUMPDEST POP PUSH2 0x296 PUSH2 0xAAF JUMP JUMPDEST PUSH1 0x40 MLOAD PUSH2 0x2A3 SWAP2 SWAP1 PUSH2 0x593F JUMP JUMPDEST PUSH1 0x40 MLOAD DUP1 SWAP2 SUB SWAP1 RETURN JUMPDEST CALLVALUE DUP1 ISZERO PUSH2 0x2B8 JUMPI PUSH1 0x0 DUP1 REVERT JUMPDEST POP PUSH2 0x2D3 PUSH1 0x4 DUP1 CALLDATASIZE SUB DUP2 ADD SWAP1 PUSH2 0x2CE SWAP2 SWAP1 PUSH2 0x5990 JUMP JUMPDEST PUSH2 0xAD5 JUMP JUMPDEST PUSH1 0x40 MLOAD PUSH2 0x2E0 SWAP2 SWAP1 PUSH2 0x593F JUMP JUMPDEST PUSH1 0x40 MLOAD DUP1 SWAP2 SUB SWAP1 RETURN JUMPDEST CALLVALUE DUP1 ISZERO PUSH2 0x2F5 JUMPI PUSH1 0x0 DUP1 REVERT JUMPDEST POP PUSH2 0x310 PUSH1 0x4 DUP1 CALLDATASIZE SUB DUP2 ADD SWAP1 PUSH2 0x30B SWAP2 SWAP1 PUSH2 0x5A3E JUMP JUMPDEST PUSH2 0xB7C JUMP JUMPDEST PUSH1 0x40 MLOAD PUSH2 0x31D SWAP2 SWAP1 PUSH2 0x5AC8 JUMP JUMPDEST PUSH1 0x40 MLOAD DUP1 SWAP2 SUB SWAP1 RETURN JUMPDEST CALLVALUE DUP1 ISZERO PUSH2 0x332 JUMPI PUSH1 0x0 DUP1 REVERT JUMPDEST POP PUSH2 0x34D PUSH1 0x4 DUP1 CALLDATASIZE SUB DUP2 ADD SWAP1 PUSH2 0x348 SWAP2 SWAP1 PUSH2 0x5AE3 JUMP JUMPDEST PUSH2 0x106C JUMP JUMPDEST PUSH1 0x40 MLOAD PUSH2 0x35A SWAP2 SWAP1 PUSH2 0x58E3 JUMP JUMPDEST PUSH1 0x40 MLOAD DUP1 SWAP2 SUB SWAP1 RETURN JUMPDEST CALLVALUE DUP1 ISZERO PUSH2 0x36F JUMPI PUSH1 0x0 DUP1 REVERT JUMPDEST POP PUSH2 0x38A PUSH1 0x4 DUP1 CALLDATASIZE SUB DUP2 ADD SWAP1 PUSH2 0x385 SWAP2 SWAP1 PUSH2 0x5AE3 JUMP JUMPDEST PUSH2 0x1127 JUMP JUMPDEST STOP JUMPDEST CALLVALUE DUP1 ISZERO PUSH2 0x398 JUMPI PUSH1 0x0 DUP1 REVERT JUMPDEST POP PUSH2 0x3B3 PUSH1 0x4 DUP1 CALLDATASIZE SUB DUP2 ADD SWAP1 PUSH2 0x3AE SWAP2 SWAP1 PUSH2 0x5AE3 JUMP JUMPDEST PUSH2 0x133E JUMP JUMPDEST STOP JUMPDEST CALLVALUE DUP1 ISZERO PUSH2 0x3C1 JUMPI PUSH1 0x0 DUP1 REVERT JUMPDEST POP PUSH2 0x3DC PUSH1 0x4 DUP1 CALLDATASIZE SUB DUP2 ADD SWAP1 PUSH2 0x3D7 SWAP2 SWAP1 PUSH2 0x5B49 JUMP JUMPDEST PUSH2 0x14C4 JUMP JUMPDEST STOP JUMPDEST CALLVALUE DUP1 ISZERO PUSH2 0x3EA JUMPI PUSH1 0x0 DUP1 REVERT JUMPDEST POP PUSH2 0x405 PUSH1 0x4 DUP1 CALLDATASIZE SUB DUP2 ADD SWAP1 PUSH2 0x400 SWAP2 SWAP1 PUSH2 0x5B89 JUMP JUMPDEST PUSH2 0x165C JUMP JUMPDEST STOP JUMPDEST CALLVALUE DUP1 ISZERO PUSH2 0x413 JUMPI PUSH1 0x0 DUP1 REVERT JUMPDEST POP PUSH2 0x42E PUSH1 0x4 DUP1 CALLDATASIZE SUB DUP2 ADD SWAP1 PUSH2 0x429 SWAP2 SWAP1 PUSH2 0x5990 JUMP JUMPDEST PUSH2 0x188A JUMP JUMPDEST PUSH1 0x40 MLOAD PUSH2 0x43C SWAP3 SWAP2 SWAP1 PUSH2 0x5BDC JUMP JUMPDEST PUSH1 0x40 MLOAD DUP1 SWAP2 SUB SWAP1 RETURN JUMPDEST CALLVALUE DUP1 ISZERO PUSH2 0x451 JUMPI PUSH1 0x0 DUP1 REVERT JUMPDEST POP PUSH2 0x46C PUSH1 0x4 DUP1 CALLDATASIZE SUB DUP2 ADD SWAP1 PUSH2 0x467 SWAP2 SWAP1 PUSH2 0x5AE3 JUMP JUMPDEST PUSH2 0x1A06 JUMP JUMPDEST STOP JUMPDEST CALLVALUE DUP1 ISZERO PUSH2 0x47A JUMPI PUSH1 0x0 DUP1 REVERT JUMPDEST POP PUSH2 0x495 PUSH1 0x4 DUP1 CALLDATASIZE SUB DUP2 ADD SWAP1 PUSH2 0x490 SWAP2 SWAP1 PUSH2 0x5990 JUMP JUMPDEST PUSH2 0x1B8C JUMP JUMPDEST PUSH1 0x40 MLOAD PUSH2 0x4A2 SWAP2 SWAP1 PUSH2 0x593F JUMP JUMPDEST PUSH1 0x40 MLOAD DUP1 SWAP2 SUB SWAP1 RETURN JUMPDEST CALLVALUE DUP1 ISZERO PUSH2 0x4B7 JUMPI PUSH1 0x0 DUP1 REVERT JUMPDEST POP PUSH2 0x4D2 PUSH1 0x4 DUP1 CALLDATASIZE SUB DUP2 ADD SWAP1 PUSH2 0x4CD SWAP2 SWAP1 PUSH2 0x5B49 JUMP JUMPDEST PUSH2 0x1BCE JUMP JUMPDEST STOP JUMPDEST CALLVALUE DUP1 ISZERO PUSH2 0x4E0 JUMPI PUSH1 0x0 DUP1 REVERT JUMPDEST POP PUSH2 0x4FB PUSH1 0x4 DUP1 CALLDATASIZE SUB DUP2 ADD SWAP1 PUSH2 0x4F6 SWAP2 SWAP1 PUSH2 0x5C05 JUMP JUMPDEST PUSH2 0x1D66 JUMP JUMPDEST PUSH1 0x40 MLOAD PUSH2 0x508 SWAP2 SWAP1 PUSH2 0x5AC8 JUMP JUMPDEST PUSH1 0x40 MLOAD DUP1 SWAP2 SUB SWAP1 RETURN JUMPDEST CALLVALUE DUP1 ISZERO PUSH2 0x51D JUMPI PUSH1 0x0 DUP1 REVERT JUMPDEST POP PUSH2 0x526 PUSH2 0x1FAA JUMP JUMPDEST PUSH1 0x40 MLOAD PUSH2 0x534 SWAP3 SWAP2 SWAP1 PUSH2 0x5BDC JUMP JUMPDEST PUSH1 0x40 MLOAD DUP1 SWAP2 SUB SWAP1 RETURN JUMPDEST CALLVALUE DUP1 ISZERO PUSH2 0x549 JUMPI PUSH1 0x0 DUP1 REVERT JUMPDEST POP PUSH2 0x564 PUSH1 0x4 DUP1 CALLDATASIZE SUB DUP2 ADD SWAP1 PUSH2 0x55F SWAP2 SWAP1 PUSH2 0x5990 JUMP JUMPDEST PUSH2 0x1FBB JUMP JUMPDEST PUSH1 0x40 MLOAD PUSH2 0x574 SWAP5 SWAP4 SWAP3 SWAP2 SWAP1 PUSH2 0x5C58 JUMP JUMPDEST PUSH1 0x40 MLOAD DUP1 SWAP2 SUB SWAP1 RETURN JUMPDEST CALLVALUE DUP1 ISZERO PUSH2 0x589 JUMPI PUSH1 0x0 DUP1 REVERT JUMPDEST POP PUSH2 0x5A4 PUSH1 0x4 DUP1 CALLDATASIZE SUB DUP2 ADD SWAP1 PUSH2 0x59F SWAP2 SWAP1 PUSH2 0x5B49 JUMP JUMPDEST PUSH2 0x2145 JUMP JUMPDEST STOP JUMPDEST CALLVALUE DUP1 ISZERO PUSH2 0x5B2 JUMPI PUSH1 0x0 DUP1 REVERT JUMPDEST POP PUSH2 0x5CD PUSH1 0x4 DUP1 CALLDATASIZE SUB DUP2 ADD SWAP1 PUSH2 0x5C8 SWAP2 SWAP1 PUSH2 0x5990 JUMP JUMPDEST PUSH2 0x22DD JUMP JUMPDEST PUSH1 0x40 MLOAD PUSH2 0x5DB SWAP3 SWAP2 SWAP1 PUSH2 0x5BDC JUMP JUMPDEST PUSH1 0x40 MLOAD DUP1 SWAP2 SUB SWAP1 RETURN JUMPDEST CALLVALUE DUP1 ISZERO PUSH2 0x5F0 JUMPI PUSH1 0x0 DUP1 REVERT JUMPDEST POP PUSH2 0x60B PUSH1 0x4 DUP1 CALLDATASIZE SUB DUP2 ADD SWAP1 PUSH2 0x606 SWAP2 SWAP1 PUSH2 0x5990 JUMP JUMPDEST PUSH2 0x2459 JUMP JUMPDEST PUSH1 0x40 MLOAD PUSH2 0x619 SWAP3 SWAP2 SWAP1 PUSH2 0x5BDC JUMP JUMPDEST PUSH1 0x40 MLOAD DUP1 SWAP2 SUB SWAP1 RETURN JUMPDEST CALLVALUE DUP1 ISZERO PUSH2 0x62E JUMPI PUSH1 0x0 DUP1 REVERT JUMPDEST POP PUSH2 0x649 PUSH1 0x4 DUP1 CALLDATASIZE SUB DUP2 ADD SWAP1 PUSH2 0x644 SWAP2 SWAP1 PUSH2 0x5990 JUMP JUMPDEST PUSH2 0x25D5 JUMP JUMPDEST STOP JUMPDEST CALLVALUE DUP1 ISZERO PUSH2 0x657 JUMPI PUSH1 0x0 DUP1 REVERT JUMPDEST POP PUSH2 0x672 PUSH1 0x4 DUP1 CALLDATASIZE SUB DUP2 ADD SWAP1 PUSH2 0x66D SWAP2 SWAP1 PUSH2 0x5C05 JUMP JUMPDEST PUSH2 0x2787 JUMP JUMPDEST PUSH1 0x40 MLOAD PUSH2 0x67F SWAP2 SWAP1 PUSH2 0x5AC8 JUMP JUMPDEST PUSH1 0x40 MLOAD DUP1 SWAP2 SUB SWAP1 RETURN JUMPDEST CALLVALUE DUP1 ISZERO PUSH2 0x694 JUMPI PUSH1 0x0 DUP1 REVERT JUMPDEST POP PUSH2 0x69D PUSH2 0x2A96 JUMP JUMPDEST PUSH1 0x40 MLOAD PUSH2 0x6AA SWAP2 SWAP1 PUSH2 0x593F JUMP JUMPDEST PUSH1 0x40 MLOAD DUP1 SWAP2 SUB SWAP1 RETURN JUMPDEST CALLVALUE DUP1 ISZERO PUSH2 0x6BF JUMPI PUSH1 0x0 DUP1 REVERT JUMPDEST POP PUSH2 0x6DA PUSH1 0x4 DUP1 CALLDATASIZE SUB DUP2 ADD SWAP1 PUSH2 0x6D5 SWAP2 SWAP1 PUSH2 0x5990 JUMP JUMPDEST PUSH2 0x2ABC JUMP JUMPDEST PUSH1 0x40 MLOAD PUSH2 0x6EA SWAP5 SWAP4 SWAP3 SWAP2 SWAP1 PUSH2 0x5C58 JUMP JUMPDEST PUSH1 0x40 MLOAD DUP1 SWAP2 SUB SWAP1 RETURN JUMPDEST CALLVALUE DUP1 ISZERO PUSH2 0x6FF JUMPI PUSH1 0x0 DUP1 REVERT JUMPDEST POP PUSH2 0x71A PUSH1 0x4 DUP1 CALLDATASIZE SUB DUP2 ADD SWAP1 PUSH2 0x715 SWAP2 SWAP1 PUSH2 0x5CDB JUMP JUMPDEST PUSH2 0x2C46 JUMP JUMPDEST STOP JUMPDEST CALLVALUE DUP1 ISZERO PUSH2 0x728 JUMPI PUSH1 0x0 DUP1 REVERT JUMPDEST POP PUSH2 0x743 PUSH1 0x4 DUP1 CALLDATASIZE SUB DUP2 ADD SWAP1 PUSH2 0x73E SWAP2 SWAP1 PUSH2 0x5990 JUMP JUMPDEST PUSH2 0x2D89 JUMP JUMPDEST PUSH1 0x40 MLOAD PUSH2 0x751 SWAP3 SWAP2 SWAP1 PUSH2 0x5BDC JUMP JUMPDEST PUSH1 0x40 MLOAD DUP1 SWAP2 SUB SWAP1 RETURN JUMPDEST CALLVALUE DUP1 ISZERO PUSH2 0x766 JUMPI PUSH1 0x0 DUP1 REVERT JUMPDEST POP PUSH2 0x781 PUSH1 0x4 DUP1 CALLDATASIZE SUB DUP2 ADD SWAP1 PUSH2 0x77C SWAP2 SWAP1 PUSH2 0x5D34 JUMP JUMPDEST PUSH2 0x2F05 JUMP JUMPDEST STOP JUMPDEST CALLVALUE DUP1 ISZERO PUSH2 0x78F JUMPI PUSH1 0x0 DUP1 REVERT JUMPDEST POP PUSH2 0x798 PUSH2 0x33A5 JUMP JUMPDEST PUSH1 0x40 MLOAD PUSH2 0x7A5 SWAP2 SWAP1 PUSH2 0x593F JUMP JUMPDEST PUSH1 0x40 MLOAD DUP1 SWAP2 SUB SWAP1 RETURN JUMPDEST CALLVALUE DUP1 ISZERO PUSH2 0x7BA JUMPI PUSH1 0x0 DUP1 REVERT JUMPDEST POP PUSH2 0x7D5 PUSH1 0x4 DUP1 CALLDATASIZE SUB DUP2 ADD SWAP1 PUSH2 0x7D0 SWAP2 SWAP1 PUSH2 0x5990 JUMP JUMPDEST PUSH2 0x33CB JUMP JUMPDEST PUSH1 0x40 MLOAD PUSH2 0x7E3 SWAP3 SWAP2 SWAP1 PUSH2 0x5BDC JUMP JUMPDEST PUSH1 0x40 MLOAD DUP1 SWAP2 SUB SWAP1 RETURN JUMPDEST CALLVALUE DUP1 ISZERO PUSH2 0x7F8 JUMPI PUSH1 0x0 DUP1 REVERT JUMPDEST POP PUSH2 0x813 PUSH1 0x4 DUP1 CALLDATASIZE SUB DUP2 ADD SWAP1 PUSH2 0x80E SWAP2 SWAP1 PUSH2 0x5D9B JUMP JUMPDEST PUSH2 0x3547 JUMP JUMPDEST PUSH1 0x40 MLOAD PUSH2 0x820 SWAP2 SWAP1 PUSH2 0x58E3 JUMP JUMPDEST PUSH1 0x40 MLOAD DUP1 SWAP2 SUB SWAP1 RETURN JUMPDEST CALLVALUE DUP1 ISZERO PUSH2 0x835 JUMPI PUSH1 0x0 DUP1 REVERT JUMPDEST POP PUSH2 0x850 PUSH1 0x4 DUP1 CALLDATASIZE SUB DUP2 ADD SWAP1 PUSH2 0x84B SWAP2 SWAP1 PUSH2 0x5EA9 JUMP JUMPDEST PUSH2 0x35F2 JUMP JUMPDEST PUSH1 0x40 MLOAD PUSH2 0x85D SWAP2 SWAP1 PUSH2 0x5AC8 JUMP JUMPDEST PUSH1 0x40 MLOAD DUP1 SWAP2 SUB SWAP1 RETURN JUMPDEST CALLVALUE DUP1 ISZERO PUSH2 0x872 JUMPI PUSH1 0x0 DUP1 REVERT JUMPDEST POP PUSH2 0x88D PUSH1 0x4 DUP1 CALLDATASIZE SUB DUP2 ADD SWAP1 PUSH2 0x888 SWAP2 SWAP1 PUSH2 0x5FBB JUMP JUMPDEST PUSH2 0x3A0B JUMP JUMPDEST STOP JUMPDEST CALLVALUE DUP1 ISZERO PUSH2 0x89B JUMPI PUSH1 0x0 DUP1 REVERT JUMPDEST POP PUSH2 0x8A4 PUSH2 0x3EBC JUMP JUMPDEST PUSH1 0x40 MLOAD PUSH2 0x8B1 SWAP2 SWAP1 PUSH2 0x6052 JUMP JUMPDEST PUSH1 0x40 MLOAD DUP1 SWAP2 SUB SWAP1 RETURN JUMPDEST CALLVALUE DUP1 ISZERO PUSH2 0x8C6 JUMPI PUSH1 0x0 DUP1 REVERT JUMPDEST POP PUSH2 0x8CF PUSH2 0x3EE2 JUMP JUMPDEST PUSH1 0x40 MLOAD PUSH2 0x8DC SWAP2 SWAP1 PUSH2 0x593F JUMP JUMPDEST PUSH1 0x40 MLOAD DUP1 SWAP2 SUB SWAP1 RETURN JUMPDEST CALLVALUE DUP1 ISZERO PUSH2 0x8F1 JUMPI PUSH1 0x0 DUP1 REVERT JUMPDEST POP PUSH2 0x90C PUSH1 0x4 DUP1 CALLDATASIZE SUB DUP2 ADD SWAP1 PUSH2 0x907 SWAP2 SWAP1 PUSH2 0x606D JUMP JUMPDEST PUSH2 0x3F08 JUMP JUMPDEST PUSH1 0x40 MLOAD PUSH2 0x919 SWAP2 SWAP1 PUSH2 0x58E3 JUMP JUMPDEST PUSH1 0x40 MLOAD DUP1 SWAP2 SUB SWAP1 RETURN JUMPDEST CALLVALUE DUP1 ISZERO PUSH2 0x92E JUMPI PUSH1 0x0 DUP1 REVERT JUMPDEST POP PUSH2 0x949 PUSH1 0x4 DUP1 CALLDATASIZE SUB DUP2 ADD SWAP1 PUSH2 0x944 SWAP2 SWAP1 PUSH2 0x60AD JUMP JUMPDEST PUSH2 0x419B JUMP JUMPDEST PUSH1 0x40 MLOAD PUSH2 0x956 SWAP2 SWAP1 PUSH2 0x60FC JUMP JUMPDEST PUSH1 0x40 MLOAD DUP1 SWAP2 SUB SWAP1 RETURN JUMPDEST CALLVALUE DUP1 ISZERO PUSH2 0x96B JUMPI PUSH1 0x0 DUP1 REVERT JUMPDEST POP PUSH2 0x974 PUSH2 0x42E5 JUMP JUMPDEST PUSH1 0x40 MLOAD PUSH2 0x981 SWAP2 SWAP1 PUSH2 0x593F JUMP JUMPDEST PUSH1 0x40 MLOAD DUP1 SWAP2 SUB SWAP1 RETURN JUMPDEST CALLVALUE DUP1 ISZERO PUSH2 0x996 JUMPI PUSH1 0x0 DUP1 REVERT JUMPDEST POP PUSH2 0x9B1 PUSH1 0x4 DUP1 CALLDATASIZE SUB DUP2 ADD SWAP1 PUSH2 0x9AC SWAP2 SWAP1 PUSH2 0x5AE3 JUMP JUMPDEST PUSH2 0x430B JUMP JUMPDEST PUSH1 0x40 MLOAD PUSH2 0x9BF SWAP3 SWAP2 SWAP1 PUSH2 0x5BDC JUMP JUMPDEST PUSH1 0x40 MLOAD DUP1 SWAP2 SUB SWAP1 RETURN JUMPDEST CALLVALUE DUP1 ISZERO PUSH2 0x9D4 JUMPI PUSH1 0x0 DUP1 REVERT JUMPDEST POP PUSH2 0x9EF PUSH1 0x4 DUP1 CALLDATASIZE SUB DUP2 ADD SWAP1 PUSH2 0x9EA SWAP2 SWAP1 PUSH2 0x5AE3 JUMP JUMPDEST PUSH2 0x4439 JUMP JUMPDEST STOP JUMPDEST CALLVALUE DUP1 ISZERO PUSH2 0x9FD JUMPI PUSH1 0x0 DUP1 REVERT JUMPDEST POP PUSH2 0xA18 PUSH1 0x4 DUP1 CALLDATASIZE SUB DUP2 ADD SWAP1 PUSH2 0xA13 SWAP2 SWAP1 PUSH2 0x5AE3 JUMP JUMPDEST PUSH2 0x45BF JUMP JUMPDEST PUSH1 0x40 MLOAD PUSH2 0xA26 SWAP3 SWAP2 SWAP1 PUSH2 0x6117 JUMP JUMPDEST PUSH1 0x40 MLOAD DUP1 SWAP2 SUB SWAP1 RETURN JUMPDEST CALLVALUE DUP1 ISZERO PUSH2 0xA3B JUMPI PUSH1 0x0 DUP1 REVERT JUMPDEST POP PUSH2 0xA56 PUSH1 0x4 DUP1 CALLDATASIZE SUB DUP2 ADD SWAP1 PUSH2 0xA51 SWAP2 SWAP1 PUSH2 0x5990 JUMP JUMPDEST PUSH2 0x46D0 JUMP JUMPDEST PUSH1 0x40 MLOAD PUSH2 0xA63 SWAP2 SWAP1 PUSH2 0x593F JUMP JUMPDEST PUSH1 0x40 MLOAD DUP1 SWAP2 SUB SWAP1 RETURN JUMPDEST CALLVALUE DUP1 ISZERO PUSH2 0xA78 JUMPI PUSH1 0x0 DUP1 REVERT JUMPDEST POP PUSH2 0xA93 PUSH1 0x4 DUP1 CALLDATASIZE SUB DUP2 ADD SWAP1 PUSH2 0xA8E SWAP2 SWAP1 PUSH2 0x5C05 JUMP JUMPDEST PUSH2 0x4E7D JUMP JUMPDEST PUSH1 0x40 MLOAD PUSH2 0xAA0 SWAP2 SWAP1 PUSH2 0x5AC8 JUMP JUMPDEST PUSH1 0x40 MLOAD DUP1 SWAP2 SUB SWAP1 RETURN JUMPDEST PUSH1 0x7 SLOAD DUP2 JUMP JUMPDEST PUSH1 0x1 PUSH1 0x0 SWAP1 SLOAD SWAP1 PUSH2 0x100 EXP SWAP1 DIV PUSH20 0xFFFFFFFFFFFFFFFFFFFFFFFFFFFFFFFFFFFFFFFF AND DUP2 JUMP JUMPDEST PUSH1 0x0 PUSH1 0xB PUSH1 0x0 DUP5 PUSH20 0xFFFFFFFFFFFFFFFFFFFFFFFFFFFFFFFFFFFFFFFF AND PUSH20 0xFFFFFFFFFFFFFFFFFFFFFFFFFFFFFFFFFFFFFFFF AND DUP2 MSTORE PUSH1 0x20 ADD SWAP1 DUP2 MSTORE PUSH1 0x20 ADD PUSH1 0x0 KECCAK256 PUSH1 0x0 DUP4 PUSH20 0xFFFFFFFFFFFFFFFFFFFFFFFFFFFFFFFFFFFFFFFF AND PUSH20 0xFFFFFFFFFFFFFFFFFFFFFFFFFFFFFFFFFFFFFFFF AND DUP2 MSTORE PUSH1 0x20 ADD SWAP1 DUP2 MSTORE PUSH1 0x20 ADD PUSH1 0x0 KECCAK256 PUSH1 0x0 SWAP1 SLOAD SWAP1 PUSH2 0x100 EXP SWAP1 DIV PUSH20 0xFFFFFFFFFFFFFFFFFFFFFFFFFFFFFFFFFFFFFFFF AND SWAP1 POP SWAP3 SWAP2 POP POP JUMP JUMPDEST PUSH1 0x0 DUP4 PUSH1 0x0 DUP2 SUB PUSH2 0xBC2 JUMPI PUSH1 0x40 MLOAD PUSH32 0x8C379A000000000000000000000000000000000000000000000000000000000 DUP2 MSTORE PUSH1 0x4 ADD PUSH2 0xBB9 SWAP1 PUSH2 0x619D JUMP JUMPDEST PUSH1 0x40 MLOAD DUP1 SWAP2 SUB SWAP1 REVERT JUMPDEST PUSH1 0x2 PUSH1 0x0 SLOAD SUB PUSH2 0xC07 JUMPI PUSH1 0x40 MLOAD PUSH32 0x8C379A000000000000000000000000000000000000000000000000000000000 DUP2 MSTORE PUSH1 0x4 ADD PUSH2 0xBFE SWAP1 PUSH2 0x6209 JUMP JUMPDEST PUSH1 0x40 MLOAD DUP1 SWAP2 SUB SWAP1 REVERT JUMPDEST PUSH1 0x2 PUSH1 0x0 DUP2 SWAP1 SSTORE POP PUSH1 0x0 DUP1 PUSH2 0xC1B DUP10 PUSH2 0x45BF JUMP JUMPDEST SWAP2 POP SWAP2 POP PUSH1 0x0 PUSH20 0xFFFFFFFFFFFFFFFFFFFFFFFFFFFFFFFFFFFFFFFF AND DUP3 PUSH20 0xFFFFFFFFFFFFFFFFFFFFFFFFFFFFFFFFFFFFFFFF AND SUB PUSH2 0xC8E JUMPI PUSH1 0x40 MLOAD PUSH32 0x8C379A000000000000000000000000000000000000000000000000000000000 DUP2 MSTORE PUSH1 0x4 ADD PUSH2 0xC85 SWAP1 PUSH2 0x6275 JUMP JUMPDEST PUSH1 0x40 MLOAD DUP1 SWAP2 SUB SWAP1 REVERT JUMPDEST PUSH1 0x0 DUP10 SWAP1 POP PUSH1 0x0 CALLER SWAP1 POP PUSH1 0x0 PUSH1 0x6 PUSH1 0x0 SWAP1 SLOAD SWAP1 PUSH2 0x100 EXP SWAP1 DIV PUSH20 0xFFFFFFFFFFFFFFFFFFFFFFFFFFFFFFFFFFFFFFFF AND PUSH20 0xFFFFFFFFFFFFFFFFFFFFFFFFFFFFFFFFFFFFFFFF AND PUSH4 0x4B7CAB4A DUP14 DUP14 PUSH1 0x40 MLOAD DUP4 PUSH4 0xFFFFFFFF AND PUSH1 0xE0 SHL DUP2 MSTORE PUSH1 0x4 ADD PUSH2 0xCF7 SWAP3 SWAP2 SWAP1 PUSH2 0x6117 JUMP JUMPDEST PUSH1 0x20 PUSH1 0x40 MLOAD DUP1 DUP4 SUB DUP2 DUP7 GAS STATICCALL ISZERO DUP1 ISZERO PUSH2 0xD14 JUMPI RETURNDATASIZE PUSH1 0x0 DUP1 RETURNDATACOPY RETURNDATASIZE PUSH1 0x0 REVERT JUMPDEST POP POP POP POP PUSH1 0x40 MLOAD RETURNDATASIZE PUSH1 0x1F NOT PUSH1 0x1F DUP3 ADD AND DUP3 ADD DUP1 PUSH1 0x40 MSTORE POP DUP2 ADD SWAP1 PUSH2 0xD38 SWAP2 SWAP1 PUSH2 0x62AA JUMP JUMPDEST SWAP1 POP PUSH1 0x0 DUP2 GT PUSH2 0xD7D JUMPI PUSH1 0x40 MLOAD PUSH32 0x8C379A000000000000000000000000000000000000000000000000000000000 DUP2 MSTORE PUSH1 0x4 ADD PUSH2 0xD74 SWAP1 PUSH2 0x6323 JUMP JUMPDEST PUSH1 0x40 MLOAD DUP1 SWAP2 SUB SWAP1 REVERT JUMPDEST DUP8 ISZERO PUSH2 0xF59 JUMPI PUSH1 0x0 PUSH1 0x6 PUSH1 0x0 SWAP1 SLOAD SWAP1 PUSH2 0x100 EXP SWAP1 DIV PUSH20 0xFFFFFFFFFFFFFFFFFFFFFFFFFFFFFFFFFFFFFFFF AND PUSH20 0xFFFFFFFFFFFFFFFFFFFFFFFFFFFFFFFFFFFFFFFF AND PUSH4 0x4B7CAB4A DUP15 DUP13 PUSH1 0x40 MLOAD DUP4 PUSH4 0xFFFFFFFF AND PUSH1 0xE0 SHL DUP2 MSTORE PUSH1 0x4 ADD PUSH2 0xDE2 SWAP3 SWAP2 SWAP1 PUSH2 0x6117 JUMP JUMPDEST PUSH1 0x20 PUSH1 0x40 MLOAD DUP1 DUP4 SUB DUP2 DUP7 GAS STATICCALL ISZERO DUP1 ISZERO PUSH2 0xDFF JUMPI RETURNDATASIZE PUSH1 0x0 DUP1 RETURNDATACOPY RETURNDATASIZE PUSH1 0x0 REVERT JUMPDEST POP POP POP POP PUSH1 0x40 MLOAD RETURNDATASIZE PUSH1 0x1F NOT PUSH1 0x1F DUP3 ADD AND DUP3 ADD DUP1 PUSH1 0x40 MSTORE POP DUP2 ADD SWAP1 PUSH2 0xE23 SWAP2 SWAP1 PUSH2 0x62AA JUMP JUMPDEST SWAP1 POP PUSH1 0x0 DUP2 SUB PUSH2 0xED0 JUMPI PUSH1 0x6 PUSH1 0x0 SWAP1 SLOAD SWAP1 PUSH2 0x100 EXP SWAP1 DIV PUSH20 0xFFFFFFFFFFFFFFFFFFFFFFFFFFFFFFFFFFFFFFFF AND PUSH20 0xFFFFFFFFFFFFFFFFFFFFFFFFFFFFFFFFFFFFFFFF AND PUSH4 0x11631065 DUP15 DUP13 PUSH1 0x40 MLOAD DUP4 PUSH4 0xFFFFFFFF AND PUSH1 0xE0 SHL DUP2 MSTORE PUSH1 0x4 ADD PUSH2 0xE8A SWAP3 SWAP2 SWAP1 PUSH2 0x6117 JUMP JUMPDEST PUSH1 0x20 PUSH1 0x40 MLOAD DUP1 DUP4 SUB DUP2 PUSH1 0x0 DUP8 GAS CALL ISZERO DUP1 ISZERO PUSH2 0xEA9 JUMPI RETURNDATASIZE PUSH1 0x0 DUP1 RETURNDATACOPY RETURNDATASIZE PUSH1 0x0 REVERT JUMPDEST POP POP POP POP PUSH1 0x40 MLOAD RETURNDATASIZE PUSH1 0x1F NOT PUSH1 0x1F DUP3 ADD AND DUP3 ADD DUP1 PUSH1 0x40 MSTORE POP DUP2 ADD SWAP1 PUSH2 0xECD SWAP2 SWAP1 PUSH2 0x62AA JUMP JUMPDEST SWAP1 POP JUMPDEST DUP4 PUSH20 0xFFFFFFFFFFFFFFFFFFFFFFFFFFFFFFFFFFFFFFFF AND PUSH3 0xCB8E22 DUP4 DUP14 DUP14 DUP6 PUSH1 0x40 MLOAD DUP6 PUSH4 0xFFFFFFFF AND PUSH1 0xE0 SHL DUP2 MSTORE PUSH1 0x4 ADD PUSH2 0xF0E SWAP5 SWAP4 SWAP3 SWAP2 SWAP1 PUSH2 0x6343 JUMP JUMPDEST PUSH1 0x20 PUSH1 0x40 MLOAD DUP1 DUP4 SUB DUP2 PUSH1 0x0 DUP8 GAS CALL ISZERO DUP1 ISZERO PUSH2 0xF2D JUMPI RETURNDATASIZE PUSH1 0x0 DUP1 RETURNDATACOPY RETURNDATASIZE PUSH1 0x0 REVERT JUMPDEST POP POP POP POP PUSH1 0x40 MLOAD RETURNDATASIZE PUSH1 0x1F NOT PUSH1 0x1F DUP3 ADD AND DUP3 ADD DUP1 PUSH1 0x40 MSTORE POP DUP2 ADD SWAP1 PUSH2 0xF51 SWAP2 SWAP1 PUSH2 0x639D JUMP JUMPDEST SWAP8 POP POP PUSH2 0xFDE JUMP JUMPDEST DUP3 PUSH20 0xFFFFFFFFFFFFFFFFFFFFFFFFFFFFFFFFFFFFFFFF AND PUSH3 0xCB8E22 DUP3 DUP13 DUP13 PUSH1 0x0 PUSH1 0x40 MLOAD DUP6 PUSH4 0xFFFFFFFF AND PUSH1 0xE0 SHL DUP2 MSTORE PUSH1 0x4 ADD PUSH2 0xF98 SWAP5 SWAP4 SWAP3 SWAP2 SWAP1 PUSH2 0x640F JUMP JUMPDEST PUSH1 0x20 PUSH1 0x40 MLOAD DUP1 DUP4 SUB DUP2 PUSH1 0x0 DUP8 GAS CALL ISZERO DUP1 ISZERO PUSH2 0xFB7 JUMPI RETURNDATASIZE PUSH1 0x0 DUP1 RETURNDATACOPY RETURNDATASIZE PUSH1 0x0 REVERT JUMPDEST POP POP POP POP PUSH1 0x40 MLOAD RETURNDATASIZE PUSH1 0x1F NOT PUSH1 0x1F DUP3 ADD AND DUP3 ADD DUP1 PUSH1 0x40 MSTORE POP DUP2 ADD SWAP1 PUSH2 0xFDB SWAP2 SWAP1 PUSH2 0x639D JUMP JUMPDEST SWAP7 POP JUMPDEST PUSH1 0x0 DUP8 SLT ISZERO PUSH2 0x101E JUMPI PUSH2 0x101D DUP3 DUP14 DUP10 PUSH2 0xFF6 SWAP1 PUSH2 0x6483 JUMP JUMPDEST DUP9 PUSH20 0xFFFFFFFFFFFFFFFFFFFFFFFFFFFFFFFFFFFFFFFF AND PUSH2 0x5106 SWAP1 SWAP4 SWAP3 SWAP2 SWAP1 PUSH4 0xFFFFFFFF AND JUMP JUMPDEST JUMPDEST PUSH1 0x0 DUP8 SGT ISZERO PUSH2 0x1055 JUMPI PUSH2 0x1054 DUP3 DUP14 DUP10 DUP8 PUSH20 0xFFFFFFFFFFFFFFFFFFFFFFFFFFFFFFFFFFFFFFFF AND PUSH2 0x5106 SWAP1 SWAP4 SWAP3 SWAP2 SWAP1 PUSH4 0xFFFFFFFF AND JUMP JUMPDEST JUMPDEST POP POP POP POP POP PUSH1 0x1 PUSH1 0x0 DUP2 SWAP1 SSTORE POP POP SWAP6 SWAP5 POP POP POP POP POP JUMP JUMPDEST PUSH1 0x0 DUP1 PUSH2 0x1078 DUP4 PUSH2 0x45BF JUMP JUMPDEST POP SWAP1 POP PUSH1 0x0 PUSH20 0xFFFFFFFFFFFFFFFFFFFFFFFFFFFFFFFFFFFFFFFF AND DUP2 PUSH20 0xFFFFFFFFFFFFFFFFFFFFFFFFFFFFFFFFFFFFFFFF AND EQ PUSH2 0x1121 JUMPI DUP3 PUSH20 0xFFFFFFFFFFFFFFFFFFFFFFFFFFFFFFFFFFFFFFFF AND PUSH4 0x4ED2B8AC PUSH1 0x40 MLOAD DUP2 PUSH4 0xFFFFFFFF AND PUSH1 0xE0 SHL DUP2 MSTORE PUSH1 0x4 ADD PUSH1 0x20 PUSH1 0x40 MLOAD DUP1 DUP4 SUB DUP2 DUP7 GAS STATICCALL ISZERO DUP1 ISZERO PUSH2 0x10FA JUMPI RETURNDATASIZE PUSH1 0x0 DUP1 RETURNDATACOPY RETURNDATASIZE PUSH1 0x0 REVERT JUMPDEST POP POP POP POP PUSH1 0x40 MLOAD RETURNDATASIZE PUSH1 0x1F NOT PUSH1 0x1F DUP3 ADD AND DUP3 ADD DUP1 PUSH1 0x40 MSTORE POP DUP2 ADD SWAP1 PUSH2 0x111E SWAP2 SWAP1 PUSH2 0x62AA JUMP JUMPDEST SWAP2 POP JUMPDEST POP SWAP2 SWAP1 POP JUMP JUMPDEST CALLER PUSH20 0xFFFFFFFFFFFFFFFFFFFFFFFFFFFFFFFFFFFFFFFF AND PUSH1 0x1 PUSH1 0x0 SWAP1 SLOAD SWAP1 PUSH2 0x100 EXP SWAP1 DIV PUSH20 0xFFFFFFFFFFFFFFFFFFFFFFFFFFFFFFFFFFFFFFFF AND PUSH20 0xFFFFFFFFFFFFFFFFFFFFFFFFFFFFFFFFFFFFFFFF AND EQ PUSH2 0x11B7 JUMPI PUSH1 0x40 MLOAD PUSH32 0x8C379A000000000000000000000000000000000000000000000000000000000 DUP2 MSTORE PUSH1 0x4 ADD PUSH2 0x11AE SWAP1 PUSH2 0x6517 JUMP JUMPDEST PUSH1 0x40 MLOAD DUP1 SWAP2 SUB SWAP1 REVERT JUMPDEST PUSH1 0x0 PUSH20 0xFFFFFFFFFFFFFFFFFFFFFFFFFFFFFFFFFFFFFFFF AND DUP2 PUSH20 0xFFFFFFFFFFFFFFFFFFFFFFFFFFFFFFFFFFFFFFFF AND SUB PUSH2 0x1226 JUMPI PUSH1 0x40 MLOAD PUSH32 0x8C379A000000000000000000000000000000000000000000000000000000000 DUP2 MSTORE PUSH1 0x4 ADD PUSH2 0x121D SWAP1 PUSH2 0x6583 JUMP JUMPDEST PUSH1 0x40 MLOAD DUP1 SWAP2 SUB SWAP1 REVERT JUMPDEST PUSH1 0x0 PUSH20 0xFFFFFFFFFFFFFFFFFFFFFFFFFFFFFFFFFFFFFFFF AND PUSH1 0x6 PUSH1 0x0 SWAP1 SLOAD SWAP1 PUSH2 0x100 EXP SWAP1 DIV PUSH20 0xFFFFFFFFFFFFFFFFFFFFFFFFFFFFFFFFFFFFFFFF AND PUSH20 0xFFFFFFFFFFFFFFFFFFFFFFFFFFFFFFFFFFFFFFFF AND EQ PUSH2 0x12B7 JUMPI PUSH1 0x40 MLOAD PUSH32 0x8C379A000000000000000000000000000000000000000000000000000000000 DUP2 MSTORE PUSH1 0x4 ADD PUSH2 0x12AE SWAP1 PUSH2 0x6615 JUMP JUMPDEST PUSH1 0x40 MLOAD DUP1 SWAP2 SUB SWAP1 REVERT JUMPDEST DUP1 PUSH1 0x6 PUSH1 0x0 PUSH2 0x100 EXP DUP2 SLOAD DUP2 PUSH20 0xFFFFFFFFFFFFFFFFFFFFFFFFFFFFFFFFFFFFFFFF MUL NOT AND SWAP1 DUP4 PUSH20 0xFFFFFFFFFFFFFFFFFFFFFFFFFFFFFFFFFFFFFFFF AND MUL OR SWAP1 SSTORE POP DUP1 PUSH20 0xFFFFFFFFFFFFFFFFFFFFFFFFFFFFFFFFFFFFFFFF AND PUSH32 0xD1BEE18DAC08EAF4A21F4327B1C36D39ACE87F0F53021D8DDD81A78B3E3C3F94 PUSH1 0x40 MLOAD PUSH1 0x40 MLOAD DUP1 SWAP2 SUB SWAP1 LOG2 POP JUMP JUMPDEST CALLER PUSH20 0xFFFFFFFFFFFFFFFFFFFFFFFFFFFFFFFFFFFFFFFF AND PUSH1 0x1 PUSH1 0x0 SWAP1 SLOAD SWAP1 PUSH2 0x100 EXP SWAP1 DIV PUSH20 0xFFFFFFFFFFFFFFFFFFFFFFFFFFFFFFFFFFFFFFFF AND PUSH20 0xFFFFFFFFFFFFFFFFFFFFFFFFFFFFFFFFFFFFFFFF AND EQ PUSH2 0x13CE JUMPI PUSH1 0x40 MLOAD PUSH32 0x8C379A000000000000000000000000000000000000000000000000000000000 DUP2 MSTORE PUSH1 0x4 ADD PUSH2 0x13C5 SWAP1 PUSH2 0x6517 JUMP JUMPDEST PUSH1 0x40 MLOAD DUP1 SWAP2 SUB SWAP1 REVERT JUMPDEST PUSH1 0x0 PUSH20 0xFFFFFFFFFFFFFFFFFFFFFFFFFFFFFFFFFFFFFFFF AND DUP2 PUSH20 0xFFFFFFFFFFFFFFFFFFFFFFFFFFFFFFFFFFFFFFFF AND SUB PUSH2 0x143D JUMPI PUSH1 0x40 MLOAD PUSH32 0x8C379A000000000000000000000000000000000000000000000000000000000 DUP2 MSTORE PUSH1 0x4 ADD PUSH2 0x1434 SWAP1 PUSH2 0x6583 JUMP JUMPDEST PUSH1 0x40 MLOAD DUP1 SWAP2 SUB SWAP1 REVERT JUMPDEST DUP1 PUSH1 0x2 PUSH1 0x0 PUSH2 0x100 EXP DUP2 SLOAD DUP2 PUSH20 0xFFFFFFFFFFFFFFFFFFFFFFFFFFFFFFFFFFFFFFFF MUL NOT AND SWAP1 DUP4 PUSH20 0xFFFFFFFFFFFFFFFFFFFFFFFFFFFFFFFFFFFFFFFF AND MUL OR SWAP1 SSTORE POP DUP1 PUSH20 0xFFFFFFFFFFFFFFFFFFFFFFFFFFFFFFFFFFFFFFFF AND PUSH32 0x84CA56628A3B53CF3ED4E99326974896A563E32DC49AFA1EA8D3481CC23067D PUSH1 0x40 MLOAD PUSH1 0x40 MLOAD DUP1 SWAP2 SUB SWAP1 LOG2 POP JUMP JUMPDEST CALLER PUSH20 0xFFFFFFFFFFFFFFFFFFFFFFFFFFFFFFFFFFFFFFFF AND PUSH1 0x1 PUSH1 0x0 SWAP1 SLOAD SWAP1 PUSH2 0x100 EXP SWAP1 DIV PUSH20 0xFFFFFFFFFFFFFFFFFFFFFFFFFFFFFFFFFFFFFFFF AND PUSH20 0xFFFFFFFFFFFFFFFFFFFFFFFFFFFFFFFFFFFFFFFF AND EQ PUSH2 0x1554 JUMPI PUSH1 0x40 MLOAD PUSH32 0x8C379A000000000000000000000000000000000000000000000000000000000 DUP2 MSTORE PUSH1 0x4 ADD PUSH2 0x154B SWAP1 PUSH2 0x6517 JUMP JUMPDEST PUSH1 0x40 MLOAD DUP1 SWAP2 SUB SWAP1 REVERT JUMPDEST PUSH1 0x0 DUP2 PUSH1 0xFF AND GT DUP1 ISZERO PUSH2 0x156A JUMPI POP PUSH1 0x63 DUP2 PUSH1 0xFF AND LT JUMPDEST PUSH2 0x15A9 JUMPI PUSH1 0x40 MLOAD PUSH32 0x8C379A000000000000000000000000000000000000000000000000000000000 DUP2 MSTORE PUSH1 0x4 ADD PUSH2 0x15A0 SWAP1 PUSH2 0x6681 JUMP JUMPDEST PUSH1 0x40 MLOAD DUP1 SWAP2 SUB SWAP1 REVERT JUMPDEST PUSH1 0x0 PUSH2 0x15B4 DUP4 PUSH2 0x45BF JUMP JUMPDEST POP SWAP1 POP PUSH1 0x0 PUSH20 0xFFFFFFFFFFFFFFFFFFFFFFFFFFFFFFFFFFFFFFFF AND DUP2 PUSH20 0xFFFFFFFFFFFFFFFFFFFFFFFFFFFFFFFFFFFFFFFF AND EQ PUSH2 0x1657 JUMPI DUP3 PUSH20 0xFFFFFFFFFFFFFFFFFFFFFFFFFFFFFFFFFFFFFFFF AND PUSH4 0x3D101C12 DUP4 PUSH1 0x40 MLOAD DUP3 PUSH4 0xFFFFFFFF AND PUSH1 0xE0 SHL DUP2 MSTORE PUSH1 0x4 ADD PUSH2 0x1624 SWAP2 SWAP1 PUSH2 0x66B0 JUMP JUMPDEST PUSH1 0x0 PUSH1 0x40 MLOAD DUP1 DUP4 SUB DUP2 PUSH1 0x0 DUP8 DUP1 EXTCODESIZE ISZERO DUP1 ISZERO PUSH2 0x163E JUMPI PUSH1 0x0 DUP1 REVERT JUMPDEST POP GAS CALL ISZERO DUP1 ISZERO PUSH2 0x1652 JUMPI RETURNDATASIZE PUSH1 0x0 DUP1 RETURNDATACOPY RETURNDATASIZE PUSH1 0x0 REVERT JUMPDEST POP POP POP POP JUMPDEST POP POP POP JUMP JUMPDEST CALLER PUSH20 0xFFFFFFFFFFFFFFFFFFFFFFFFFFFFFFFFFFFFFFFF AND PUSH1 0x1 PUSH1 0x0 SWAP1 SLOAD SWAP1 PUSH2 0x100 EXP SWAP1 DIV PUSH20 0xFFFFFFFFFFFFFFFFFFFFFFFFFFFFFFFFFFFFFFFF AND PUSH20 0xFFFFFFFFFFFFFFFFFFFFFFFFFFFFFFFFFFFFFFFF AND EQ PUSH2 0x16EC JUMPI PUSH1 0x40 MLOAD PUSH32 0x8C379A000000000000000000000000000000000000000000000000000000000 DUP2 MSTORE PUSH1 0x4 ADD PUSH2 0x16E3 SWAP1 PUSH2 0x6517 JUMP JUMPDEST PUSH1 0x40 MLOAD DUP1 SWAP2 SUB SWAP1 REVERT JUMPDEST PUSH1 0x0 DUP4 PUSH1 0xFF AND GT DUP1 ISZERO PUSH2 0x1702 JUMPI POP PUSH1 0x63 DUP4 PUSH1 0xFF AND LT JUMPDEST PUSH2 0x1741 JUMPI PUSH1 0x40 MLOAD PUSH32 0x8C379A000000000000000000000000000000000000000000000000000000000 DUP2 MSTORE PUSH1 0x4 ADD PUSH2 0x1738 SWAP1 PUSH2 0x6681 JUMP JUMPDEST PUSH1 0x40 MLOAD DUP1 SWAP2 SUB SWAP1 REVERT JUMPDEST PUSH1 0x0 DUP3 PUSH1 0xFF AND GT DUP1 ISZERO PUSH2 0x1765 JUMPI POP DUP3 PUSH1 0x64 PUSH2 0x175C SWAP2 SWAP1 PUSH2 0x66CB JUMP JUMPDEST PUSH1 0xFF AND DUP3 PUSH1 0xFF AND LT JUMPDEST PUSH2 0x17A4 JUMPI PUSH1 0x40 MLOAD PUSH32 0x8C379A000000000000000000000000000000000000000000000000000000000 DUP2 MSTORE PUSH1 0x4 ADD PUSH2 0x179B SWAP1 PUSH2 0x6681 JUMP JUMPDEST PUSH1 0x40 MLOAD DUP1 SWAP2 SUB SWAP1 REVERT JUMPDEST PUSH1 0x0 DUP2 PUSH1 0xFF AND GT DUP1 ISZERO PUSH2 0x17BA JUMPI POP PUSH1 0x5A DUP2 PUSH1 0xFF AND LT JUMPDEST PUSH2 0x17F9 JUMPI PUSH1 0x40 MLOAD PUSH32 0x8C379A000000000000000000000000000000000000000000000000000000000 DUP2 MSTORE PUSH1 0x4 ADD PUSH2 0x17F0 SWAP1 PUSH2 0x6681 JUMP JUMPDEST PUSH1 0x40 MLOAD DUP1 SWAP2 SUB SWAP1 REVERT JUMPDEST DUP3 PUSH1 0xA PUSH1 0x0 PUSH2 0x100 EXP DUP2 SLOAD DUP2 PUSH1 0xFF MUL NOT AND SWAP1 DUP4 PUSH1 0xFF AND MUL OR SWAP1 SSTORE POP DUP2 PUSH1 0xA PUSH1 0x1 PUSH2 0x100 EXP DUP2 SLOAD DUP2 PUSH1 0xFF MUL NOT AND SWAP1 DUP4 PUSH1 0xFF AND MUL OR SWAP1 SSTORE POP DUP1 PUSH1 0xA PUSH1 0x2 PUSH2 0x100 EXP DUP2 SLOAD DUP2 PUSH1 0xFF MUL NOT AND SWAP1 DUP4 PUSH1 0xFF AND MUL OR SWAP1 SSTORE POP PUSH32 0x34D4BE8EFABA2086807B9B61A5F36C72FCEBA595D95D97E8551952129BDA923B DUP4 DUP4 DUP4 PUSH1 0x40 MLOAD PUSH2 0x187D SWAP4 SWAP3 SWAP2 SWAP1 PUSH2 0x6700 JUMP JUMPDEST PUSH1 0x40 MLOAD DUP1 SWAP2 SUB SWAP1 LOG1 POP POP POP JUMP JUMPDEST PUSH1 0x0 DUP1 PUSH1 0x0 PUSH2 0x1898 DUP6 PUSH2 0x45BF JUMP JUMPDEST POP SWAP1 POP PUSH1 0x0 PUSH20 0xFFFFFFFFFFFFFFFFFFFFFFFFFFFFFFFFFFFFFFFF AND DUP2 PUSH20 0xFFFFFFFFFFFFFFFFFFFFFFFFFFFFFFFFFFFFFFFF AND EQ PUSH2 0x19FE JUMPI PUSH1 0x0 PUSH1 0x6 PUSH1 0x0 SWAP1 SLOAD SWAP1 PUSH2 0x100 EXP SWAP1 DIV PUSH20 0xFFFFFFFFFFFFFFFFFFFFFFFFFFFFFFFFFFFFFFFF AND PUSH20 0xFFFFFFFFFFFFFFFFFFFFFFFFFFFFFFFFFFFFFFFF AND PUSH4 0x4B7CAB4A DUP8 DUP8 PUSH1 0x40 MLOAD DUP4 PUSH4 0xFFFFFFFF AND PUSH1 0xE0 SHL DUP2 MSTORE PUSH1 0x4 ADD PUSH2 0x192E SWAP3 SWAP2 SWAP1 PUSH2 0x6117 JUMP JUMPDEST PUSH1 0x20 PUSH1 0x40 MLOAD DUP1 DUP4 SUB DUP2 DUP7 GAS STATICCALL ISZERO DUP1 ISZERO PUSH2 0x194B JUMPI RETURNDATASIZE PUSH1 0x0 DUP1 RETURNDATACOPY RETURNDATASIZE PUSH1 0x0 REVERT JUMPDEST POP POP POP POP PUSH1 0x40 MLOAD RETURNDATASIZE PUSH1 0x1F NOT PUSH1 0x1F DUP3 ADD AND DUP3 ADD DUP1 PUSH1 0x40 MSTORE POP DUP2 ADD SWAP1 PUSH2 0x196F SWAP2 SWAP1 PUSH2 0x62AA JUMP JUMPDEST SWAP1 POP PUSH1 0x0 DUP2 GT ISZERO PUSH2 0x19FC JUMPI DUP6 PUSH20 0xFFFFFFFFFFFFFFFFFFFFFFFFFFFFFFFFFFFFFFFF AND PUSH4 0xD336BBD5 DUP3 PUSH1 0x40 MLOAD DUP3 PUSH4 0xFFFFFFFF AND PUSH1 0xE0 SHL DUP2 MSTORE PUSH1 0x4 ADD PUSH2 0x19B3 SWAP2 SWAP1 PUSH2 0x58E3 JUMP JUMPDEST PUSH1 0x40 DUP1 MLOAD DUP1 DUP4 SUB DUP2 DUP7 GAS STATICCALL ISZERO DUP1 ISZERO PUSH2 0x19CF JUMPI RETURNDATASIZE PUSH1 0x0 DUP1 RETURNDATACOPY RETURNDATASIZE PUSH1 0x0 REVERT JUMPDEST POP POP POP POP PUSH1 0x40 MLOAD RETURNDATASIZE PUSH1 0x1F NOT PUSH1 0x1F DUP3 ADD AND DUP3 ADD DUP1 PUSH1 0x40 MSTORE POP DUP2 ADD SWAP1 PUSH2 0x19F3 SWAP2 SWAP1 PUSH2 0x6737 JUMP JUMPDEST DUP1 SWAP5 POP DUP2 SWAP6 POP POP POP JUMPDEST POP JUMPDEST POP SWAP3 POP SWAP3 SWAP1 POP JUMP JUMPDEST CALLER PUSH20 0xFFFFFFFFFFFFFFFFFFFFFFFFFFFFFFFFFFFFFFFF AND PUSH1 0x1 PUSH1 0x0 SWAP1 SLOAD SWAP1 PUSH2 0x100 EXP SWAP1 DIV PUSH20 0xFFFFFFFFFFFFFFFFFFFFFFFFFFFFFFFFFFFFFFFF AND PUSH20 0xFFFFFFFFFFFFFFFFFFFFFFFFFFFFFFFFFFFFFFFF AND EQ PUSH2 0x1A96 JUMPI PUSH1 0x40 MLOAD PUSH32 0x8C379A000000000000000000000000000000000000000000000000000000000 DUP2 MSTORE PUSH1 0x4 ADD PUSH2 0x1A8D SWAP1 PUSH2 0x6517 JUMP JUMPDEST PUSH1 0x40 MLOAD DUP1 SWAP2 SUB SWAP1 REVERT JUMPDEST PUSH1 0x0 PUSH20 0xFFFFFFFFFFFFFFFFFFFFFFFFFFFFFFFFFFFFFFFF AND DUP2 PUSH20 0xFFFFFFFFFFFFFFFFFFFFFFFFFFFFFFFFFFFFFFFF AND SUB PUSH2 0x1B05 JUMPI PUSH1 0x40 MLOAD PUSH32 0x8C379A000000000000000000000000000000000000000000000000000000000 DUP2 MSTORE PUSH1 0x4 ADD PUSH2 0x1AFC SWAP1 PUSH2 0x6583 JUMP JUMPDEST PUSH1 0x40 MLOAD DUP1 SWAP2 SUB SWAP1 REVERT JUMPDEST DUP1 PUSH1 0x5 PUSH1 0x0 PUSH2 0x100 EXP DUP2 SLOAD DUP2 PUSH20 0xFFFFFFFFFFFFFFFFFFFFFFFFFFFFFFFFFFFFFFFF MUL NOT AND SWAP1 DUP4 PUSH20 0xFFFFFFFFFFFFFFFFFFFFFFFFFFFFFFFFFFFFFFFF AND MUL OR SWAP1 SSTORE POP DUP1 PUSH20 0xFFFFFFFFFFFFFFFFFFFFFFFFFFFFFFFFFFFFFFFF AND PUSH32 0x83B00E25C000ADADA62072FF4992B6702B635A6E3D57E135BBD60A01BE113EAD PUSH1 0x40 MLOAD PUSH1 0x40 MLOAD DUP1 SWAP2 SUB SWAP1 LOG2 POP JUMP JUMPDEST PUSH1 0xB PUSH1 0x20 MSTORE DUP2 PUSH1 0x0 MSTORE PUSH1 0x40 PUSH1 0x0 KECCAK256 PUSH1 0x20 MSTORE DUP1 PUSH1 0x0 MSTORE PUSH1 0x40 PUSH1 0x0 KECCAK256 PUSH1 0x0 SWAP2 POP SWAP2 POP SWAP1 SLOAD SWAP1 PUSH2 0x100 EXP SWAP1 DIV PUSH20 0xFFFFFFFFFFFFFFFFFFFFFFFFFFFFFFFFFFFFFFFF AND DUP2 JUMP JUMPDEST CALLER PUSH20 0xFFFFFFFFFFFFFFFFFFFFFFFFFFFFFFFFFFFFFFFF AND PUSH1 0x1 PUSH1 0x0 SWAP1 SLOAD SWAP1 PUSH2 0x100 EXP SWAP1 DIV PUSH20 0xFFFFFFFFFFFFFFFFFFFFFFFFFFFFFFFFFFFFFFFF AND PUSH20 0xFFFFFFFFFFFFFFFFFFFFFFFFFFFFFFFFFFFFFFFF AND EQ PUSH2 0x1C5E JUMPI PUSH1 0x40 MLOAD PUSH32 0x8C379A000000000000000000000000000000000000000000000000000000000 DUP2 MSTORE PUSH1 0x4 ADD PUSH2 0x1C55 SWAP1 PUSH2 0x6517 JUMP JUMPDEST PUSH1 0x40 MLOAD DUP1 SWAP2 SUB SWAP1 REVERT JUMPDEST PUSH1 0x0 DUP2 PUSH1 0xFF AND GT DUP1 ISZERO PUSH2 0x1C74 JUMPI POP PUSH1 0x63 DUP2 PUSH1 0xFF AND LT JUMPDEST PUSH2 0x1CB3 JUMPI PUSH1 0x40 MLOAD PUSH32 0x8C379A000000000000000000000000000000000000000000000000000000000 DUP2 MSTORE PUSH1 0x4 ADD PUSH2 0x1CAA SWAP1 PUSH2 0x6681 JUMP JUMPDEST PUSH1 0x40 MLOAD DUP1 SWAP2 SUB SWAP1 REVERT JUMPDEST PUSH1 0x0 PUSH2 0x1CBE DUP4 PUSH2 0x45BF JUMP JUMPDEST POP SWAP1 POP PUSH1 0x0 PUSH20 0xFFFFFFFFFFFFFFFFFFFFFFFFFFFFFFFFFFFFFFFF AND DUP2 PUSH20 0xFFFFFFFFFFFFFFFFFFFFFFFFFFFFFFFFFFFFFFFF AND EQ PUSH2 0x1D61 JUMPI DUP3 PUSH20 0xFFFFFFFFFFFFFFFFFFFFFFFFFFFFFFFFFFFFFFFF AND PUSH4 0x7DC8CE3 DUP4 PUSH1 0x40 MLOAD DUP3 PUSH4 0xFFFFFFFF AND PUSH1 0xE0 SHL DUP2 MSTORE PUSH1 0x4 ADD PUSH2 0x1D2E SWAP2 SWAP1 PUSH2 0x66B0 JUMP JUMPDEST PUSH1 0x0 PUSH1 0x40 MLOAD DUP1 DUP4 SUB DUP2 PUSH1 0x0 DUP8 DUP1 EXTCODESIZE ISZERO DUP1 ISZERO PUSH2 0x1D48 JUMPI PUSH1 0x0 DUP1 REVERT JUMPDEST POP GAS CALL ISZERO DUP1 ISZERO PUSH2 0x1D5C JUMPI RETURNDATASIZE PUSH1 0x0 DUP1 RETURNDATACOPY RETURNDATASIZE PUSH1 0x0 REVERT JUMPDEST POP POP POP POP JUMPDEST POP POP POP JUMP JUMPDEST PUSH1 0x0 PUSH1 0x2 PUSH1 0x0 SLOAD SUB PUSH2 0x1DAD JUMPI PUSH1 0x40 MLOAD PUSH32 0x8C379A000000000000000000000000000000000000000000000000000000000 DUP2 MSTORE PUSH1 0x4 ADD PUSH2 0x1DA4 SWAP1 PUSH2 0x6209 JUMP JUMPDEST PUSH1 0x40 MLOAD DUP1 SWAP2 SUB SWAP1 REVERT JUMPDEST PUSH1 0x2 PUSH1 0x0 DUP2 SWAP1 SSTORE POP PUSH1 0x0 PUSH2 0x1DC0 DUP6 PUSH2 0x45BF JUMP JUMPDEST POP SWAP1 POP PUSH1 0x0 PUSH20 0xFFFFFFFFFFFFFFFFFFFFFFFFFFFFFFFFFFFFFFFF AND DUP2 PUSH20 0xFFFFFFFFFFFFFFFFFFFFFFFFFFFFFFFFFFFFFFFF AND SUB PUSH2 0x1E32 JUMPI PUSH1 0x40 MLOAD PUSH32 0x8C379A000000000000000000000000000000000000000000000000000000000 DUP2 MSTORE PUSH1 0x4 ADD PUSH2 0x1E29 SWAP1 PUSH2 0x6275 JUMP JUMPDEST PUSH1 0x40 MLOAD DUP1 SWAP2 SUB SWAP1 REVERT JUMPDEST PUSH1 0x0 PUSH1 0x6 PUSH1 0x0 SWAP1 SLOAD SWAP1 PUSH2 0x100 EXP SWAP1 DIV PUSH20 0xFFFFFFFFFFFFFFFFFFFFFFFFFFFFFFFFFFFFFFFF AND PUSH20 0xFFFFFFFFFFFFFFFFFFFFFFFFFFFFFFFFFFFFFFFF AND PUSH4 0x4B7CAB4A DUP8 CALLER PUSH1 0x40 MLOAD DUP4 PUSH4 0xFFFFFFFF AND PUSH1 0xE0 SHL DUP2 MSTORE PUSH1 0x4 ADD PUSH2 0x1E91 SWAP3 SWAP2 SWAP1 PUSH2 0x6117 JUMP JUMPDEST PUSH1 0x20 PUSH1 0x40 MLOAD DUP1 DUP4 SUB DUP2 DUP7 GAS STATICCALL ISZERO DUP1 ISZERO PUSH2 0x1EAE JUMPI RETURNDATASIZE PUSH1 0x0 DUP1 RETURNDATACOPY RETURNDATASIZE PUSH1 0x0 REVERT JUMPDEST POP POP POP POP PUSH1 0x40 MLOAD RETURNDATASIZE PUSH1 0x1F NOT PUSH1 0x1F DUP3 ADD AND DUP3 ADD DUP1 PUSH1 0x40 MSTORE POP DUP2 ADD SWAP1 PUSH2 0x1ED2 SWAP2 SWAP1 PUSH2 0x62AA JUMP JUMPDEST SWAP1 POP PUSH1 0x0 DUP2 GT PUSH2 0x1F17 JUMPI PUSH1 0x40 MLOAD PUSH32 0x8C379A000000000000000000000000000000000000000000000000000000000 DUP2 MSTORE PUSH1 0x4 ADD PUSH2 0x1F0E SWAP1 PUSH2 0x6323 JUMP JUMPDEST PUSH1 0x40 MLOAD DUP1 SWAP2 SUB SWAP1 REVERT JUMPDEST DUP6 PUSH20 0xFFFFFFFFFFFFFFFFFFFFFFFFFFFFFFFFFFFFFFFF AND PUSH4 0x2B8EBE8B DUP3 DUP8 DUP8 PUSH1 0x40 MLOAD DUP5 PUSH4 0xFFFFFFFF AND PUSH1 0xE0 SHL DUP2 MSTORE PUSH1 0x4 ADD PUSH2 0x1F54 SWAP4 SWAP3 SWAP2 SWAP1 PUSH2 0x6777 JUMP JUMPDEST PUSH1 0x20 PUSH1 0x40 MLOAD DUP1 DUP4 SUB DUP2 PUSH1 0x0 DUP8 GAS CALL ISZERO DUP1 ISZERO PUSH2 0x1F73 JUMPI RETURNDATASIZE PUSH1 0x0 DUP1 RETURNDATACOPY RETURNDATASIZE PUSH1 0x0 REVERT JUMPDEST POP POP POP POP PUSH1 0x40 MLOAD RETURNDATASIZE PUSH1 0x1F NOT PUSH1 0x1F DUP3 ADD AND DUP3 ADD DUP1 PUSH1 0x40 MSTORE POP DUP2 ADD SWAP1 PUSH2 0x1F97 SWAP2 SWAP1 PUSH2 0x639D JUMP JUMPDEST SWAP3 POP POP POP PUSH1 0x1 PUSH1 0x0 DUP2 SWAP1 SSTORE POP SWAP4 SWAP3 POP POP POP JUMP JUMPDEST PUSH1 0x0 DUP1 PUSH1 0x8 SLOAD PUSH1 0x9 SLOAD SWAP2 POP SWAP2 POP SWAP1 SWAP2 JUMP JUMPDEST PUSH1 0x0 DUP1 PUSH1 0x0 DUP1 PUSH1 0x0 PUSH2 0x1FCC DUP8 PUSH2 0x45BF JUMP JUMPDEST POP SWAP1 POP PUSH1 0x0 PUSH20 0xFFFFFFFFFFFFFFFFFFFFFFFFFFFFFFFFFFFFFFFF AND DUP2 PUSH20 0xFFFFFFFFFFFFFFFFFFFFFFFFFFFFFFFFFFFFFFFF AND EQ PUSH2 0x213B JUMPI PUSH1 0x0 PUSH1 0x6 PUSH1 0x0 SWAP1 SLOAD SWAP1 PUSH2 0x100 EXP SWAP1 DIV PUSH20 0xFFFFFFFFFFFFFFFFFFFFFFFFFFFFFFFFFFFFFFFF AND PUSH20 0xFFFFFFFFFFFFFFFFFFFFFFFFFFFFFFFFFFFFFFFF AND PUSH4 0x4B7CAB4A DUP10 DUP10 PUSH1 0x40 MLOAD DUP4 PUSH4 0xFFFFFFFF AND PUSH1 0xE0 SHL DUP2 MSTORE PUSH1 0x4 ADD PUSH2 0x2062 SWAP3 SWAP2 SWAP1 PUSH2 0x6117 JUMP JUMPDEST PUSH1 0x20 PUSH1 0x40 MLOAD DUP1 DUP4 SUB DUP2 DUP7 GAS STATICCALL ISZERO DUP1 ISZERO PUSH2 0x207F JUMPI RETURNDATASIZE PUSH1 0x0 DUP1 RETURNDATACOPY RETURNDATASIZE PUSH1 0x0 REVERT JUMPDEST POP POP POP POP PUSH1 0x40 MLOAD RETURNDATASIZE PUSH1 0x1F NOT PUSH1 0x1F DUP3 ADD AND DUP3 ADD DUP1 PUSH1 0x40 MSTORE POP DUP2 ADD SWAP1 PUSH2 0x20A3 SWAP2 SWAP1 PUSH2 0x62AA JUMP JUMPDEST SWAP1 POP PUSH1 0x0 DUP2 GT ISZERO PUSH2 0x2139 JUMPI DUP8 PUSH20 0xFFFFFFFFFFFFFFFFFFFFFFFFFFFFFFFFFFFFFFFF AND PUSH4 0x77FF1EF1 DUP3 PUSH1 0x40 MLOAD DUP3 PUSH4 0xFFFFFFFF AND PUSH1 0xE0 SHL DUP2 MSTORE PUSH1 0x4 ADD PUSH2 0x20E7 SWAP2 SWAP1 PUSH2 0x58E3 JUMP JUMPDEST PUSH1 0x80 PUSH1 0x40 MLOAD DUP1 DUP4 SUB DUP2 DUP7 GAS STATICCALL ISZERO DUP1 ISZERO PUSH2 0x2104 JUMPI RETURNDATASIZE PUSH1 0x0 DUP1 RETURNDATACOPY RETURNDATASIZE PUSH1 0x0 REVERT JUMPDEST POP POP POP POP PUSH1 0x40 MLOAD RETURNDATASIZE PUSH1 0x1F NOT PUSH1 0x1F DUP3 ADD AND DUP3 ADD DUP1 PUSH1 0x40 MSTORE POP DUP2 ADD SWAP1 PUSH2 0x2128 SWAP2 SWAP1 PUSH2 0x67AE JUMP JUMPDEST DUP1 SWAP7 POP DUP2 SWAP8 POP DUP3 SWAP9 POP DUP4 SWAP10 POP POP POP POP POP JUMPDEST POP JUMPDEST POP SWAP3 SWAP6 SWAP2 SWAP5 POP SWAP3 POP JUMP JUMPDEST CALLER PUSH20 0xFFFFFFFFFFFFFFFFFFFFFFFFFFFFFFFFFFFFFFFF AND PUSH1 0x1 PUSH1 0x0 SWAP1 SLOAD SWAP1 PUSH2 0x100 EXP SWAP1 DIV PUSH20 0xFFFFFFFFFFFFFFFFFFFFFFFFFFFFFFFFFFFFFFFF AND PUSH20 0xFFFFFFFFFFFFFFFFFFFFFFFFFFFFFFFFFFFFFFFF AND EQ PUSH2 0x21D5 JUMPI PUSH1 0x40 MLOAD PUSH32 0x8C379A000000000000000000000000000000000000000000000000000000000 DUP2 MSTORE PUSH1 0x4 ADD PUSH2 0x21CC SWAP1 PUSH2 0x6517 JUMP JUMPDEST PUSH1 0x40 MLOAD DUP1 SWAP2 SUB SWAP1 REVERT JUMPDEST PUSH1 0x0 DUP2 PUSH1 0xFF AND GT DUP1 ISZERO PUSH2 0x21EB JUMPI POP PUSH1 0x63 DUP2 PUSH1 0xFF AND LT JUMPDEST PUSH2 0x222A JUMPI PUSH1 0x40 MLOAD PUSH32 0x8C379A000000000000000000000000000000000000000000000000000000000 DUP2 MSTORE PUSH1 0x4 ADD PUSH2 0x2221 SWAP1 PUSH2 0x6681 JUMP JUMPDEST PUSH1 0x40 MLOAD DUP1 SWAP2 SUB SWAP1 REVERT JUMPDEST PUSH1 0x0 PUSH2 0x2235 DUP4 PUSH2 0x45BF JUMP JUMPDEST POP SWAP1 POP PUSH1 0x0 PUSH20 0xFFFFFFFFFFFFFFFFFFFFFFFFFFFFFFFFFFFFFFFF AND DUP2 PUSH20 0xFFFFFFFFFFFFFFFFFFFFFFFFFFFFFFFFFFFFFFFF AND EQ PUSH2 0x22D8 JUMPI DUP3 PUSH20 0xFFFFFFFFFFFFFFFFFFFFFFFFFFFFFFFFFFFFFFFF AND PUSH4 0xAAD2476D DUP4 PUSH1 0x40 MLOAD DUP3 PUSH4 0xFFFFFFFF AND PUSH1 0xE0 SHL DUP2 MSTORE PUSH1 0x4 ADD PUSH2 0x22A5 SWAP2 SWAP1 PUSH2 0x66B0 JUMP JUMPDEST PUSH1 0x0 PUSH1 0x40 MLOAD DUP1 DUP4 SUB DUP2 PUSH1 0x0 DUP8 DUP1 EXTCODESIZE ISZERO DUP1 ISZERO PUSH2 0x22BF JUMPI PUSH1 0x0 DUP1 REVERT JUMPDEST POP GAS CALL ISZERO DUP1 ISZERO PUSH2 0x22D3 JUMPI RETURNDATASIZE PUSH1 0x0 DUP1 RETURNDATACOPY RETURNDATASIZE PUSH1 0x0 REVERT JUMPDEST POP POP POP POP JUMPDEST POP POP POP JUMP JUMPDEST PUSH1 0x0 DUP1 PUSH1 0x0 PUSH2 0x22EB DUP6 PUSH2 0x45BF JUMP JUMPDEST POP SWAP1 POP PUSH1 0x0 PUSH20 0xFFFFFFFFFFFFFFFFFFFFFFFFFFFFFFFFFFFFFFFF AND DUP2 PUSH20 0xFFFFFFFFFFFFFFFFFFFFFFFFFFFFFFFFFFFFFFFF AND EQ PUSH2 0x2451 JUMPI PUSH1 0x0 PUSH1 0x6 PUSH1 0x0 SWAP1 SLOAD SWAP1 PUSH2 0x100 EXP SWAP1 DIV PUSH20 0xFFFFFFFFFFFFFFFFFFFFFFFFFFFFFFFFFFFFFFFF AND PUSH20 0xFFFFFFFFFFFFFFFFFFFFFFFFFFFFFFFFFFFFFFFF AND PUSH4 0x4B7CAB4A DUP8 DUP8 PUSH1 0x40 MLOAD DUP4 PUSH4 0xFFFFFFFF AND PUSH1 0xE0 SHL DUP2 MSTORE PUSH1 0x4 ADD PUSH2 0x2381 SWAP3 SWAP2 SWAP1 PUSH2 0x6117 JUMP JUMPDEST PUSH1 0x20 PUSH1 0x40 MLOAD DUP1 DUP4 SUB DUP2 DUP7 GAS STATICCALL ISZERO DUP1 ISZERO PUSH2 0x239E JUMPI RETURNDATASIZE PUSH1 0x0 DUP1 RETURNDATACOPY RETURNDATASIZE PUSH1 0x0 REVERT JUMPDEST POP POP POP POP PUSH1 0x40 MLOAD RETURNDATASIZE PUSH1 0x1F NOT PUSH1 0x1F DUP3 ADD AND DUP3 ADD DUP1 PUSH1 0x40 MSTORE POP DUP2 ADD SWAP1 PUSH2 0x23C2 SWAP2 SWAP1 PUSH2 0x62AA JUMP JUMPDEST SWAP1 POP PUSH1 0x0 DUP2 GT ISZERO PUSH2 0x244F JUMPI DUP6 PUSH20 0xFFFFFFFFFFFFFFFFFFFFFFFFFFFFFFFFFFFFFFFF AND PUSH4 0x88A0A1C7 DUP3 PUSH1 0x40 MLOAD DUP3 PUSH4 0xFFFFFFFF AND PUSH1 0xE0 SHL DUP2 MSTORE PUSH1 0x4 ADD PUSH2 0x2406 SWAP2 SWAP1 PUSH2 0x58E3 JUMP JUMPDEST PUSH1 0x40 DUP1 MLOAD DUP1 DUP4 SUB DUP2 DUP7 GAS STATICCALL ISZERO DUP1 ISZERO PUSH2 0x2422 JUMPI RETURNDATASIZE PUSH1 0x0 DUP1 RETURNDATACOPY RETURNDATASIZE PUSH1 0x0 REVERT JUMPDEST POP POP POP POP PUSH1 0x40 MLOAD RETURNDATASIZE PUSH1 0x1F NOT PUSH1 0x1F DUP3 ADD AND DUP3 ADD DUP1 PUSH1 0x40 MSTORE POP DUP2 ADD SWAP1 PUSH2 0x2446 SWAP2 SWAP1 PUSH2 0x6737 JUMP JUMPDEST DUP1 SWAP5 POP DUP2 SWAP6 POP POP POP JUMPDEST POP JUMPDEST POP SWAP3 POP SWAP3 SWAP1 POP JUMP JUMPDEST PUSH1 0x0 DUP1 PUSH1 0x0 PUSH2 0x2467 DUP6 PUSH2 0x45BF JUMP JUMPDEST POP SWAP1 POP PUSH1 0x0 PUSH20 0xFFFFFFFFFFFFFFFFFFFFFFFFFFFFFFFFFFFFFFFF AND DUP2 PUSH20 0xFFFFFFFFFFFFFFFFFFFFFFFFFFFFFFFFFFFFFFFF AND EQ PUSH2 0x25CD JUMPI PUSH1 0x0 PUSH1 0x6 PUSH1 0x0 SWAP1 SLOAD SWAP1 PUSH2 0x100 EXP SWAP1 DIV PUSH20 0xFFFFFFFFFFFFFFFFFFFFFFFFFFFFFFFFFFFFFFFF AND PUSH20 0xFFFFFFFFFFFFFFFFFFFFFFFFFFFFFFFFFFFFFFFF AND PUSH4 0x4B7CAB4A DUP8 DUP8 PUSH1 0x40 MLOAD DUP4 PUSH4 0xFFFFFFFF AND PUSH1 0xE0 SHL DUP2 MSTORE PUSH1 0x4 ADD PUSH2 0x24FD SWAP3 SWAP2 SWAP1 PUSH2 0x6117 JUMP JUMPDEST PUSH1 0x20 PUSH1 0x40 MLOAD DUP1 DUP4 SUB DUP2 DUP7 GAS STATICCALL ISZERO DUP1 ISZERO PUSH2 0x251A JUMPI RETURNDATASIZE PUSH1 0x0 DUP1 RETURNDATACOPY RETURNDATASIZE PUSH1 0x0 REVERT JUMPDEST POP POP POP POP PUSH1 0x40 MLOAD RETURNDATASIZE PUSH1 0x1F NOT PUSH1 0x1F DUP3 ADD AND DUP3 ADD DUP1 PUSH1 0x40 MSTORE POP DUP2 ADD SWAP1 PUSH2 0x253E SWAP2 SWAP1 PUSH2 0x62AA JUMP JUMPDEST SWAP1 POP PUSH1 0x0 DUP2 GT ISZERO PUSH2 0x25CB JUMPI DUP6 PUSH20 0xFFFFFFFFFFFFFFFFFFFFFFFFFFFFFFFFFFFFFFFF AND PUSH4 0xA93D1E64 DUP3 PUSH1 0x40 MLOAD DUP3 PUSH4 0xFFFFFFFF AND PUSH1 0xE0 SHL DUP2 MSTORE PUSH1 0x4 ADD PUSH2 0x2582 SWAP2 SWAP1 PUSH2 0x58E3 JUMP JUMPDEST PUSH1 0x40 DUP1 MLOAD DUP1 DUP4 SUB DUP2 DUP7 GAS STATICCALL ISZERO DUP1 ISZERO PUSH2 0x259E JUMPI RETURNDATASIZE PUSH1 0x0 DUP1 RETURNDATACOPY RETURNDATASIZE PUSH1 0x0 REVERT JUMPDEST POP POP POP POP PUSH1 0x40 MLOAD RETURNDATASIZE PUSH1 0x1F NOT PUSH1 0x1F DUP3 ADD AND DUP3 ADD DUP1 PUSH1 0x40 MSTORE POP DUP2 ADD SWAP1 PUSH2 0x25C2 SWAP2 SWAP1 PUSH2 0x6737 JUMP JUMPDEST DUP1 SWAP5 POP DUP2 SWAP6 POP POP POP JUMPDEST POP JUMPDEST POP SWAP3 POP SWAP3 SWAP1 POP JUMP JUMPDEST CALLER PUSH20 0xFFFFFFFFFFFFFFFFFFFFFFFFFFFFFFFFFFFFFFFF AND PUSH1 0x1 PUSH1 0x0 SWAP1 SLOAD SWAP1 PUSH2 0x100 EXP SWAP1 DIV PUSH20 0xFFFFFFFFFFFFFFFFFFFFFFFFFFFFFFFFFFFFFFFF AND PUSH20 0xFFFFFFFFFFFFFFFFFFFFFFFFFFFFFFFFFFFFFFFF AND EQ PUSH2 0x2665 JUMPI PUSH1 0x40 MLOAD PUSH32 0x8C379A000000000000000000000000000000000000000000000000000000000 DUP2 MSTORE PUSH1 0x4 ADD PUSH2 0x265C SWAP1 PUSH2 0x6517 JUMP JUMPDEST PUSH1 0x40 MLOAD DUP1 SWAP2 SUB SWAP1 REVERT JUMPDEST PUSH1 0x0 PUSH20 0xFFFFFFFFFFFFFFFFFFFFFFFFFFFFFFFFFFFFFFFF AND DUP2 PUSH20 0xFFFFFFFFFFFFFFFFFFFFFFFFFFFFFFFFFFFFFFFF AND SUB PUSH2 0x26D4 JUMPI PUSH1 0x40 MLOAD PUSH32 0x8C379A000000000000000000000000000000000000000000000000000000000 DUP2 MSTORE PUSH1 0x4 ADD PUSH2 0x26CB SWAP1 PUSH2 0x6583 JUMP JUMPDEST PUSH1 0x40 MLOAD DUP1 SWAP2 SUB SWAP1 REVERT JUMPDEST PUSH1 0x0 PUSH2 0x26DF DUP4 PUSH2 0x45BF JUMP JUMPDEST POP SWAP1 POP PUSH1 0x0 PUSH20 0xFFFFFFFFFFFFFFFFFFFFFFFFFFFFFFFFFFFFFFFF AND DUP2 PUSH20 0xFFFFFFFFFFFFFFFFFFFFFFFFFFFFFFFFFFFFFFFF AND EQ PUSH2 0x2782 JUMPI DUP3 PUSH20 0xFFFFFFFFFFFFFFFFFFFFFFFFFFFFFFFFFFFFFFFF AND PUSH4 0x73748381 DUP4 PUSH1 0x40 MLOAD DUP3 PUSH4 0xFFFFFFFF AND PUSH1 0xE0 SHL DUP2 MSTORE PUSH1 0x4 ADD PUSH2 0x274F SWAP2 SWAP1 PUSH2 0x593F JUMP JUMPDEST PUSH1 0x0 PUSH1 0x40 MLOAD DUP1 DUP4 SUB DUP2 PUSH1 0x0 DUP8 DUP1 EXTCODESIZE ISZERO DUP1 ISZERO PUSH2 0x2769 JUMPI PUSH1 0x0 DUP1 REVERT JUMPDEST POP GAS CALL ISZERO DUP1 ISZERO PUSH2 0x277D JUMPI RETURNDATASIZE PUSH1 0x0 DUP1 RETURNDATACOPY RETURNDATASIZE PUSH1 0x0 REVERT JUMPDEST POP POP POP POP JUMPDEST POP POP POP JUMP JUMPDEST PUSH1 0x0 DUP3 PUSH1 0x0 DUP2 SUB PUSH2 0x27CD JUMPI PUSH1 0x40 MLOAD PUSH32 0x8C379A000000000000000000000000000000000000000000000000000000000 DUP2 MSTORE PUSH1 0x4 ADD PUSH2 0x27C4 SWAP1 PUSH2 0x619D JUMP JUMPDEST PUSH1 0x40 MLOAD DUP1 SWAP2 SUB SWAP1 REVERT JUMPDEST PUSH1 0x2 PUSH1 0x0 SLOAD SUB PUSH2 0x2812 JUMPI PUSH1 0x40 MLOAD PUSH32 0x8C379A000000000000000000000000000000000000000000000000000000000 DUP2 MSTORE PUSH1 0x4 ADD PUSH2 0x2809 SWAP1 PUSH2 0x6209 JUMP JUMPDEST PUSH1 0x40 MLOAD DUP1 SWAP2 SUB SWAP1 REVERT JUMPDEST PUSH1 0x2 PUSH1 0x0 DUP2 SWAP1 SSTORE POP PUSH1 0x0 DUP1 PUSH2 0x2826 DUP8 PUSH2 0x45BF JUMP JUMPDEST SWAP2 POP SWAP2 POP PUSH1 0x0 PUSH20 0xFFFFFFFFFFFFFFFFFFFFFFFFFFFFFFFFFFFFFFFF AND DUP3 PUSH20 0xFFFFFFFFFFFFFFFFFFFFFFFFFFFFFFFFFFFFFFFF AND SUB PUSH2 0x2899 JUMPI PUSH1 0x40 MLOAD PUSH32 0x8C379A000000000000000000000000000000000000000000000000000000000 DUP2 MSTORE PUSH1 0x4 ADD PUSH2 0x2890 SWAP1 PUSH2 0x6275 JUMP JUMPDEST PUSH1 0x40 MLOAD DUP1 SWAP2 SUB SWAP1 REVERT JUMPDEST PUSH1 0x0 DUP8 SWAP1 POP PUSH1 0x0 CALLER SWAP1 POP PUSH1 0x0 PUSH1 0x6 PUSH1 0x0 SWAP1 SLOAD SWAP1 PUSH2 0x100 EXP SWAP1 DIV PUSH20 0xFFFFFFFFFFFFFFFFFFFFFFFFFFFFFFFFFFFFFFFF AND PUSH20 0xFFFFFFFFFFFFFFFFFFFFFFFFFFFFFFFFFFFFFFFF AND PUSH4 0x4B7CAB4A DUP12 DUP11 PUSH1 0x40 MLOAD DUP4 PUSH4 0xFFFFFFFF AND PUSH1 0xE0 SHL DUP2 MSTORE PUSH1 0x4 ADD PUSH2 0x2902 SWAP3 SWAP2 SWAP1 PUSH2 0x6117 JUMP JUMPDEST PUSH1 0x20 PUSH1 0x40 MLOAD DUP1 DUP4 SUB DUP2 DUP7 GAS STATICCALL ISZERO DUP1 ISZERO PUSH2 0x291F JUMPI RETURNDATASIZE PUSH1 0x0 DUP1 RETURNDATACOPY RETURNDATASIZE PUSH1 0x0 REVERT JUMPDEST POP POP POP POP PUSH1 0x40 MLOAD RETURNDATASIZE PUSH1 0x1F NOT PUSH1 0x1F DUP3 ADD AND DUP3 ADD DUP1 PUSH1 0x40 MSTORE POP DUP2 ADD SWAP1 PUSH2 0x2943 SWAP2 SWAP1 PUSH2 0x62AA JUMP JUMPDEST SWAP1 POP PUSH1 0x0 DUP2 GT PUSH2 0x2988 JUMPI PUSH1 0x40 MLOAD PUSH32 0x8C379A000000000000000000000000000000000000000000000000000000000 DUP2 MSTORE PUSH1 0x4 ADD PUSH2 0x297F SWAP1 PUSH2 0x6323 JUMP JUMPDEST PUSH1 0x40 MLOAD DUP1 SWAP2 SUB SWAP1 REVERT JUMPDEST DUP3 PUSH20 0xFFFFFFFFFFFFFFFFFFFFFFFFFFFFFFFFFFFFFFFF AND PUSH4 0xC838249E DUP3 DUP12 DUP6 PUSH1 0x40 MLOAD DUP5 PUSH4 0xFFFFFFFF AND PUSH1 0xE0 SHL DUP2 MSTORE PUSH1 0x4 ADD PUSH2 0x29C5 SWAP4 SWAP3 SWAP2 SWAP1 PUSH2 0x6777 JUMP JUMPDEST PUSH1 0x20 PUSH1 0x40 MLOAD DUP1 DUP4 SUB DUP2 PUSH1 0x0 DUP8 GAS CALL ISZERO DUP1 ISZERO PUSH2 0x29E4 JUMPI RETURNDATASIZE PUSH1 0x0 DUP1 RETURNDATACOPY RETURNDATASIZE PUSH1 0x0 REVERT JUMPDEST POP POP POP POP PUSH1 0x40 MLOAD RETURNDATASIZE PUSH1 0x1F NOT PUSH1 0x1F DUP3 ADD AND DUP3 ADD DUP1 PUSH1 0x40 MSTORE POP DUP2 ADD SWAP1 PUSH2 0x2A08 SWAP2 SWAP1 PUSH2 0x639D JUMP JUMPDEST SWAP7 POP PUSH1 0x0 DUP8 SLT ISZERO PUSH2 0x2A4A JUMPI PUSH2 0x2A49 DUP3 DUP12 DUP10 PUSH2 0x2A22 SWAP1 PUSH2 0x6483 JUMP JUMPDEST DUP9 PUSH20 0xFFFFFFFFFFFFFFFFFFFFFFFFFFFFFFFFFFFFFFFF AND PUSH2 0x5106 SWAP1 SWAP4 SWAP3 SWAP2 SWAP1 PUSH4 0xFFFFFFFF AND JUMP JUMPDEST JUMPDEST PUSH1 0x0 DUP8 SGT ISZERO PUSH2 0x2A81 JUMPI PUSH2 0x2A80 DUP3 DUP12 DUP10 DUP8 PUSH20 0xFFFFFFFFFFFFFFFFFFFFFFFFFFFFFFFFFFFFFFFF AND PUSH2 0x5106 SWAP1 SWAP4 SWAP3 SWAP2 SWAP1 PUSH4 0xFFFFFFFF AND JUMP JUMPDEST JUMPDEST POP POP POP POP POP PUSH1 0x1 PUSH1 0x0 DUP2 SWAP1 SSTORE POP POP SWAP4 SWAP3 POP POP POP JUMP JUMPDEST PUSH1 0x2 PUSH1 0x0 SWAP1 SLOAD SWAP1 PUSH2 0x100 EXP SWAP1 DIV PUSH20 0xFFFFFFFFFFFFFFFFFFFFFFFFFFFFFFFFFFFFFFFF AND DUP2 JUMP JUMPDEST PUSH1 0x0 DUP1 PUSH1 0x0 DUP1 PUSH1 0x0 PUSH2 0x2ACD DUP8 PUSH2 0x45BF JUMP JUMPDEST POP SWAP1 POP PUSH1 0x0 PUSH20 0xFFFFFFFFFFFFFFFFFFFFFFFFFFFFFFFFFFFFFFFF AND DUP2 PUSH20 0xFFFFFFFFFFFFFFFFFFFFFFFFFFFFFFFFFFFFFFFF AND EQ PUSH2 0x2C3C JUMPI PUSH1 0x0 PUSH1 0x6 PUSH1 0x0 SWAP1 SLOAD SWAP1 PUSH2 0x100 EXP SWAP1 DIV PUSH20 0xFFFFFFFFFFFFFFFFFFFFFFFFFFFFFFFFFFFFFFFF AND PUSH20 0xFFFFFFFFFFFFFFFFFFFFFFFFFFFFFFFFFFFFFFFF AND PUSH4 0x4B7CAB4A DUP10 DUP10 PUSH1 0x40 MLOAD DUP4 PUSH4 0xFFFFFFFF AND PUSH1 0xE0 SHL DUP2 MSTORE PUSH1 0x4 ADD PUSH2 0x2B63 SWAP3 SWAP2 SWAP1 PUSH2 0x6117 JUMP JUMPDEST PUSH1 0x20 PUSH1 0x40 MLOAD DUP1 DUP4 SUB DUP2 DUP7 GAS STATICCALL ISZERO DUP1 ISZERO PUSH2 0x2B80 JUMPI RETURNDATASIZE PUSH1 0x0 DUP1 RETURNDATACOPY RETURNDATASIZE PUSH1 0x0 REVERT JUMPDEST POP POP POP POP PUSH1 0x40 MLOAD RETURNDATASIZE PUSH1 0x1F NOT PUSH1 0x1F DUP3 ADD AND DUP3 ADD DUP1 PUSH1 0x40 MSTORE POP DUP2 ADD SWAP1 PUSH2 0x2BA4 SWAP2 SWAP1 PUSH2 0x62AA JUMP JUMPDEST SWAP1 POP PUSH1 0x0 DUP2 GT ISZERO PUSH2 0x2C3A JUMPI DUP8 PUSH20 0xFFFFFFFFFFFFFFFFFFFFFFFFFFFFFFFFFFFFFFFF AND PUSH4 0x2394888 DUP3 PUSH1 0x40 MLOAD DUP3 PUSH4 0xFFFFFFFF AND PUSH1 0xE0 SHL DUP2 MSTORE PUSH1 0x4 ADD PUSH2 0x2BE8 SWAP2 SWAP1 PUSH2 0x58E3 JUMP JUMPDEST PUSH1 0x80 PUSH1 0x40 MLOAD DUP1 DUP4 SUB DUP2 DUP7 GAS STATICCALL ISZERO DUP1 ISZERO PUSH2 0x2C05 JUMPI RETURNDATASIZE PUSH1 0x0 DUP1 RETURNDATACOPY RETURNDATASIZE PUSH1 0x0 REVERT JUMPDEST POP POP POP POP PUSH1 0x40 MLOAD RETURNDATASIZE PUSH1 0x1F NOT PUSH1 0x1F DUP3 ADD AND DUP3 ADD DUP1 PUSH1 0x40 MSTORE POP DUP2 ADD SWAP1 PUSH2 0x2C29 SWAP2 SWAP1 PUSH2 0x67AE JUMP JUMPDEST DUP1 SWAP7 POP DUP2 SWAP8 POP DUP3 SWAP9 POP DUP4 SWAP10 POP POP POP POP POP JUMPDEST POP JUMPDEST POP SWAP3 SWAP6 SWAP2 SWAP5 POP SWAP3 POP JUMP JUMPDEST CALLER PUSH20 0xFFFFFFFFFFFFFFFFFFFFFFFFFFFFFFFFFFFFFFFF AND PUSH1 0x1 PUSH1 0x0 SWAP1 SLOAD SWAP1 PUSH2 0x100 EXP SWAP1 DIV PUSH20 0xFFFFFFFFFFFFFFFFFFFFFFFFFFFFFFFFFFFFFFFF AND PUSH20 0xFFFFFFFFFFFFFFFFFFFFFFFFFFFFFFFFFFFFFFFF AND EQ PUSH2 0x2CD6 JUMPI PUSH1 0x40 MLOAD PUSH32 0x8C379A000000000000000000000000000000000000000000000000000000000 DUP2 MSTORE PUSH1 0x4 ADD PUSH2 0x2CCD SWAP1 PUSH2 0x6517 JUMP JUMPDEST PUSH1 0x40 MLOAD DUP1 SWAP2 SUB SWAP1 REVERT JUMPDEST PUSH1 0x0 PUSH20 0xFFFFFFFFFFFFFFFFFFFFFFFFFFFFFFFFFFFFFFFF AND DUP2 PUSH20 0xFFFFFFFFFFFFFFFFFFFFFFFFFFFFFFFFFFFFFFFF AND SUB PUSH2 0x2D45 JUMPI PUSH1 0x40 MLOAD PUSH32 0x8C379A000000000000000000000000000000000000000000000000000000000 DUP2 MSTORE PUSH1 0x4 ADD PUSH2 0x2D3C SWAP1 PUSH2 0x6583 JUMP JUMPDEST PUSH1 0x40 MLOAD DUP1 SWAP2 SUB SWAP1 REVERT JUMPDEST DUP1 PUSH1 0x4 PUSH1 0x0 PUSH2 0x100 EXP DUP2 SLOAD DUP2 PUSH20 0xFFFFFFFFFFFFFFFFFFFFFFFFFFFFFFFFFFFFFFFF MUL NOT AND SWAP1 DUP4 PUSH20 0xFFFFFFFFFFFFFFFFFFFFFFFFFFFFFFFFFFFFFFFF AND MUL OR SWAP1 SSTORE POP POP JUMP JUMPDEST PUSH1 0x0 DUP1 PUSH1 0x0 PUSH2 0x2D97 DUP6 PUSH2 0x45BF JUMP JUMPDEST POP SWAP1 POP PUSH1 0x0 PUSH20 0xFFFFFFFFFFFFFFFFFFFFFFFFFFFFFFFFFFFFFFFF AND DUP2 PUSH20 0xFFFFFFFFFFFFFFFFFFFFFFFFFFFFFFFFFFFFFFFF AND EQ PUSH2 0x2EFD JUMPI PUSH1 0x0 PUSH1 0x6 PUSH1 0x0 SWAP1 SLOAD SWAP1 PUSH2 0x100 EXP SWAP1 DIV PUSH20 0xFFFFFFFFFFFFFFFFFFFFFFFFFFFFFFFFFFFFFFFF AND PUSH20 0xFFFFFFFFFFFFFFFFFFFFFFFFFFFFFFFFFFFFFFFF AND PUSH4 0x4B7CAB4A DUP8 DUP8 PUSH1 0x40 MLOAD DUP4 PUSH4 0xFFFFFFFF AND PUSH1 0xE0 SHL DUP2 MSTORE PUSH1 0x4 ADD PUSH2 0x2E2D SWAP3 SWAP2 SWAP1 PUSH2 0x6117 JUMP JUMPDEST PUSH1 0x20 PUSH1 0x40 MLOAD DUP1 DUP4 SUB DUP2 DUP7 GAS STATICCALL ISZERO DUP1 ISZERO PUSH2 0x2E4A JUMPI RETURNDATASIZE PUSH1 0x0 DUP1 RETURNDATACOPY RETURNDATASIZE PUSH1 0x0 REVERT JUMPDEST POP POP POP POP PUSH1 0x40 MLOAD RETURNDATASIZE PUSH1 0x1F NOT PUSH1 0x1F DUP3 ADD AND DUP3 ADD DUP1 PUSH1 0x40 MSTORE POP DUP2 ADD SWAP1 PUSH2 0x2E6E SWAP2 SWAP1 PUSH2 0x62AA JUMP JUMPDEST SWAP1 POP PUSH1 0x0 DUP2 GT ISZERO PUSH2 0x2EFB JUMPI DUP6 PUSH20 0xFFFFFFFFFFFFFFFFFFFFFFFFFFFFFFFFFFFFFFFF AND PUSH4 0x84EE000C DUP3 PUSH1 0x40 MLOAD DUP3 PUSH4 0xFFFFFFFF AND PUSH1 0xE0 SHL DUP2 MSTORE PUSH1 0x4 ADD PUSH2 0x2EB2 SWAP2 SWAP1 PUSH2 0x58E3 JUMP JUMPDEST PUSH1 0x40 DUP1 MLOAD DUP1 DUP4 SUB DUP2 DUP7 GAS STATICCALL ISZERO DUP1 ISZERO PUSH2 0x2ECE JUMPI RETURNDATASIZE PUSH1 0x0 DUP1 RETURNDATACOPY RETURNDATASIZE PUSH1 0x0 REVERT JUMPDEST POP POP POP POP PUSH1 0x40 MLOAD RETURNDATASIZE PUSH1 0x1F NOT PUSH1 0x1F DUP3 ADD AND DUP3 ADD DUP1 PUSH1 0x40 MSTORE POP DUP2 ADD SWAP1 PUSH2 0x2EF2 SWAP2 SWAP1 PUSH2 0x6737 JUMP JUMPDEST DUP1 SWAP5 POP DUP2 SWAP6 POP POP POP JUMPDEST POP JUMPDEST POP SWAP3 POP SWAP3 SWAP1 POP JUMP JUMPDEST DUP3 PUSH1 0x0 DUP2 SUB PUSH2 0x2F49 JUMPI PUSH1 0x40 MLOAD PUSH32 0x8C379A000000000000000000000000000000000000000000000000000000000 DUP2 MSTORE PUSH1 0x4 ADD PUSH2 0x2F40 SWAP1 PUSH2 0x619D JUMP JUMPDEST PUSH1 0x40 MLOAD DUP1 SWAP2 SUB SWAP1 REVERT JUMPDEST PUSH1 0x2 PUSH1 0x0 SLOAD SUB PUSH2 0x2F8E JUMPI PUSH1 0x40 MLOAD PUSH32 0x8C379A000000000000000000000000000000000000000000000000000000000 DUP2 MSTORE PUSH1 0x4 ADD PUSH2 0x2F85 SWAP1 PUSH2 0x6209 JUMP JUMPDEST PUSH1 0x40 MLOAD DUP1 SWAP2 SUB SWAP1 REVERT JUMPDEST PUSH1 0x2 PUSH1 0x0 DUP2 SWAP1 SSTORE POP PUSH1 0x0 DUP1 PUSH2 0x2FA2 DUP8 PUSH2 0x45BF JUMP JUMPDEST SWAP2 POP SWAP2 POP PUSH1 0x0 PUSH20 0xFFFFFFFFFFFFFFFFFFFFFFFFFFFFFFFFFFFFFFFF AND DUP3 PUSH20 0xFFFFFFFFFFFFFFFFFFFFFFFFFFFFFFFFFFFFFFFF AND SUB PUSH2 0x3015 JUMPI PUSH1 0x40 MLOAD PUSH32 0x8C379A000000000000000000000000000000000000000000000000000000000 DUP2 MSTORE PUSH1 0x4 ADD PUSH2 0x300C SWAP1 PUSH2 0x6275 JUMP JUMPDEST PUSH1 0x40 MLOAD DUP1 SWAP2 SUB SWAP1 REVERT JUMPDEST PUSH1 0x0 DUP8 SWAP1 POP PUSH1 0x0 CALLER SWAP1 POP PUSH1 0x0 PUSH1 0x6 PUSH1 0x0 SWAP1 SLOAD SWAP1 PUSH2 0x100 EXP SWAP1 DIV PUSH20 0xFFFFFFFFFFFFFFFFFFFFFFFFFFFFFFFFFFFFFFFF AND PUSH20 0xFFFFFFFFFFFFFFFFFFFFFFFFFFFFFFFFFFFFFFFF AND PUSH4 0x4B7CAB4A DUP12 DUP5 PUSH1 0x40 MLOAD DUP4 PUSH4 0xFFFFFFFF AND PUSH1 0xE0 SHL DUP2 MSTORE PUSH1 0x4 ADD PUSH2 0x307E SWAP3 SWAP2 SWAP1 PUSH2 0x6117 JUMP JUMPDEST PUSH1 0x20 PUSH1 0x40 MLOAD DUP1 DUP4 SUB DUP2 DUP7 GAS STATICCALL ISZERO DUP1 ISZERO PUSH2 0x309B JUMPI RETURNDATASIZE PUSH1 0x0 DUP1 RETURNDATACOPY RETURNDATASIZE PUSH1 0x0 REVERT JUMPDEST POP POP POP POP PUSH1 0x40 MLOAD RETURNDATASIZE PUSH1 0x1F NOT PUSH1 0x1F DUP3 ADD AND DUP3 ADD DUP1 PUSH1 0x40 MSTORE POP DUP2 ADD SWAP1 PUSH2 0x30BF SWAP2 SWAP1 PUSH2 0x62AA JUMP JUMPDEST SWAP1 POP PUSH1 0x0 DUP2 SUB PUSH2 0x316C JUMPI PUSH1 0x6 PUSH1 0x0 SWAP1 SLOAD SWAP1 PUSH2 0x100 EXP SWAP1 DIV PUSH20 0xFFFFFFFFFFFFFFFFFFFFFFFFFFFFFFFFFFFFFFFF AND PUSH20 0xFFFFFFFFFFFFFFFFFFFFFFFFFFFFFFFFFFFFFFFF AND PUSH4 0x11631065 DUP12 DUP5 PUSH1 0x40 MLOAD DUP4 PUSH4 0xFFFFFFFF AND PUSH1 0xE0 SHL DUP2 MSTORE PUSH1 0x4 ADD PUSH2 0x3126 SWAP3 SWAP2 SWAP1 PUSH2 0x6117 JUMP JUMPDEST PUSH1 0x20 PUSH1 0x40 MLOAD DUP1 DUP4 SUB DUP2 PUSH1 0x0 DUP8 GAS CALL ISZERO DUP1 ISZERO PUSH2 0x3145 JUMPI RETURNDATASIZE PUSH1 0x0 DUP1 RETURNDATACOPY RETURNDATASIZE PUSH1 0x0 REVERT JUMPDEST POP POP POP POP PUSH1 0x40 MLOAD RETURNDATASIZE PUSH1 0x1F NOT PUSH1 0x1F DUP3 ADD AND DUP3 ADD DUP1 PUSH1 0x40 MSTORE POP DUP2 ADD SWAP1 PUSH2 0x3169 SWAP2 SWAP1 PUSH2 0x62AA JUMP JUMPDEST SWAP1 POP JUMPDEST PUSH1 0x0 DUP10 SLT ISZERO PUSH2 0x3247 JUMPI DUP9 PUSH2 0x317F SWAP1 PUSH2 0x6483 JUMP JUMPDEST DUP4 PUSH20 0xFFFFFFFFFFFFFFFFFFFFFFFFFFFFFFFFFFFFFFFF AND PUSH4 0x85E90760 PUSH1 0x40 MLOAD DUP2 PUSH4 0xFFFFFFFF AND PUSH1 0xE0 SHL DUP2 MSTORE PUSH1 0x4 ADD PUSH1 0x20 PUSH1 0x40 MLOAD DUP1 DUP4 SUB DUP2 DUP7 GAS STATICCALL ISZERO DUP1 ISZERO PUSH2 0x31CA JUMPI RETURNDATASIZE PUSH1 0x0 DUP1 RETURNDATACOPY RETURNDATASIZE PUSH1 0x0 REVERT JUMPDEST POP POP POP POP PUSH1 0x40 MLOAD RETURNDATASIZE PUSH1 0x1F NOT PUSH1 0x1F DUP3 ADD AND DUP3 ADD DUP1 PUSH1 0x40 MSTORE POP DUP2 ADD SWAP1 PUSH2 0x31EE SWAP2 SWAP1 PUSH2 0x62AA JUMP JUMPDEST LT ISZERO PUSH2 0x322F JUMPI PUSH1 0x40 MLOAD PUSH32 0x8C379A000000000000000000000000000000000000000000000000000000000 DUP2 MSTORE PUSH1 0x4 ADD PUSH2 0x3226 SWAP1 PUSH2 0x6887 JUMP JUMPDEST PUSH1 0x40 MLOAD DUP1 SWAP2 SUB SWAP1 REVERT JUMPDEST PUSH1 0x0 DUP9 GT ISZERO PUSH2 0x3246 JUMPI PUSH2 0x3244 DUP11 DUP6 DUP11 DUP5 PUSH2 0x518F JUMP JUMPDEST POP JUMPDEST JUMPDEST PUSH1 0x0 DUP10 SGT ISZERO PUSH2 0x3322 JUMPI DUP9 DUP4 PUSH20 0xFFFFFFFFFFFFFFFFFFFFFFFFFFFFFFFFFFFFFFFF AND PUSH4 0x69F4E52D PUSH1 0x40 MLOAD DUP2 PUSH4 0xFFFFFFFF AND PUSH1 0xE0 SHL DUP2 MSTORE PUSH1 0x4 ADD PUSH1 0x20 PUSH1 0x40 MLOAD DUP1 DUP4 SUB DUP2 DUP7 GAS STATICCALL ISZERO DUP1 ISZERO PUSH2 0x329C JUMPI RETURNDATASIZE PUSH1 0x0 DUP1 RETURNDATACOPY RETURNDATASIZE PUSH1 0x0 REVERT JUMPDEST POP POP POP POP PUSH1 0x40 MLOAD RETURNDATASIZE PUSH1 0x1F NOT PUSH1 0x1F DUP3 ADD AND DUP3 ADD DUP1 PUSH1 0x40 MSTORE POP DUP2 ADD SWAP1 PUSH2 0x32C0 SWAP2 SWAP1 PUSH2 0x62AA JUMP JUMPDEST LT ISZERO PUSH2 0x3301 JUMPI PUSH1 0x40 MLOAD PUSH32 0x8C379A000000000000000000000000000000000000000000000000000000000 DUP2 MSTORE PUSH1 0x4 ADD PUSH2 0x32F8 SWAP1 PUSH2 0x6919 JUMP JUMPDEST PUSH1 0x40 MLOAD DUP1 SWAP2 SUB SWAP1 REVERT JUMPDEST PUSH1 0x0 DUP9 GT ISZERO PUSH2 0x3321 JUMPI PUSH2 0x331F DUP11 DUP7 DUP11 PUSH2 0x3319 SWAP1 PUSH2 0x6483 JUMP JUMPDEST DUP5 PUSH2 0x518F JUMP JUMPDEST POP JUMPDEST JUMPDEST DUP3 PUSH20 0xFFFFFFFFFFFFFFFFFFFFFFFFFFFFFFFFFFFFFFFF AND PUSH4 0xF7AD458B DUP3 DUP12 DUP11 PUSH1 0x40 MLOAD DUP5 PUSH4 0xFFFFFFFF AND PUSH1 0xE0 SHL DUP2 MSTORE PUSH1 0x4 ADD PUSH2 0x335F SWAP4 SWAP3 SWAP2 SWAP1 PUSH2 0x6939 JUMP JUMPDEST PUSH1 0x0 PUSH1 0x40 MLOAD DUP1 DUP4 SUB DUP2 PUSH1 0x0 DUP8 DUP1 EXTCODESIZE ISZERO DUP1 ISZERO PUSH2 0x3379 JUMPI PUSH1 0x0 DUP1 REVERT JUMPDEST POP GAS CALL ISZERO DUP1 ISZERO PUSH2 0x338D JUMPI RETURNDATASIZE PUSH1 0x0 DUP1 RETURNDATACOPY RETURNDATASIZE PUSH1 0x0 REVERT JUMPDEST POP POP POP POP POP POP POP POP POP PUSH1 0x1 PUSH1 0x0 DUP2 SWAP1 SSTORE POP POP POP POP POP POP JUMP JUMPDEST PUSH1 0x3 PUSH1 0x0 SWAP1 SLOAD SWAP1 PUSH2 0x100 EXP SWAP1 DIV PUSH20 0xFFFFFFFFFFFFFFFFFFFFFFFFFFFFFFFFFFFFFFFF AND DUP2 JUMP JUMPDEST PUSH1 0x0 DUP1 PUSH1 0x0 PUSH2 0x33D9 DUP6 PUSH2 0x45BF JUMP JUMPDEST POP SWAP1 POP PUSH1 0x0 PUSH20 0xFFFFFFFFFFFFFFFFFFFFFFFFFFFFFFFFFFFFFFFF AND DUP2 PUSH20 0xFFFFFFFFFFFFFFFFFFFFFFFFFFFFFFFFFFFFFFFF AND EQ PUSH2 0x353F JUMPI PUSH1 0x0 PUSH1 0x6 PUSH1 0x0 SWAP1 SLOAD SWAP1 PUSH2 0x100 EXP SWAP1 DIV PUSH20 0xFFFFFFFFFFFFFFFFFFFFFFFFFFFFFFFFFFFFFFFF AND PUSH20 0xFFFFFFFFFFFFFFFFFFFFFFFFFFFFFFFFFFFFFFFF AND PUSH4 0x4B7CAB4A DUP8 DUP8 PUSH1 0x40 MLOAD DUP4 PUSH4 0xFFFFFFFF AND PUSH1 0xE0 SHL DUP2 MSTORE PUSH1 0x4 ADD PUSH2 0x346F SWAP3 SWAP2 SWAP1 PUSH2 0x6117 JUMP JUMPDEST PUSH1 0x20 PUSH1 0x40 MLOAD DUP1 DUP4 SUB DUP2 DUP7 GAS STATICCALL ISZERO DUP1 ISZERO PUSH2 0x348C JUMPI RETURNDATASIZE PUSH1 0x0 DUP1 RETURNDATACOPY RETURNDATASIZE PUSH1 0x0 REVERT JUMPDEST POP POP POP POP PUSH1 0x40 MLOAD RETURNDATASIZE PUSH1 0x1F NOT PUSH1 0x1F DUP3 ADD AND DUP3 ADD DUP1 PUSH1 0x40 MSTORE POP DUP2 ADD SWAP1 PUSH2 0x34B0 SWAP2 SWAP1 PUSH2 0x62AA JUMP JUMPDEST SWAP1 POP PUSH1 0x0 DUP2 GT ISZERO PUSH2 0x353D JUMPI DUP6 PUSH20 0xFFFFFFFFFFFFFFFFFFFFFFFFFFFFFFFFFFFFFFFF AND PUSH4 0x9E83B078 DUP3 PUSH1 0x40 MLOAD DUP3 PUSH4 0xFFFFFFFF AND PUSH1 0xE0 SHL DUP2 MSTORE PUSH1 0x4 ADD PUSH2 0x34F4 SWAP2 SWAP1 PUSH2 0x58E3 JUMP JUMPDEST PUSH1 0x40 DUP1 MLOAD DUP1 DUP4 SUB DUP2 DUP7 GAS STATICCALL ISZERO DUP1 ISZERO PUSH2 0x3510 JUMPI RETURNDATASIZE PUSH1 0x0 DUP1 RETURNDATACOPY RETURNDATASIZE PUSH1 0x0 REVERT JUMPDEST POP POP POP POP PUSH1 0x40 MLOAD RETURNDATASIZE PUSH1 0x1F NOT PUSH1 0x1F DUP3 ADD AND DUP3 ADD DUP1 PUSH1 0x40 MSTORE POP DUP2 ADD SWAP1 PUSH2 0x3534 SWAP2 SWAP1 PUSH2 0x6737 JUMP JUMPDEST DUP1 SWAP5 POP DUP2 SWAP6 POP POP POP JUMPDEST POP JUMPDEST POP SWAP3 POP SWAP3 SWAP1 POP JUMP JUMPDEST PUSH1 0x0 PUSH1 0x5 PUSH1 0x0 SWAP1 SLOAD SWAP1 PUSH2 0x100 EXP SWAP1 DIV PUSH20 0xFFFFFFFFFFFFFFFFFFFFFFFFFFFFFFFFFFFFFFFF AND PUSH20 0xFFFFFFFFFFFFFFFFFFFFFFFFFFFFFFFFFFFFFFFF AND PUSH4 0x5B2E4DC5 DUP5 DUP7 DUP6 PUSH1 0x40 MLOAD DUP5 PUSH4 0xFFFFFFFF AND PUSH1 0xE0 SHL DUP2 MSTORE PUSH1 0x4 ADD PUSH2 0x35A8 SWAP4 SWAP3 SWAP2 SWAP1 PUSH2 0x6970 JUMP JUMPDEST PUSH1 0x20 PUSH1 0x40 MLOAD DUP1 DUP4 SUB DUP2 DUP7 GAS STATICCALL ISZERO DUP1 ISZERO PUSH2 0x35C5 JUMPI RETURNDATASIZE PUSH1 0x0 DUP1 RETURNDATACOPY RETURNDATASIZE PUSH1 0x0 REVERT JUMPDEST POP POP POP POP PUSH1 0x40 MLOAD RETURNDATASIZE PUSH1 0x1F NOT PUSH1 0x1F DUP3 ADD AND DUP3 ADD DUP1 PUSH1 0x40 MSTORE POP DUP2 ADD SWAP1 PUSH2 0x35E9 SWAP2 SWAP1 PUSH2 0x62AA JUMP JUMPDEST SWAP1 POP SWAP4 SWAP3 POP POP POP JUMP JUMPDEST PUSH1 0x0 PUSH1 0x2 PUSH1 0x0 SLOAD SUB PUSH2 0x3639 JUMPI PUSH1 0x40 MLOAD PUSH32 0x8C379A000000000000000000000000000000000000000000000000000000000 DUP2 MSTORE PUSH1 0x4 ADD PUSH2 0x3630 SWAP1 PUSH2 0x6209 JUMP JUMPDEST PUSH1 0x40 MLOAD DUP1 SWAP2 SUB SWAP1 REVERT JUMPDEST PUSH1 0x2 PUSH1 0x0 DUP2 SWAP1 SSTORE POP PUSH1 0x0 DUP1 PUSH2 0x364D DUP11 PUSH2 0x45BF JUMP JUMPDEST SWAP2 POP SWAP2 POP PUSH1 0x0 PUSH20 0xFFFFFFFFFFFFFFFFFFFFFFFFFFFFFFFFFFFFFFFF AND DUP3 PUSH20 0xFFFFFFFFFFFFFFFFFFFFFFFFFFFFFFFFFFFFFFFF AND SUB PUSH2 0x36C0 JUMPI PUSH1 0x40 MLOAD PUSH32 0x8C379A000000000000000000000000000000000000000000000000000000000 DUP2 MSTORE PUSH1 0x4 ADD PUSH2 0x36B7 SWAP1 PUSH2 0x6275 JUMP JUMPDEST PUSH1 0x40 MLOAD DUP1 SWAP2 SUB SWAP1 REVERT JUMPDEST DUP7 DUP7 SWAP1 POP DUP10 DUP10 SWAP1 POP EQ PUSH2 0x3708 JUMPI PUSH1 0x40 MLOAD PUSH32 0x8C379A000000000000000000000000000000000000000000000000000000000 DUP2 MSTORE PUSH1 0x4 ADD PUSH2 0x36FF SWAP1 PUSH2 0x69F3 JUMP JUMPDEST PUSH1 0x40 MLOAD DUP1 SWAP2 SUB SWAP1 REVERT JUMPDEST PUSH1 0x0 DUP11 SWAP1 POP PUSH1 0x0 CALLER SWAP1 POP DUP6 ISZERO PUSH2 0x38F3 JUMPI PUSH1 0x0 PUSH1 0x6 PUSH1 0x0 SWAP1 SLOAD SWAP1 PUSH2 0x100 EXP SWAP1 DIV PUSH20 0xFFFFFFFFFFFFFFFFFFFFFFFFFFFFFFFFFFFFFFFF AND PUSH20 0xFFFFFFFFFFFFFFFFFFFFFFFFFFFFFFFFFFFFFFFF AND PUSH4 0x4B7CAB4A DUP15 DUP11 PUSH1 0x40 MLOAD DUP4 PUSH4 0xFFFFFFFF AND PUSH1 0xE0 SHL DUP2 MSTORE PUSH1 0x4 ADD PUSH2 0x3777 SWAP3 SWAP2 SWAP1 PUSH2 0x6117 JUMP JUMPDEST PUSH1 0x20 PUSH1 0x40 MLOAD DUP1 DUP4 SUB DUP2 DUP7 GAS STATICCALL ISZERO DUP1 ISZERO PUSH2 0x3794 JUMPI RETURNDATASIZE PUSH1 0x0 DUP1 RETURNDATACOPY RETURNDATASIZE PUSH1 0x0 REVERT JUMPDEST POP POP POP POP PUSH1 0x40 MLOAD RETURNDATASIZE PUSH1 0x1F NOT PUSH1 0x1F DUP3 ADD AND DUP3 ADD DUP1 PUSH1 0x40 MSTORE POP DUP2 ADD SWAP1 PUSH2 0x37B8 SWAP2 SWAP1 PUSH2 0x62AA JUMP JUMPDEST SWAP1 POP PUSH1 0x0 DUP2 SUB PUSH2 0x3865 JUMPI PUSH1 0x6 PUSH1 0x0 SWAP1 SLOAD SWAP1 PUSH2 0x100 EXP SWAP1 DIV PUSH20 0xFFFFFFFFFFFFFFFFFFFFFFFFFFFFFFFFFFFFFFFF AND PUSH20 0xFFFFFFFFFFFFFFFFFFFFFFFFFFFFFFFFFFFFFFFF AND PUSH4 0x11631065 DUP15 DUP11 PUSH1 0x40 MLOAD DUP4 PUSH4 0xFFFFFFFF AND PUSH1 0xE0 SHL DUP2 MSTORE PUSH1 0x4 ADD PUSH2 0x381F SWAP3 SWAP2 SWAP1 PUSH2 0x6117 JUMP JUMPDEST PUSH1 0x20 PUSH1 0x40 MLOAD DUP1 DUP4 SUB DUP2 PUSH1 0x0 DUP8 GAS CALL ISZERO DUP1 ISZERO PUSH2 0x383E JUMPI RETURNDATASIZE PUSH1 0x0 DUP1 RETURNDATACOPY RETURNDATASIZE PUSH1 0x0 REVERT JUMPDEST POP POP POP POP PUSH1 0x40 MLOAD RETURNDATASIZE PUSH1 0x1F NOT PUSH1 0x1F DUP3 ADD AND DUP3 ADD DUP1 PUSH1 0x40 MSTORE POP DUP2 ADD SWAP1 PUSH2 0x3862 SWAP2 SWAP1 PUSH2 0x62AA JUMP JUMPDEST SWAP1 POP JUMPDEST DUP3 PUSH20 0xFFFFFFFFFFFFFFFFFFFFFFFFFFFFFFFFFFFFFFFF AND PUSH4 0x2B23AE49 DUP14 DUP14 DUP14 DUP14 DUP14 DUP8 PUSH1 0x40 MLOAD DUP8 PUSH4 0xFFFFFFFF AND PUSH1 0xE0 SHL DUP2 MSTORE PUSH1 0x4 ADD PUSH2 0x38A8 SWAP7 SWAP6 SWAP5 SWAP4 SWAP3 SWAP2 SWAP1 PUSH2 0x6B51 JUMP JUMPDEST PUSH1 0x20 PUSH1 0x40 MLOAD DUP1 DUP4 SUB DUP2 PUSH1 0x0 DUP8 GAS CALL ISZERO DUP1 ISZERO PUSH2 0x38C7 JUMPI RETURNDATASIZE PUSH1 0x0 DUP1 RETURNDATACOPY RETURNDATASIZE PUSH1 0x0 REVERT JUMPDEST POP POP POP POP PUSH1 0x40 MLOAD RETURNDATASIZE PUSH1 0x1F NOT PUSH1 0x1F DUP3 ADD AND DUP3 ADD DUP1 PUSH1 0x40 MSTORE POP DUP2 ADD SWAP1 PUSH2 0x38EB SWAP2 SWAP1 PUSH2 0x639D JUMP JUMPDEST SWAP6 POP POP PUSH2 0x397D JUMP JUMPDEST DUP2 PUSH20 0xFFFFFFFFFFFFFFFFFFFFFFFFFFFFFFFFFFFFFFFF AND PUSH4 0x2B23AE49 DUP13 DUP13 DUP13 DUP13 DUP13 PUSH1 0x0 PUSH1 0x40 MLOAD DUP8 PUSH4 0xFFFFFFFF AND PUSH1 0xE0 SHL DUP2 MSTORE PUSH1 0x4 ADD PUSH2 0x3937 SWAP7 SWAP6 SWAP5 SWAP4 SWAP3 SWAP2 SWAP1 PUSH2 0x6BA8 JUMP JUMPDEST PUSH1 0x20 PUSH1 0x40 MLOAD DUP1 DUP4 SUB DUP2 PUSH1 0x0 DUP8 GAS CALL ISZERO DUP1 ISZERO PUSH2 0x3956 JUMPI RETURNDATASIZE PUSH1 0x0 DUP1 RETURNDATACOPY RETURNDATASIZE PUSH1 0x0 REVERT JUMPDEST POP POP POP POP PUSH1 0x40 MLOAD RETURNDATASIZE PUSH1 0x1F NOT PUSH1 0x1F DUP3 ADD AND DUP3 ADD DUP1 PUSH1 0x40 MSTORE POP DUP2 ADD SWAP1 PUSH2 0x397A SWAP2 SWAP1 PUSH2 0x639D JUMP JUMPDEST SWAP5 POP JUMPDEST PUSH1 0x0 DUP6 SLT ISZERO PUSH2 0x39BD JUMPI PUSH2 0x39BC DUP2 DUP14 DUP8 PUSH2 0x3995 SWAP1 PUSH2 0x6483 JUMP JUMPDEST DUP8 PUSH20 0xFFFFFFFFFFFFFFFFFFFFFFFFFFFFFFFFFFFFFFFF AND PUSH2 0x5106 SWAP1 SWAP4 SWAP3 SWAP2 SWAP1 PUSH4 0xFFFFFFFF AND JUMP JUMPDEST JUMPDEST PUSH1 0x0 DUP6 SGT ISZERO PUSH2 0x39F4 JUMPI PUSH2 0x39F3 DUP2 DUP14 DUP8 DUP7 PUSH20 0xFFFFFFFFFFFFFFFFFFFFFFFFFFFFFFFFFFFFFFFF AND PUSH2 0x5106 SWAP1 SWAP4 SWAP3 SWAP2 SWAP1 PUSH4 0xFFFFFFFF AND JUMP JUMPDEST JUMPDEST POP POP POP POP PUSH1 0x1 PUSH1 0x0 DUP2 SWAP1 SSTORE POP SWAP8 SWAP7 POP POP POP POP POP POP POP JUMP JUMPDEST PUSH1 0x2 PUSH1 0x0 SLOAD SUB PUSH2 0x3A50 JUMPI PUSH1 0x40 MLOAD PUSH32 0x8C379A000000000000000000000000000000000000000000000000000000000 DUP2 MSTORE PUSH1 0x4 ADD PUSH2 0x3A47 SWAP1 PUSH2 0x6209 JUMP JUMPDEST PUSH1 0x40 MLOAD DUP1 SWAP2 SUB SWAP1 REVERT JUMPDEST PUSH1 0x2 PUSH1 0x0 DUP2 SWAP1 SSTORE POP PUSH1 0x0 DUP1 PUSH2 0x3A64 DUP7 PUSH2 0x45BF JUMP JUMPDEST SWAP2 POP SWAP2 POP PUSH1 0x0 PUSH20 0xFFFFFFFFFFFFFFFFFFFFFFFFFFFFFFFFFFFFFFFF AND DUP3 PUSH20 0xFFFFFFFFFFFFFFFFFFFFFFFFFFFFFFFFFFFFFFFF AND SUB PUSH2 0x3AD7 JUMPI PUSH1 0x40 MLOAD PUSH32 0x8C379A000000000000000000000000000000000000000000000000000000000 DUP2 MSTORE PUSH1 0x4 ADD PUSH2 0x3ACE SWAP1 PUSH2 0x6275 JUMP JUMPDEST PUSH1 0x40 MLOAD DUP1 SWAP2 SUB SWAP1 REVERT JUMPDEST PUSH1 0x0 DUP1 DUP7 SLT PUSH2 0x3AE6 JUMPI DUP2 PUSH2 0x3AE8 JUMP JUMPDEST DUP3 JUMPDEST SWAP1 POP PUSH1 0x0 DUP1 DUP8 SLT PUSH2 0x3AF9 JUMPI DUP7 PUSH2 0x3B04 JUMP JUMPDEST DUP7 PUSH2 0x3B03 SWAP1 PUSH2 0x6483 JUMP JUMPDEST JUMPDEST SWAP1 POP PUSH1 0x0 DUP3 PUSH20 0xFFFFFFFFFFFFFFFFFFFFFFFFFFFFFFFFFFFFFFFF AND PUSH4 0x70A08231 DUP11 PUSH1 0x40 MLOAD DUP3 PUSH4 0xFFFFFFFF AND PUSH1 0xE0 SHL DUP2 MSTORE PUSH1 0x4 ADD PUSH2 0x3B41 SWAP2 SWAP1 PUSH2 0x593F JUMP JUMPDEST PUSH1 0x20 PUSH1 0x40 MLOAD DUP1 DUP4 SUB DUP2 DUP7 GAS STATICCALL ISZERO DUP1 ISZERO PUSH2 0x3B5E JUMPI RETURNDATASIZE PUSH1 0x0 DUP1 RETURNDATACOPY RETURNDATASIZE PUSH1 0x0 REVERT JUMPDEST POP POP POP POP PUSH1 0x40 MLOAD RETURNDATASIZE PUSH1 0x1F NOT PUSH1 0x1F DUP3 ADD AND DUP3 ADD DUP1 PUSH1 0x40 MSTORE POP DUP2 ADD SWAP1 PUSH2 0x3B82 SWAP2 SWAP1 PUSH2 0x62AA JUMP JUMPDEST SWAP1 POP DUP2 DUP2 LT ISZERO PUSH2 0x3BC7 JUMPI PUSH1 0x40 MLOAD PUSH32 0x8C379A000000000000000000000000000000000000000000000000000000000 DUP2 MSTORE PUSH1 0x4 ADD PUSH2 0x3BBE SWAP1 PUSH2 0x6C71 JUMP JUMPDEST PUSH1 0x40 MLOAD DUP1 SWAP2 SUB SWAP1 REVERT JUMPDEST PUSH1 0x0 DUP1 PUSH2 0x3BD2 PUSH2 0x1FAA JUMP JUMPDEST SWAP2 POP SWAP2 POP PUSH1 0x0 PUSH2 0x3BFF PUSH2 0x2710 PUSH2 0x3BF1 DUP6 DUP9 PUSH2 0x5518 SWAP1 SWAP2 SWAP1 PUSH4 0xFFFFFFFF AND JUMP JUMPDEST PUSH2 0x552E SWAP1 SWAP2 SWAP1 PUSH4 0xFFFFFFFF AND JUMP JUMPDEST SWAP1 POP PUSH1 0x0 PUSH2 0x3C2A PUSH2 0x2710 PUSH2 0x3C1C DUP6 DUP6 PUSH2 0x5518 SWAP1 SWAP2 SWAP1 PUSH4 0xFFFFFFFF AND JUMP JUMPDEST PUSH2 0x552E SWAP1 SWAP2 SWAP1 PUSH4 0xFFFFFFFF AND JUMP JUMPDEST SWAP1 POP PUSH1 0x0 DUP3 GT DUP1 ISZERO PUSH2 0x3C3C JUMPI POP PUSH1 0x0 DUP2 GT JUMPDEST PUSH2 0x3C7B JUMPI PUSH1 0x40 MLOAD PUSH32 0x8C379A000000000000000000000000000000000000000000000000000000000 DUP2 MSTORE PUSH1 0x4 ADD PUSH2 0x3C72 SWAP1 PUSH2 0x6D03 JUMP JUMPDEST PUSH1 0x40 MLOAD DUP1 SWAP2 SUB SWAP1 REVERT JUMPDEST DUP13 PUSH20 0xFFFFFFFFFFFFFFFFFFFFFFFFFFFFFFFFFFFFFFFF AND PUSH4 0x8C3B690D DUP16 DUP15 PUSH1 0x40 MLOAD DUP4 PUSH4 0xFFFFFFFF AND PUSH1 0xE0 SHL DUP2 MSTORE PUSH1 0x4 ADD PUSH2 0x3CB6 SWAP3 SWAP2 SWAP1 PUSH2 0x6D23 JUMP JUMPDEST PUSH1 0x0 PUSH1 0x40 MLOAD DUP1 DUP4 SUB DUP2 PUSH1 0x0 DUP8 DUP1 EXTCODESIZE ISZERO DUP1 ISZERO PUSH2 0x3CD0 JUMPI PUSH1 0x0 DUP1 REVERT JUMPDEST POP GAS CALL ISZERO DUP1 ISZERO PUSH2 0x3CE4 JUMPI RETURNDATASIZE PUSH1 0x0 DUP1 RETURNDATACOPY RETURNDATASIZE PUSH1 0x0 REVERT JUMPDEST POP POP POP POP DUP14 PUSH20 0xFFFFFFFFFFFFFFFFFFFFFFFFFFFFFFFFFFFFFFFF AND PUSH4 0xEE872558 DUP9 DUP9 DUP6 DUP16 DUP16 PUSH1 0x40 MLOAD DUP7 PUSH4 0xFFFFFFFF AND PUSH1 0xE0 SHL DUP2 MSTORE PUSH1 0x4 ADD PUSH2 0x3D29 SWAP6 SWAP5 SWAP4 SWAP3 SWAP2 SWAP1 PUSH2 0x6DAA JUMP JUMPDEST PUSH1 0x0 PUSH1 0x40 MLOAD DUP1 DUP4 SUB DUP2 PUSH1 0x0 DUP8 DUP1 EXTCODESIZE ISZERO DUP1 ISZERO PUSH2 0x3D43 JUMPI PUSH1 0x0 DUP1 REVERT JUMPDEST POP GAS CALL ISZERO DUP1 ISZERO PUSH2 0x3D57 JUMPI RETURNDATASIZE PUSH1 0x0 DUP1 RETURNDATACOPY RETURNDATASIZE PUSH1 0x0 REVERT JUMPDEST POP POP POP POP PUSH1 0x0 DUP8 PUSH20 0xFFFFFFFFFFFFFFFFFFFFFFFFFFFFFFFFFFFFFFFF AND PUSH4 0x70A08231 DUP16 PUSH1 0x40 MLOAD DUP3 PUSH4 0xFFFFFFFF AND PUSH1 0xE0 SHL DUP2 MSTORE PUSH1 0x4 ADD PUSH2 0x3D96 SWAP2 SWAP1 PUSH2 0x593F JUMP JUMPDEST PUSH1 0x20 PUSH1 0x40 MLOAD DUP1 DUP4 SUB DUP2 DUP7 GAS STATICCALL ISZERO DUP1 ISZERO PUSH2 0x3DB3 JUMPI RETURNDATASIZE PUSH1 0x0 DUP1 RETURNDATACOPY RETURNDATASIZE PUSH1 0x0 REVERT JUMPDEST POP POP POP POP PUSH1 0x40 MLOAD RETURNDATASIZE PUSH1 0x1F NOT PUSH1 0x1F DUP3 ADD AND DUP3 ADD DUP1 PUSH1 0x40 MSTORE POP DUP2 ADD SWAP1 PUSH2 0x3DD7 SWAP2 SWAP1 PUSH2 0x62AA JUMP JUMPDEST SWAP1 POP PUSH2 0x3DEC DUP4 DUP8 PUSH2 0x5544 SWAP1 SWAP2 SWAP1 PUSH4 0xFFFFFFFF AND JUMP JUMPDEST DUP2 EQ PUSH2 0x3E2D JUMPI PUSH1 0x40 MLOAD PUSH32 0x8C379A000000000000000000000000000000000000000000000000000000000 DUP2 MSTORE PUSH1 0x4 ADD PUSH2 0x3E24 SWAP1 PUSH2 0x6E6A JUMP JUMPDEST PUSH1 0x40 MLOAD DUP1 SWAP2 SUB SWAP1 REVERT JUMPDEST PUSH2 0x3E38 DUP15 DUP10 DUP5 PUSH2 0x555A JUMP JUMPDEST DUP8 PUSH20 0xFFFFFFFFFFFFFFFFFFFFFFFFFFFFFFFFFFFFFFFF AND DUP16 PUSH20 0xFFFFFFFFFFFFFFFFFFFFFFFFFFFFFFFFFFFFFFFF AND PUSH32 0xC2CC38A259B9814B48837A5EF563394B3270F0685C07092429FC52017F92ACFF DUP16 DUP7 DUP7 TIMESTAMP PUSH1 0x40 MLOAD PUSH2 0x3E9B SWAP5 SWAP4 SWAP3 SWAP2 SWAP1 PUSH2 0x6E8A JUMP JUMPDEST PUSH1 0x40 MLOAD DUP1 SWAP2 SUB SWAP1 LOG3 POP POP POP POP POP POP POP POP POP POP PUSH1 0x1 PUSH1 0x0 DUP2 SWAP1 SSTORE POP POP POP POP POP POP JUMP JUMPDEST PUSH1 0x4 PUSH1 0x0 SWAP1 SLOAD SWAP1 PUSH2 0x100 EXP SWAP1 DIV PUSH20 0xFFFFFFFFFFFFFFFFFFFFFFFFFFFFFFFFFFFFFFFF AND DUP2 JUMP JUMPDEST PUSH1 0x5 PUSH1 0x0 SWAP1 SLOAD SWAP1 PUSH2 0x100 EXP SWAP1 DIV PUSH20 0xFFFFFFFFFFFFFFFFFFFFFFFFFFFFFFFFFFFFFFFF AND DUP2 JUMP JUMPDEST PUSH1 0x0 DUP2 PUSH1 0x0 DUP2 SUB PUSH2 0x3F4E JUMPI PUSH1 0x40 MLOAD PUSH32 0x8C379A000000000000000000000000000000000000000000000000000000000 DUP2 MSTORE PUSH1 0x4 ADD PUSH2 0x3F45 SWAP1 PUSH2 0x619D JUMP JUMPDEST PUSH1 0x40 MLOAD DUP1 SWAP2 SUB SWAP1 REVERT JUMPDEST PUSH1 0x2 PUSH1 0x0 SLOAD SUB PUSH2 0x3F93 JUMPI PUSH1 0x40 MLOAD PUSH32 0x8C379A000000000000000000000000000000000000000000000000000000000 DUP2 MSTORE PUSH1 0x4 ADD PUSH2 0x3F8A SWAP1 PUSH2 0x6209 JUMP JUMPDEST PUSH1 0x40 MLOAD DUP1 SWAP2 SUB SWAP1 REVERT JUMPDEST PUSH1 0x2 PUSH1 0x0 DUP2 SWAP1 SSTORE POP PUSH1 0x0 DUP1 PUSH2 0x3FA7 DUP7 PUSH2 0x45BF JUMP JUMPDEST SWAP2 POP SWAP2 POP PUSH1 0x0 PUSH20 0xFFFFFFFFFFFFFFFFFFFFFFFFFFFFFFFFFFFFFFFF AND DUP3 PUSH20 0xFFFFFFFFFFFFFFFFFFFFFFFFFFFFFFFFFFFFFFFF AND SUB PUSH2 0x401A JUMPI PUSH1 0x40 MLOAD PUSH32 0x8C379A000000000000000000000000000000000000000000000000000000000 DUP2 MSTORE PUSH1 0x4 ADD PUSH2 0x4011 SWAP1 PUSH2 0x6275 JUMP JUMPDEST PUSH1 0x40 MLOAD DUP1 SWAP2 SUB SWAP1 REVERT JUMPDEST PUSH1 0x0 PUSH1 0x6 PUSH1 0x0 SWAP1 SLOAD SWAP1 PUSH2 0x100 EXP SWAP1 DIV PUSH20 0xFFFFFFFFFFFFFFFFFFFFFFFFFFFFFFFFFFFFFFFF AND PUSH20 0xFFFFFFFFFFFFFFFFFFFFFFFFFFFFFFFFFFFFFFFF AND PUSH4 0x4B7CAB4A DUP9 CALLER PUSH1 0x40 MLOAD DUP4 PUSH4 0xFFFFFFFF AND PUSH1 0xE0 SHL DUP2 MSTORE PUSH1 0x4 ADD PUSH2 0x4079 SWAP3 SWAP2 SWAP1 PUSH2 0x6117 JUMP JUMPDEST PUSH1 0x20 PUSH1 0x40 MLOAD DUP1 DUP4 SUB DUP2 DUP7 GAS STATICCALL ISZERO DUP1 ISZERO PUSH2 0x4096 JUMPI RETURNDATASIZE PUSH1 0x0 DUP1 RETURNDATACOPY RETURNDATASIZE PUSH1 0x0 REVERT JUMPDEST POP POP POP POP PUSH1 0x40 MLOAD RETURNDATASIZE PUSH1 0x1F NOT PUSH1 0x1F DUP3 ADD AND DUP3 ADD DUP1 PUSH1 0x40 MSTORE POP DUP2 ADD SWAP1 PUSH2 0x40BA SWAP2 SWAP1 PUSH2 0x62AA JUMP JUMPDEST SWAP1 POP PUSH1 0x0 DUP2 SUB PUSH2 0x4167 JUMPI PUSH1 0x6 PUSH1 0x0 SWAP1 SLOAD SWAP1 PUSH2 0x100 EXP SWAP1 DIV PUSH20 0xFFFFFFFFFFFFFFFFFFFFFFFFFFFFFFFFFFFFFFFF AND PUSH20 0xFFFFFFFFFFFFFFFFFFFFFFFFFFFFFFFFFFFFFFFF AND PUSH4 0x11631065 DUP9 CALLER PUSH1 0x40 MLOAD DUP4 PUSH4 0xFFFFFFFF AND PUSH1 0xE0 SHL DUP2 MSTORE PUSH1 0x4 ADD PUSH2 0x4121 SWAP3 SWAP2 SWAP1 PUSH2 0x6117 JUMP JUMPDEST PUSH1 0x20 PUSH1 0x40 MLOAD DUP1 DUP4 SUB DUP2 PUSH1 0x0 DUP8 GAS CALL ISZERO DUP1 ISZERO PUSH2 0x4140 JUMPI RETURNDATASIZE PUSH1 0x0 DUP1 RETURNDATACOPY RETURNDATASIZE PUSH1 0x0 REVERT JUMPDEST POP POP POP POP PUSH1 0x40 MLOAD RETURNDATASIZE PUSH1 0x1F NOT PUSH1 0x1F DUP3 ADD AND DUP3 ADD DUP1 PUSH1 0x40 MSTORE POP DUP2 ADD SWAP1 PUSH2 0x4164 SWAP2 SWAP1 PUSH2 0x62AA JUMP JUMPDEST SWAP1 POP JUMPDEST PUSH1 0x0 DUP1 DUP8 SLT PUSH2 0x4176 JUMPI DUP3 PUSH2 0x4178 JUMP JUMPDEST DUP4 JUMPDEST SWAP1 POP PUSH2 0x4186 DUP9 DUP3 DUP10 DUP6 PUSH2 0x518F JUMP JUMPDEST SWAP6 POP POP POP POP POP PUSH1 0x1 PUSH1 0x0 DUP2 SWAP1 SSTORE POP POP SWAP3 SWAP2 POP POP JUMP JUMPDEST PUSH1 0x0 CALLER PUSH20 0xFFFFFFFFFFFFFFFFFFFFFFFFFFFFFFFFFFFFFFFF AND PUSH1 0x1 PUSH1 0x0 SWAP1 SLOAD SWAP1 PUSH2 0x100 EXP SWAP1 DIV PUSH20 0xFFFFFFFFFFFFFFFFFFFFFFFFFFFFFFFFFFFFFFFF AND PUSH20 0xFFFFFFFFFFFFFFFFFFFFFFFFFFFFFFFFFFFFFFFF AND EQ PUSH2 0x422D JUMPI PUSH1 0x40 MLOAD PUSH32 0x8C379A000000000000000000000000000000000000000000000000000000000 DUP2 MSTORE PUSH1 0x4 ADD PUSH2 0x4224 SWAP1 PUSH2 0x6517 JUMP JUMPDEST PUSH1 0x40 MLOAD DUP1 SWAP2 SUB SWAP1 REVERT JUMPDEST PUSH1 0x0 DUP4 GT DUP1 ISZERO PUSH2 0x423E JUMPI POP PUSH2 0x2710 DUP4 LT JUMPDEST PUSH2 0x427D JUMPI PUSH1 0x40 MLOAD PUSH32 0x8C379A000000000000000000000000000000000000000000000000000000000 DUP2 MSTORE PUSH1 0x4 ADD PUSH2 0x4274 SWAP1 PUSH2 0x6F41 JUMP JUMPDEST PUSH1 0x40 MLOAD DUP1 SWAP2 SUB SWAP1 REVERT JUMPDEST PUSH1 0x0 DUP3 GT DUP1 ISZERO PUSH2 0x428E JUMPI POP PUSH2 0x2710 DUP3 LT JUMPDEST PUSH2 0x42CD JUMPI PUSH1 0x40 MLOAD PUSH32 0x8C379A000000000000000000000000000000000000000000000000000000000 DUP2 MSTORE PUSH1 0x4 ADD PUSH2 0x42C4 SWAP1 PUSH2 0x6FD3 JUMP JUMPDEST PUSH1 0x40 MLOAD DUP1 SWAP2 SUB SWAP1 REVERT JUMPDEST DUP3 PUSH1 0x8 DUP2 SWAP1 SSTORE POP DUP2 PUSH1 0x9 DUP2 SWAP1 SSTORE POP PUSH1 0x1 SWAP1 POP SWAP3 SWAP2 POP POP JUMP JUMPDEST PUSH1 0x6 PUSH1 0x0 SWAP1 SLOAD SWAP1 PUSH2 0x100 EXP SWAP1 DIV PUSH20 0xFFFFFFFFFFFFFFFFFFFFFFFFFFFFFFFFFFFFFFFF AND DUP2 JUMP JUMPDEST PUSH1 0x0 DUP1 PUSH1 0x0 PUSH2 0x4319 DUP5 PUSH2 0x45BF JUMP JUMPDEST POP SWAP1 POP PUSH1 0x0 PUSH20 0xFFFFFFFFFFFFFFFFFFFFFFFFFFFFFFFFFFFFFFFF AND DUP2 PUSH20 0xFFFFFFFFFFFFFFFFFFFFFFFFFFFFFFFFFFFFFFFF AND EQ PUSH2 0x4433 JUMPI DUP4 PUSH20 0xFFFFFFFFFFFFFFFFFFFFFFFFFFFFFFFFFFFFFFFF AND PUSH4 0x85E90760 PUSH1 0x40 MLOAD DUP2 PUSH4 0xFFFFFFFF AND PUSH1 0xE0 SHL DUP2 MSTORE PUSH1 0x4 ADD PUSH1 0x20 PUSH1 0x40 MLOAD DUP1 DUP4 SUB DUP2 DUP7 GAS STATICCALL ISZERO DUP1 ISZERO PUSH2 0x439B JUMPI RETURNDATASIZE PUSH1 0x0 DUP1 RETURNDATACOPY RETURNDATASIZE PUSH1 0x0 REVERT JUMPDEST POP POP POP POP PUSH1 0x40 MLOAD RETURNDATASIZE PUSH1 0x1F NOT PUSH1 0x1F DUP3 ADD AND DUP3 ADD DUP1 PUSH1 0x40 MSTORE POP DUP2 ADD SWAP1 PUSH2 0x43BF SWAP2 SWAP1 PUSH2 0x62AA JUMP JUMPDEST SWAP3 POP DUP4 PUSH20 0xFFFFFFFFFFFFFFFFFFFFFFFFFFFFFFFFFFFFFFFF AND PUSH4 0x69F4E52D PUSH1 0x40 MLOAD DUP2 PUSH4 0xFFFFFFFF AND PUSH1 0xE0 SHL DUP2 MSTORE PUSH1 0x4 ADD PUSH1 0x20 PUSH1 0x40 MLOAD DUP1 DUP4 SUB DUP2 DUP7 GAS STATICCALL ISZERO DUP1 ISZERO PUSH2 0x440C JUMPI RETURNDATASIZE PUSH1 0x0 DUP1 RETURNDATACOPY RETURNDATASIZE PUSH1 0x0 REVERT JUMPDEST POP POP POP POP PUSH1 0x40 MLOAD RETURNDATASIZE PUSH1 0x1F NOT PUSH1 0x1F DUP3 ADD AND DUP3 ADD DUP1 PUSH1 0x40 MSTORE POP DUP2 ADD SWAP1 PUSH2 0x4430 SWAP2 SWAP1 PUSH2 0x62AA JUMP JUMPDEST SWAP2 POP JUMPDEST POP SWAP2 POP SWAP2 JUMP JUMPDEST CALLER PUSH20 0xFFFFFFFFFFFFFFFFFFFFFFFFFFFFFFFFFFFFFFFF AND PUSH1 0x1 PUSH1 0x0 SWAP1 SLOAD SWAP1 PUSH2 0x100 EXP SWAP1 DIV PUSH20 0xFFFFFFFFFFFFFFFFFFFFFFFFFFFFFFFFFFFFFFFF AND PUSH20 0xFFFFFFFFFFFFFFFFFFFFFFFFFFFFFFFFFFFFFFFF AND EQ PUSH2 0x44C9 JUMPI PUSH1 0x40 MLOAD PUSH32 0x8C379A000000000000000000000000000000000000000000000000000000000 DUP2 MSTORE PUSH1 0x4 ADD PUSH2 0x44C0 SWAP1 PUSH2 0x6517 JUMP JUMPDEST PUSH1 0x40 MLOAD DUP1 SWAP2 SUB SWAP1 REVERT JUMPDEST PUSH1 0x0 PUSH20 0xFFFFFFFFFFFFFFFFFFFFFFFFFFFFFFFFFFFFFFFF AND DUP2 PUSH20 0xFFFFFFFFFFFFFFFFFFFFFFFFFFFFFFFFFFFFFFFF AND SUB PUSH2 0x4538 JUMPI PUSH1 0x40 MLOAD PUSH32 0x8C379A000000000000000000000000000000000000000000000000000000000 DUP2 MSTORE PUSH1 0x4 ADD PUSH2 0x452F SWAP1 PUSH2 0x6583 JUMP JUMPDEST PUSH1 0x40 MLOAD DUP1 SWAP2 SUB SWAP1 REVERT JUMPDEST DUP1 PUSH1 0x1 PUSH1 0x0 PUSH2 0x100 EXP DUP2 SLOAD DUP2 PUSH20 0xFFFFFFFFFFFFFFFFFFFFFFFFFFFFFFFFFFFFFFFF MUL NOT AND SWAP1 DUP4 PUSH20 0xFFFFFFFFFFFFFFFFFFFFFFFFFFFFFFFFFFFFFFFF AND MUL OR SWAP1 SSTORE POP DUP1 PUSH20 0xFFFFFFFFFFFFFFFFFFFFFFFFFFFFFFFFFFFFFFFF AND PUSH32 0x887312A808C8C8792F23DEBC8E3D3AB4830DEFA261DE0E5E0056001EA3CEEA9B PUSH1 0x40 MLOAD PUSH1 0x40 MLOAD DUP1 SWAP2 SUB SWAP1 LOG2 POP JUMP JUMPDEST PUSH1 0x0 DUP1 PUSH1 0x0 PUSH1 0xC PUSH1 0x0 DUP6 PUSH20 0xFFFFFFFFFFFFFFFFFFFFFFFFFFFFFFFFFFFFFFFF AND PUSH20 0xFFFFFFFFFFFFFFFFFFFFFFFFFFFFFFFFFFFFFFFF AND DUP2 MSTORE PUSH1 0x20 ADD SWAP1 DUP2 MSTORE PUSH1 0x20 ADD PUSH1 0x0 KECCAK256 PUSH1 0x40 MLOAD DUP1 PUSH1 0x40 ADD PUSH1 0x40 MSTORE SWAP1 DUP2 PUSH1 0x0 DUP3 ADD PUSH1 0x0 SWAP1 SLOAD SWAP1 PUSH2 0x100 EXP SWAP1 DIV PUSH20 0xFFFFFFFFFFFFFFFFFFFFFFFFFFFFFFFFFFFFFFFF AND PUSH20 0xFFFFFFFFFFFFFFFFFFFFFFFFFFFFFFFFFFFFFFFF AND PUSH20 0xFFFFFFFFFFFFFFFFFFFFFFFFFFFFFFFFFFFFFFFF AND DUP2 MSTORE PUSH1 0x20 ADD PUSH1 0x1 DUP3 ADD PUSH1 0x0 SWAP1 SLOAD SWAP1 PUSH2 0x100 EXP SWAP1 DIV PUSH20 0xFFFFFFFFFFFFFFFFFFFFFFFFFFFFFFFFFFFFFFFF AND PUSH20 0xFFFFFFFFFFFFFFFFFFFFFFFFFFFFFFFFFFFFFFFF AND PUSH20 0xFFFFFFFFFFFFFFFFFFFFFFFFFFFFFFFFFFFFFFFF AND DUP2 MSTORE POP POP SWAP1 POP DUP1 PUSH1 0x0 ADD MLOAD DUP2 PUSH1 0x20 ADD MLOAD SWAP3 POP SWAP3 POP POP SWAP2 POP SWAP2 JUMP JUMPDEST PUSH1 0x0 DUP1 PUSH1 0x0 DUP4 PUSH20 0xFFFFFFFFFFFFFFFFFFFFFFFFFFFFFFFFFFFFFFFF AND DUP6 PUSH20 0xFFFFFFFFFFFFFFFFFFFFFFFFFFFFFFFFFFFFFFFF AND LT PUSH2 0x470F JUMPI DUP4 DUP6 PUSH2 0x4712 JUMP JUMPDEST DUP5 DUP5 JUMPDEST SWAP2 POP SWAP2 POP PUSH1 0x0 PUSH20 0xFFFFFFFFFFFFFFFFFFFFFFFFFFFFFFFFFFFFFFFF AND DUP6 PUSH20 0xFFFFFFFFFFFFFFFFFFFFFFFFFFFFFFFFFFFFFFFF AND SUB PUSH2 0x4785 JUMPI PUSH1 0x40 MLOAD PUSH32 0x8C379A000000000000000000000000000000000000000000000000000000000 DUP2 MSTORE PUSH1 0x4 ADD PUSH2 0x477C SWAP1 PUSH2 0x6583 JUMP JUMPDEST PUSH1 0x40 MLOAD DUP1 SWAP2 SUB SWAP1 REVERT JUMPDEST DUP4 PUSH20 0xFFFFFFFFFFFFFFFFFFFFFFFFFFFFFFFFFFFFFFFF AND DUP6 PUSH20 0xFFFFFFFFFFFFFFFFFFFFFFFFFFFFFFFFFFFFFFFF AND SUB PUSH2 0x47F3 JUMPI PUSH1 0x40 MLOAD PUSH32 0x8C379A000000000000000000000000000000000000000000000000000000000 DUP2 MSTORE PUSH1 0x4 ADD PUSH2 0x47EA SWAP1 PUSH2 0x703F JUMP JUMPDEST PUSH1 0x40 MLOAD DUP1 SWAP2 SUB SWAP1 REVERT JUMPDEST PUSH1 0x0 PUSH20 0xFFFFFFFFFFFFFFFFFFFFFFFFFFFFFFFFFFFFFFFF AND PUSH1 0xB PUSH1 0x0 DUP5 PUSH20 0xFFFFFFFFFFFFFFFFFFFFFFFFFFFFFFFFFFFFFFFF AND PUSH20 0xFFFFFFFFFFFFFFFFFFFFFFFFFFFFFFFFFFFFFFFF AND DUP2 MSTORE PUSH1 0x20 ADD SWAP1 DUP2 MSTORE PUSH1 0x20 ADD PUSH1 0x0 KECCAK256 PUSH1 0x0 DUP4 PUSH20 0xFFFFFFFFFFFFFFFFFFFFFFFFFFFFFFFFFFFFFFFF AND PUSH20 0xFFFFFFFFFFFFFFFFFFFFFFFFFFFFFFFFFFFFFFFF AND DUP2 MSTORE PUSH1 0x20 ADD SWAP1 DUP2 MSTORE PUSH1 0x20 ADD PUSH1 0x0 KECCAK256 PUSH1 0x0 SWAP1 SLOAD SWAP1 PUSH2 0x100 EXP SWAP1 DIV PUSH20 0xFFFFFFFFFFFFFFFFFFFFFFFFFFFFFFFFFFFFFFFF AND PUSH20 0xFFFFFFFFFFFFFFFFFFFFFFFFFFFFFFFFFFFFFFFF AND EQ PUSH2 0x48FE JUMPI PUSH1 0x40 MLOAD PUSH32 0x8C379A000000000000000000000000000000000000000000000000000000000 DUP2 MSTORE PUSH1 0x4 ADD PUSH2 0x48F5 SWAP1 PUSH2 0x70AB JUMP JUMPDEST PUSH1 0x40 MLOAD DUP1 SWAP2 SUB SWAP1 REVERT JUMPDEST PUSH1 0x0 DUP1 PUSH1 0x3 PUSH1 0x0 SWAP1 SLOAD SWAP1 PUSH2 0x100 EXP SWAP1 DIV PUSH20 0xFFFFFFFFFFFFFFFFFFFFFFFFFFFFFFFFFFFFFFFF AND PUSH1 0x60 SHL SWAP1 POP PUSH1 0x0 DUP5 PUSH20 0xFFFFFFFFFFFFFFFFFFFFFFFFFFFFFFFFFFFFFFFF AND PUSH4 0x18160DDD PUSH1 0x40 MLOAD DUP2 PUSH4 0xFFFFFFFF AND PUSH1 0xE0 SHL DUP2 MSTORE PUSH1 0x4 ADD PUSH1 0x20 PUSH1 0x40 MLOAD DUP1 DUP4 SUB DUP2 DUP7 GAS STATICCALL ISZERO DUP1 ISZERO PUSH2 0x4976 JUMPI RETURNDATASIZE PUSH1 0x0 DUP1 RETURNDATACOPY RETURNDATASIZE PUSH1 0x0 REVERT JUMPDEST POP POP POP POP PUSH1 0x40 MLOAD RETURNDATASIZE PUSH1 0x1F NOT PUSH1 0x1F DUP3 ADD AND DUP3 ADD DUP1 PUSH1 0x40 MSTORE POP DUP2 ADD SWAP1 PUSH2 0x499A SWAP2 SWAP1 PUSH2 0x62AA JUMP JUMPDEST GT PUSH2 0x49DA JUMPI PUSH1 0x40 MLOAD PUSH32 0x8C379A000000000000000000000000000000000000000000000000000000000 DUP2 MSTORE PUSH1 0x4 ADD PUSH2 0x49D1 SWAP1 PUSH2 0x7117 JUMP JUMPDEST PUSH1 0x40 MLOAD DUP1 SWAP2 SUB SWAP1 REVERT JUMPDEST PUSH1 0x0 DUP4 PUSH20 0xFFFFFFFFFFFFFFFFFFFFFFFFFFFFFFFFFFFFFFFF AND PUSH4 0x18160DDD PUSH1 0x40 MLOAD DUP2 PUSH4 0xFFFFFFFF AND PUSH1 0xE0 SHL DUP2 MSTORE PUSH1 0x4 ADD PUSH1 0x20 PUSH1 0x40 MLOAD DUP1 DUP4 SUB DUP2 DUP7 GAS STATICCALL ISZERO DUP1 ISZERO PUSH2 0x4A27 JUMPI RETURNDATASIZE PUSH1 0x0 DUP1 RETURNDATACOPY RETURNDATASIZE PUSH1 0x0 REVERT JUMPDEST POP POP POP POP PUSH1 0x40 MLOAD RETURNDATASIZE PUSH1 0x1F NOT PUSH1 0x1F DUP3 ADD AND DUP3 ADD DUP1 PUSH1 0x40 MSTORE POP DUP2 ADD SWAP1 PUSH2 0x4A4B SWAP2 SWAP1 PUSH2 0x62AA JUMP JUMPDEST GT PUSH2 0x4A8B JUMPI PUSH1 0x40 MLOAD PUSH32 0x8C379A000000000000000000000000000000000000000000000000000000000 DUP2 MSTORE PUSH1 0x4 ADD PUSH2 0x4A82 SWAP1 PUSH2 0x7117 JUMP JUMPDEST PUSH1 0x40 MLOAD DUP1 SWAP2 SUB SWAP1 REVERT JUMPDEST PUSH1 0x40 MLOAD PUSH32 0x3D602D80600A3D3981F3363D3D373D3D3D363D73000000000000000000000000 DUP2 MSTORE DUP2 PUSH1 0x14 DUP3 ADD MSTORE PUSH32 0x5AF43D82803E903D91602B57FD5BF30000000000000000000000000000000000 PUSH1 0x28 DUP3 ADD MSTORE PUSH1 0x37 DUP2 PUSH1 0x0 CREATE SWAP3 POP POP PUSH1 0x0 DUP3 SWAP1 POP DUP1 PUSH20 0xFFFFFFFFFFFFFFFFFFFFFFFFFFFFFFFFFFFFFFFF AND PUSH3 0x7FDD45 DUP7 DUP7 PUSH1 0x2 PUSH1 0x0 SWAP1 SLOAD SWAP1 PUSH2 0x100 EXP SWAP1 DIV PUSH20 0xFFFFFFFFFFFFFFFFFFFFFFFFFFFFFFFFFFFFFFFF AND PUSH1 0xA PUSH1 0x0 SWAP1 SLOAD SWAP1 PUSH2 0x100 EXP SWAP1 DIV PUSH1 0xFF AND PUSH1 0xA PUSH1 0x1 SWAP1 SLOAD SWAP1 PUSH2 0x100 EXP SWAP1 DIV PUSH1 0xFF AND PUSH1 0xA PUSH1 0x2 SWAP1 SLOAD SWAP1 PUSH2 0x100 EXP SWAP1 DIV PUSH1 0xFF AND PUSH1 0x40 MLOAD DUP8 PUSH4 0xFFFFFFFF AND PUSH1 0xE0 SHL DUP2 MSTORE PUSH1 0x4 ADD PUSH2 0x4B7C SWAP7 SWAP6 SWAP5 SWAP4 SWAP3 SWAP2 SWAP1 PUSH2 0x7137 JUMP JUMPDEST PUSH1 0x0 PUSH1 0x40 MLOAD DUP1 DUP4 SUB DUP2 PUSH1 0x0 DUP8 DUP1 EXTCODESIZE ISZERO DUP1 ISZERO PUSH2 0x4B96 JUMPI PUSH1 0x0 DUP1 REVERT JUMPDEST POP GAS CALL ISZERO DUP1 ISZERO PUSH2 0x4BAA JUMPI RETURNDATASIZE PUSH1 0x0 DUP1 RETURNDATACOPY RETURNDATASIZE PUSH1 0x0 REVERT JUMPDEST POP POP POP POP PUSH1 0x0 PUSH1 0xC PUSH1 0x0 DUP4 PUSH20 0xFFFFFFFFFFFFFFFFFFFFFFFFFFFFFFFFFFFFFFFF AND PUSH20 0xFFFFFFFFFFFFFFFFFFFFFFFFFFFFFFFFFFFFFFFF AND DUP2 MSTORE PUSH1 0x20 ADD SWAP1 DUP2 MSTORE PUSH1 0x20 ADD PUSH1 0x0 KECCAK256 SWAP1 POP DUP6 DUP2 PUSH1 0x0 ADD PUSH1 0x0 PUSH2 0x100 EXP DUP2 SLOAD DUP2 PUSH20 0xFFFFFFFFFFFFFFFFFFFFFFFFFFFFFFFFFFFFFFFF MUL NOT AND SWAP1 DUP4 PUSH20 0xFFFFFFFFFFFFFFFFFFFFFFFFFFFFFFFFFFFFFFFF AND MUL OR SWAP1 SSTORE POP DUP5 DUP2 PUSH1 0x1 ADD PUSH1 0x0 PUSH2 0x100 EXP DUP2 SLOAD DUP2 PUSH20 0xFFFFFFFFFFFFFFFFFFFFFFFFFFFFFFFFFFFFFFFF MUL NOT AND SWAP1 DUP4 PUSH20 0xFFFFFFFFFFFFFFFFFFFFFFFFFFFFFFFFFFFFFFFF AND MUL OR SWAP1 SSTORE POP DUP2 PUSH1 0xB PUSH1 0x0 DUP9 PUSH20 0xFFFFFFFFFFFFFFFFFFFFFFFFFFFFFFFFFFFFFFFF AND PUSH20 0xFFFFFFFFFFFFFFFFFFFFFFFFFFFFFFFFFFFFFFFF AND DUP2 MSTORE PUSH1 0x20 ADD SWAP1 DUP2 MSTORE PUSH1 0x20 ADD PUSH1 0x0 KECCAK256 PUSH1 0x0 DUP8 PUSH20 0xFFFFFFFFFFFFFFFFFFFFFFFFFFFFFFFFFFFFFFFF AND PUSH20 0xFFFFFFFFFFFFFFFFFFFFFFFFFFFFFFFFFFFFFFFF AND DUP2 MSTORE PUSH1 0x20 ADD SWAP1 DUP2 MSTORE PUSH1 0x20 ADD PUSH1 0x0 KECCAK256 PUSH1 0x0 PUSH2 0x100 EXP DUP2 SLOAD DUP2 PUSH20 0xFFFFFFFFFFFFFFFFFFFFFFFFFFFFFFFFFFFFFFFF MUL NOT AND SWAP1 DUP4 PUSH20 0xFFFFFFFFFFFFFFFFFFFFFFFFFFFFFFFFFFFFFFFF AND MUL OR SWAP1 SSTORE POP DUP2 PUSH1 0xB PUSH1 0x0 DUP8 PUSH20 0xFFFFFFFFFFFFFFFFFFFFFFFFFFFFFFFFFFFFFFFF AND PUSH20 0xFFFFFFFFFFFFFFFFFFFFFFFFFFFFFFFFFFFFFFFF AND DUP2 MSTORE PUSH1 0x20 ADD SWAP1 DUP2 MSTORE PUSH1 0x20 ADD PUSH1 0x0 KECCAK256 PUSH1 0x0 DUP9 PUSH20 0xFFFFFFFFFFFFFFFFFFFFFFFFFFFFFFFFFFFFFFFF AND PUSH20 0xFFFFFFFFFFFFFFFFFFFFFFFFFFFFFFFFFFFFFFFF AND DUP2 MSTORE PUSH1 0x20 ADD SWAP1 DUP2 MSTORE PUSH1 0x20 ADD PUSH1 0x0 KECCAK256 PUSH1 0x0 PUSH2 0x100 EXP DUP2 SLOAD DUP2 PUSH20 0xFFFFFFFFFFFFFFFFFFFFFFFFFFFFFFFFFFFFFFFF MUL NOT AND SWAP1 DUP4 PUSH20 0xFFFFFFFFFFFFFFFFFFFFFFFFFFFFFFFFFFFFFFFF AND MUL OR SWAP1 SSTORE POP PUSH1 0x7 PUSH1 0x0 DUP2 SLOAD DUP1 SWAP3 SWAP2 SWAP1 PUSH2 0x4E00 SWAP1 PUSH2 0x7198 JUMP JUMPDEST SWAP2 SWAP1 POP SSTORE POP DUP5 PUSH20 0xFFFFFFFFFFFFFFFFFFFFFFFFFFFFFFFFFFFFFFFF AND DUP7 PUSH20 0xFFFFFFFFFFFFFFFFFFFFFFFFFFFFFFFFFFFFFFFF AND PUSH32 0xEBBBE9DC3A19D2F959AC76AC0372B4983CDFB945F5D6AEF4873C36FABB2BA8AA DUP5 PUSH1 0x7 SLOAD PUSH1 0x40 MLOAD PUSH2 0x4E66 SWAP3 SWAP2 SWAP1 PUSH2 0x71E0 JUMP JUMPDEST PUSH1 0x40 MLOAD DUP1 SWAP2 SUB SWAP1 LOG3 DUP2 SWAP7 POP POP POP POP POP POP POP SWAP3 SWAP2 POP POP JUMP JUMPDEST PUSH1 0x0 DUP3 PUSH1 0x0 DUP2 SUB PUSH2 0x4EC3 JUMPI PUSH1 0x40 MLOAD PUSH32 0x8C379A000000000000000000000000000000000000000000000000000000000 DUP2 MSTORE PUSH1 0x4 ADD PUSH2 0x4EBA SWAP1 PUSH2 0x619D JUMP JUMPDEST PUSH1 0x40 MLOAD DUP1 SWAP2 SUB SWAP1 REVERT JUMPDEST PUSH1 0x2 PUSH1 0x0 SLOAD SUB PUSH2 0x4F08 JUMPI PUSH1 0x40 MLOAD PUSH32 0x8C379A000000000000000000000000000000000000000000000000000000000 DUP2 MSTORE PUSH1 0x4 ADD PUSH2 0x4EFF SWAP1 PUSH2 0x6209 JUMP JUMPDEST PUSH1 0x40 MLOAD DUP1 SWAP2 SUB SWAP1 REVERT JUMPDEST PUSH1 0x2 PUSH1 0x0 DUP2 SWAP1 SSTORE POP PUSH1 0x0 PUSH2 0x4F1B DUP7 PUSH2 0x45BF JUMP JUMPDEST POP SWAP1 POP PUSH1 0x0 PUSH20 0xFFFFFFFFFFFFFFFFFFFFFFFFFFFFFFFFFFFFFFFF AND DUP2 PUSH20 0xFFFFFFFFFFFFFFFFFFFFFFFFFFFFFFFFFFFFFFFF AND SUB PUSH2 0x4F8D JUMPI PUSH1 0x40 MLOAD PUSH32 0x8C379A000000000000000000000000000000000000000000000000000000000 DUP2 MSTORE PUSH1 0x4 ADD PUSH2 0x4F84 SWAP1 PUSH2 0x6275 JUMP JUMPDEST PUSH1 0x40 MLOAD DUP1 SWAP2 SUB SWAP1 REVERT JUMPDEST PUSH1 0x0 PUSH1 0x6 PUSH1 0x0 SWAP1 SLOAD SWAP1 PUSH2 0x100 EXP SWAP1 DIV PUSH20 0xFFFFFFFFFFFFFFFFFFFFFFFFFFFFFFFFFFFFFFFF AND PUSH20 0xFFFFFFFFFFFFFFFFFFFFFFFFFFFFFFFFFFFFFFFF AND PUSH4 0x4B7CAB4A DUP9 CALLER PUSH1 0x40 MLOAD DUP4 PUSH4 0xFFFFFFFF AND PUSH1 0xE0 SHL DUP2 MSTORE PUSH1 0x4 ADD PUSH2 0x4FEC SWAP3 SWAP2 SWAP1 PUSH2 0x6117 JUMP JUMPDEST PUSH1 0x20 PUSH1 0x40 MLOAD DUP1 DUP4 SUB DUP2 DUP7 GAS STATICCALL ISZERO DUP1 ISZERO PUSH2 0x5009 JUMPI RETURNDATASIZE PUSH1 0x0 DUP1 RETURNDATACOPY RETURNDATASIZE PUSH1 0x0 REVERT JUMPDEST POP POP POP POP PUSH1 0x40 MLOAD RETURNDATASIZE PUSH1 0x1F NOT PUSH1 0x1F DUP3 ADD AND DUP3 ADD DUP1 PUSH1 0x40 MSTORE POP DUP2 ADD SWAP1 PUSH2 0x502D SWAP2 SWAP1 PUSH2 0x62AA JUMP JUMPDEST SWAP1 POP PUSH1 0x0 DUP2 GT PUSH2 0x5072 JUMPI PUSH1 0x40 MLOAD PUSH32 0x8C379A000000000000000000000000000000000000000000000000000000000 DUP2 MSTORE PUSH1 0x4 ADD PUSH2 0x5069 SWAP1 PUSH2 0x6323 JUMP JUMPDEST PUSH1 0x40 MLOAD DUP1 SWAP2 SUB SWAP1 REVERT JUMPDEST DUP7 PUSH20 0xFFFFFFFFFFFFFFFFFFFFFFFFFFFFFFFFFFFFFFFF AND PUSH4 0x99CD69D1 DUP3 DUP9 DUP9 PUSH1 0x40 MLOAD DUP5 PUSH4 0xFFFFFFFF AND PUSH1 0xE0 SHL DUP2 MSTORE PUSH1 0x4 ADD PUSH2 0x50AF SWAP4 SWAP3 SWAP2 SWAP1 PUSH2 0x6777 JUMP JUMPDEST PUSH1 0x20 PUSH1 0x40 MLOAD DUP1 DUP4 SUB DUP2 PUSH1 0x0 DUP8 GAS CALL ISZERO DUP1 ISZERO PUSH2 0x50CE JUMPI RETURNDATASIZE PUSH1 0x0 DUP1 RETURNDATACOPY RETURNDATASIZE PUSH1 0x0 REVERT JUMPDEST POP POP POP POP PUSH1 0x40 MLOAD RETURNDATASIZE PUSH1 0x1F NOT PUSH1 0x1F DUP3 ADD AND DUP3 ADD DUP1 PUSH1 0x40 MSTORE POP DUP2 ADD SWAP1 PUSH2 0x50F2 SWAP2 SWAP1 PUSH2 0x639D JUMP JUMPDEST SWAP4 POP POP POP PUSH1 0x1 PUSH1 0x0 DUP2 SWAP1 SSTORE POP POP SWAP4 SWAP3 POP POP POP JUMP JUMPDEST PUSH2 0x5189 DUP5 PUSH4 0x23B872DD PUSH1 0xE0 SHL DUP6 DUP6 DUP6 PUSH1 0x40 MLOAD PUSH1 0x24 ADD PUSH2 0x5127 SWAP4 SWAP3 SWAP2 SWAP1 PUSH2 0x6970 JUMP JUMPDEST PUSH1 0x40 MLOAD PUSH1 0x20 DUP2 DUP4 SUB SUB DUP2 MSTORE SWAP1 PUSH1 0x40 MSTORE SWAP1 PUSH28 0xFFFFFFFFFFFFFFFFFFFFFFFFFFFFFFFFFFFFFFFFFFFFFFFFFFFFFFFF NOT AND PUSH1 0x20 DUP3 ADD DUP1 MLOAD PUSH28 0xFFFFFFFFFFFFFFFFFFFFFFFFFFFFFFFFFFFFFFFFFFFFFFFFFFFFFFFF DUP4 DUP2 DUP4 AND OR DUP4 MSTORE POP POP POP POP PUSH2 0x5647 JUMP JUMPDEST POP POP POP POP JUMP JUMPDEST PUSH1 0x0 DUP1 CALLER SWAP1 POP DUP6 PUSH20 0xFFFFFFFFFFFFFFFFFFFFFFFFFFFFFFFFFFFFFFFF AND PUSH4 0xA6AFED95 PUSH1 0x40 MLOAD DUP2 PUSH4 0xFFFFFFFF AND PUSH1 0xE0 SHL DUP2 MSTORE PUSH1 0x4 ADD PUSH1 0x0 PUSH1 0x40 MLOAD DUP1 DUP4 SUB DUP2 PUSH1 0x0 DUP8 DUP1 EXTCODESIZE ISZERO DUP1 ISZERO PUSH2 0x51DD JUMPI PUSH1 0x0 DUP1 REVERT JUMPDEST POP GAS CALL ISZERO DUP1 ISZERO PUSH2 0x51F1 JUMPI RETURNDATASIZE PUSH1 0x0 DUP1 RETURNDATACOPY RETURNDATASIZE PUSH1 0x0 REVERT JUMPDEST POP POP POP POP PUSH1 0x0 DUP5 SLT ISZERO PUSH2 0x534B JUMPI PUSH1 0x0 DUP6 PUSH20 0xFFFFFFFFFFFFFFFFFFFFFFFFFFFFFFFFFFFFFFFF AND PUSH4 0x70A08231 DUP9 PUSH1 0x40 MLOAD DUP3 PUSH4 0xFFFFFFFF AND PUSH1 0xE0 SHL DUP2 MSTORE PUSH1 0x4 ADD PUSH2 0x5239 SWAP2 SWAP1 PUSH2 0x593F JUMP JUMPDEST PUSH1 0x20 PUSH1 0x40 MLOAD DUP1 DUP4 SUB DUP2 DUP7 GAS STATICCALL ISZERO DUP1 ISZERO PUSH2 0x5256 JUMPI RETURNDATASIZE PUSH1 0x0 DUP1 RETURNDATACOPY RETURNDATASIZE PUSH1 0x0 REVERT JUMPDEST POP POP POP POP PUSH1 0x40 MLOAD RETURNDATASIZE PUSH1 0x1F NOT PUSH1 0x1F DUP3 ADD AND DUP3 ADD DUP1 PUSH1 0x40 MSTORE POP DUP2 ADD SWAP1 PUSH2 0x527A SWAP2 SWAP1 PUSH2 0x62AA JUMP JUMPDEST SWAP1 POP PUSH2 0x52B2 DUP3 DUP9 DUP8 PUSH2 0x528B SWAP1 PUSH2 0x6483 JUMP JUMPDEST DUP10 PUSH20 0xFFFFFFFFFFFFFFFFFFFFFFFFFFFFFFFFFFFFFFFF AND PUSH2 0x5106 SWAP1 SWAP4 SWAP3 SWAP2 SWAP1 PUSH4 0xFFFFFFFF AND JUMP JUMPDEST PUSH2 0x533E DUP2 DUP8 PUSH20 0xFFFFFFFFFFFFFFFFFFFFFFFFFFFFFFFFFFFFFFFF AND PUSH4 0x70A08231 DUP11 PUSH1 0x40 MLOAD DUP3 PUSH4 0xFFFFFFFF AND PUSH1 0xE0 SHL DUP2 MSTORE PUSH1 0x4 ADD PUSH2 0x52EF SWAP2 SWAP1 PUSH2 0x593F JUMP JUMPDEST PUSH1 0x20 PUSH1 0x40 MLOAD DUP1 DUP4 SUB DUP2 DUP7 GAS STATICCALL ISZERO DUP1 ISZERO PUSH2 0x530C JUMPI RETURNDATASIZE PUSH1 0x0 DUP1 RETURNDATACOPY RETURNDATASIZE PUSH1 0x0 REVERT JUMPDEST POP POP POP POP PUSH1 0x40 MLOAD RETURNDATASIZE PUSH1 0x1F NOT PUSH1 0x1F DUP3 ADD AND DUP3 ADD DUP1 PUSH1 0x40 MSTORE POP DUP2 ADD SWAP1 PUSH2 0x5330 SWAP2 SWAP1 PUSH2 0x62AA JUMP JUMPDEST PUSH2 0x570E SWAP1 SWAP2 SWAP1 PUSH4 0xFFFFFFFF AND JUMP JUMPDEST PUSH2 0x5347 SWAP1 PUSH2 0x6483 JUMP JUMPDEST SWAP5 POP POP JUMPDEST PUSH1 0x0 DUP5 SGT ISZERO PUSH2 0x548F JUMPI PUSH1 0x0 DUP6 PUSH20 0xFFFFFFFFFFFFFFFFFFFFFFFFFFFFFFFFFFFFFFFF AND PUSH4 0x70A08231 DUP9 PUSH1 0x40 MLOAD DUP3 PUSH4 0xFFFFFFFF AND PUSH1 0xE0 SHL DUP2 MSTORE PUSH1 0x4 ADD PUSH2 0x538F SWAP2 SWAP1 PUSH2 0x593F JUMP JUMPDEST PUSH1 0x20 PUSH1 0x40 MLOAD DUP1 DUP4 SUB DUP2 DUP7 GAS STATICCALL ISZERO DUP1 ISZERO PUSH2 0x53AC JUMPI RETURNDATASIZE PUSH1 0x0 DUP1 RETURNDATACOPY RETURNDATASIZE PUSH1 0x0 REVERT JUMPDEST POP POP POP POP PUSH1 0x40 MLOAD RETURNDATASIZE PUSH1 0x1F NOT PUSH1 0x1F DUP3 ADD AND DUP3 ADD DUP1 PUSH1 0x40 MSTORE POP DUP2 ADD SWAP1 PUSH2 0x53D0 SWAP2 SWAP1 PUSH2 0x62AA JUMP JUMPDEST SWAP1 POP PUSH2 0x53FF DUP3 DUP9 DUP8 DUP10 PUSH20 0xFFFFFFFFFFFFFFFFFFFFFFFFFFFFFFFFFFFFFFFF AND PUSH2 0x5106 SWAP1 SWAP4 SWAP3 SWAP2 SWAP1 PUSH4 0xFFFFFFFF AND JUMP JUMPDEST PUSH2 0x548B DUP2 DUP8 PUSH20 0xFFFFFFFFFFFFFFFFFFFFFFFFFFFFFFFFFFFFFFFF AND PUSH4 0x70A08231 DUP11 PUSH1 0x40 MLOAD DUP3 PUSH4 0xFFFFFFFF AND PUSH1 0xE0 SHL DUP2 MSTORE PUSH1 0x4 ADD PUSH2 0x543C SWAP2 SWAP1 PUSH2 0x593F JUMP JUMPDEST PUSH1 0x20 PUSH1 0x40 MLOAD DUP1 DUP4 SUB DUP2 DUP7 GAS STATICCALL ISZERO DUP1 ISZERO PUSH2 0x5459 JUMPI RETURNDATASIZE PUSH1 0x0 DUP1 RETURNDATACOPY RETURNDATASIZE PUSH1 0x0 REVERT JUMPDEST POP POP POP POP PUSH1 0x40 MLOAD RETURNDATASIZE PUSH1 0x1F NOT PUSH1 0x1F DUP3 ADD AND DUP3 ADD DUP1 PUSH1 0x40 MSTORE POP DUP2 ADD SWAP1 PUSH2 0x547D SWAP2 SWAP1 PUSH2 0x62AA JUMP JUMPDEST PUSH2 0x570E SWAP1 SWAP2 SWAP1 PUSH4 0xFFFFFFFF AND JUMP JUMPDEST SWAP5 POP POP JUMPDEST DUP6 PUSH20 0xFFFFFFFFFFFFFFFFFFFFFFFFFFFFFFFFFFFFFFFF AND PUSH4 0x4DD9CBF4 DUP5 DUP7 PUSH1 0x40 MLOAD DUP4 PUSH4 0xFFFFFFFF AND PUSH1 0xE0 SHL DUP2 MSTORE PUSH1 0x4 ADD PUSH2 0x54CA SWAP3 SWAP2 SWAP1 PUSH2 0x7209 JUMP JUMPDEST PUSH1 0x20 PUSH1 0x40 MLOAD DUP1 DUP4 SUB DUP2 PUSH1 0x0 DUP8 GAS CALL ISZERO DUP1 ISZERO PUSH2 0x54E9 JUMPI RETURNDATASIZE PUSH1 0x0 DUP1 RETURNDATACOPY RETURNDATASIZE PUSH1 0x0 REVERT JUMPDEST POP POP POP POP PUSH1 0x40 MLOAD RETURNDATASIZE PUSH1 0x1F NOT PUSH1 0x1F DUP3 ADD AND DUP3 ADD DUP1 PUSH1 0x40 MSTORE POP DUP2 ADD SWAP1 PUSH2 0x550D SWAP2 SWAP1 PUSH2 0x62AA JUMP JUMPDEST SWAP2 POP POP SWAP5 SWAP4 POP POP POP POP JUMP JUMPDEST PUSH1 0x0 DUP2 DUP4 PUSH2 0x5526 SWAP2 SWAP1 PUSH2 0x7232 JUMP JUMPDEST SWAP1 POP SWAP3 SWAP2 POP POP JUMP JUMPDEST PUSH1 0x0 DUP2 DUP4 PUSH2 0x553C SWAP2 SWAP1 PUSH2 0x72A3 JUMP JUMPDEST SWAP1 POP SWAP3 SWAP2 POP POP JUMP JUMPDEST PUSH1 0x0 DUP2 DUP4 PUSH2 0x5552 SWAP2 SWAP1 PUSH2 0x72D4 JUMP JUMPDEST SWAP1 POP SWAP3 SWAP2 POP POP JUMP JUMPDEST PUSH1 0x0 PUSH20 0xFFFFFFFFFFFFFFFFFFFFFFFFFFFFFFFFFFFFFFFF AND PUSH1 0x4 PUSH1 0x0 SWAP1 SLOAD SWAP1 PUSH2 0x100 EXP SWAP1 DIV PUSH20 0xFFFFFFFFFFFFFFFFFFFFFFFFFFFFFFFFFFFFFFFF AND PUSH20 0xFFFFFFFFFFFFFFFFFFFFFFFFFFFFFFFFFFFFFFFF AND EQ PUSH2 0x5642 JUMPI DUP3 PUSH20 0xFFFFFFFFFFFFFFFFFFFFFFFFFFFFFFFFFFFFFFFF AND PUSH4 0xBFDE2D52 PUSH1 0x4 PUSH1 0x0 SWAP1 SLOAD SWAP1 PUSH2 0x100 EXP SWAP1 DIV PUSH20 0xFFFFFFFFFFFFFFFFFFFFFFFFFFFFFFFFFFFFFFFF AND DUP5 DUP5 PUSH1 0x40 MLOAD DUP5 PUSH4 0xFFFFFFFF AND PUSH1 0xE0 SHL DUP2 MSTORE PUSH1 0x4 ADD PUSH2 0x560F SWAP4 SWAP3 SWAP2 SWAP1 PUSH2 0x735D JUMP JUMPDEST PUSH1 0x0 PUSH1 0x40 MLOAD DUP1 DUP4 SUB DUP2 PUSH1 0x0 DUP8 DUP1 EXTCODESIZE ISZERO DUP1 ISZERO PUSH2 0x5629 JUMPI PUSH1 0x0 DUP1 REVERT JUMPDEST POP GAS CALL ISZERO DUP1 ISZERO PUSH2 0x563D JUMPI RETURNDATASIZE PUSH1 0x0 DUP1 RETURNDATACOPY RETURNDATASIZE PUSH1 0x0 REVERT JUMPDEST POP POP POP POP JUMPDEST POP POP POP JUMP JUMPDEST PUSH1 0x0 PUSH2 0x56A9 DUP3 PUSH1 0x40 MLOAD DUP1 PUSH1 0x40 ADD PUSH1 0x40 MSTORE DUP1 PUSH1 0x20 DUP2 MSTORE PUSH1 0x20 ADD PUSH32 0x5361666545524332303A206C6F772D6C6576656C2063616C6C206661696C6564 DUP2 MSTORE POP DUP6 PUSH20 0xFFFFFFFFFFFFFFFFFFFFFFFFFFFFFFFFFFFFFFFF AND PUSH2 0x5724 SWAP1 SWAP3 SWAP2 SWAP1 PUSH4 0xFFFFFFFF AND JUMP JUMPDEST SWAP1 POP PUSH1 0x0 DUP2 MLOAD GT ISZERO PUSH2 0x5709 JUMPI DUP1 DUP1 PUSH1 0x20 ADD SWAP1 MLOAD DUP2 ADD SWAP1 PUSH2 0x56C9 SWAP2 SWAP1 PUSH2 0x73A9 JUMP JUMPDEST PUSH2 0x5708 JUMPI PUSH1 0x40 MLOAD PUSH32 0x8C379A000000000000000000000000000000000000000000000000000000000 DUP2 MSTORE PUSH1 0x4 ADD PUSH2 0x56FF SWAP1 PUSH2 0x7448 JUMP JUMPDEST PUSH1 0x40 MLOAD DUP1 SWAP2 SUB SWAP1 REVERT JUMPDEST JUMPDEST POP POP POP JUMP JUMPDEST PUSH1 0x0 DUP2 DUP4 PUSH2 0x571C SWAP2 SWAP1 PUSH2 0x7468 JUMP JUMPDEST SWAP1 POP SWAP3 SWAP2 POP POP JUMP JUMPDEST PUSH1 0x60 PUSH2 0x5733 DUP5 DUP5 PUSH1 0x0 DUP6 PUSH2 0x573C JUMP JUMPDEST SWAP1 POP SWAP4 SWAP3 POP POP POP JUMP JUMPDEST PUSH1 0x60 DUP3 SELFBALANCE LT ISZERO PUSH2 0x5781 JUMPI PUSH1 0x40 MLOAD PUSH32 0x8C379A000000000000000000000000000000000000000000000000000000000 DUP2 MSTORE PUSH1 0x4 ADD PUSH2 0x5778 SWAP1 PUSH2 0x750E JUMP JUMPDEST PUSH1 0x40 MLOAD DUP1 SWAP2 SUB SWAP1 REVERT JUMPDEST PUSH2 0x578A DUP6 PUSH2 0x5850 JUMP JUMPDEST PUSH2 0x57C9 JUMPI PUSH1 0x40 MLOAD PUSH32 0x8C379A000000000000000000000000000000000000000000000000000000000 DUP2 MSTORE PUSH1 0x4 ADD PUSH2 0x57C0 SWAP1 PUSH2 0x757A JUMP JUMPDEST PUSH1 0x40 MLOAD DUP1 SWAP2 SUB SWAP1 REVERT JUMPDEST PUSH1 0x0 DUP1 DUP7 PUSH20 0xFFFFFFFFFFFFFFFFFFFFFFFFFFFFFFFFFFFFFFFF AND DUP6 DUP8 PUSH1 0x40 MLOAD PUSH2 0x57F2 SWAP2 SWAP1 PUSH2 0x760B JUMP JUMPDEST PUSH1 0x0 PUSH1 0x40 MLOAD DUP1 DUP4 SUB DUP2 DUP6 DUP8 GAS CALL SWAP3 POP POP POP RETURNDATASIZE DUP1 PUSH1 0x0 DUP2 EQ PUSH2 0x582F JUMPI PUSH1 0x40 MLOAD SWAP2 POP PUSH1 0x1F NOT PUSH1 0x3F RETURNDATASIZE ADD AND DUP3 ADD PUSH1 0x40 MSTORE RETURNDATASIZE DUP3 MSTORE RETURNDATASIZE PUSH1 0x0 PUSH1 0x20 DUP5 ADD RETURNDATACOPY PUSH2 0x5834 JUMP JUMPDEST PUSH1 0x60 SWAP2 POP JUMPDEST POP SWAP2 POP SWAP2 POP PUSH2 0x5844 DUP3 DUP3 DUP7 PUSH2 0x5863 JUMP JUMPDEST SWAP3 POP POP POP SWAP5 SWAP4 POP POP POP POP JUMP JUMPDEST PUSH1 0x0 DUP1 DUP3 EXTCODESIZE SWAP1 POP PUSH1 0x0 DUP2 GT SWAP2 POP POP SWAP2 SWAP1 POP JUMP JUMPDEST PUSH1 0x60 DUP4 ISZERO PUSH2 0x5873 JUMPI DUP3 SWAP1 POP PUSH2 0x58C3 JUMP JUMPDEST PUSH1 0x0 DUP4 MLOAD GT ISZERO PUSH2 0x5886 JUMPI DUP3 MLOAD DUP1 DUP5 PUSH1 0x20 ADD REVERT JUMPDEST DUP2 PUSH1 0x40 MLOAD PUSH32 0x8C379A000000000000000000000000000000000000000000000000000000000 DUP2 MSTORE PUSH1 0x4 ADD PUSH2 0x58BA SWAP2 SWAP1 PUSH2 0x7666 JUMP JUMPDEST PUSH1 0x40 MLOAD DUP1 SWAP2 SUB SWAP1 REVERT JUMPDEST SWAP4 SWAP3 POP POP POP JUMP JUMPDEST PUSH1 0x0 DUP2 SWAP1 POP SWAP2 SWAP1 POP JUMP JUMPDEST PUSH2 0x58DD DUP2 PUSH2 0x58CA JUMP JUMPDEST DUP3 MSTORE POP POP JUMP JUMPDEST PUSH1 0x0 PUSH1 0x20 DUP3 ADD SWAP1 POP PUSH2 0x58F8 PUSH1 0x0 DUP4 ADD DUP5 PUSH2 0x58D4 JUMP JUMPDEST SWAP3 SWAP2 POP POP JUMP JUMPDEST PUSH1 0x0 PUSH20 0xFFFFFFFFFFFFFFFFFFFFFFFFFFFFFFFFFFFFFFFF DUP3 AND SWAP1 POP SWAP2 SWAP1 POP JUMP JUMPDEST PUSH1 0x0 PUSH2 0x5929 DUP3 PUSH2 0x58FE JUMP JUMPDEST SWAP1 POP SWAP2 SWAP1 POP JUMP JUMPDEST PUSH2 0x5939 DUP2 PUSH2 0x591E JUMP JUMPDEST DUP3 MSTORE POP POP JUMP JUMPDEST PUSH1 0x0 PUSH1 0x20 DUP3 ADD SWAP1 POP PUSH2 0x5954 PUSH1 0x0 DUP4 ADD DUP5 PUSH2 0x5930 JUMP JUMPDEST SWAP3 SWAP2 POP POP JUMP JUMPDEST PUSH1 0x0 DUP1 REVERT JUMPDEST PUSH1 0x0 DUP1 REVERT JUMPDEST PUSH2 0x596D DUP2 PUSH2 0x591E JUMP JUMPDEST DUP2 EQ PUSH2 0x5978 JUMPI PUSH1 0x0 DUP1 REVERT JUMPDEST POP JUMP JUMPDEST PUSH1 0x0 DUP2 CALLDATALOAD SWAP1 POP PUSH2 0x598A DUP2 PUSH2 0x5964 JUMP JUMPDEST SWAP3 SWAP2 POP POP JUMP JUMPDEST PUSH1 0x0 DUP1 PUSH1 0x40 DUP4 DUP6 SUB SLT ISZERO PUSH2 0x59A7 JUMPI PUSH2 0x59A6 PUSH2 0x595A JUMP JUMPDEST JUMPDEST PUSH1 0x0 PUSH2 0x59B5 DUP6 DUP3 DUP7 ADD PUSH2 0x597B JUMP JUMPDEST SWAP3 POP POP PUSH1 0x20 PUSH2 0x59C6 DUP6 DUP3 DUP7 ADD PUSH2 0x597B JUMP JUMPDEST SWAP2 POP POP SWAP3 POP SWAP3 SWAP1 POP JUMP JUMPDEST PUSH1 0x0 DUP2 SWAP1 POP SWAP2 SWAP1 POP JUMP JUMPDEST PUSH2 0x59E3 DUP2 PUSH2 0x59D0 JUMP JUMPDEST DUP2 EQ PUSH2 0x59EE JUMPI PUSH1 0x0 DUP1 REVERT JUMPDEST POP JUMP JUMPDEST PUSH1 0x0 DUP2 CALLDATALOAD SWAP1 POP PUSH2 0x5A00 DUP2 PUSH2 0x59DA JUMP JUMPDEST SWAP3 SWAP2 POP POP JUMP JUMPDEST PUSH1 0x0 DUP2 ISZERO ISZERO SWAP1 POP SWAP2 SWAP1 POP JUMP JUMPDEST PUSH2 0x5A1B DUP2 PUSH2 0x5A06 JUMP JUMPDEST DUP2 EQ PUSH2 0x5A26 JUMPI PUSH1 0x0 DUP1 REVERT JUMPDEST POP JUMP JUMPDEST PUSH1 0x0 DUP2 CALLDATALOAD SWAP1 POP PUSH2 0x5A38 DUP2 PUSH2 0x5A12 JUMP JUMPDEST SWAP3 SWAP2 POP POP JUMP JUMPDEST PUSH1 0x0 DUP1 PUSH1 0x0 DUP1 PUSH1 0x0 PUSH1 0xA0 DUP7 DUP9 SUB SLT ISZERO PUSH2 0x5A5A JUMPI PUSH2 0x5A59 PUSH2 0x595A JUMP JUMPDEST JUMPDEST PUSH1 0x0 PUSH2 0x5A68 DUP9 DUP3 DUP10 ADD PUSH2 0x597B JUMP JUMPDEST SWAP6 POP POP PUSH1 0x20 PUSH2 0x5A79 DUP9 DUP3 DUP10 ADD PUSH2 0x597B JUMP JUMPDEST SWAP5 POP POP PUSH1 0x40 PUSH2 0x5A8A DUP9 DUP3 DUP10 ADD PUSH2 0x59F1 JUMP JUMPDEST SWAP4 POP POP PUSH1 0x60 PUSH2 0x5A9B DUP9 DUP3 DUP10 ADD PUSH2 0x597B JUMP JUMPDEST SWAP3 POP POP PUSH1 0x80 PUSH2 0x5AAC DUP9 DUP3 DUP10 ADD PUSH2 0x5A29 JUMP JUMPDEST SWAP2 POP POP SWAP3 SWAP6 POP SWAP3 SWAP6 SWAP1 SWAP4 POP JUMP JUMPDEST PUSH2 0x5AC2 DUP2 PUSH2 0x59D0 JUMP JUMPDEST DUP3 MSTORE POP POP JUMP JUMPDEST PUSH1 0x0 PUSH1 0x20 DUP3 ADD SWAP1 POP PUSH2 0x5ADD PUSH1 0x0 DUP4 ADD DUP5 PUSH2 0x5AB9 JUMP JUMPDEST SWAP3 SWAP2 POP POP JUMP JUMPDEST PUSH1 0x0 PUSH1 0x20 DUP3 DUP5 SUB SLT ISZERO PUSH2 0x5AF9 JUMPI PUSH2 0x5AF8 PUSH2 0x595A JUMP JUMPDEST JUMPDEST PUSH1 0x0 PUSH2 0x5B07 DUP5 DUP3 DUP6 ADD PUSH2 0x597B JUMP JUMPDEST SWAP2 POP POP SWAP3 SWAP2 POP POP JUMP JUMPDEST PUSH1 0x0 PUSH1 0xFF DUP3 AND SWAP1 POP SWAP2 SWAP1 POP JUMP JUMPDEST PUSH2 0x5B26 DUP2 PUSH2 0x5B10 JUMP JUMPDEST DUP2 EQ PUSH2 0x5B31 JUMPI PUSH1 0x0 DUP1 REVERT JUMPDEST POP JUMP JUMPDEST PUSH1 0x0 DUP2 CALLDATALOAD SWAP1 POP PUSH2 0x5B43 DUP2 PUSH2 0x5B1D JUMP JUMPDEST SWAP3 SWAP2 POP POP JUMP JUMPDEST PUSH1 0x0 DUP1 PUSH1 0x40 DUP4 DUP6 SUB SLT ISZERO PUSH2 0x5B60 JUMPI PUSH2 0x5B5F PUSH2 0x595A JUMP JUMPDEST JUMPDEST PUSH1 0x0 PUSH2 0x5B6E DUP6 DUP3 DUP7 ADD PUSH2 0x597B JUMP JUMPDEST SWAP3 POP POP PUSH1 0x20 PUSH2 0x5B7F DUP6 DUP3 DUP7 ADD PUSH2 0x5B34 JUMP JUMPDEST SWAP2 POP POP SWAP3 POP SWAP3 SWAP1 POP JUMP JUMPDEST PUSH1 0x0 DUP1 PUSH1 0x0 PUSH1 0x60 DUP5 DUP7 SUB SLT ISZERO PUSH2 0x5BA2 JUMPI PUSH2 0x5BA1 PUSH2 0x595A JUMP JUMPDEST JUMPDEST PUSH1 0x0 PUSH2 0x5BB0 DUP7 DUP3 DUP8 ADD PUSH2 0x5B34 JUMP JUMPDEST SWAP4 POP POP PUSH1 0x20 PUSH2 0x5BC1 DUP7 DUP3 DUP8 ADD PUSH2 0x5B34 JUMP JUMPDEST SWAP3 POP POP PUSH1 0x40 PUSH2 0x5BD2 DUP7 DUP3 DUP8 ADD PUSH2 0x5B34 JUMP JUMPDEST SWAP2 POP POP SWAP3 POP SWAP3 POP SWAP3 JUMP JUMPDEST PUSH1 0x0 PUSH1 0x40 DUP3 ADD SWAP1 POP PUSH2 0x5BF1 PUSH1 0x0 DUP4 ADD DUP6 PUSH2 0x58D4 JUMP JUMPDEST PUSH2 0x5BFE PUSH1 0x20 DUP4 ADD DUP5 PUSH2 0x58D4 JUMP JUMPDEST SWAP4 SWAP3 POP POP POP JUMP JUMPDEST PUSH1 0x0 DUP1 PUSH1 0x0 PUSH1 0x60 DUP5 DUP7 SUB SLT ISZERO PUSH2 0x5C1E JUMPI PUSH2 0x5C1D PUSH2 0x595A JUMP JUMPDEST JUMPDEST PUSH1 0x0 PUSH2 0x5C2C DUP7 DUP3 DUP8 ADD PUSH2 0x597B JUMP JUMPDEST SWAP4 POP POP PUSH1 0x20 PUSH2 0x5C3D DUP7 DUP3 DUP8 ADD PUSH2 0x59F1 JUMP JUMPDEST SWAP3 POP POP PUSH1 0x40 PUSH2 0x5C4E DUP7 DUP3 DUP8 ADD PUSH2 0x597B JUMP JUMPDEST SWAP2 POP POP SWAP3 POP SWAP3 POP SWAP3 JUMP JUMPDEST PUSH1 0x0 PUSH1 0x80 DUP3 ADD SWAP1 POP PUSH2 0x5C6D PUSH1 0x0 DUP4 ADD DUP8 PUSH2 0x58D4 JUMP JUMPDEST PUSH2 0x5C7A PUSH1 0x20 DUP4 ADD DUP7 PUSH2 0x58D4 JUMP JUMPDEST PUSH2 0x5C87 PUSH1 0x40 DUP4 ADD DUP6 PUSH2 0x58D4 JUMP JUMPDEST PUSH2 0x5C94 PUSH1 0x60 DUP4 ADD DUP5 PUSH2 0x58D4 JUMP JUMPDEST SWAP6 SWAP5 POP POP POP POP POP JUMP JUMPDEST PUSH1 0x0 PUSH2 0x5CA8 DUP3 PUSH2 0x58FE JUMP JUMPDEST SWAP1 POP SWAP2 SWAP1 POP JUMP JUMPDEST PUSH2 0x5CB8 DUP2 PUSH2 0x5C9D JUMP JUMPDEST DUP2 EQ PUSH2 0x5CC3 JUMPI PUSH1 0x0 DUP1 REVERT JUMPDEST POP JUMP JUMPDEST PUSH1 0x0 DUP2 CALLDATALOAD SWAP1 POP PUSH2 0x5CD5 DUP2 PUSH2 0x5CAF JUMP JUMPDEST SWAP3 SWAP2 POP POP JUMP JUMPDEST PUSH1 0x0 PUSH1 0x20 DUP3 DUP5 SUB SLT ISZERO PUSH2 0x5CF1 JUMPI PUSH2 0x5CF0 PUSH2 0x595A JUMP JUMPDEST JUMPDEST PUSH1 0x0 PUSH2 0x5CFF DUP5 DUP3 DUP6 ADD PUSH2 0x5CC6 JUMP JUMPDEST SWAP2 POP POP SWAP3 SWAP2 POP POP JUMP JUMPDEST PUSH2 0x5D11 DUP2 PUSH2 0x58CA JUMP JUMPDEST DUP2 EQ PUSH2 0x5D1C JUMPI PUSH1 0x0 DUP1 REVERT JUMPDEST POP JUMP JUMPDEST PUSH1 0x0 DUP2 CALLDATALOAD SWAP1 POP PUSH2 0x5D2E DUP2 PUSH2 0x5D08 JUMP JUMPDEST SWAP3 SWAP2 POP POP JUMP JUMPDEST PUSH1 0x0 DUP1 PUSH1 0x0 DUP1 PUSH1 0x80 DUP6 DUP8 SUB SLT ISZERO PUSH2 0x5D4E JUMPI PUSH2 0x5D4D PUSH2 0x595A JUMP JUMPDEST JUMPDEST PUSH1 0x0 PUSH2 0x5D5C DUP8 DUP3 DUP9 ADD PUSH2 0x597B JUMP JUMPDEST SWAP5 POP POP PUSH1 0x20 PUSH2 0x5D6D DUP8 DUP3 DUP9 ADD PUSH2 0x59F1 JUMP JUMPDEST SWAP4 POP POP PUSH1 0x40 PUSH2 0x5D7E DUP8 DUP3 DUP9 ADD PUSH2 0x5D1F JUMP JUMPDEST SWAP3 POP POP PUSH1 0x60 PUSH2 0x5D8F DUP8 DUP3 DUP9 ADD PUSH2 0x5CC6 JUMP JUMPDEST SWAP2 POP POP SWAP3 SWAP6 SWAP2 SWAP5 POP SWAP3 POP JUMP JUMPDEST PUSH1 0x0 DUP1 PUSH1 0x0 PUSH1 0x60 DUP5 DUP7 SUB SLT ISZERO PUSH2 0x5DB4 JUMPI PUSH2 0x5DB3 PUSH2 0x595A JUMP JUMPDEST JUMPDEST PUSH1 0x0 PUSH2 0x5DC2 DUP7 DUP3 DUP8 ADD PUSH2 0x597B JUMP JUMPDEST SWAP4 POP POP PUSH1 0x20 PUSH2 0x5DD3 DUP7 DUP3 DUP8 ADD PUSH2 0x597B JUMP JUMPDEST SWAP3 POP POP PUSH1 0x40 PUSH2 0x5DE4 DUP7 DUP3 DUP8 ADD PUSH2 0x5D1F JUMP JUMPDEST SWAP2 POP POP SWAP3 POP SWAP3 POP SWAP3 JUMP JUMPDEST PUSH1 0x0 DUP1 REVERT JUMPDEST PUSH1 0x0 DUP1 REVERT JUMPDEST PUSH1 0x0 DUP1 REVERT JUMPDEST PUSH1 0x0 DUP1 DUP4 PUSH1 0x1F DUP5 ADD SLT PUSH2 0x5E13 JUMPI PUSH2 0x5E12 PUSH2 0x5DEE JUMP JUMPDEST JUMPDEST DUP3 CALLDATALOAD SWAP1 POP PUSH8 0xFFFFFFFFFFFFFFFF DUP2 GT ISZERO PUSH2 0x5E30 JUMPI PUSH2 0x5E2F PUSH2 0x5DF3 JUMP JUMPDEST JUMPDEST PUSH1 0x20 DUP4 ADD SWAP2 POP DUP4 PUSH1 0x20 DUP3 MUL DUP4 ADD GT ISZERO PUSH2 0x5E4C JUMPI PUSH2 0x5E4B PUSH2 0x5DF8 JUMP JUMPDEST JUMPDEST SWAP3 POP SWAP3 SWAP1 POP JUMP JUMPDEST PUSH1 0x0 DUP1 DUP4 PUSH1 0x1F DUP5 ADD SLT PUSH2 0x5E69 JUMPI PUSH2 0x5E68 PUSH2 0x5DEE JUMP JUMPDEST JUMPDEST DUP3 CALLDATALOAD SWAP1 POP PUSH8 0xFFFFFFFFFFFFFFFF DUP2 GT ISZERO PUSH2 0x5E86 JUMPI PUSH2 0x5E85 PUSH2 0x5DF3 JUMP JUMPDEST JUMPDEST PUSH1 0x20 DUP4 ADD SWAP2 POP DUP4 PUSH1 0x20 DUP3 MUL DUP4 ADD GT ISZERO PUSH2 0x5EA2 JUMPI PUSH2 0x5EA1 PUSH2 0x5DF8 JUMP JUMPDEST JUMPDEST SWAP3 POP SWAP3 SWAP1 POP JUMP JUMPDEST PUSH1 0x0 DUP1 PUSH1 0x0 DUP1 PUSH1 0x0 DUP1 PUSH1 0x0 PUSH1 0xA0 DUP9 DUP11 SUB SLT ISZERO PUSH2 0x5EC8 JUMPI PUSH2 0x5EC7 PUSH2 0x595A JUMP JUMPDEST JUMPDEST PUSH1 0x0 PUSH2 0x5ED6 DUP11 DUP3 DUP12 ADD PUSH2 0x597B JUMP JUMPDEST SWAP8 POP POP PUSH1 0x20 DUP9 ADD CALLDATALOAD PUSH8 0xFFFFFFFFFFFFFFFF DUP2 GT ISZERO PUSH2 0x5EF7 JUMPI PUSH2 0x5EF6 PUSH2 0x595F JUMP JUMPDEST JUMPDEST PUSH2 0x5F03 DUP11 DUP3 DUP12 ADD PUSH2 0x5DFD JUMP JUMPDEST SWAP7 POP SWAP7 POP POP PUSH1 0x40 DUP9 ADD CALLDATALOAD PUSH8 0xFFFFFFFFFFFFFFFF DUP2 GT ISZERO PUSH2 0x5F26 JUMPI PUSH2 0x5F25 PUSH2 0x595F JUMP JUMPDEST JUMPDEST PUSH2 0x5F32 DUP11 DUP3 DUP12 ADD PUSH2 0x5E53 JUMP JUMPDEST SWAP5 POP SWAP5 POP POP PUSH1 0x60 PUSH2 0x5F45 DUP11 DUP3 DUP12 ADD PUSH2 0x597B JUMP JUMPDEST SWAP3 POP POP PUSH1 0x80 PUSH2 0x5F56 DUP11 DUP3 DUP12 ADD PUSH2 0x5A29 JUMP JUMPDEST SWAP2 POP POP SWAP3 SWAP6 SWAP9 SWAP2 SWAP5 SWAP8 POP SWAP3 SWAP6 POP JUMP JUMPDEST PUSH1 0x0 DUP1 DUP4 PUSH1 0x1F DUP5 ADD SLT PUSH2 0x5F7B JUMPI PUSH2 0x5F7A PUSH2 0x5DEE JUMP JUMPDEST JUMPDEST DUP3 CALLDATALOAD SWAP1 POP PUSH8 0xFFFFFFFFFFFFFFFF DUP2 GT ISZERO PUSH2 0x5F98 JUMPI PUSH2 0x5F97 PUSH2 0x5DF3 JUMP JUMPDEST JUMPDEST PUSH1 0x20 DUP4 ADD SWAP2 POP DUP4 PUSH1 0x1 DUP3 MUL DUP4 ADD GT ISZERO PUSH2 0x5FB4 JUMPI PUSH2 0x5FB3 PUSH2 0x5DF8 JUMP JUMPDEST JUMPDEST SWAP3 POP SWAP3 SWAP1 POP JUMP JUMPDEST PUSH1 0x0 DUP1 PUSH1 0x0 DUP1 PUSH1 0x0 PUSH1 0x80 DUP7 DUP9 SUB SLT ISZERO PUSH2 0x5FD7 JUMPI PUSH2 0x5FD6 PUSH2 0x595A JUMP JUMPDEST JUMPDEST PUSH1 0x0 PUSH2 0x5FE5 DUP9 DUP3 DUP10 ADD PUSH2 0x597B JUMP JUMPDEST SWAP6 POP POP PUSH1 0x20 PUSH2 0x5FF6 DUP9 DUP3 DUP10 ADD PUSH2 0x597B JUMP JUMPDEST SWAP5 POP POP PUSH1 0x40 PUSH2 0x6007 DUP9 DUP3 DUP10 ADD PUSH2 0x59F1 JUMP JUMPDEST SWAP4 POP POP PUSH1 0x60 DUP7 ADD CALLDATALOAD PUSH8 0xFFFFFFFFFFFFFFFF DUP2 GT ISZERO PUSH2 0x6028 JUMPI PUSH2 0x6027 PUSH2 0x595F JUMP JUMPDEST JUMPDEST PUSH2 0x6034 DUP9 DUP3 DUP10 ADD PUSH2 0x5F65 JUMP JUMPDEST SWAP3 POP SWAP3 POP POP SWAP3 SWAP6 POP SWAP3 SWAP6 SWAP1 SWAP4 POP JUMP JUMPDEST PUSH2 0x604C DUP2 PUSH2 0x5C9D JUMP JUMPDEST DUP3 MSTORE POP POP JUMP JUMPDEST PUSH1 0x0 PUSH1 0x20 DUP3 ADD SWAP1 POP PUSH2 0x6067 PUSH1 0x0 DUP4 ADD DUP5 PUSH2 0x6043 JUMP JUMPDEST SWAP3 SWAP2 POP POP JUMP JUMPDEST PUSH1 0x0 DUP1 PUSH1 0x40 DUP4 DUP6 SUB SLT ISZERO PUSH2 0x6084 JUMPI PUSH2 0x6083 PUSH2 0x595A JUMP JUMPDEST JUMPDEST PUSH1 0x0 PUSH2 0x6092 DUP6 DUP3 DUP7 ADD PUSH2 0x597B JUMP JUMPDEST SWAP3 POP POP PUSH1 0x20 PUSH2 0x60A3 DUP6 DUP3 DUP7 ADD PUSH2 0x59F1 JUMP JUMPDEST SWAP2 POP POP SWAP3 POP SWAP3 SWAP1 POP JUMP JUMPDEST PUSH1 0x0 DUP1 PUSH1 0x40 DUP4 DUP6 SUB SLT ISZERO PUSH2 0x60C4 JUMPI PUSH2 0x60C3 PUSH2 0x595A JUMP JUMPDEST JUMPDEST PUSH1 0x0 PUSH2 0x60D2 DUP6 DUP3 DUP7 ADD PUSH2 0x5D1F JUMP JUMPDEST SWAP3 POP POP PUSH1 0x20 PUSH2 0x60E3 DUP6 DUP3 DUP7 ADD PUSH2 0x5D1F JUMP JUMPDEST SWAP2 POP POP SWAP3 POP SWAP3 SWAP1 POP JUMP JUMPDEST PUSH2 0x60F6 DUP2 PUSH2 0x5A06 JUMP JUMPDEST DUP3 MSTORE POP POP JUMP JUMPDEST PUSH1 0x0 PUSH1 0x20 DUP3 ADD SWAP1 POP PUSH2 0x6111 PUSH1 0x0 DUP4 ADD DUP5 PUSH2 0x60ED JUMP JUMPDEST SWAP3 SWAP2 POP POP JUMP JUMPDEST PUSH1 0x0 PUSH1 0x40 DUP3 ADD SWAP1 POP PUSH2 0x612C PUSH1 0x0 DUP4 ADD DUP6 PUSH2 0x5930 JUMP JUMPDEST PUSH2 0x6139 PUSH1 0x20 DUP4 ADD DUP5 PUSH2 0x5930 JUMP JUMPDEST SWAP4 SWAP3 POP POP POP JUMP JUMPDEST PUSH1 0x0 DUP3 DUP3 MSTORE PUSH1 0x20 DUP3 ADD SWAP1 POP SWAP3 SWAP2 POP POP JUMP JUMPDEST PUSH32 0x416D6F756E74206D757374206E6F742062652030000000000000000000000000 PUSH1 0x0 DUP3 ADD MSTORE POP JUMP JUMPDEST PUSH1 0x0 PUSH2 0x6187 PUSH1 0x14 DUP4 PUSH2 0x6140 JUMP JUMPDEST SWAP2 POP PUSH2 0x6192 DUP3 PUSH2 0x6151 JUMP JUMPDEST PUSH1 0x20 DUP3 ADD SWAP1 POP SWAP2 SWAP1 POP JUMP JUMPDEST PUSH1 0x0 PUSH1 0x20 DUP3 ADD SWAP1 POP DUP2 DUP2 SUB PUSH1 0x0 DUP4 ADD MSTORE PUSH2 0x61B6 DUP2 PUSH2 0x617A JUMP JUMPDEST SWAP1 POP SWAP2 SWAP1 POP JUMP JUMPDEST PUSH32 0x5265656E7472616E637947756172643A207265656E7472616E742063616C6C00 PUSH1 0x0 DUP3 ADD MSTORE POP JUMP JUMPDEST PUSH1 0x0 PUSH2 0x61F3 PUSH1 0x1F DUP4 PUSH2 0x6140 JUMP JUMPDEST SWAP2 POP PUSH2 0x61FE DUP3 PUSH2 0x61BD JUMP JUMPDEST PUSH1 0x20 DUP3 ADD SWAP1 POP SWAP2 SWAP1 POP JUMP JUMPDEST PUSH1 0x0 PUSH1 0x20 DUP3 ADD SWAP1 POP DUP2 DUP2 SUB PUSH1 0x0 DUP4 ADD MSTORE PUSH2 0x6222 DUP2 PUSH2 0x61E6 JUMP JUMPDEST SWAP1 POP SWAP2 SWAP1 POP JUMP JUMPDEST PUSH32 0x556E696C656E6456323A20504F4F4C204E4F5420464F554E4400000000000000 PUSH1 0x0 DUP3 ADD MSTORE POP JUMP JUMPDEST PUSH1 0x0 PUSH2 0x625F PUSH1 0x19 DUP4 PUSH2 0x6140 JUMP JUMPDEST SWAP2 POP PUSH2 0x626A DUP3 PUSH2 0x6229 JUMP JUMPDEST PUSH1 0x20 DUP3 ADD SWAP1 POP SWAP2 SWAP1 POP JUMP JUMPDEST PUSH1 0x0 PUSH1 0x20 DUP3 ADD SWAP1 POP DUP2 DUP2 SUB PUSH1 0x0 DUP4 ADD MSTORE PUSH2 0x628E DUP2 PUSH2 0x6252 JUMP JUMPDEST SWAP1 POP SWAP2 SWAP1 POP JUMP JUMPDEST PUSH1 0x0 DUP2 MLOAD SWAP1 POP PUSH2 0x62A4 DUP2 PUSH2 0x5D08 JUMP JUMPDEST SWAP3 SWAP2 POP POP JUMP JUMPDEST PUSH1 0x0 PUSH1 0x20 DUP3 DUP5 SUB SLT ISZERO PUSH2 0x62C0 JUMPI PUSH2 0x62BF PUSH2 0x595A JUMP JUMPDEST JUMPDEST PUSH1 0x0 PUSH2 0x62CE DUP5 DUP3 DUP6 ADD PUSH2 0x6295 JUMP JUMPDEST SWAP2 POP POP SWAP3 SWAP2 POP POP JUMP JUMPDEST PUSH32 0x556E696C656E6456323A20504F534954494F4E204E4F5420464F554E44000000 PUSH1 0x0 DUP3 ADD MSTORE POP JUMP JUMPDEST PUSH1 0x0 PUSH2 0x630D PUSH1 0x1D DUP4 PUSH2 0x6140 JUMP JUMPDEST SWAP2 POP PUSH2 0x6318 DUP3 PUSH2 0x62D7 JUMP JUMPDEST PUSH1 0x20 DUP3 ADD SWAP1 POP SWAP2 SWAP1 POP JUMP JUMPDEST PUSH1 0x0 PUSH1 0x20 DUP3 ADD SWAP1 POP DUP2 DUP2 SUB PUSH1 0x0 DUP4 ADD MSTORE PUSH2 0x633C DUP2 PUSH2 0x6300 JUMP JUMPDEST SWAP1 POP SWAP2 SWAP1 POP JUMP JUMPDEST PUSH1 0x0 PUSH1 0x80 DUP3 ADD SWAP1 POP PUSH2 0x6358 PUSH1 0x0 DUP4 ADD DUP8 PUSH2 0x58D4 JUMP JUMPDEST PUSH2 0x6365 PUSH1 0x20 DUP4 ADD DUP7 PUSH2 0x5AB9 JUMP JUMPDEST PUSH2 0x6372 PUSH1 0x40 DUP4 ADD DUP6 PUSH2 0x5930 JUMP JUMPDEST PUSH2 0x637F PUSH1 0x60 DUP4 ADD DUP5 PUSH2 0x58D4 JUMP JUMPDEST SWAP6 SWAP5 POP POP POP POP POP JUMP JUMPDEST PUSH1 0x0 DUP2 MLOAD SWAP1 POP PUSH2 0x6397 DUP2 PUSH2 0x59DA JUMP JUMPDEST SWAP3 SWAP2 POP POP JUMP JUMPDEST PUSH1 0x0 PUSH1 0x20 DUP3 DUP5 SUB SLT ISZERO PUSH2 0x63B3 JUMPI PUSH2 0x63B2 PUSH2 0x595A JUMP JUMPDEST JUMPDEST PUSH1 0x0 PUSH2 0x63C1 DUP5 DUP3 DUP6 ADD PUSH2 0x6388 JUMP JUMPDEST SWAP2 POP POP SWAP3 SWAP2 POP POP JUMP JUMPDEST PUSH1 0x0 DUP2 SWAP1 POP SWAP2 SWAP1 POP JUMP JUMPDEST PUSH1 0x0 DUP2 SWAP1 POP SWAP2 SWAP1 POP JUMP JUMPDEST PUSH1 0x0 PUSH2 0x63F9 PUSH2 0x63F4 PUSH2 0x63EF DUP5 PUSH2 0x63CA JUMP JUMPDEST PUSH2 0x63D4 JUMP JUMPDEST PUSH2 0x58CA JUMP JUMPDEST SWAP1 POP SWAP2 SWAP1 POP JUMP JUMPDEST PUSH2 0x6409 DUP2 PUSH2 0x63DE JUMP JUMPDEST DUP3 MSTORE POP POP JUMP JUMPDEST PUSH1 0x0 PUSH1 0x80 DUP3 ADD SWAP1 POP PUSH2 0x6424 PUSH1 0x0 DUP4 ADD DUP8 PUSH2 0x58D4 JUMP JUMPDEST PUSH2 0x6431 PUSH1 0x20 DUP4 ADD DUP7 PUSH2 0x5AB9 JUMP JUMPDEST PUSH2 0x643E PUSH1 0x40 DUP4 ADD DUP6 PUSH2 0x5930 JUMP JUMPDEST PUSH2 0x644B PUSH1 0x60 DUP4 ADD DUP5 PUSH2 0x6400 JUMP JUMPDEST SWAP6 SWAP5 POP POP POP POP POP JUMP JUMPDEST PUSH32 0x4E487B7100000000000000000000000000000000000000000000000000000000 PUSH1 0x0 MSTORE PUSH1 0x11 PUSH1 0x4 MSTORE PUSH1 0x24 PUSH1 0x0 REVERT JUMPDEST PUSH1 0x0 PUSH2 0x648E DUP3 PUSH2 0x59D0 JUMP JUMPDEST SWAP2 POP PUSH32 0x8000000000000000000000000000000000000000000000000000000000000000 DUP3 SUB PUSH2 0x64C0 JUMPI PUSH2 0x64BF PUSH2 0x6454 JUMP JUMPDEST JUMPDEST DUP2 PUSH1 0x0 SUB SWAP1 POP SWAP2 SWAP1 POP JUMP JUMPDEST PUSH32 0x5468652063616C6C6572206D757374206265206120676F7665726E6F72000000 PUSH1 0x0 DUP3 ADD MSTORE POP JUMP JUMPDEST PUSH1 0x0 PUSH2 0x6501 PUSH1 0x1D DUP4 PUSH2 0x6140 JUMP JUMPDEST SWAP2 POP PUSH2 0x650C DUP3 PUSH2 0x64CB JUMP JUMPDEST PUSH1 0x20 DUP3 ADD SWAP1 POP SWAP2 SWAP1 POP JUMP JUMPDEST PUSH1 0x0 PUSH1 0x20 DUP3 ADD SWAP1 POP DUP2 DUP2 SUB PUSH1 0x0 DUP4 ADD MSTORE PUSH2 0x6530 DUP2 PUSH2 0x64F4 JUMP JUMPDEST SWAP1 POP SWAP2 SWAP1 POP JUMP JUMPDEST PUSH32 0x556E696C656E6456323A205A45524F2041444452455353000000000000000000 PUSH1 0x0 DUP3 ADD MSTORE POP JUMP JUMPDEST PUSH1 0x0 PUSH2 0x656D PUSH1 0x17 DUP4 PUSH2 0x6140 JUMP JUMPDEST SWAP2 POP PUSH2 0x6578 DUP3 PUSH2 0x6537 JUMP JUMPDEST PUSH1 0x20 DUP3 ADD SWAP1 POP SWAP2 SWAP1 POP JUMP JUMPDEST PUSH1 0x0 PUSH1 0x20 DUP3 ADD SWAP1 POP DUP2 DUP2 SUB PUSH1 0x0 DUP4 ADD MSTORE PUSH2 0x659C DUP2 PUSH2 0x6560 JUMP JUMPDEST SWAP1 POP SWAP2 SWAP1 POP JUMP JUMPDEST PUSH32 0x556E696C656E6456323A20506F736974696F6E204164647265737320416C7265 PUSH1 0x0 DUP3 ADD MSTORE PUSH32 0x6164792053657400000000000000000000000000000000000000000000000000 PUSH1 0x20 DUP3 ADD MSTORE POP JUMP JUMPDEST PUSH1 0x0 PUSH2 0x65FF PUSH1 0x27 DUP4 PUSH2 0x6140 JUMP JUMPDEST SWAP2 POP PUSH2 0x660A DUP3 PUSH2 0x65A3 JUMP JUMPDEST PUSH1 0x40 DUP3 ADD SWAP1 POP SWAP2 SWAP1 POP JUMP JUMPDEST PUSH1 0x0 PUSH1 0x20 DUP3 ADD SWAP1 POP DUP2 DUP2 SUB PUSH1 0x0 DUP4 ADD MSTORE PUSH2 0x662E DUP2 PUSH2 0x65F2 JUMP JUMPDEST SWAP1 POP SWAP2 SWAP1 POP JUMP JUMPDEST PUSH32 0x556E696C656E6456323A20494E56414C49442052414E47450000000000000000 PUSH1 0x0 DUP3 ADD MSTORE POP JUMP JUMPDEST PUSH1 0x0 PUSH2 0x666B PUSH1 0x18 DUP4 PUSH2 0x6140 JUMP JUMPDEST SWAP2 POP PUSH2 0x6676 DUP3 PUSH2 0x6635 JUMP JUMPDEST PUSH1 0x20 DUP3 ADD SWAP1 POP SWAP2 SWAP1 POP JUMP JUMPDEST PUSH1 0x0 PUSH1 0x20 DUP3 ADD SWAP1 POP DUP2 DUP2 SUB PUSH1 0x0 DUP4 ADD MSTORE PUSH2 0x669A DUP2 PUSH2 0x665E JUMP JUMPDEST SWAP1 POP SWAP2 SWAP1 POP JUMP JUMPDEST PUSH2 0x66AA DUP2 PUSH2 0x5B10 JUMP JUMPDEST DUP3 MSTORE POP POP JUMP JUMPDEST PUSH1 0x0 PUSH1 0x20 DUP3 ADD SWAP1 POP PUSH2 0x66C5 PUSH1 0x0 DUP4 ADD DUP5 PUSH2 0x66A1 JUMP JUMPDEST SWAP3 SWAP2 POP POP JUMP JUMPDEST PUSH1 0x0 PUSH2 0x66D6 DUP3 PUSH2 0x5B10 JUMP JUMPDEST SWAP2 POP PUSH2 0x66E1 DUP4 PUSH2 0x5B10 JUMP JUMPDEST SWAP3 POP DUP3 DUP3 SUB SWAP1 POP PUSH1 0xFF DUP2 GT ISZERO PUSH2 0x66FA JUMPI PUSH2 0x66F9 PUSH2 0x6454 JUMP JUMPDEST JUMPDEST SWAP3 SWAP2 POP POP JUMP JUMPDEST PUSH1 0x0 PUSH1 0x60 DUP3 ADD SWAP1 POP PUSH2 0x6715 PUSH1 0x0 DUP4 ADD DUP7 PUSH2 0x66A1 JUMP JUMPDEST PUSH2 0x6722 PUSH1 0x20 DUP4 ADD DUP6 PUSH2 0x66A1 JUMP JUMPDEST PUSH2 0x672F PUSH1 0x40 DUP4 ADD DUP5 PUSH2 0x66A1 JUMP JUMPDEST SWAP5 SWAP4 POP POP POP POP JUMP JUMPDEST PUSH1 0x0 DUP1 PUSH1 0x40 DUP4 DUP6 SUB SLT ISZERO PUSH2 0x674E JUMPI PUSH2 0x674D PUSH2 0x595A JUMP JUMPDEST JUMPDEST PUSH1 0x0 PUSH2 0x675C DUP6 DUP3 DUP7 ADD PUSH2 0x6295 JUMP JUMPDEST SWAP3 POP POP PUSH1 0x20 PUSH2 0x676D DUP6 DUP3 DUP7 ADD PUSH2 0x6295 JUMP JUMPDEST SWAP2 POP POP SWAP3 POP SWAP3 SWAP1 POP JUMP JUMPDEST PUSH1 0x0 PUSH1 0x60 DUP3 ADD SWAP1 POP PUSH2 0x678C PUSH1 0x0 DUP4 ADD DUP7 PUSH2 0x58D4 JUMP JUMPDEST PUSH2 0x6799 PUSH1 0x20 DUP4 ADD DUP6 PUSH2 0x5AB9 JUMP JUMPDEST PUSH2 0x67A6 PUSH1 0x40 DUP4 ADD DUP5 PUSH2 0x5930 JUMP JUMPDEST SWAP5 SWAP4 POP POP POP POP JUMP JUMPDEST PUSH1 0x0 DUP1 PUSH1 0x0 DUP1 PUSH1 0x80 DUP6 DUP8 SUB SLT ISZERO PUSH2 0x67C8 JUMPI PUSH2 0x67C7 PUSH2 0x595A JUMP JUMPDEST JUMPDEST PUSH1 0x0 PUSH2 0x67D6 DUP8 DUP3 DUP9 ADD PUSH2 0x6295 JUMP JUMPDEST SWAP5 POP POP PUSH1 0x20 PUSH2 0x67E7 DUP8 DUP3 DUP9 ADD PUSH2 0x6295 JUMP JUMPDEST SWAP4 POP POP PUSH1 0x40 PUSH2 0x67F8 DUP8 DUP3 DUP9 ADD PUSH2 0x6295 JUMP JUMPDEST SWAP3 POP POP PUSH1 0x60 PUSH2 0x6809 DUP8 DUP3 DUP9 ADD PUSH2 0x6295 JUMP JUMPDEST SWAP2 POP POP SWAP3 SWAP6 SWAP2 SWAP5 POP SWAP3 POP JUMP JUMPDEST PUSH32 0x5468657265206973206E6F7420656E6F756768206C6971756964697479302061 PUSH1 0x0 DUP3 ADD MSTORE PUSH32 0x7661696C61626C6520746F20626F72726F770000000000000000000000000000 PUSH1 0x20 DUP3 ADD MSTORE POP JUMP JUMPDEST PUSH1 0x0 PUSH2 0x6871 PUSH1 0x32 DUP4 PUSH2 0x6140 JUMP JUMPDEST SWAP2 POP PUSH2 0x687C DUP3 PUSH2 0x6815 JUMP JUMPDEST PUSH1 0x40 DUP3 ADD SWAP1 POP SWAP2 SWAP1 POP JUMP JUMPDEST PUSH1 0x0 PUSH1 0x20 DUP3 ADD SWAP1 POP DUP2 DUP2 SUB PUSH1 0x0 DUP4 ADD MSTORE PUSH2 0x68A0 DUP2 PUSH2 0x6864 JUMP JUMPDEST SWAP1 POP SWAP2 SWAP1 POP JUMP JUMPDEST PUSH32 0x5468657265206973206E6F7420656E6F756768206C6971756964697479312061 PUSH1 0x0 DUP3 ADD MSTORE PUSH32 0x7661696C61626C6520746F20626F72726F770000000000000000000000000000 PUSH1 0x20 DUP3 ADD MSTORE POP JUMP JUMPDEST PUSH1 0x0 PUSH2 0x6903 PUSH1 0x32 DUP4 PUSH2 0x6140 JUMP JUMPDEST SWAP2 POP PUSH2 0x690E DUP3 PUSH2 0x68A7 JUMP JUMPDEST PUSH1 0x40 DUP3 ADD SWAP1 POP SWAP2 SWAP1 POP JUMP JUMPDEST PUSH1 0x0 PUSH1 0x20 DUP3 ADD SWAP1 POP DUP2 DUP2 SUB PUSH1 0x0 DUP4 ADD MSTORE PUSH2 0x6932 DUP2 PUSH2 0x68F6 JUMP JUMPDEST SWAP1 POP SWAP2 SWAP1 POP JUMP JUMPDEST PUSH1 0x0 PUSH1 0x60 DUP3 ADD SWAP1 POP PUSH2 0x694E PUSH1 0x0 DUP4 ADD DUP7 PUSH2 0x58D4 JUMP JUMPDEST PUSH2 0x695B PUSH1 0x20 DUP4 ADD DUP6 PUSH2 0x5AB9 JUMP JUMPDEST PUSH2 0x6968 PUSH1 0x40 DUP4 ADD DUP5 PUSH2 0x6043 JUMP JUMPDEST SWAP5 SWAP4 POP POP POP POP JUMP JUMPDEST PUSH1 0x0 PUSH1 0x60 DUP3 ADD SWAP1 POP PUSH2 0x6985 PUSH1 0x0 DUP4 ADD DUP7 PUSH2 0x5930 JUMP JUMPDEST PUSH2 0x6992 PUSH1 0x20 DUP4 ADD DUP6 PUSH2 0x5930 JUMP JUMPDEST PUSH2 0x699F PUSH1 0x40 DUP4 ADD DUP5 PUSH2 0x58D4 JUMP JUMPDEST SWAP5 SWAP4 POP POP POP POP JUMP JUMPDEST PUSH32 0x556E696C656E6456323A20494E56414C4944204152524159204C454E47544800 PUSH1 0x0 DUP3 ADD MSTORE POP JUMP JUMPDEST PUSH1 0x0 PUSH2 0x69DD PUSH1 0x1F DUP4 PUSH2 0x6140 JUMP JUMPDEST SWAP2 POP PUSH2 0x69E8 DUP3 PUSH2 0x69A7 JUMP JUMPDEST PUSH1 0x20 DUP3 ADD SWAP1 POP SWAP2 SWAP1 POP JUMP JUMPDEST PUSH1 0x0 PUSH1 0x20 DUP3 ADD SWAP1 POP DUP2 DUP2 SUB PUSH1 0x0 DUP4 ADD MSTORE PUSH2 0x6A0C DUP2 PUSH2 0x69D0 JUMP JUMPDEST SWAP1 POP SWAP2 SWAP1 POP JUMP JUMPDEST PUSH1 0x0 DUP3 DUP3 MSTORE PUSH1 0x20 DUP3 ADD SWAP1 POP SWAP3 SWAP2 POP POP JUMP JUMPDEST PUSH1 0x0 DUP1 REVERT JUMPDEST DUP3 DUP2 DUP4 CALLDATACOPY POP POP POP JUMP JUMPDEST PUSH1 0x0 PUSH2 0x6A3E DUP4 DUP6 PUSH2 0x6A13 JUMP JUMPDEST SWAP4 POP PUSH32 0x7FFFFFFFFFFFFFFFFFFFFFFFFFFFFFFFFFFFFFFFFFFFFFFFFFFFFFFFFFFFFFF DUP4 GT ISZERO PUSH2 0x6A71 JUMPI PUSH2 0x6A70 PUSH2 0x6A24 JUMP JUMPDEST JUMPDEST PUSH1 0x20 DUP4 MUL SWAP3 POP PUSH2 0x6A82 DUP4 DUP6 DUP5 PUSH2 0x6A29 JUMP JUMPDEST DUP3 DUP5 ADD SWAP1 POP SWAP4 SWAP3 POP POP POP JUMP JUMPDEST PUSH1 0x0 DUP3 DUP3 MSTORE PUSH1 0x20 DUP3 ADD SWAP1 POP SWAP3 SWAP2 POP POP JUMP JUMPDEST PUSH1 0x0 DUP2 SWAP1 POP SWAP2 SWAP1 POP JUMP JUMPDEST PUSH2 0x6AB2 DUP2 PUSH2 0x59D0 JUMP JUMPDEST DUP3 MSTORE POP POP JUMP JUMPDEST PUSH1 0x0 PUSH2 0x6AC4 DUP4 DUP4 PUSH2 0x6AA9 JUMP JUMPDEST PUSH1 0x20 DUP4 ADD SWAP1 POP SWAP3 SWAP2 POP POP JUMP JUMPDEST PUSH1 0x0 PUSH2 0x6ADF PUSH1 0x20 DUP5 ADD DUP5 PUSH2 0x59F1 JUMP JUMPDEST SWAP1 POP SWAP3 SWAP2 POP POP JUMP JUMPDEST PUSH1 0x0 PUSH1 0x20 DUP3 ADD SWAP1 POP SWAP2 SWAP1 POP JUMP JUMPDEST PUSH1 0x0 PUSH2 0x6B00 DUP4 DUP6 PUSH2 0x6A8E JUMP JUMPDEST SWAP4 POP PUSH2 0x6B0B DUP3 PUSH2 0x6A9F JUMP JUMPDEST DUP1 PUSH1 0x0 JUMPDEST DUP6 DUP2 LT ISZERO PUSH2 0x6B44 JUMPI PUSH2 0x6B21 DUP3 DUP5 PUSH2 0x6AD0 JUMP JUMPDEST PUSH2 0x6B2B DUP9 DUP3 PUSH2 0x6AB8 JUMP JUMPDEST SWAP8 POP PUSH2 0x6B36 DUP4 PUSH2 0x6AE7 JUMP JUMPDEST SWAP3 POP POP PUSH1 0x1 DUP2 ADD SWAP1 POP PUSH2 0x6B0F JUMP JUMPDEST POP DUP6 SWAP3 POP POP POP SWAP4 SWAP3 POP POP POP JUMP JUMPDEST PUSH1 0x0 PUSH1 0x80 DUP3 ADD SWAP1 POP DUP2 DUP2 SUB PUSH1 0x0 DUP4 ADD MSTORE PUSH2 0x6B6C DUP2 DUP9 DUP11 PUSH2 0x6A32 JUMP JUMPDEST SWAP1 POP DUP2 DUP2 SUB PUSH1 0x20 DUP4 ADD MSTORE PUSH2 0x6B81 DUP2 DUP7 DUP9 PUSH2 0x6AF4 JUMP JUMPDEST SWAP1 POP PUSH2 0x6B90 PUSH1 0x40 DUP4 ADD DUP6 PUSH2 0x5930 JUMP JUMPDEST PUSH2 0x6B9D PUSH1 0x60 DUP4 ADD DUP5 PUSH2 0x58D4 JUMP JUMPDEST SWAP8 SWAP7 POP POP POP POP POP POP POP JUMP JUMPDEST PUSH1 0x0 PUSH1 0x80 DUP3 ADD SWAP1 POP DUP2 DUP2 SUB PUSH1 0x0 DUP4 ADD MSTORE PUSH2 0x6BC3 DUP2 DUP9 DUP11 PUSH2 0x6A32 JUMP JUMPDEST SWAP1 POP DUP2 DUP2 SUB PUSH1 0x20 DUP4 ADD MSTORE PUSH2 0x6BD8 DUP2 DUP7 DUP9 PUSH2 0x6AF4 JUMP JUMPDEST SWAP1 POP PUSH2 0x6BE7 PUSH1 0x40 DUP4 ADD DUP6 PUSH2 0x5930 JUMP JUMPDEST PUSH2 0x6BF4 PUSH1 0x60 DUP4 ADD DUP5 PUSH2 0x6400 JUMP JUMPDEST SWAP8 SWAP7 POP POP POP POP POP POP POP JUMP JUMPDEST PUSH32 0x5468657265206973206E6F7420656E6F756768206C6971756964697479206176 PUSH1 0x0 DUP3 ADD MSTORE PUSH32 0x61696C61626C6520746F20626F72726F77000000000000000000000000000000 PUSH1 0x20 DUP3 ADD MSTORE POP JUMP JUMPDEST PUSH1 0x0 PUSH2 0x6C5B PUSH1 0x31 DUP4 PUSH2 0x6140 JUMP JUMPDEST SWAP2 POP PUSH2 0x6C66 DUP3 PUSH2 0x6BFF JUMP JUMPDEST PUSH1 0x40 DUP3 ADD SWAP1 POP SWAP2 SWAP1 POP JUMP JUMPDEST PUSH1 0x0 PUSH1 0x20 DUP3 ADD SWAP1 POP DUP2 DUP2 SUB PUSH1 0x0 DUP4 ADD MSTORE PUSH2 0x6C8A DUP2 PUSH2 0x6C4E JUMP JUMPDEST SWAP1 POP SWAP2 SWAP1 POP JUMP JUMPDEST PUSH32 0x5468652072657175657374656420616D6F756E7420697320746F6F20736D616C PUSH1 0x0 DUP3 ADD MSTORE PUSH32 0x6C20666F72206120666C6173684C6F616E2E0000000000000000000000000000 PUSH1 0x20 DUP3 ADD MSTORE POP JUMP JUMPDEST PUSH1 0x0 PUSH2 0x6CED PUSH1 0x32 DUP4 PUSH2 0x6140 JUMP JUMPDEST SWAP2 POP PUSH2 0x6CF8 DUP3 PUSH2 0x6C91 JUMP JUMPDEST PUSH1 0x40 DUP3 ADD SWAP1 POP SWAP2 SWAP1 POP JUMP JUMPDEST PUSH1 0x0 PUSH1 0x20 DUP3 ADD SWAP1 POP DUP2 DUP2 SUB PUSH1 0x0 DUP4 ADD MSTORE PUSH2 0x6D1C DUP2 PUSH2 0x6CE0 JUMP JUMPDEST SWAP1 POP SWAP2 SWAP1 POP JUMP JUMPDEST PUSH1 0x0 PUSH1 0x40 DUP3 ADD SWAP1 POP PUSH2 0x6D38 PUSH1 0x0 DUP4 ADD DUP6 PUSH2 0x5930 JUMP JUMPDEST PUSH2 0x6D45 PUSH1 0x20 DUP4 ADD DUP5 PUSH2 0x5AB9 JUMP JUMPDEST SWAP4 SWAP3 POP POP POP JUMP JUMPDEST PUSH1 0x0 DUP3 DUP3 MSTORE PUSH1 0x20 DUP3 ADD SWAP1 POP SWAP3 SWAP2 POP POP JUMP JUMPDEST DUP3 DUP2 DUP4 CALLDATACOPY PUSH1 0x0 DUP4 DUP4 ADD MSTORE POP POP POP JUMP JUMPDEST PUSH1 0x0 PUSH1 0x1F NOT PUSH1 0x1F DUP4 ADD AND SWAP1 POP SWAP2 SWAP1 POP JUMP JUMPDEST PUSH1 0x0 PUSH2 0x6D89 DUP4 DUP6 PUSH2 0x6D4C JUMP JUMPDEST SWAP4 POP PUSH2 0x6D96 DUP4 DUP6 DUP5 PUSH2 0x6D5D JUMP JUMPDEST PUSH2 0x6D9F DUP4 PUSH2 0x6D6C JUMP JUMPDEST DUP5 ADD SWAP1 POP SWAP4 SWAP3 POP POP POP JUMP JUMPDEST PUSH1 0x0 PUSH1 0x80 DUP3 ADD SWAP1 POP PUSH2 0x6DBF PUSH1 0x0 DUP4 ADD DUP9 PUSH2 0x5930 JUMP JUMPDEST PUSH2 0x6DCC PUSH1 0x20 DUP4 ADD DUP8 PUSH2 0x58D4 JUMP JUMPDEST PUSH2 0x6DD9 PUSH1 0x40 DUP4 ADD DUP7 PUSH2 0x58D4 JUMP JUMPDEST DUP2 DUP2 SUB PUSH1 0x60 DUP4 ADD MSTORE PUSH2 0x6DEC DUP2 DUP5 DUP7 PUSH2 0x6D7D JUMP JUMPDEST SWAP1 POP SWAP7 SWAP6 POP POP POP POP POP POP JUMP JUMPDEST PUSH32 0x5468652061637475616C2062616C616E6365206F66207468652070726F746F63 PUSH1 0x0 DUP3 ADD MSTORE PUSH32 0x6F6C20697320696E636F6E73697374656E740000000000000000000000000000 PUSH1 0x20 DUP3 ADD MSTORE POP JUMP JUMPDEST PUSH1 0x0 PUSH2 0x6E54 PUSH1 0x32 DUP4 PUSH2 0x6140 JUMP JUMPDEST SWAP2 POP PUSH2 0x6E5F DUP3 PUSH2 0x6DF8 JUMP JUMPDEST PUSH1 0x40 DUP3 ADD SWAP1 POP SWAP2 SWAP1 POP JUMP JUMPDEST PUSH1 0x0 PUSH1 0x20 DUP3 ADD SWAP1 POP DUP2 DUP2 SUB PUSH1 0x0 DUP4 ADD MSTORE PUSH2 0x6E83 DUP2 PUSH2 0x6E47 JUMP JUMPDEST SWAP1 POP SWAP2 SWAP1 POP JUMP JUMPDEST PUSH1 0x0 PUSH1 0x80 DUP3 ADD SWAP1 POP PUSH2 0x6E9F PUSH1 0x0 DUP4 ADD DUP8 PUSH2 0x5AB9 JUMP JUMPDEST PUSH2 0x6EAC PUSH1 0x20 DUP4 ADD DUP7 PUSH2 0x58D4 JUMP JUMPDEST PUSH2 0x6EB9 PUSH1 0x40 DUP4 ADD DUP6 PUSH2 0x58D4 JUMP JUMPDEST PUSH2 0x6EC6 PUSH1 0x60 DUP4 ADD DUP5 PUSH2 0x58D4 JUMP JUMPDEST SWAP6 SWAP5 POP POP POP POP POP JUMP JUMPDEST PUSH32 0x556E696C656E6456313A20494E56414C494420544F54414C204645452052414E PUSH1 0x0 DUP3 ADD MSTORE PUSH32 0x4745000000000000000000000000000000000000000000000000000000000000 PUSH1 0x20 DUP3 ADD MSTORE POP JUMP JUMPDEST PUSH1 0x0 PUSH2 0x6F2B PUSH1 0x22 DUP4 PUSH2 0x6140 JUMP JUMPDEST SWAP2 POP PUSH2 0x6F36 DUP3 PUSH2 0x6ECF JUMP JUMPDEST PUSH1 0x40 DUP3 ADD SWAP1 POP SWAP2 SWAP1 POP JUMP JUMPDEST PUSH1 0x0 PUSH1 0x20 DUP3 ADD SWAP1 POP DUP2 DUP2 SUB PUSH1 0x0 DUP4 ADD MSTORE PUSH2 0x6F5A DUP2 PUSH2 0x6F1E JUMP JUMPDEST SWAP1 POP SWAP2 SWAP1 POP JUMP JUMPDEST PUSH32 0x556E696C656E6456313A20494E56414C49442050524F544F434F4C2046454520 PUSH1 0x0 DUP3 ADD MSTORE PUSH32 0x52414E4745000000000000000000000000000000000000000000000000000000 PUSH1 0x20 DUP3 ADD MSTORE POP JUMP JUMPDEST PUSH1 0x0 PUSH2 0x6FBD PUSH1 0x25 DUP4 PUSH2 0x6140 JUMP JUMPDEST SWAP2 POP PUSH2 0x6FC8 DUP3 PUSH2 0x6F61 JUMP JUMPDEST PUSH1 0x40 DUP3 ADD SWAP1 POP SWAP2 SWAP1 POP JUMP JUMPDEST PUSH1 0x0 PUSH1 0x20 DUP3 ADD SWAP1 POP DUP2 DUP2 SUB PUSH1 0x0 DUP4 ADD MSTORE PUSH2 0x6FEC DUP2 PUSH2 0x6FB0 JUMP JUMPDEST SWAP1 POP SWAP2 SWAP1 POP JUMP JUMPDEST PUSH32 0x556E696C656E6456323A204944454E544943414C204144445245535345530000 PUSH1 0x0 DUP3 ADD MSTORE POP JUMP JUMPDEST PUSH1 0x0 PUSH2 0x7029 PUSH1 0x1E DUP4 PUSH2 0x6140 JUMP JUMPDEST SWAP2 POP PUSH2 0x7034 DUP3 PUSH2 0x6FF3 JUMP JUMPDEST PUSH1 0x20 DUP3 ADD SWAP1 POP SWAP2 SWAP1 POP JUMP JUMPDEST PUSH1 0x0 PUSH1 0x20 DUP3 ADD SWAP1 POP DUP2 DUP2 SUB PUSH1 0x0 DUP4 ADD MSTORE PUSH2 0x7058 DUP2 PUSH2 0x701C JUMP JUMPDEST SWAP1 POP SWAP2 SWAP1 POP JUMP JUMPDEST PUSH32 0x556E696C656E6456323A20504F4F4C20414C5245414459204352454154454400 PUSH1 0x0 DUP3 ADD MSTORE POP JUMP JUMPDEST PUSH1 0x0 PUSH2 0x7095 PUSH1 0x1F DUP4 PUSH2 0x6140 JUMP JUMPDEST SWAP2 POP PUSH2 0x70A0 DUP3 PUSH2 0x705F JUMP JUMPDEST PUSH1 0x20 DUP3 ADD SWAP1 POP SWAP2 SWAP1 POP JUMP JUMPDEST PUSH1 0x0 PUSH1 0x20 DUP3 ADD SWAP1 POP DUP2 DUP2 SUB PUSH1 0x0 DUP4 ADD MSTORE PUSH2 0x70C4 DUP2 PUSH2 0x7088 JUMP JUMPDEST SWAP1 POP SWAP2 SWAP1 POP JUMP JUMPDEST PUSH32 0x556E696C656E6456323A20494E56414C494420455243323020544F4B454E0000 PUSH1 0x0 DUP3 ADD MSTORE POP JUMP JUMPDEST PUSH1 0x0 PUSH2 0x7101 PUSH1 0x1E DUP4 PUSH2 0x6140 JUMP JUMPDEST SWAP2 POP PUSH2 0x710C DUP3 PUSH2 0x70CB JUMP JUMPDEST PUSH1 0x20 DUP3 ADD SWAP1 POP SWAP2 SWAP1 POP JUMP JUMPDEST PUSH1 0x0 PUSH1 0x20 DUP3 ADD SWAP1 POP DUP2 DUP2 SUB PUSH1 0x0 DUP4 ADD MSTORE PUSH2 0x7130 DUP2 PUSH2 0x70F4 JUMP JUMPDEST SWAP1 POP SWAP2 SWAP1 POP JUMP JUMPDEST PUSH1 0x0 PUSH1 0xC0 DUP3 ADD SWAP1 POP PUSH2 0x714C PUSH1 0x0 DUP4 ADD DUP10 PUSH2 0x5930 JUMP JUMPDEST PUSH2 0x7159 PUSH1 0x20 DUP4 ADD DUP9 PUSH2 0x5930 JUMP JUMPDEST PUSH2 0x7166 PUSH1 0x40 DUP4 ADD DUP8 PUSH2 0x5930 JUMP JUMPDEST PUSH2 0x7173 PUSH1 0x60 DUP4 ADD DUP7 PUSH2 0x66A1 JUMP JUMPDEST PUSH2 0x7180 PUSH1 0x80 DUP4 ADD DUP6 PUSH2 0x66A1 JUMP JUMPDEST PUSH2 0x718D PUSH1 0xA0 DUP4 ADD DUP5 PUSH2 0x66A1 JUMP JUMPDEST SWAP8 SWAP7 POP POP POP POP POP POP POP JUMP JUMPDEST PUSH1 0x0 PUSH2 0x71A3 DUP3 PUSH2 0x58CA JUMP JUMPDEST SWAP2 POP PUSH32 0xFFFFFFFFFFFFFFFFFFFFFFFFFFFFFFFFFFFFFFFFFFFFFFFFFFFFFFFFFFFFFFFF DUP3 SUB PUSH2 0x71D5 JUMPI PUSH2 0x71D4 PUSH2 0x6454 JUMP JUMPDEST JUMPDEST PUSH1 0x1 DUP3 ADD SWAP1 POP SWAP2 SWAP1 POP JUMP JUMPDEST PUSH1 0x0 PUSH1 0x40 DUP3 ADD SWAP1 POP PUSH2 0x71F5 PUSH1 0x0 DUP4 ADD DUP6 PUSH2 0x5930 JUMP JUMPDEST PUSH2 0x7202 PUSH1 0x20 DUP4 ADD DUP5 PUSH2 0x58D4 JUMP JUMPDEST SWAP4 SWAP3 POP POP POP JUMP JUMPDEST PUSH1 0x0 PUSH1 0x40 DUP3 ADD SWAP1 POP PUSH2 0x721E PUSH1 0x0 DUP4 ADD DUP6 PUSH2 0x58D4 JUMP JUMPDEST PUSH2 0x722B PUSH1 0x20 DUP4 ADD DUP5 PUSH2 0x5AB9 JUMP JUMPDEST SWAP4 SWAP3 POP POP POP JUMP JUMPDEST PUSH1 0x0 PUSH2 0x723D DUP3 PUSH2 0x58CA JUMP JUMPDEST SWAP2 POP PUSH2 0x7248 DUP4 PUSH2 0x58CA JUMP JUMPDEST SWAP3 POP DUP3 DUP3 MUL PUSH2 0x7256 DUP2 PUSH2 0x58CA JUMP JUMPDEST SWAP2 POP DUP3 DUP3 DIV DUP5 EQ DUP4 ISZERO OR PUSH2 0x726D JUMPI PUSH2 0x726C PUSH2 0x6454 JUMP JUMPDEST JUMPDEST POP SWAP3 SWAP2 POP POP JUMP JUMPDEST PUSH32 0x4E487B7100000000000000000000000000000000000000000000000000000000 PUSH1 0x0 MSTORE PUSH1 0x12 PUSH1 0x4 MSTORE PUSH1 0x24 PUSH1 0x0 REVERT JUMPDEST PUSH1 0x0 PUSH2 0x72AE DUP3 PUSH2 0x58CA JUMP JUMPDEST SWAP2 POP PUSH2 0x72B9 DUP4 PUSH2 0x58CA JUMP JUMPDEST SWAP3 POP DUP3 PUSH2 0x72C9 JUMPI PUSH2 0x72C8 PUSH2 0x7274 JUMP JUMPDEST JUMPDEST DUP3 DUP3 DIV SWAP1 POP SWAP3 SWAP2 POP POP JUMP JUMPDEST PUSH1 0x0 PUSH2 0x72DF DUP3 PUSH2 0x58CA JUMP JUMPDEST SWAP2 POP PUSH2 0x72EA DUP4 PUSH2 0x58CA JUMP JUMPDEST SWAP3 POP DUP3 DUP3 ADD SWAP1 POP DUP1 DUP3 GT ISZERO PUSH2 0x7302 JUMPI PUSH2 0x7301 PUSH2 0x6454 JUMP JUMPDEST JUMPDEST SWAP3 SWAP2 POP POP JUMP JUMPDEST PUSH1 0x0 PUSH2 0x7323 PUSH2 0x731E PUSH2 0x7319 DUP5 PUSH2 0x58FE JUMP JUMPDEST PUSH2 0x63D4 JUMP JUMPDEST PUSH2 0x58FE JUMP JUMPDEST SWAP1 POP SWAP2 SWAP1 POP JUMP JUMPDEST PUSH1 0x0 PUSH2 0x7335 DUP3 PUSH2 0x7308 JUMP JUMPDEST SWAP1 POP SWAP2 SWAP1 POP JUMP JUMPDEST PUSH1 0x0 PUSH2 0x7347 DUP3 PUSH2 0x732A JUMP JUMPDEST SWAP1 POP SWAP2 SWAP1 POP JUMP JUMPDEST PUSH2 0x7357 DUP2 PUSH2 0x733C JUMP JUMPDEST DUP3 MSTORE POP POP JUMP JUMPDEST PUSH1 0x0 PUSH1 0x60 DUP3 ADD SWAP1 POP PUSH2 0x7372 PUSH1 0x0 DUP4 ADD DUP7 PUSH2 0x734E JUMP JUMPDEST PUSH2 0x737F PUSH1 0x20 DUP4 ADD DUP6 PUSH2 0x5930 JUMP JUMPDEST PUSH2 0x738C PUSH1 0x40 DUP4 ADD DUP5 PUSH2 0x58D4 JUMP JUMPDEST SWAP5 SWAP4 POP POP POP POP JUMP JUMPDEST PUSH1 0x0 DUP2 MLOAD SWAP1 POP PUSH2 0x73A3 DUP2 PUSH2 0x5A12 JUMP JUMPDEST SWAP3 SWAP2 POP POP JUMP JUMPDEST PUSH1 0x0 PUSH1 0x20 DUP3 DUP5 SUB SLT ISZERO PUSH2 0x73BF JUMPI PUSH2 0x73BE PUSH2 0x595A JUMP JUMPDEST JUMPDEST PUSH1 0x0 PUSH2 0x73CD DUP5 DUP3 DUP6 ADD PUSH2 0x7394 JUMP JUMPDEST SWAP2 POP POP SWAP3 SWAP2 POP POP JUMP JUMPDEST PUSH32 0x5361666545524332303A204552433230206F7065726174696F6E20646964206E PUSH1 0x0 DUP3 ADD MSTORE PUSH32 0x6F74207375636365656400000000000000000000000000000000000000000000 PUSH1 0x20 DUP3 ADD MSTORE POP JUMP JUMPDEST PUSH1 0x0 PUSH2 0x7432 PUSH1 0x2A DUP4 PUSH2 0x6140 JUMP JUMPDEST SWAP2 POP PUSH2 0x743D DUP3 PUSH2 0x73D6 JUMP JUMPDEST PUSH1 0x40 DUP3 ADD SWAP1 POP SWAP2 SWAP1 POP JUMP JUMPDEST PUSH1 0x0 PUSH1 0x20 DUP3 ADD SWAP1 POP DUP2 DUP2 SUB PUSH1 0x0 DUP4 ADD MSTORE PUSH2 0x7461 DUP2 PUSH2 0x7425 JUMP JUMPDEST SWAP1 POP SWAP2 SWAP1 POP JUMP JUMPDEST PUSH1 0x0 PUSH2 0x7473 DUP3 PUSH2 0x58CA JUMP JUMPDEST SWAP2 POP PUSH2 0x747E DUP4 PUSH2 0x58CA JUMP JUMPDEST SWAP3 POP DUP3 DUP3 SUB SWAP1 POP DUP2 DUP2 GT ISZERO PUSH2 0x7496 JUMPI PUSH2 0x7495 PUSH2 0x6454 JUMP JUMPDEST JUMPDEST SWAP3 SWAP2 POP POP JUMP JUMPDEST PUSH32 0x416464726573733A20696E73756666696369656E742062616C616E636520666F PUSH1 0x0 DUP3 ADD MSTORE PUSH32 0x722063616C6C0000000000000000000000000000000000000000000000000000 PUSH1 0x20 DUP3 ADD MSTORE POP JUMP JUMPDEST PUSH1 0x0 PUSH2 0x74F8 PUSH1 0x26 DUP4 PUSH2 0x6140 JUMP JUMPDEST SWAP2 POP PUSH2 0x7503 DUP3 PUSH2 0x749C JUMP JUMPDEST PUSH1 0x40 DUP3 ADD SWAP1 POP SWAP2 SWAP1 POP JUMP JUMPDEST PUSH1 0x0 PUSH1 0x20 DUP3 ADD SWAP1 POP DUP2 DUP2 SUB PUSH1 0x0 DUP4 ADD MSTORE PUSH2 0x7527 DUP2 PUSH2 0x74EB JUMP JUMPDEST SWAP1 POP SWAP2 SWAP1 POP JUMP JUMPDEST PUSH32 0x416464726573733A2063616C6C20746F206E6F6E2D636F6E7472616374000000 PUSH1 0x0 DUP3 ADD MSTORE POP JUMP JUMPDEST PUSH1 0x0 PUSH2 0x7564 PUSH1 0x1D DUP4 PUSH2 0x6140 JUMP JUMPDEST SWAP2 POP PUSH2 0x756F DUP3 PUSH2 0x752E JUMP JUMPDEST PUSH1 0x20 DUP3 ADD SWAP1 POP SWAP2 SWAP1 POP JUMP JUMPDEST PUSH1 0x0 PUSH1 0x20 DUP3 ADD SWAP1 POP DUP2 DUP2 SUB PUSH1 0x0 DUP4 ADD MSTORE PUSH2 0x7593 DUP2 PUSH2 0x7557 JUMP JUMPDEST SWAP1 POP SWAP2 SWAP1 POP JUMP JUMPDEST PUSH1 0x0 DUP2 MLOAD SWAP1 POP SWAP2 SWAP1 POP JUMP JUMPDEST PUSH1 0x0 DUP2 SWAP1 POP SWAP3 SWAP2 POP POP JUMP JUMPDEST PUSH1 0x0 JUMPDEST DUP4 DUP2 LT ISZERO PUSH2 0x75CE JUMPI DUP1 DUP3 ADD MLOAD DUP2 DUP5 ADD MSTORE PUSH1 0x20 DUP2 ADD SWAP1 POP PUSH2 0x75B3 JUMP JUMPDEST PUSH1 0x0 DUP5 DUP5 ADD MSTORE POP POP POP POP JUMP JUMPDEST PUSH1 0x0 PUSH2 0x75E5 DUP3 PUSH2 0x759A JUMP JUMPDEST PUSH2 0x75EF DUP2 DUP6 PUSH2 0x75A5 JUMP JUMPDEST SWAP4 POP PUSH2 0x75FF DUP2 DUP6 PUSH1 0x20 DUP7 ADD PUSH2 0x75B0 JUMP JUMPDEST DUP1 DUP5 ADD SWAP2 POP POP SWAP3 SWAP2 POP POP JUMP JUMPDEST PUSH1 0x0 PUSH2 0x7617 DUP3 DUP5 PUSH2 0x75DA JUMP JUMPDEST SWAP2 POP DUP2 SWAP1 POP SWAP3 SWAP2 POP POP JUMP JUMPDEST PUSH1 0x0 DUP2 MLOAD SWAP1 POP SWAP2 SWAP1 POP JUMP JUMPDEST PUSH1 0x0 PUSH2 0x7638 DUP3 PUSH2 0x7622 JUMP JUMPDEST PUSH2 0x7642 DUP2 DUP6 PUSH2 0x6140 JUMP JUMPDEST SWAP4 POP PUSH2 0x7652 DUP2 DUP6 PUSH1 0x20 DUP7 ADD PUSH2 0x75B0 JUMP JUMPDEST PUSH2 0x765B DUP2 PUSH2 0x6D6C JUMP JUMPDEST DUP5 ADD SWAP2 POP POP SWAP3 SWAP2 POP POP JUMP JUMPDEST PUSH1 0x0 PUSH1 0x20 DUP3 ADD SWAP1 POP DUP2 DUP2 SUB PUSH1 0x0 DUP4 ADD MSTORE PUSH2 0x7680 DUP2 DUP5 PUSH2 0x762D JUMP JUMPDEST SWAP1 POP SWAP3 SWAP2 POP POP JUMP INVALID LOG2 PUSH5 0x6970667358 0x22 SLT KECCAK256 DUP6 0xA9 0xDC 0xC6 0xC3 0xF SUB 0xB9 0xA7 PUSH15 0xA71D6543CF4B0EA40A6B7B42F88316 SSTORE 0x5E DUP8 DUP8 MOD 0x5C SWAP12 PUSH5 0x736F6C6343 STOP ADDMOD SGT STOP CALLER "
		},
		"gasEstimates": {
			"creation": {
				"codeDepositCost": "6079600",
				"executionCost": "infinite",
				"totalCost": "infinite"
			},
			"external": {
				"balanceOfUserToken0(address,address)": "infinite",
				"balanceOfUserToken1(address,address)": "infinite",
				"balanceOfUserTokens(address,address)": "infinite",
				"borrow(address,int256,uint256,address)": "infinite",
				"createPool(address,address)": "infinite",
				"defaultInterestRate()": "2582",
				"distributorAddress()": "2581",
				"flashLoan(address,address,int256,bytes)": "infinite",
				"getFlashLoanFeesInBips()": "infinite",
				"getOraclePrice(address,address,uint256)": "infinite",
				"getPool(address,address)": "infinite",
				"getPoolAvailableLiquidity(address)": "infinite",
				"getPoolByTokens(address,address)": "infinite",
				"getPoolLTV(address)": "infinite",
				"getPoolTokens(address)": "infinite",
				"getUserHealthFactor(address,address)": "infinite",
				"governor()": "2583",
				"lend(address,int256)": "infinite",
				"liquidate(address,address,int256,address,bool)": "infinite",
				"liquidateMulti(address,uint256[],int256[],address,bool)": "infinite",
				"oracleAddress()": "2603",
				"poolLength()": "2476",
				"poolMasterAddress()": "2581",
				"positionsAddress()": "2558",
				"redeem(address,int256,address)": "infinite",
				"redeemUnderlying(address,int256,address)": "infinite",
				"repay(address,int256,address)": "infinite",
				"setDefaultInterestRateAddress(address)": "28156",
				"setDefaultMarketConfig(uint8,uint8,uint8)": "infinite",
				"setDistributorAddress(address)": "27039",
				"setFlashLoanFeesInBips(uint256,uint256)": "infinite",
				"setGovernor(address)": "28176",
				"setOracleAddress(address)": "28134",
				"setPoolInterestRateAddress(address,address)": "infinite",
				"setPoolLB(address,uint8)": "infinite",
				"setPoolLTV(address,uint8)": "infinite",
				"setPoolRF(address,uint8)": "infinite",
				"setPositionAddress(address)": "30305",
				"shareOfUserToken0(address,address)": "infinite",
				"shareOfUserToken1(address,address)": "infinite",
				"shareOfUserTokens(address,address)": "infinite"
			},
			"internal": {
				"iLend(address,address,int256,uint256)": "infinite",
				"transferFlashLoanProtocolFeeInternal(address,address,uint256)": "infinite"
			}
		},
		"methodIdentifiers": {
			"balanceOfUserToken0(address,address)": "651791ae",
			"balanceOfUserToken1(address,address)": "8dabcaf3",
			"balanceOfUserTokens(address,address)": "5c7c6718",
			"borrow(address,int256,uint256,address)": "8dee9460",
			"createPool(address,address)": "e3433615",
			"defaultInterestRate()": "86c1c74d",
			"distributorAddress()": "a51af4c5",
			"flashLoan(address,address,int256,bytes)": "9747d94f",
			"getFlashLoanFeesInBips()": "586feb40",
			"getOraclePrice(address,address,uint256)": "94a76cbb",
			"getPool(address,address)": "531aa03e",
			"getPoolAvailableLiquidity(address)": "c3d3cb8e",
			"getPoolByTokens(address,address)": "1030914e",
			"getPoolLTV(address)": "18fcb961",
			"getPoolTokens(address)": "ca4f2803",
			"getUserHealthFactor(address,address)": "92cbbd15",
			"governor()": "0c340a24",
			"lend(address,int256)": "abdb31e4",
			"liquidate(address,address,int256,address,bool)": "1668355d",
			"liquidateMulti(address,uint256[],int256[],address,bool)": "968224f5",
			"oracleAddress()": "a89ae4ba",
			"poolLength()": "081e3eda",
			"poolMasterAddress()": "8f484f37",
			"positionsAddress()": "b3716d49",
			"redeem(address,int256,address)": "5833cdf9",
			"redeemUnderlying(address,int256,address)": "e96466d0",
			"repay(address,int256,address)": "82626547",
			"setDefaultInterestRateAddress(address)": "2816d440",
			"setDefaultMarketConfig(uint8,uint8,uint8)": "2f52b02a",
			"setDistributorAddress(address)": "87950f49",
			"setFlashLoanFeesInBips(uint256,uint256)": "ad1b188b",
			"setGovernor(address)": "c42cf535",
			"setOracleAddress(address)": "4c69c00f",
			"setPoolInterestRateAddress(address,address)": "6f44a6ad",
			"setPoolLB(address,uint8)": "29317a22",
			"setPoolLTV(address,uint8)": "627c1a9a",
			"setPoolRF(address,uint8)": "5585fff1",
			"setPositionAddress(address)": "199a692f",
			"shareOfUserToken0(address,address)": "67861dc1",
			"shareOfUserToken1(address,address)": "37ef51eb",
			"shareOfUserTokens(address,address)": "878fa60a"
		}
	},
	"abi": [
		{
			"inputs": [
				{
					"internalType": "address",
					"name": "_poolMasterAddress",
					"type": "address"
				}
			],
			"stateMutability": "nonpayable",
			"type": "constructor"
		},
		{
			"anonymous": false,
			"inputs": [
				{
					"indexed": true,
					"internalType": "address",
					"name": "_target",
					"type": "address"
				},
				{
					"indexed": true,
					"internalType": "address",
					"name": "_reserve",
					"type": "address"
				},
				{
					"indexed": false,
					"internalType": "int256",
					"name": "_amount",
					"type": "int256"
				},
				{
					"indexed": false,
					"internalType": "uint256",
					"name": "_totalFee",
					"type": "uint256"
				},
				{
					"indexed": false,
					"internalType": "uint256",
					"name": "_protocolFee",
					"type": "uint256"
				},
				{
					"indexed": false,
					"internalType": "uint256",
					"name": "_timestamp",
					"type": "uint256"
				}
			],
			"name": "FlashLoan",
			"type": "event"
		},
		{
			"anonymous": false,
			"inputs": [
				{
					"indexed": true,
					"internalType": "address",
					"name": "_address",
					"type": "address"
				}
			],
			"name": "NewDefaultInterestRateAddress",
			"type": "event"
		},
		{
			"anonymous": false,
			"inputs": [
				{
					"indexed": false,
					"internalType": "uint8",
					"name": "_ltv",
					"type": "uint8"
				},
				{
					"indexed": false,
					"internalType": "uint8",
					"name": "_lb",
					"type": "uint8"
				},
				{
					"indexed": false,
					"internalType": "uint8",
					"name": "_rf",
					"type": "uint8"
				}
			],
			"name": "NewDefaultMarketConfig",
			"type": "event"
		},
		{
			"anonymous": false,
			"inputs": [
				{
					"indexed": true,
					"internalType": "address",
					"name": "_address",
					"type": "address"
				}
			],
			"name": "NewGovernorAddress",
			"type": "event"
		},
		{
			"anonymous": false,
			"inputs": [
				{
					"indexed": true,
					"internalType": "address",
					"name": "_address",
					"type": "address"
				}
			],
			"name": "NewOracleAddress",
			"type": "event"
		},
		{
			"anonymous": false,
			"inputs": [
				{
					"indexed": true,
					"internalType": "address",
					"name": "_address",
					"type": "address"
				}
			],
			"name": "NewPositionAddress",
			"type": "event"
		},
		{
			"anonymous": false,
			"inputs": [
				{
					"indexed": true,
					"internalType": "address",
					"name": "token0",
					"type": "address"
				},
				{
					"indexed": true,
					"internalType": "address",
					"name": "token1",
					"type": "address"
				},
				{
					"indexed": false,
					"internalType": "address",
					"name": "pool",
					"type": "address"
				},
				{
					"indexed": false,
					"internalType": "uint256",
					"name": "",
					"type": "uint256"
				}
			],
			"name": "PoolCreated",
			"type": "event"
		},
		{
			"inputs": [
				{
					"internalType": "address",
					"name": "_pool",
					"type": "address"
				},
				{
					"internalType": "address",
					"name": "_address",
					"type": "address"
				}
			],
			"name": "balanceOfUserToken0",
			"outputs": [
				{
					"internalType": "uint256",
					"name": "_lendBalance0",
					"type": "uint256"
				},
				{
					"internalType": "uint256",
					"name": "_borrowBalance0",
					"type": "uint256"
				}
			],
			"stateMutability": "view",
			"type": "function"
		},
		{
			"inputs": [
				{
					"internalType": "address",
					"name": "_pool",
					"type": "address"
				},
				{
					"internalType": "address",
					"name": "_address",
					"type": "address"
				}
			],
			"name": "balanceOfUserToken1",
			"outputs": [
				{
					"internalType": "uint256",
					"name": "_lendBalance1",
					"type": "uint256"
				},
				{
					"internalType": "uint256",
					"name": "_borrowBalance1",
					"type": "uint256"
				}
			],
			"stateMutability": "view",
			"type": "function"
		},
		{
			"inputs": [
				{
					"internalType": "address",
					"name": "_pool",
					"type": "address"
				},
				{
					"internalType": "address",
					"name": "_address",
					"type": "address"
				}
			],
			"name": "balanceOfUserTokens",
			"outputs": [
				{
					"internalType": "uint256",
					"name": "_lendBalance0",
					"type": "uint256"
				},
				{
					"internalType": "uint256",
					"name": "_borrowBalance0",
					"type": "uint256"
				},
				{
					"internalType": "uint256",
					"name": "_lendBalance1",
					"type": "uint256"
				},
				{
					"internalType": "uint256",
					"name": "_borrowBalance1",
					"type": "uint256"
				}
			],
			"stateMutability": "view",
			"type": "function"
		},
		{
			"inputs": [
				{
					"internalType": "address",
					"name": "_pool",
					"type": "address"
				},
				{
					"internalType": "int256",
					"name": "_amount",
					"type": "int256"
				},
				{
					"internalType": "uint256",
					"name": "_collateral_amount",
					"type": "uint256"
				},
				{
					"internalType": "address payable",
					"name": "_recipient",
					"type": "address"
				}
			],
			"name": "borrow",
			"outputs": [],
			"stateMutability": "nonpayable",
			"type": "function"
		},
		{
			"inputs": [
				{
					"internalType": "address",
					"name": "_tokenA",
					"type": "address"
				},
				{
					"internalType": "address",
					"name": "_tokenB",
					"type": "address"
				}
			],
			"name": "createPool",
			"outputs": [
				{
					"internalType": "address",
					"name": "",
					"type": "address"
				}
			],
			"stateMutability": "nonpayable",
			"type": "function"
		},
		{
			"inputs": [],
			"name": "defaultInterestRate",
			"outputs": [
				{
					"internalType": "address",
					"name": "",
					"type": "address"
				}
			],
			"stateMutability": "view",
			"type": "function"
		},
		{
			"inputs": [],
			"name": "distributorAddress",
			"outputs": [
				{
					"internalType": "address payable",
					"name": "",
					"type": "address"
				}
			],
			"stateMutability": "view",
			"type": "function"
		},
		{
			"inputs": [
				{
					"internalType": "address",
					"name": "_receiver",
					"type": "address"
				},
				{
					"internalType": "address",
					"name": "_pool",
					"type": "address"
				},
				{
					"internalType": "int256",
					"name": "_amount",
					"type": "int256"
				},
				{
					"internalType": "bytes",
					"name": "_params",
					"type": "bytes"
				}
			],
			"name": "flashLoan",
			"outputs": [],
			"stateMutability": "nonpayable",
			"type": "function"
		},
		{
			"inputs": [],
			"name": "getFlashLoanFeesInBips",
			"outputs": [
				{
					"internalType": "uint256",
					"name": "",
					"type": "uint256"
				},
				{
					"internalType": "uint256",
					"name": "",
					"type": "uint256"
				}
			],
			"stateMutability": "view",
			"type": "function"
		},
		{
			"inputs": [
				{
					"internalType": "address",
					"name": "_token0",
					"type": "address"
				},
				{
					"internalType": "address",
					"name": "_token1",
					"type": "address"
				},
				{
					"internalType": "uint256",
					"name": "_amount",
					"type": "uint256"
				}
			],
			"name": "getOraclePrice",
			"outputs": [
				{
					"internalType": "uint256",
					"name": "",
					"type": "uint256"
				}
			],
			"stateMutability": "view",
			"type": "function"
		},
		{
			"inputs": [
				{
					"internalType": "address",
					"name": "",
					"type": "address"
				},
				{
					"internalType": "address",
					"name": "",
					"type": "address"
				}
			],
			"name": "getPool",
			"outputs": [
				{
					"internalType": "address",
					"name": "",
					"type": "address"
				}
			],
			"stateMutability": "view",
			"type": "function"
		},
		{
			"inputs": [
				{
					"internalType": "address",
					"name": "_pool",
					"type": "address"
				}
			],
			"name": "getPoolAvailableLiquidity",
			"outputs": [
				{
					"internalType": "uint256",
					"name": "_token0Liquidity",
					"type": "uint256"
				},
				{
					"internalType": "uint256",
					"name": "_token1Liquidity",
					"type": "uint256"
				}
			],
			"stateMutability": "view",
			"type": "function"
		},
		{
			"inputs": [
				{
					"internalType": "address",
					"name": "_token0",
					"type": "address"
				},
				{
					"internalType": "address",
					"name": "_token1",
					"type": "address"
				}
			],
			"name": "getPoolByTokens",
			"outputs": [
				{
					"internalType": "address",
					"name": "",
					"type": "address"
				}
			],
			"stateMutability": "view",
			"type": "function"
		},
		{
			"inputs": [
				{
					"internalType": "address",
					"name": "_pool",
					"type": "address"
				}
			],
			"name": "getPoolLTV",
			"outputs": [
				{
					"internalType": "uint256",
					"name": "_ltv",
					"type": "uint256"
				}
			],
			"stateMutability": "view",
			"type": "function"
		},
		{
			"inputs": [
				{
					"internalType": "address",
					"name": "_pool",
					"type": "address"
				}
			],
			"name": "getPoolTokens",
			"outputs": [
				{
					"internalType": "address",
					"name": "",
					"type": "address"
				},
				{
					"internalType": "address",
					"name": "",
					"type": "address"
				}
			],
			"stateMutability": "view",
			"type": "function"
		},
		{
			"inputs": [
				{
					"internalType": "address",
					"name": "_pool",
					"type": "address"
				},
				{
					"internalType": "address",
					"name": "_address",
					"type": "address"
				}
			],
			"name": "getUserHealthFactor",
			"outputs": [
				{
					"internalType": "uint256",
					"name": "_healthFactor0",
					"type": "uint256"
				},
				{
					"internalType": "uint256",
					"name": "_healthFactor1",
					"type": "uint256"
				}
			],
			"stateMutability": "view",
			"type": "function"
		},
		{
			"inputs": [],
			"name": "governor",
			"outputs": [
				{
					"internalType": "address",
					"name": "",
					"type": "address"
				}
			],
			"stateMutability": "view",
			"type": "function"
		},
		{
			"inputs": [
				{
					"internalType": "address",
					"name": "_pool",
					"type": "address"
				},
				{
					"internalType": "int256",
					"name": "_amount",
					"type": "int256"
				}
			],
			"name": "lend",
			"outputs": [
				{
					"internalType": "uint256",
					"name": "mintedTokens",
					"type": "uint256"
				}
			],
			"stateMutability": "nonpayable",
			"type": "function"
		},
		{
			"inputs": [
				{
					"internalType": "address",
					"name": "_pool",
					"type": "address"
				},
				{
					"internalType": "address",
					"name": "_for",
					"type": "address"
				},
				{
					"internalType": "int256",
					"name": "_amount",
					"type": "int256"
				},
				{
					"internalType": "address",
					"name": "_receiver",
					"type": "address"
				},
				{
					"internalType": "bool",
					"name": "uPosition",
					"type": "bool"
				}
			],
			"name": "liquidate",
			"outputs": [
				{
					"internalType": "int256",
					"name": "payAmount",
					"type": "int256"
				}
			],
			"stateMutability": "nonpayable",
			"type": "function"
		},
		{
			"inputs": [
				{
					"internalType": "address",
					"name": "_pool",
					"type": "address"
				},
				{
					"internalType": "uint256[]",
					"name": "_nftIDs",
					"type": "uint256[]"
				},
				{
					"internalType": "int256[]",
					"name": "_amounts",
					"type": "int256[]"
				},
				{
					"internalType": "address",
					"name": "_receiver",
					"type": "address"
				},
				{
					"internalType": "bool",
					"name": "uPosition",
					"type": "bool"
				}
			],
			"name": "liquidateMulti",
			"outputs": [
				{
					"internalType": "int256",
					"name": "payAmount",
					"type": "int256"
				}
			],
			"stateMutability": "nonpayable",
			"type": "function"
		},
		{
			"inputs": [],
			"name": "oracleAddress",
			"outputs": [
				{
					"internalType": "address",
					"name": "",
					"type": "address"
				}
			],
			"stateMutability": "view",
			"type": "function"
		},
		{
			"inputs": [],
			"name": "poolLength",
			"outputs": [
				{
					"internalType": "uint256",
					"name": "",
					"type": "uint256"
				}
			],
			"stateMutability": "view",
			"type": "function"
		},
		{
			"inputs": [],
			"name": "poolMasterAddress",
			"outputs": [
				{
					"internalType": "address",
					"name": "",
					"type": "address"
				}
			],
			"stateMutability": "view",
			"type": "function"
		},
		{
			"inputs": [],
			"name": "positionsAddress",
			"outputs": [
				{
					"internalType": "address",
					"name": "",
					"type": "address"
				}
			],
			"stateMutability": "view",
			"type": "function"
		},
		{
			"inputs": [
				{
					"internalType": "address",
					"name": "_pool",
					"type": "address"
				},
				{
					"internalType": "int256",
					"name": "_token_amount",
					"type": "int256"
				},
				{
					"internalType": "address",
					"name": "_receiver",
					"type": "address"
				}
			],
			"name": "redeem",
			"outputs": [
				{
					"internalType": "int256",
					"name": "redeemTokens",
					"type": "int256"
				}
			],
			"stateMutability": "nonpayable",
			"type": "function"
		},
		{
			"inputs": [
				{
					"internalType": "address",
					"name": "_pool",
					"type": "address"
				},
				{
					"internalType": "int256",
					"name": "_amount",
					"type": "int256"
				},
				{
					"internalType": "address",
					"name": "_receiver",
					"type": "address"
				}
			],
			"name": "redeemUnderlying",
			"outputs": [
				{
					"internalType": "int256",
					"name": "_token_amount",
					"type": "int256"
				}
			],
			"stateMutability": "nonpayable",
			"type": "function"
		},
		{
			"inputs": [
				{
					"internalType": "address",
					"name": "_pool",
					"type": "address"
				},
				{
					"internalType": "int256",
					"name": "_amount",
					"type": "int256"
				},
				{
					"internalType": "address",
					"name": "_for",
					"type": "address"
				}
			],
			"name": "repay",
			"outputs": [
				{
					"internalType": "int256",
					"name": "_retAmount",
					"type": "int256"
				}
			],
			"stateMutability": "nonpayable",
			"type": "function"
		},
		{
			"inputs": [
				{
					"internalType": "address",
					"name": "_address",
					"type": "address"
				}
			],
			"name": "setDefaultInterestRateAddress",
			"outputs": [],
			"stateMutability": "nonpayable",
			"type": "function"
		},
		{
			"inputs": [
				{
					"internalType": "uint8",
					"name": "_ltv",
					"type": "uint8"
				},
				{
					"internalType": "uint8",
					"name": "_lb",
					"type": "uint8"
				},
				{
					"internalType": "uint8",
					"name": "_rf",
					"type": "uint8"
				}
			],
			"name": "setDefaultMarketConfig",
			"outputs": [],
			"stateMutability": "nonpayable",
			"type": "function"
		},
		{
			"inputs": [
				{
					"internalType": "address payable",
					"name": "_address",
					"type": "address"
				}
			],
			"name": "setDistributorAddress",
			"outputs": [],
			"stateMutability": "nonpayable",
			"type": "function"
		},
		{
			"inputs": [
				{
					"internalType": "uint256",
					"name": "_newFeeTotal",
					"type": "uint256"
				},
				{
					"internalType": "uint256",
					"name": "_newFeeProtocol",
					"type": "uint256"
				}
			],
			"name": "setFlashLoanFeesInBips",
			"outputs": [
				{
					"internalType": "bool",
					"name": "",
					"type": "bool"
				}
			],
			"stateMutability": "nonpayable",
			"type": "function"
		},
		{
			"inputs": [
				{
					"internalType": "address",
					"name": "_address",
					"type": "address"
				}
			],
			"name": "setGovernor",
			"outputs": [],
			"stateMutability": "nonpayable",
			"type": "function"
		},
		{
			"inputs": [
				{
					"internalType": "address",
					"name": "_address",
					"type": "address"
				}
			],
			"name": "setOracleAddress",
			"outputs": [],
			"stateMutability": "nonpayable",
			"type": "function"
		},
		{
			"inputs": [
				{
					"internalType": "address",
					"name": "_pool",
					"type": "address"
				},
				{
					"internalType": "address",
					"name": "_address",
					"type": "address"
				}
			],
			"name": "setPoolInterestRateAddress",
			"outputs": [],
			"stateMutability": "nonpayable",
			"type": "function"
		},
		{
			"inputs": [
				{
					"internalType": "address",
					"name": "_pool",
					"type": "address"
				},
				{
					"internalType": "uint8",
					"name": "_number",
					"type": "uint8"
				}
			],
			"name": "setPoolLB",
			"outputs": [],
			"stateMutability": "nonpayable",
			"type": "function"
		},
		{
			"inputs": [
				{
					"internalType": "address",
					"name": "_pool",
					"type": "address"
				},
				{
					"internalType": "uint8",
					"name": "_number",
					"type": "uint8"
				}
			],
			"name": "setPoolLTV",
			"outputs": [],
			"stateMutability": "nonpayable",
			"type": "function"
		},
		{
			"inputs": [
				{
					"internalType": "address",
					"name": "_pool",
					"type": "address"
				},
				{
					"internalType": "uint8",
					"name": "_number",
					"type": "uint8"
				}
			],
			"name": "setPoolRF",
			"outputs": [],
			"stateMutability": "nonpayable",
			"type": "function"
		},
		{
			"inputs": [
				{
					"internalType": "address",
					"name": "_address",
					"type": "address"
				}
			],
			"name": "setPositionAddress",
			"outputs": [],
			"stateMutability": "nonpayable",
			"type": "function"
		},
		{
			"inputs": [
				{
					"internalType": "address",
					"name": "_pool",
					"type": "address"
				},
				{
					"internalType": "address",
					"name": "_address",
					"type": "address"
				}
			],
			"name": "shareOfUserToken0",
			"outputs": [
				{
					"internalType": "uint256",
					"name": "_lendShare0",
					"type": "uint256"
				},
				{
					"internalType": "uint256",
					"name": "_borrowShare0",
					"type": "uint256"
				}
			],
			"stateMutability": "view",
			"type": "function"
		},
		{
			"inputs": [
				{
					"internalType": "address",
					"name": "_pool",
					"type": "address"
				},
				{
					"internalType": "address",
					"name": "_address",
					"type": "address"
				}
			],
			"name": "shareOfUserToken1",
			"outputs": [
				{
					"internalType": "uint256",
					"name": "_lendShare1",
					"type": "uint256"
				},
				{
					"internalType": "uint256",
					"name": "_borrowShare1",
					"type": "uint256"
				}
			],
			"stateMutability": "view",
			"type": "function"
		},
		{
			"inputs": [
				{
					"internalType": "address",
					"name": "_pool",
					"type": "address"
				},
				{
					"internalType": "address",
					"name": "_address",
					"type": "address"
				}
			],
			"name": "shareOfUserTokens",
			"outputs": [
				{
					"internalType": "uint256",
					"name": "_lendShare0",
					"type": "uint256"
				},
				{
					"internalType": "uint256",
					"name": "_borrowShare0",
					"type": "uint256"
				},
				{
					"internalType": "uint256",
					"name": "_lendShare1",
					"type": "uint256"
				},
				{
					"internalType": "uint256",
					"name": "_borrowShare1",
					"type": "uint256"
				}
			],
			"stateMutability": "view",
			"type": "function"
		},
		{
			"stateMutability": "payable",
			"type": "receive"
		}
	]
}